:020000040800F2
:10000000082D002001010008EB0D0008F50800088C
:10001000E90D0008D902000845480008000000006A
:10002000000000000000000000000000793000081F
:100030000F05000800000000ED0D0008C1330008A6
:100040001B0100081B0100081B0100081B01000820
:100050001B0100081B0100081B0100081B01000810
:100060001B0100081B0100081B010008A703000872
:10007000B7030008F10300081F0400082F0400085C
:100080003F0400084F0400081B0100081B01000882
:10009000E93C00081B0100081B0100081B010008C7
:1000A0001B0100081B0100081B0100081B010008C0
:1000B0001B0100081B0100081B0100081B010008B0
:1000C0001B0100081B0100081B010008572900083C
:1000D0001B0100081B0100081B0100081B01000890
:1000E0001B0100081B0100081B010008DFF80CD0F1
:1000F00000F084F80048004729520008082D00202D
:100100000648804706480047FEE7FEE7FEE7FEE7B1
:10011000FEE7FEE7FEE7FEE7FEE7FEE7D133000875
:10012000ED000008CAB2401E10F8011F8A4202D03A
:100130000029F9D100207047421C10F8011B00294A
:10014000FBD1801A704730B504460020034600E01A
:100150005B1C934203D2E05CCD5C401BF8D030BD09
:100160000022CBB20178994200D10246401C0029FE
:10017000F8D1104670472DE9F05F05460020924601
:100180009B4688460646814640241BE02846414659
:100190004746224600F053F853465A46C01A91414A
:1001A00010D311461846224600F03AF82D1A67EB94
:1001B00001084F4622460120002100F031F817EBDC
:1001C00000094E41201EA4F10104DFDC48463146FF
:1001D0002A464346BDE8F09F40EA01039B0703D04F
:1001E00009E008C9121F08C0042AFAD203E011F876
:1001F000013B00F8013B521EF9D27047064C074DF7
:1002000006E0E06840F0010394E8070098471034E6
:10021000AC42F6D3FFF76EFF58B5000878B500087A
:10022000202A04DB203A00FA02F1002070479140B6
:10023000C2F1200320FA03F3194390407047202AAB
:1002400004DB203A21FA02F00021704721FA02F380
:10025000D040C2F120029140084319467047D2B203
:1002600001E000F8012B491EFBD270470022F6E79F
:1002700010B513460A4604461946FFF7F0FF20461C
:1002800010BD70B58C1810F8015B15F0070301D193
:1002900010F8013B2A1106D110F8012B03E010F8E9
:1002A000016B01F8016B5B1EF9D12B0705D400230C
:1002B000521E0DD401F8013BFAE710F8013BCB1AAE
:1002C000921C03E013F8015B01F8015B521EF9D5A3
:1002D000A142D8D3002070BDFEE700002DE9F04F09
:1002E00082B0002900925AD043F2000B41F2140868
:1002F00048F22034C4F2020BC4F202084FF0010E9F
:10030000CEF6B8544FF00009009BD8F80050A1EB8E
:10031000090A45F04005C8F80050D8F80050BAF571
:10032000807F05F0400528BF4FF4807A01950022B8
:10033000019DB2EB9A0F0746CBF808E000BF00BF63
:1003400000BF0DD04FEA9A05074600BF57F8046B6F
:10035000013D86EA030696FAA6F6CBF80060F5D1D1
:100360001AF00303DBF8005095FAA5F211D000BF94
:100370003E787240082600BF84EA52055FEAC27CDC
:1003800008BF5508013E2A46F6D1013B07F1010797
:10039000EED1D144D243894550440092B4D3009861
:1003A00002B0BDE8F08F0020C4F20200016801F045
:1003B0000F01416070470020C4F20200016801F0A3
:1003C000F0014160C16921F00101C161026A41F29D
:1003D000B450C2F20000016812B101B170470021AF
:1003E000C16041F2A850C2F20000002101707047C4
:1003F0000020C4F20200016801F470614160016BE9
:1004000021F001010163426B41F2B450C2F20000DD
:10041000016812B101B170470021016170470020ED
:10042000C4F20200016801F470414160704700208D
:10043000C4F20200016801F470214160704700209D
:10044000C4F20200016801F47001416070470020AD
:10045000C4F20200016801F0706141607047000061
:10046000012818BF704741F21400C4F2020002686C
:1004700042F001034A1E062A03603ED80420C4F25B
:100480000200DFE802F0040A10171E252C000022EB
:1004900042604FF400620F2327E0002282614FF494
:1004A0008052F02321E00022C2624FF400524FF448
:1004B00070631AE0002202644FF480424FF47043EC
:1004C00013E0002242654FF400424FF470230CE029
:1004D000002282664FF480324FF4700305E0002260
:1004E000C2674FF400324FF0706303604EF20010A9
:1004F000CEF20000C0F88021026041F21452C2F234
:10050000000201201378884018431070704770472C
:100510002DE9F04F82B040F2004E41F200424FF61A
:10052000FF77C4F2010EC4F20102042300244FF04D
:10053000010CC1F210074FF00F0B4FF0000A4FF003
:100540000009904208BF0323009300BF0A680CFA19
:100550000AF812EA080F00F0D0804E68BE4209DCAB
:10056000032E35D8DFE806F029023F43D1F80C907E
:1005700044E000BF4FF6FF72C1F2210296420DDC4B
:100580000022C1F21102964217D00022C1F21202DB
:10059000964212D00022C1F221020CE00022C1F2E8
:1005A0002202964209D00022C1F23102964204D0C2
:1005B0000022C1F23202964220D18A6882B1012A19
:1005C00014BFC0F81480C0F810804FF0080915E07F
:1005D000112E0FD0122E11D1CA6802F10C090DE0B4
:1005E0004FF004090AE0CA6802F1080906E04FF07A
:1005F000000903E0CA6802F1040900BF224603466D
:10060000BAF1080F24BF203A04331D680BFA02F632
:10061000B54309FA02F22A431A60CA79D2066CD5A8
:1006200041F21803C4F202031A684FEA9A0C42F02E
:1006300001021A601A6804F00C0702F0010201922C
:10064000019AAEF57E7252F82C3040F600060BFA95
:1006500007F5C4F20106B04223EA050510D040F6C2
:100660000043C4F20103984208D041F20003C4F2EF
:1006700001039842009B08BF022302E0012300E02F
:100680000023BB402B4342F82C30D1F804B04FF686
:10069000FF775FEACB32DEF8002054BF22EA08027F
:1006A00042EA0802CEF80020DEF804205FEA8B332D
:1006B00054BF22EA080242EA0802CEF804205FEAA8
:1006C000CB23DEF8082054BF22EA080242EA0802DF
:1006D0005FEA8B2340F20C43CEF80820C4F20103FA
:1006E0004FF0010C1A68C1F210074FF00F0B54BF06
:1006F00022EA080242EA08021A600AF1010ABAF183
:10070000100F04F104047FF421AF02B0BDE8F08FB4
:1007100041F22840C2F20000006844F6D351C1F211
:100720006201A0FB01014FF0FF3000EB91110020AE
:10073000B0EB116F18BF70474EF21002CEF20002FC
:1007400051604EF60C51CEF20001F023CB75072319
:10075000906013600A68C8757047B0B5014641F6ED
:100760009040C2F20000D0F85C4461B1D4F81402A9
:100770004269002A69D094F8FC01032865D120461B
:10078000BDE8B0401047D4F8F421022A56D1D4E98C
:100790000732934217D900EB4110991AD4F820225E
:1007A000C06B02F13C0CE16189B200238CE80B00C4
:1007B0004FF480731068114621F8283F03F0E4F9E4
:1007C000D4F820122CE0A06990421AD3B0FBF2F1C9
:1007D00001FB1201A9B9D4F8F811884211D2D4F85A
:1007E00020120025C1E90F554FF4807208684D644E
:1007F00021F8282F03F0C8F9D4F82012C4F8F851D2
:100800000EE0D4F81402C16829B194F8FC01032861
:1008100001D120468847D4F820120520C4F8F401FD
:100820000020C1E98F00C1F8440281F8290281F853
:100830002802086801F50A7103F0A6F994F800028D
:10084000012802D1002084F80002B0BD10B5014695
:1008500041F69040C2F20000D0F85C4459B1D4F89F
:10086000140282693AB394F8FC01032823D120468C
:10087000BDE810401047D4F8F421032A1BD1D4E975
:100880004332934218D900EB4110991AD0F83C0238
:10089000C4F80C11914238BF0A46D4F8203292B203
:1008A000C3E98F020024186803F50A71C3F84442B3
:1008B000A3F8284219E010BDD4F81402016929B147
:1008C00094F8FC01032801D120468847D4F820225F
:1008D00004200023C4F8F401C2E90F334FF48074FC
:1008E0001068114621F8284F5364BDE8104003F00A
:1008F0004BB90000FEE7B0B5D0F81852044695F8A1
:100900001802D8B12046812102F0F9FF687A022846
:1009100018BFB0BDD4F8202205F5037002F5177C8E
:100920001F2300258CE829001068012302F51271AD
:10093000A2F84832BDE8B04003F026B9D5F8140259
:100940000028DFD0687A0028DCD12046012102F09F
:10095000D6FFD7E710B5D0F81842627A022A05D13F
:10096000812102F0CCFF0020607210BD49B2B1F1CC
:10097000FF3FFADC012A08BF10BD0121BDE810408D
:1009800000F0CCB810B50446D0F81802017ACA1E9F
:10099000022A02D2204600210EE0022910D190F84E
:1009A000191200F21B22204601F014FBB0F1FF3FA8
:1009B000C8BF10BD20460121BDE8104000F0AEB810
:1009C00010BDB0B5D0F818520446287A012839D0A5
:1009D000002841D1D4F82012D5F81002B1F86412E1
:1009E000D5F814221F29C5F83002C5F8342210D1D9
:1009F000D5F80C0245F25531C4F24231884208D193
:100A000095F81912012904D895F81A02013810280E
:100A100023D395F85D02052205EBC00181F83C2245
:100A20004FF400520130C1F84022C1B2043918BF5E
:100A3000014685F85D12022120466972BDE8B0408A
:100A4000FFF759BF95F8191205F21B22204601F055
:100A5000C1FAB0F1FF3F32DDB0BD05F21B222046E6
:100A600001F0B8FA297AB0F1FF3F26DD481E0328CD
:100A7000F2D3688958B3D4F8182205F10C01D4F8E0
:100A80002032D2F81452D2F83442854238BF284678
:100A9000251AC2F834520025042482F83852147200
:100AA000C3E9171040F201121868194621F8482FBF
:100AB0005D66BDE8B04003F067B8052905D1204662
:100AC0000121BDE8B04000F029B82046B6E7204635
:100AD0000021F6E770B50446D0E98660002535812F
:100AE000A6F85C52016800208847D4F820221F2312
:100AF00092F8280402F5177C012806F5037018BF48
:100B000082F828548CE829001068012302F512713C
:100B1000A2F84832BDE8704003F036B870B5D0F89E
:100B20001852D0F8202245F25533C5F2423304461C
:100B300005F50B70C5F82C32002602F15C0385F830
:100B400038122E720D2143C340F201131068114672
:100B500021F8483F03F018F8D4F8202205F5037077
:100B600002F5177C1F238CE849001068012302F569
:100B70001271A2F84832BDE8704003F005B8B0B574
:100B800041F66C24C2F20004D4F8140221794268C0
:100B90000125204684F8FC519047D4F8201291F8A2
:100BA0002804012806D1032081F82904086801F2ED
:100BB000294122E0086844F2FF2CB0F840200324C9
:100BC00002EA0C02A0F840200022A0F84050A0F851
:100BD0004420A0F8404081F8282481F82944B0F846
:100BE000403001F2294103EA0C03A0F84030A0F89C
:100BF0004050A0F84420A0F8404045F60042C4F21E
:100C0000000290420ED141F21C00C4F202000268C0
:100C100022F4000202604EF28010CEF200004FF487
:100C20008012026000200870B0BD000070B581B075
:100C300041F66C2CC2F2000CDCF8140210B100205A
:100C4000CCF8140241F20840C2F2000041F6904193
:100C500045F60046CCF8100201220023C2F2000142
:100C6000C4F20006082002244FF0030E8CF8FC2189
:100C70008CF80030C1F85CC4CCF82012C1E90060E7
:100C8000C1E9024EC1E906330B6291F8290490BB19
:100C900041F21C0081F82834C4F2020004684FF0CD
:100CA000FF3544F400040460006800F40000009084
:100CB00000984EF60C50CEF200000068C0F30220FF
:100CC00080F00704042C28BF0424033805FA04F438
:100CD0004FF00A0538BF184625EA040404FA00F06C
:100CE0004EF200140001CEF2000484F814034FF415
:100CF000801020600E6881F829E4B6F8400044F2C4
:100D0000FF242040A6F84000002000240D182030C9
:100D100085F82840AC86B0F5F07F04F1010485F831
:100D2000292085F82B30C5E90E332B64EED1002243
:100D3000002000230D18203085F82832AB86B0F54E
:100D4000F07F03F1010385F8292285F82B22C5E9FC
:100D50008E22C5F84022EDD101200022A6F84000E5
:100D6000A6F84020A6F84420A6F85020B6F8403057
:100D700043F43F43A6F8403081F8242081F8290449
:100D8000DCF820021821A0F82C12582180F832201B
:100D900080F832228185DCF82002982180F85220E8
:100DA000A0F84C10DCF82002D821A0F84C1241F237
:100DB0004441C2F20001CCF8141290F8281441F218
:100DC000E843C2F20003012980F85222CCF81C3219
:100DD00008D00168B1F8403043F43F43A1F84030F7
:100DE00080F8282401B070BDFEE77047704700000E
:100DF0002DE9F04FADF5337D894642F2041190465E
:100E0000C2F2000100220A6041F65021C2F2000144
:100E100016230B6041F6542141F64B26C2F2000125
:100E20004FF43057C2F2000634780F604FF6FE7769
:100E3000C0F27F07611E07EA400040F2080602295F
:100E400038BF5623C518C2F200064020B2EB154F3A
:100E500008BFA6F813504AF655217073012030746C
:100E6000A6F8FE1106F5017041F2FC113562FFF79C
:100E7000FDF94FF6F070C0F2FF0006F58057C6F896
:100E800000020FF6106138462022FFF7A5F9B8F1ED
:100E9000000F09D0B8F8040041F208017052D8F8E8
:100EA000000041F204017050032C02D0002C40F0ED
:100EB0005786C5F38F100228CDE90294049771D3A9
:100EC00040F2080040F2FF3EC2F200004CF2FF3850
:100ED000A909CFF6007E00F203204FF00F0ACFF6EB
:100EE0007F58002540F6FF790268EEB222EA090237
:100EF00042EA860287888BB20332022B026030D02E
:100F000006F1010B4FF6FF7402EA0E02274042EA97
:100F10008B32032B878002602FD018F1407B4FEA81
:100F200086066AF11F0C741D0BEA020B07EA0C021D
:100F300042EA14224BEA0467042B0760828028D01F
:100F4000B31D02EA0A0242EA0312043907EA08075B
:100F500082808AB207600135012A00F10600C3D8F9
:100F600020E002EA0E024FF6FF7142F470023940AF
:100F700042F47F228180026014E018F140716AF12E
:100F80001F03114007EA030242F00F0241F07F41C4
:100F900006E002EA0A024FF6F07307EA08011A4374
:100FA000016082804FF40D7006F0AEF941F6682BB7
:100FB000C2F2000B8246CBF8000043F63020C0F2AC
:100FC0002F000DF11409169048464121FFF74EF904
:100FD000DDF80C803C24B8F1030F08BF4024029DCB
:100FE0002846FFF7A9F80246A0424846294688BF8E
:100FF0002246FFF7F1F848462F21FFF793F840B15A
:101000005F2605AD067028462F21FFF78BF80028D4
:10101000F8D141F66420C2F20000006847F228418E
:10102000C0F600014FF6FF72CB68FF2B02D10B69AF
:10103000934204D051F8483F002BF5D1002188425B
:1010400018BF002803D1B8F1030F09D115E0B8F19A
:10105000030FF8D005A8FFF76FF8A04280F0A38037
:101060004846FFF769F846F22E22C6F6696209EB98
:10107000000149F800200020087116A8A1ADA19038
:10108000284604F04DF841F218540028C2F200043A
:101090000DD4206808B100210170BAF1000F1CBF07
:1010A00000208AF800000020C4F800A000E00B2017
:1010B00041F6492AC2F2000A8AF80000ADA8CDF82C
:1010C000B49204F02DF8002811D454F82080B8F11F
:1010D000000F33D098F8001099B3AD9CCDF88482FE
:1010E00020785C2818BF2F2804D10134F8E70B279B
:1010F00000F03CBC0020A3902178202969D28020F8
:101100008DF8AF02A1A8002103F002FF9DF8AF32D5
:10111000074658B2B0F1FF3F3846D8BF062039061F
:1011200008BF0746002F00F0F581042F40F0CA8366
:1011300013F0A00F00F0F6810627BFE30C2700F0A4
:1011400015BC002788F801004046002188F800708F
:1011500003F090FC022821D1A1AC0020214600BF61
:1011600008EB000292F8F6311030002B14BFD2F8D1
:10117000FA210022402841F8042BF1D1002600BFBB
:1011800054F8267037B14046394603F073FC022804
:1011900001D292E103200136042EF1D1042840F05F
:1011A0008A810127E2E305AD002700BF28465F21C1
:1011B000FEF7D6FF064628462921FEF7D1FF8642D4
:1011C00098BF461C28463770FEF7B6FFA042EDD206
:1011D00039E74BF28C1605F1200CC0F600066FF0D3
:1011E000FF054046C06804F1010499B300224BB2E8
:1011F000B3F1FF3F01DDCBB206E04BF25843C0F63E
:10120000000303EB41014B5B202B26D35C2B4FF0FB
:10121000000118BF2F2B24D07F2B0DD8374600BFDD
:1012200017F8011B09B18B42FAD13F2A4FF006078C
:1012300000F29C8319B199E33F2A00F23A8120F829
:10124000123014F8011B531C00291A46CFD1042177
:101250001A4606E00421002203E0042101E000BF59
:10126000013423785C2B18BF2F2BF9D0002A00F013
:101270001E81534200EB420232F8027C2E2F18BF2F
:10128000202F04D10133A2F10202F5D30FE1002790
:101290005E42178030F817300137202BFAD041F02A
:1012A00003022E2B08BF11467D1E831E012F18BF7F
:1012B000114600BF46B133F81670721E2E2F164627
:1012C000F8D102F1010E01E04FF0000E4FF0203294
:1012D000CCF80720CCF80020CCF804200822CDF868
:1012E00008C0AEF1010703924FF0010C4FF0000B64
:1012F0004FF0000A002200BF30F815602B46202E68
:1013000005F1010503D02E2E04D19F421BD041F0E0
:101310000301F1E7002E6DD0DDF80C90CA4562D2D2
:101320009F4260D0802E019236D300234BF2584268
:10133000C0F6000232F81320B2421FD00133802BD6
:10134000F4D1002626E001237546D20741F6492A4A
:1013500041F00302C2F2000A40F0A780002B08BF50
:10136000114675454AD80B224FEA8B0B03924FF07A
:10137000000C01224FF0080A7546BDE703F1800218
:101380001306D6B206D547F2743306F07F02C0F6D4
:1013900000039E5C41F0020156B14BF24003C0F6DF
:1013A000000300BF13F8012B0AB19642FAD11AB11B
:1013B00041F003015F260EE0A6F1410292B21A2A23
:1013C000A6F1610238BF4BF0020B92B2192A9CBF02
:1013D0004BF0010B203EA1AA524482F82060019AF2
:1013E0000AF1010A88E71646FA1AB2FA82F253099C
:1013F0003246AAE741F6492AC2F2000A9DF8A40241
:1014000041F00203E52804BF05208DF8A4025FEA3D
:10141000CC7018BF4FEA8B0B0BF003020BF00C00E3
:10142000032A08BF19460C28A1AD08BF1946880732
:1014300007D4102000EA0B100BF0040240EA42002F
:10144000014328468DF8AF1203F058FB9DF8AF32E8
:10145000002840F0378141F6682B5807C2F2000B94
:1014600000F13D819DF88A02C00640F13681A598C1
:1014700098F800206FF35F2008EB0001B1F84E00F0
:10148000032A06D134314A7D097D40EA026040EAF0
:101490000140A390A1982178DDF808C04BF28C168A
:1014A000C0F600066FF0FF059CE61146A6E7002196
:1014B000018006275AE201282AD8B8F83F00B0F583
:1014C000007F25D1B8F84A0008B9D8F8580098F834
:1014D0004430C8F81C00591E012988F8023017D87A
:1014E00098F84120511E1140B2FA82F618BF01212E
:1014F00076093143A8F80A200AD198F8456098F88F
:10150000461046EA01213607A8F8081000F0EC80E2
:101510000D272BE29DF88A0210F0110F00F0D48104
:10152000072723E2A19A0024D06800BF30F81410E6
:1015300001340029FAD1DDE9A9010392AE90BDF88A
:10154000AC02AF91ADF8C0029DF8AE02D9078DF89C
:10155000C20231D198074FF0010509D54EF64F412F
:1015600004F10B00C4F6C461A0FB010105EB910579
:10157000A19CA1A8002103F0CBFC0746C0B900261E
:101580000DF52179A799204604F062FA78B9A89858
:101590000078E52800D018B90136AE4201D1F9E053
:1015A00000264846012103F06EFB0028EAD00746DA
:1015B000042F08BF072781E141F22109CDE9013855
:1015C00005F1200840200126C0F201090DF5317B0C
:1015D0004FF0000A8DF8AF02AE99D068C8F800103D
:1015E000BDF8C012AF9AA8F808109DF8C212AC4618
:1015F00088F80A10052E3146C8F8042014D902884C
:1016000031468AB1102300BF02F001070D0447EAFA
:1016100041014FEA520248BF81EA0901013BF3D17F
:1016200030F8022F002AEDD1072006231A4601F0D8
:101630000F0303F13007392F88BF03F137070BF889
:1016400000700138BAEB111F4FEA1111A2F101032A
:10165000ECD17E210BF8001065464FF0000148B137
:1016600018F80130202B05D0013A01F10101F7D122
:10167000014600BF072805EB010301F101019ABFF4
:101680001BF8002001302022082983F82020F1D304
:10169000284603F033FA58B90136039A642E9BD1D9
:1016A00041F6682BDDF808800727C2F2000B05E140
:1016B00041F6682BDDF80880642EC2F2000B61D180
:1016C0000727FBE041F6682B07460428C2F2000B0F
:1016D0007FF41FAD58073FF52BAD052746E11806EF
:1016E000062101EAE0771DE5B8F847500DB9D8F8B2
:1016F0005450B8F84260002E3FF40AAF434303EB66
:1017000011143444A542FFF403AF2D1B9542FFF49E
:10171000FFAEB5FBF2F24FF6F67CC0F6FF7C4FF061
:10172000000962454FF6F67538BF4FF00309AA422B
:1017300040F6F67538BF4FF00209AA4238BF4FF0A5
:101740000109B9F1000F3FF4E3AE02323E44E5195E
:10175000B9F1030FC8F81820C8E90876C8F82C506A
:1017600040F03B8298F85E3098F85F60194341EA98
:10177000062100297FF4CCAE4546296E4346A96276
:1017800091003BE20746042840F09880019B8DF8C9
:10179000AF32DFE60398B5F1010A6FD0A598A1AC8E
:1017A000A0EB4A11204603F0B3FB41F6682B074635
:1017B0000028C2F2000B40F081804FF00009202089
:1017C0005FFA89F14A0842EAC111225C01302B28F4
:1017D00001EB0209F4D147F2F43B03984FF6FF7492
:1017E000C0F6000BA799054604F032F9002840F036
:1017F000F081A8980F22E968A0F80B205FFA8AF21E
:101800000D277A4300230D3A0027AC4680F80D904F
:1018100043831BF80350A7421ABF31F812700132FC
:101820004FF6FF77461947553D0A757003F10105DC
:101830001FB10C2B2B46ECD105E00C2B2B464FF6A1
:10184000FF77E6D101E0A74202D14AF0400106E06D
:1018500031F812100029514608BF4AF040010170CA
:1018600001208CF80300A1A8002103F00CFA002845
:1018700040F0AF810398BAF1010AB3D1A79904F0FF
:10188000E7F841F6682B0746C2F2000BB0B9A898FA
:101890002021FEF7EBFCA898A1A9203100228B5C47
:1018A000835401320B2AFAD19DF8AF02A89900F0B7
:1018B00018000873039901200027C87041F6492ACF
:1018C000C2F2000A002F51D1A89898F80010458B59
:1018D000032905D1417D027D45EA016141EA0245C6
:1018E0004BF2C031C5F66C01C0F80E102021C17258
:1018F0000021418398F80020032A08BF8182C1613A
:101900000120002D88F8030000F03B81012D2CD030
:10191000A19CA069A84228D9D8F8309020462F462B
:10192000394603F09BFB064601303FF43AAC002EEB
:1019300000F01C81012E18D020463946002204F008
:1019400029FB002840F04381D4E90510821E914212
:1019500005D222790131616142F001012171864293
:1019600080F00481A1983746DAE702274FF000089B
:10197000CDF85C809AF80000DBF8001038438AF854
:101980000000049834314FF40072FEF725FCB8F1E2
:10199000000F25D098F8000040F208060028C2F297
:1019A000000600F09F80BDF86000B8F806104446BD
:1019B000884218BF002440F095809DF86C004106D5
:1019C00014D498F80000002800F08C80BDF8600066
:1019D000B8F80610884240F085800025179582E00F
:1019E00040F208060925C2F200067CE0000610D588
:1019F00017A81E9A00F1280100200123012501F0FB
:101A000017FA00286FD19DF86C0000F07F008DF868
:101A10006C001F99204604F01BF80546002862D18F
:101A20002098179AC17A41F02001C1721999418317
:101A30001278032A03D10A0C090E027541751A990E
:101A4000C1614BF2C031C5F66C01C0F8161000211F
:101A500041820120E070204605F07CFA38B105464D
:101A60009DF86C0000F0BF008DF86C003BE0207822
:101A700003282BD12079012828D104F138004FF414
:101A8000FD71FEF7F3FB45F25220C4F2611044F8F9
:101A9000340F4AF65520A4F8FE0147F27220C6F230
:101AA0004110C4F8E40154E9090154F8142CC4F8B5
:101AB000E811C4F8EC01013200202146012344F86A
:101AC000042C002501F0B4F904F8305C9DF86C009A
:101AD000DDF85C8000F0BF00B8F1000F8DF86C00FD
:101AE0007FF46FAF09259AF8000028438AF80000B8
:101AF00016A8A190A1A803F013FB00280AD441F274
:101B00001852C2F20002106808B1002101700020D2
:101B1000106000E00B209AF800100143DBF8000091
:101B20008AF8001005F0C8FB9AF8000008B1FF2001
:101B300017E041F20C20304450F8141C10380029F2
:101B4000FAD041F66422C2F20002126801F50031B7
:101B5000002A1ABF52699202002240F8041C026057
:101B6000002040B20DF5337DBDE8F08F4046494678
:101B700003F06EFF0746681E002FC8F810007FF4C0
:101B8000F5AED8F83010A898CDE91F1098F80020CD
:101B9000418B032A05D1427D037D41EA026141EA7E
:101BA0000341C0690027CDE91910B8F806004FF4C9
:101BB0000071ADF860004820ADF86C0017A828301F
:101BC000CDF85C801E971C97FEF750FBD2E60746C7
:101BD000CCE641F6682B074667E500293FF498AC50
:101BE000F1184546B9F1020FC8F828100FBF51008F
:101BF00002EB420102F0010202EB510101F2FF117E
:101C0000B0EB512FFFF484AC4FF0FF30A846C5E98C
:101C100004008020B9F1030F287127D1B8F86400BF
:101C2000012823D1791C404603F012FFF0B9B8F81F
:101C300032024AF655220021904288F8041015D14C
:101C4000D8F8340045F25221C4F2611188420DD116
:101C5000D8F8180247F27221C6F24111884205D124
:101C6000D8F82002D8F81C12C8E9040141F2245027
:101C700088F80090C2F200000188A1AD0131018016
:101C800041F22650C2F20000A8F80610C8F80C0075
:101C9000FFF723BA5350492D50524F4720202008B8
:101CA000000000000000000000004853A84E0000A3
:101CB00000000000B0B582B041F2AC55C2F20005A0
:101CC0002978890702D44FF0FF3034E0044641F20E
:101CD000A850C2F20000007810B16FF001002AE0B5
:101CE00041F2B050C2F200000068FF21C0F21801BA
:101CF00008400121C0F208018842E4D140F61000FA
:101D0000C4F201004FF48011016015208DF8040029
:101D100001A8811C022200F0A7FF60B941F2B45073
:101D2000C2F20000C168022901D000BFFAE79DF8A5
:101D30000700207000202978890719D541F2A851A1
:101D4000C2F20001097899B941F2B051C2F2000122
:101D50000968FF22C0F2180211400122C0F20802F5
:101D6000914205D140F61001C4F2010110220A602F
:101D700002B0B0BD10B584B041F2AC54C2F2000460
:101D8000217889074FF000010391CDE901113AD57F
:101D900041F2A851C2F200010978A1BB41F2B05151
:101DA000C2F200010968FF22C0F2180211400122AC
:101DB000C0F20802914226D140F61001C4F201019E
:101DC0004FF480120A608DF8040001A8811D0622DC
:101DD00000F04AFFB8B941F2B450C2F2000000BFAF
:101DE000C168062901D000BFFAE742F2F2009DF86F
:101DF0000E10C2F200009DF80F20017042F2F400B4
:101E0000C2F2000002802078800719D541F2A85064
:101E1000C2F20000007898B941F2B050C2F200005E
:101E20000068FF21C0F2180108400121C0F208013A
:101E3000884205D140F61000C4F201001021016073
:101E400004B010BD10B582B041F2AC54C2F200042F
:101E5000227800219207019100913CD541F2A851CE
:101E6000C2F200010978B1BB41F2B051C2F20001E7
:101E70000968FF22C0F2180211400122C0F20802D4
:101E8000914228D140F61001C4F201014FF48012B2
:101E90000A608DF800006846011D042200F0E4FE8F
:101EA000C8B941F2B450C2F2000000BFC1680429B1
:101EB00001D000BFFAE79DF8050042F2F201BDF83B
:101EC0000620C2F20001087010BA42F2F401000CC0
:101ED000C2F2000108802078800719D541F2A8508D
:101EE000C2F20000007898B941F2B050C2F200008E
:101EF0000068FF21C0F2180108400121C0F208016A
:101F0000884205D140F61000C4F2010010210160A2
:101F100002B010BDB0B582B041F2AC55C2F20005BE
:101F20002A780C46910702D44FF0FF3033E041F29B
:101F3000A851C2F20001097811B16FF001002AE046
:101F400041F2B051C2F200010968FF22C0F218024A
:101F500011400122C0F208029142E5D140F6100181
:101F6000C4F201014FF480120A608DF8040001A848
:101F7000811C022200F078FE68B941F2B450C2F22E
:101F8000000000BFC168022901D000BFFAE79DF838
:101F90000700207000202978890719D541F2A8513F
:101FA000C2F20001097899B941F2B051C2F20001C0
:101FB0000968FF22C0F2180211400122C0F2080293
:101FC000914205D140F61001C4F2010110220A60CD
:101FD00002B0B0BD2DE9F04182B0164612780D4630
:101FE000192A04461BDDA2F11A00102838D8DFE8B0
:101FF00010F06B0011005F005F0011005F005F00D8
:102000005F005F008D005F00B1005F005F00C900EE
:102010005F000B01D4F81802002444815AE2002A20
:1020200000F03581032A00F04C81122A40D17178EA
:10203000D4F81802C90740F08781D4F81C1205EBC8
:10204000C502C969337901EB82010A7905329A42E6
:10205000C0F07C81002B1A46438140F079817EE1FB
:102060002F2A00F058815A2A22D1D4F81C02C168C4
:102070002846884741F22441C2F2000101388A789B
:10208000B0FA80F0400902F07F0242EAC010887086
:10209000D4F8180208214181133000210FF20052B8
:1020A0005318DB794354013911F10803F8D156E193
:1020B000D4F8180290F85D12052300EBC10282F8F3
:1020C0003C324FF40053FBE1D4F81C02C1682846AF
:1020D00088470138B0FA80F141F22440C2F2000092
:1020E0008278490902F07F0242EAC1118170D4F876
:1020F000181208224A811331002200BF8318DB79AD
:102100008B54013A12F10803F8D128E1D4F818628F
:10211000002070613061F060D4F81C0269464368A9
:102120000DF106022846984700BB00990820F0737D
:10213000481E010E3174010C7174010AB174BDF8AE
:102140000610F0740220B08208BA000CF0820C2055
:10215000708104E1D4E98660436806F5187106F2DF
:102160005E2228469847002800F00581D4F818021E
:10217000022390F85D1200EBC10282F83C324FF46A
:1021800068539DE1D4F81872387AB846002800F0F8
:1021900006814FF400767E81D8E9991008F10C078A
:1021A000B0F5007F38BF0646D4F81C02B8F85E329E
:1021B000D0F810C0B6FBF3F0B1FBF3F283B22846BF
:1021C0003946E047B0F1FF3F40F36381D4F8201275
:1021D0000024C1E9177640F2011208684C6621F824
:1021E000482F01F0D1FCD8F83402D8E99912801BAD
:1021F0003144921BC8E99912C8F8340240F06A8150
:10220000032088F80800AAE0D4F81872387A002869
:1022100000F0EE80D7E9990607F10C08B6F5007FCB
:1022200028BF4FF40076B7F85E32D4F81C12B0FB2A
:10223000F3F2B6FBF3F0D1F814C083B2284641465E
:10224000E047B0F1FF3F40F33081D7F83412D7E9CF
:102250009902891B8319901BC7E99930C7F834127A
:1022600000F03C81D4F82022B0F5007F28BF4FF465
:102270000070C2E99780106802F5127100240123F2
:10228000C2F86442A2F8483201F07EFC22E1D4F8A0
:102290001862D6F81402002800F0DD8096F85D027E
:1022A000052206EBC00181F83C224FF400520130B8
:1022B000C1F84022C1B2043918BF014686F85D1248
:1022C00007E1D4F81842112104F10D00FDF7CEFF0B
:1022D0007020207394F85C0294F85D120C228842FE
:1022E000E27411D004EBC00191F83C2291F8403225
:1022F00091F8411201302176C1B20439A27363769C
:1023000018BF014684F85C121220608130791228CF
:1023100098BF608123E07178D4F81802890720D42F
:10232000D0F86412B0F86822D0F8603211449942B3
:102330007FF672AE90F85D12052300EBC10282F8C1
:102340003C324FF40453BBE097A10622428100BF08
:10235000013A93B2CF5CC618002B3773F8D1002432
:10236000B8E090F85D12052300EBC10282F83C3220
:102370004FF41053A4E0D6F8600200240138010E97
:102380003173010C7173010AF073B6F85E02B17318
:1023900000BA000C70820820348270819AE097F9AC
:1023A0001802002844D5D4F81C02816828468847C2
:1023B00000287FF4DBAED6F80200D4F8188200BA09
:1023C000C7F86402B6F80710D8F86022090409BA01
:1023D0000B189342C7F8681240F2BF8098F85D026C
:1023E000052208EBC00181F83C224FF40452CCE0F6
:1023F00097F91802B0F1FF3F1ADDD4F81C0281688A
:102400002846884700287FF4B1AED4F81C02C16882
:102410002846884700286AD0D4F81802022390F88A
:102420005D1200EBC10282F83C324FF41C5347E0CE
:1024300097F85D02052207EBC00181F83C224FF4BA
:1024400000520130C1F84022C1B2043918BF014620
:1024500087F85D123DE0D4F81C0281682846884761
:10246000002841D0D4F81802022390F85D1200EB46
:10247000C10282F83C324FF468530131C2F8403255
:10248000CAB2043A18BF0A4680F85D2205203072AD
:102490001FE0D4F81802042390F85D1200EBC1028B
:1024A00082F83C324FF488530AE0D4F8180204232F
:1024B00090F85D1200EBC10282F83C324FF4407399
:1024C0000131C2F84032CAB2043A18BF0A4680F855
:1024D0005D22FF2460B202B0BDE8F08120460021F9
:1024E0000024FEF71BFBF5E700247481F2E7D6F821
:1024F000020001BAC7F86412B6F807000204D4F863
:10250000180212BAD0F8603256189E42C7F86822F4
:102510003FF610AFB7F85E3259435A43D7F814323A
:10252000C7F864129342C7F868227FF4C3AD012351
:102530003B7207F10C00D4F82072B2F5007F07F56A
:10254000177C28BF4FF4007200248CE8150038680F
:1025500007F51271A7F8483296E60222B7F85E3204
:102560003A72D7F81422594358438A42C7F8640292
:10257000C7F868123FF40DAE98F85D02052208EB2B
:10258000C00181F83C224FF400520130C1F84022D2
:10259000C1B2043918BF014688F85D1299E700BF3F
:1025A000070000000000000000000002008083001F
:1025B000F0B581B041F2AC53C2F200031A78920731
:1025C00002D44FF0FF32C3E1C6B2142E24D143F23D
:1025D0000000C4F20100818821F0020181801C21E9
:1025E000C4F202014A6922F001024A61828822F0A3
:1025F00001028280086820F00100086041F2B450B6
:10260000C2F200001C21FDF731FE41F2A850C2F2D7
:102610000000002202709BE141F2A852C2F20002C7
:10262000127812B16FF0010292E1132E35D86FF0DB
:1026300006024FF0000E00244FF0000C0025DFE8EA
:1026400016F0210014001B00870187012C002C00CC
:102650002C002C002C002C002C002C002C002C001A
:102660002C002F004C005B00610004254FF0010E90
:1026700000244FF0010C05E04FF0000E4FF0020C6B
:1026800001240025C0F30222032A58D8DFE802F013
:102690005C02545A45F0010556E06FF0030257E121
:1026A00045F200124FF0FF30C0F2252207283FF418
:1026B00088AF013022FA00F39942F7D343F20001C8
:1026C000C4F201010A8822F040020A800A8822F03E
:1026D000380242EAC000088035E143F20000C4F24B
:1026E000010000884AF20021C0F3C2000130C0F2AC
:1026F0004A4121FA00F22BE141F2B450C2F200004B
:10270000018324E141F2B050C2F200000068FF22D0
:10271000C0F2180210400122C0F2080290427FF479
:1027200050AF40F60000C4F2010000290CBF102198
:102730004FF4801101610AE145F0020504E06FF0F9
:10274000070205E145F0030500F47C32B2F5004FC5
:1027500004D0B2F5803F4BD105F50065802202EA36
:10276000D022BEF1000F42EA05021ED0C0F3C140E4
:10277000DFE800F00241638541F21800C4F2020074
:1027800007687F0703D4076847F00407076040F62F
:102790000000C4F20100076842F4407227F4702779
:1027A000076007684FF0010C9FE0002C00F09E804E
:1027B00041F21806C4F202063568800200F18080FA
:1027C00045F0040030603068400703D4306840F0C2
:1027D0000400306040F60000C4F2010007684FF0CA
:1027E000020C27F470270760076847F430277CE065
:1027F0006FF00802ACE041F21800C4F20200076872
:1028000047F00407076007687F0703D4076847F0AD
:102810000407076040F60000C4F20100076840F2B8
:10282000010C27F4702707600768C0F2080C47F412
:102830004037076042F4407258E041F21800C4F299
:102840000200076847F00407076007687F0703D4A2
:10285000076847F00407076040F60000C4F2010073
:10286000076827F470270760076847F43027076078
:102870000120C0F2080000F5002C242037E041F2CE
:102880001800C4F20200076847F0040707600768F1
:102890007F0703D4076847F00407076040F600008D
:1028A000C4F20100076827F470270760076847F43F
:1028B000302707600120C0F2080000F5801C15E0F9
:1028C000680703D4306840F00400306040F6000030
:1028D000C4F20100076840F2020C27F47027076079
:1028E000076842F40072C0F2200C0760202045F215
:1028F000001600246FF00705C0F22526082C3FF4CF
:1029000060AE26FA04F701340835B942F6D341F235
:10291000B051C2F20001C1F800C043F20001C4F29C
:1029200001010F882A4327F040070F8088800A8022
:102930001A785FFA8CF0002818BF012002F0FB0221
:1029400042EA80001870088840F0400008800022A9
:10295000104601B0F0BD10B543F20000C4F2010012
:1029600001894A062AD50188090541F2B451C2F20B
:1029700000010CD490F80CC00B68CA689A4219D2B6
:102980004B68BBB15A1C4A6083F800C012E0B0F833
:102990000CC00B68CA689A420CD24B6853B15A1CDF
:1029A0004A6083F800C04A684FEA1C2C531C4B60F5
:1029B00082F800C0CA680132CA6001898A0644BF31
:1029C00002880280CA0740D0828852063DD541F273
:1029D000B45EC2F2000EDEF80030DEF80C209A423F
:1029E00033D2028812050AD490F80CC0DEF8043005
:1029F000C3B15A1CCEF8042083F800C012E0B0F82E
:102A00000CC0DEF804306BB15A1CCEF8042083F8F9
:102A100000C0DEF804204FEA1C2C531CCEF8043012
:102A200082F800C0DEF80C20DEF8003001329A4255
:102A3000CEF80C2009D18288002322F04002828047
:102A400041F2A852C2F200021370890744BF818884
:102A50005FEA016100D410BD41F2B45CC2F2000C27
:102A6000DCF80040DCF81030A342F4D2B0F800E00B
:102A7000DCF808105FEA0E5205D489B14A1CCCF884
:102A8000082009780EE099B14A1CCCF808208A1C6D
:102A900091F800E0CCF8082049784EEA012109E0DD
:102AA0009CF818100173DCF80040DCF8103002E0EC
:102AB000BCF818108181591CA142CCF8101018BF25
:102AC00010BD818821F08001818010BD10B50246C3
:102AD00000286FF0040018BF002900D110BD41F29A
:102AE000AC50C2F200000078400710D541F2A85067
:102AF000C2F20000037813B16FF0010010BD41F283
:102B0000B053C2F200031B78013B012B02D94FF0F6
:102B1000FF3010BD012341F2B45C0370C2F2000C1F
:102B2000002043F2000ECCE90012CCE90200CCF800
:102B30001000C4F2010EBEF800301C241B0540F248
:102B4000825358BF8223C4F2020423600EF10C03A7
:102B5000A360E2606160226842F001022260BEF878
:102B6000042042F00102AEF80420BEF80020120555
:102B700040F2125258BF122262610CF11802E36156
:102B80002262A161616941F001016161BEF8041036
:102B900041F00201AEF8041010BDB0B502460028A5
:102BA0006FF0040018BF002900D1B0BD41F2AC5055
:102BB000C2F200000078400710D541F2A850C2F2DE
:102BC0000000037813B16FF00100B0BD41F2B053C3
:102BD000C2F200031B78013B012B02D94FF0FF30FA
:102BE000B0BD012341F2B45E0370C2F2000E0020BA
:102BF00043F2000CCEE90010CEE90220CEF810001E
:102C0000C4F2010CBCF800301C241B0540F2025336
:102C100058BF0223C4F2020423600CF10C050EF12C
:102C20001403A560E3606160236843F0010323603F
:102C3000BCF8043043F00103ACF80430BCF80030B9
:102C40001B0540F2925358BF92236361E5612262F3
:102C5000A161616941F001016161BCF8041041F0BA
:102C60000201ACF80410B0BD10B5864600286FF024
:102C7000040018BF002900D110BD002AFCD041F289
:102C8000AC50C2F20000007840075CBF4FF0FF304C
:102C900010BD41F2A85CC2F2000C9CF8000010B11B
:102CA0006FF0010010BD01208CF8000041F2B45C0F
:102CB000C2F2000C0020CCE90021CCE902E0CCF803
:102CC000100043F2040CC4F2010C3CF8043C1C2438
:102CD0001B0540F2825358BF8223C4F202042360D2
:102CE0000CF10803A360E1606260216841F001011A
:102CF0002160BCF8001041F00101ACF800109221F5
:102D00006161E361C4F820E0A261616941F0010101
:102D10006161BCF8001041F00201ACF8001010BD78
:102D200048BB41F64B20C2F200000078431E41F63A
:102D30006420C2F200000068012B09D890B14069FC
:102D40004FF6FE73C0F27F0303EA400056300EE0F8
:102D500058B140694FF6FE73C0F27F0303EA4000AA
:102D6000163004E040F6560001E040F61600086018
:102D70004FF4007010800020704700207047002042
:102D800070470020704741F64420C2F200000078EE
:102D9000704780B501283FD048BB162A29D341F699
:102DA0004B20C2F20000007818BB41F66420C2F24A
:102DB0000000D0F800C0BCF1000F1CD04DF2004064
:102DC000CFF6FF7000EB422010F4F05F4FEA432291
:102DD00009D141F20C0EC4F2010EDEF8003083F48A
:102DE0000053CEF80030DCF83430984714E0FF2070
:102DF00013E00A2A05D35A0208461146FDF736FAAF
:102E00000AE040F20800C2F2000000EB422C5A0235
:102E100008466146FDF7E0F9002040B280BD80B56C
:102E2000FFF7B7FF002818BF0120400080BD000059
:102E30002DE9F041012800F0138128B941F64D2019
:102E4000C2F20000007808B1FF200AE141F65C28D8
:102E50001C4616460D46162AC2F2000835D341F626
:102E60005820C2F200000178A1B9314641F6502342
:102E7000562E18BF16214FF43052C2F2000308BF7D
:102E80004FF42C42196041F65421C2F200010A604D
:102E90000121017042F2F800C2F20000016800292D
:102EA00074D041F65020D8F80020C2F2000000682B
:102EB000D31702EBD35200EB6220B04266D141F24D
:102EC0001057C2F200073A6866E0082E68D141F652
:102ED0004B20C2F2000000780138012877D8E86B57
:102EE000002874D00020C8F8000005F1DC0000BF05
:102EF00050F820190029FBD041F66420C2F20000EE
:102F0000026841F64F2C5369C2F2000C4FF0010EDB
:102F1000B1EB832FC8F800108CF800E094D8CB17E1
:102F200001EBD35340F2FF1023EA0000081A42F2EB
:102F3000F801C2F200010860014642F2F60218BF31
:102F40000121C2F20002117042F20411C2F200012A
:102F50000A685F12002818BF0EEB6327B2EB472FF9
:102F60001ED141F64420C2F200000122027041F657
:102F70004A20C2F20000027000208CF800000860B5
:102F800041F65821C2F20001087009E041F21057E1
:102F9000C2F200073A6861022846FDF79FF93860DF
:102FA00041F65020C2F200000068092E28BFB0424E
:102FB00028D8B04212D940F20800C2F200006102E3
:102FC00000EB46208AB2294601F066FC14E041F687
:102FD0005020C2F2000000680828ECD8610270029C
:102FE0008AB2294601F058FC42F20411C2F20001F3
:102FF0000A6802EB44220A6020B141F64E21C2F277
:1030000000010870D8F80010012929DB42F20410F1
:1030100042F2F603C2F20000C2F2000302681B781B
:1030200001EB432140F2FF1399438A4218D141F644
:103030004F21C2F200010A7892B141F64422C2F255
:1030400000020123137041F64A22C2F200021370FB
:1030500000220A70026041F65820C2F2000002709D
:10306000002040B2BDE8F08180B5FFF7E1FE002806
:1030700018BF0120400080BD7047000081B040F6BD
:1030800008410020C4F201018DF803000A6892058E
:103090001CD442F20010C2F2000000BF026800BF60
:1030A00003689B1A022BFBD39DF80320092A09D839
:1030B0009DF8032001328DF803200A689205EDD5B2
:1030C000002003E000208DF80300012001B07047CC
:1030D000B0B541F2AC55C2F200052A780C46910712
:1030E00002D44FF0FF3031E041F2A851C2F20001AA
:1030F000097811B16FF0010028E041F2B051C2F23D
:1031000000010968FF22C0F2180211400122C0F23A
:1031100008029142E5D140F61001C4F201014FF4DA
:1031200080120A602146FFF738FD78B941F2B451A8
:10313000C2F20001C868A04202D1002006E000BF30
:1031400000BFC868A0424FF00000F9D12978890774
:103150001AD541F2A851C2F200010978A1B941F291
:10316000B051C2F200010968FF22C0F218021140FA
:103170000122C0F20802914218BFB0BD40F6100112
:10318000C4F2010110220A60B0BD00002DE9F04F29
:1031900083B0154642F2FC02C2F2000212881C46BD
:1031A000531E00277E1C03FA07F7FF0F3746F9D09E
:1031B000B1FBF2F3C6F1210703FB121103FA07F288
:1031C00041F2AC57C2F2000711438DF80800100C11
:1031D0003A788DF80900080A8DF80A0090078DF8F2
:1031E0000B1002D44FF0FF3007E041F2A856C2F2B4
:1031F0000006307820B16FF0010003B0BDE8F08F19
:1032000041F2B05BC2F2000B40F2FF09DBF80000B4
:10321000C0F2180940F2010AC0F2080A00EA0900E7
:103220005045DFD140F61001C4F201014FF4801087
:10323000086002A80421FFF7B0FC90B1387880073D
:10324000D0D530780028CDD1DBF8000000EA0900A5
:103250005045C7D140F610011020C4F201010860AA
:10326000C0E741F2B458C2F2000800BFD8F80C0021
:10327000042801D000BFF9E765B15CB128462146BA
:10328000FFF78BFC0028D9D100E000BFD8F80C0074
:10329000A042FAD138788007A4D530780028AAD186
:1032A000DBF8000000EA090050459BD140F610020F
:1032B0001020C4F20102106030784FF6D771002858
:1032C000ADF808107FF497AF4FF48010106002A89B
:1032D0000221FFF762FC0028B0D100E000BFD8F85F
:1032E0000C000228FAD10AE0D8F80C00012801D01D
:1032F00000BFF9E79DF90700B0F1FF3F07DD0DF1D1
:1033000007000121FFF7E2FB0028EDD096E73878AF
:1033100080077FF567AF307800287FF46CAFDBF86B
:10332000000000EA090050457FF45CAF40F6100150
:103330001020C4F20101086000205EE780B582B071
:1033400004208DF807000DF107000121FFF7C0FEF2
:1033500068B900208DF807000DF107010520FEF780
:10336000D9FD20B99DF80700800140B2C01102B01C
:1033700080BD80B582B00DF107010520FEF7CAFDC2
:1033800018B99DF80700800717D406208DF80700AC
:103390000DF107000121FFF79BFE78B900208DF8A1
:1033A00007000DF107010520FEF7B4FD30B99DF8C7
:1033B0000700C0F34000013800E0002002B080BDEB
:1033C00042F20010C2F20000016801310160704752
:1033D00041F20000C4F202000168002241F0010144
:1033E00001604168CFF6FF021140416001684FF66D
:1033F000FF72CFF6F66211400160016821F480216E
:103400000160416821F4FE0141604FF41F018160B9
:103410004EF60850CEF200004FF000610160704798
:1034200080B504A000F068F841F2D450C2F2000068
:1034300080BD00BF4D534320436F6E666967000037
:1034400041F22C401222C2F200000A8070470000B4
:1034500080B504A000F050F841F2D450C2F2000050
:1034600080BD00BF4D534320496E74657266616331
:103470006500000041F240400422C2F200000A80D0
:103480007047000080B504A000F036F841F2D45037
:10349000C2F2000080BD00BF53544D6963726F6576
:1034A0006C656374726F6E696373000080B504A00D
:1034B00000F022F841F2D450C2F2000080BD00BFFB
:1034C00053544D3332204D6173732053746F7261C6
:1034D0006765000080B504A000F00EF841F2D450FA
:1034E000C2F2000080BD00BF3030303030303030AC
:1034F000303031410000000010B578B3027852B18D
:10350000431C4FF0000C00BF13F8012B0CF1010C11
:10351000002AF9D101E04FF0000C5FFA8CF202238F
:1035200041F2D45E03EB4202C2F2000E0A808EF832
:10353000002003228EF8012002787AB101300223A4
:103540004FF0000CD9B241F001040EF801200EF842
:1035500004C010F8012B0233002AF3D110BD10B5BE
:10356000D0F820E201F07F0C0EEB4C1000F12803A4
:103570000A0658BF00F50A739EF82804CA090128F4
:1035800083F800C05A7001D1102174E001208EF838
:103590002804DEF800004A009B7AD4B230F81420E8
:1035A00048F2800C002B00EB440348B229D00028DD
:1035B00002F4804132D439B1188840F60F710840C6
:1035C0000CF58041084318801888400607D51888F4
:1035D00040F60F7108400CF140010843188018882C
:1035E00040F60F7108400CF140010843188018881C
:1035F00043F60F71084040EA0C00188040F63F7116
:1036000031E0B0F1FF3F3DDD50042AD5188840F687
:103610000F7108400CF58041084321E039B118884A
:1036200040F60F7108400CF5804108431880188857
:10363000400607D5188840F60F7108400CF140018C
:1036400008431880188840F60F7108400CF5804137
:1036500008431880188840F63F71084040EA0C0083
:10366000188043F60F711888084040EA0C000021CA
:1036700018808EF8281440F20020C0F20120C840C3
:10368000C0B210BD5006B9D5188840F60F71084079
:103690000CF140010843B0E770B5D0F820C201F04A
:1036A0007F0E0CEB4E1404F128000D0658BF04F5F4
:1036B0000A70CC0944709CF8284480F800E0012C82
:1036C0000361C27001D1102011E1DCF80040012338
:1036D000032A8CF828340DD8DFE802F0020F1921F4
:1036E00034F82E3048F68F152B404FEA4E0203F582
:1036F00000731DE04FEA4E021CE034F82E3048F60D
:103700008F152B404FEA4E0203F5806310E034F82A
:103710002E3048F68F154FEA4E022B4008E034F861
:103720002E3048F68F152B404FEA4E0203F5C0634A
:1037300024F82E3034F8125040F60F76354048F217
:1037400080030D431D4324F81250857A04EB420296
:10375000002D4BD0158840F60F66354003F5807676
:1037600035431580C588B4F8506025F0010506EB97
:10377000CE0604EB4606C6F800540089B4F8505053
:1037800020F0010005EBCE0604EB4606C6F808045F
:1037900048B21188002801F480404CD438B1108818
:1037A00040F60F71084003F58041084310801088EF
:1037B000400607D5108840F60F71084003F140011C
:1037C00008431080108840F60F71084003F1400153
:1037D00008431080108843F60F71084003F54051EC
:1037E00048401080108840F63F7149E085884EB20D
:1037F00025F00101B4F85050B6F1FF3F05EBCE05BE
:1038000041DD04EB4505C5F80814B4F85010006913
:103810004FEACE0606EB010E3F2804F20C4148D3D6
:10382000440140F2FF35AC43C00608BF04F5F8443C
:1038300044F4004042E038B1108840F60F7108406F
:1038400003F58041084310801088400607D5108892
:1038500040F60F71084003F14001084310801088C2
:1038600040F60F71084003F580410843108010882E
:1038700040F63F71084018431080108843F60F71DE
:10388000084018432FE004EB4500C0F800141088EE
:10389000400607D5108840F60F71084003F140013B
:1038A00008431080108840F63F71084003F1200162
:1038B00018E000F0010404EB5000800280B241F8EF
:1038C0001E001088400407D5108840F60F7108408C
:1038D00003F5804108431080108843F60F710840BB
:1038E00003F540514840108000208CF8280440F235
:1038F0000021C0F2012121FA00F0C0B270BDB0B5C4
:10390000D0F8205201F07F0205EB4213283305EB7B
:1039100041100C0658BF00F50A7395F828044FF0C3
:10392000010E01284FEAD11083F802E01A70587096
:1039300008BFB0BDD5F800C085F828E47AB148B218
:103940003CF8223049F2800EB0F1FF3F4FEA4201CD
:1039500013DD43F60F70184080EA0E0013E0BCF848
:10396000000043F63F71084049F28001CFF6FF7135
:10397000103148402CF8220007E040F63F70184014
:10398000AEF57F6250402CF81100002085F8280425
:10399000B0BD80B5FCF7F6FF002080BD80B5FDF717
:1039A00010F8002080BD10B501210446FFF7D7FDB7
:1039B00020468121FFF7D3FDD4F8180200210172BF
:1039C0000020C4F8181210BD014641F2BC400A2282
:1039D000C2F200000A807047014641F27C4020227A
:1039E000C2F200000A807047014641F29C4020224A
:1039F000C2F200000A807047014641F2C84020220E
:103A0000C2F200000A807047B0B50446007C402531
:103A1000002808BF4FF400752046012102222B46E2
:103A2000FFF73AFE2046812102222B46FFF734FEA3
:103A300041F2D470C2F20000C4F818022046FDF72B
:103A400049F80020B0BD70B504460878D4F8186273
:103A50000D4610F0600125D0202940F09280697851
:103A6000FF293CD0FE293CD16988D1BB000638D55E
:103A7000E888012835D1D4F81C028069804730607D
:103A80000220C4F8F4010120C4E90600D4F8201291
:103A90000024C1E90F604FF4807208684C6421F87B
:103AA000282F19E06878012825D00B2839D00A285A
:103AB00067D10221C4F8F4110121C4E90611D4F838
:103AC0002022301D02F13C03002413C34FF4807305
:103AD0001068114621F8283F00F056F852E0698836
:103AE00011B320468021FFF70AFF20460021FFF78F
:103AF00006FF022446E0D4F82012A88891F8282472
:103B0000012A1CBF002281F82824C1B22046FFF7F9
:103B100026FDA988207C09061FD420B32046012158
:103B20001EE0A87870602CE00006DAD4E88800284F
:103B3000D7D14FF480703081D4F8202206F503707D
:103B400002F5177C1F2300248CE81900106802F589
:103B500012710123A2F84832BEE738B12046812114
:103B60000222402307E02046012101E02046812176
:103B700002224FF40073FFF78FFD29792046FCF7EE
:103B8000E9FE0024204670BD70B58E690C694A7844
:103B90008B7A351B38BF002588BF2646012A8D61E8
:103BA00031D1A3B30B78B2B230F823C0B0F8505083
:103BB0000132002405EBC305B4EB520F4FEA430377
:103BC00000EB4505C5F8046412D05FEA4C664FF07F
:103BD000080658BF06268E5B496900EB4606520868
:103BE00006F5806531F8026B013A25F8046BF9D1CE
:103BF00030F8131040F60F7211404CF2800211435E
:103C000020F8131020E033B35AB3097861E0B2B260
:103C100001320023B3EB520F0CD08D8853084A6950
:103C200000EB450505F5806432F8025B013B24F8A2
:103C3000045BF9D1B0F85020097802EBC10200EB27
:103C40004202C2F804644B0000EB430048F2B002A9
:103C500040F63F7143E0B0F85020097802EBC10C08
:103C600020E0B0F8502009783F2E4FEAC10C02EB5B
:103C7000C10E00F204430AD3720140F2FF34A243A2
:103C8000F40608BF02F5F84242F4004204E006F0F0
:103C9000010202EB5602920292B243F81E20B0F8E3
:103CA000502094443F2E00F20C430AD3720140F29C
:103CB000FF35AA43F60608BF02F5F84242F4004277
:103CC00004E006F0010202EB5602920292B243F8BF
:103CD0001C204BF2800200EB810043F60F71038839
:103CE00019405140018070BD2DE9F04F83B041F67D
:103CF0009049C2F20009D9F80000B0F94410B1F1BE
:103D0000FF3F32DDB0F84410490540F11885B0F8A6
:103D10004410012521F48061A0F84410D9F85C44D6
:103D2000002120460022402325744026FFF7B4FCE2
:103D30002046802100224023C4F81061FFF7ACFC2C
:103D4000D4F81802266284F8FC5128B1D4F8140281
:103D5000217942682046904799F82804012840F0CC
:103D6000E484D9F8000000F0EABC0024ADF8084073
:103D7000ADF80640B0F944104FF0FF3A5145ADF8A8
:103D80000810BFDCBDF8081011F00F0546D030F860
:103D900025104FEA4508ADF80610BDF9061051454B
:103DA00000F39A8130F8181040F68F72114020F815
:103DB000181009EB451292F83212002902F50A7127
:103DC00000F01B8191F800E030F82E10B0F8503070
:103DD000490403EBCE014FEA4E0C00EB410100F128
:103DE0003081D1F80C346FF39F23002B00F0438116
:103DF000591CB4EB510F00F03F814F08B2F830125C
:103E0000D2F83C4200EB410101F5806151F8046BAE
:103E1000013F24F8026BF9D12EE100BFBDF8082064
:103E20000188D2062FD448F60F7211400180B0F8F5
:103E3000501099F8282001EBC20100EB4100D0F8A6
:103E40000404D9F83C106FF39F20C9F844000844DB
:103E5000C9F83C000020FCF780FC99F824000028F9
:103E600000F0DC82D9F84000002840F0D78299F8B1
:103E70002400D9F8001040F08000C0B2A1F84C0036
:103E800089F82440CAE2ADF80610BDF8061009050D
:103E900032D4BDF90610514500F3C082018840F6C6
:103EA0008F7211400180B0F8501099F8282201EB70
:103EB000C20100EB4101D1F80C146FF39F210029DE
:103EC000C9F8441200F0DF814A1CB4EB520F00F035
:103ED000D581B9F82C725308D9F83C2200EB470081
:103EE00000F58060002700BF50F8276022F81760B7
:103EF0000137BB42F8D1C3E1B0F8501099F828223D
:103F000001EBC20100EB4101D1F80C246FF39F22B9
:103F1000511CB4EB510FC9F844220FD0B9F82C2230
:103F2000490800EB420202F5806209F22C4300BF0F
:103F300052F8047B013923F8027BF9D1018840F65D
:103F40008F7211400180D9F85C8499F82C5408F5DF
:103F5000027B88F8085299F82D4488F8094299F8AC
:103F60002EC499F82F644CEA062EA8F80AE299F9B3
:103F7000303499F83104D9B241EA0022A8F80C2271
:103F80000120B9F83274C8F8F40105F01F000228C6
:103F9000A8F80E72C8F8F87100F03C81012800F012
:103FA0004481002840F05281092C00F22E82DFE883
:103FB00014F00A009F012C02B1012C02BE01F30192
:103FC0002C020902230298F8FC0100F0FE000228EE
:103FD00040F01B82D8F804020024002818BF0120FA
:103FE000400048F80C0FD8F814120220C8F8E80175
:103FF000C8F80C00C8F81000FBE1B0F8503091F898
:1040000000E003EBCE0100EB4101D1F80C346FF37B
:104010009F23002B00F0FC80591CB4EB510F36D0CD
:104020004F08B2F82C12D2F83C4200EB410101F5E6
:10403000806100BF51F8046B013F24F8026BF9D195
:1040400025E0D1F804346FF39F23A3B1591CB4EBDE
:10405000510F11D04F08B2F82E12D2F83C4200EBAB
:10406000410101F5806100BF51F8046B013F24F864
:10407000026BF9D100E0002330F81C1040F60F74F9
:10408000214048F2B0041034214320F81C10D2F82B
:104090004462D2E98F171E44CC18C2F84462C2F8B9
:1040A0003C421FB1D2F83812994204D97046FCF74D
:1040B000CDFB002410E00EF07F0209EB421303F564
:1040C0000A71C3E98F470024C3F8444283F82942A8
:1040D00083F82822FFF758FDBDF80600000640F1DE
:1040E0009D81D9F8000048F60F7330F8181009EBDD
:1040F0004512194020F8181092F83210002902F1E8
:10410000280124D0097830F82130B0F850705B06CF
:1041100007EBC1074FEA41064FEAC10C00EB47032A
:1041200033D4D3F80C546FF39F25002D556441D040
:10413000138ED76B013500EB43036D0803F58064E4
:1041400037F8023B013D24F8043BF9D132E0B0F8E6
:104150005030097800F2044603EBC10356F81350BF
:104160004FEAC10C6FF39F25556495B3948DD76BBF
:10417000013500EB44046D0804F5806437F8023B18
:10418000013D24F8043BF9D122E0D3F804546FF345
:104190009F25556475B1D38DD76B013500EB430373
:1041A0006D0803F5806400BF37F8023B013D24F839
:1041B000043BF9D130F8163040F60F773B404BF214
:1041C000800707F580573B4320F8163000F204467D
:1041D0000024B0F85030634456F813706FF39F27F3
:1041E0005764D2E90F633744D7636BB101F07F02A4
:1041F00009EB421101F8282F0122C1E90573CC61B6
:104200004A70FFF7C1FC09E10846FCF7A6FA05E190
:1042100000233CE705F0600020281BD1D8F81402E9
:104220005946826840469047F7E098F8FC01002420
:10423000032808BF11F0FE0F4ED040468021FFF743
:104240005EFB40460021FFF75AFBE7E005F08001E6
:104250004046E0E0002C00F0E680012C00F0EF800A
:10426000032C4FF0000440F0D98098F8FC0103289B
:1042700000F00F81022800F0EB80DEE7D9F83C2245
:104280005018C9F83C020020FCF7E0FAD9F8000009
:10429000B0F85010D9F8383200F20C423F2B0AD354
:1042A0005F0140F2FF36B743DB0608BF07F5F8476A
:1042B00047F4004304E003F0010707EB53039B02BC
:1042C0009BB242F81130018843F60F7211404BF255
:1042D000800251400180A1E0D8F81402594682685A
:1042E00040469047B8F80E02002840F097800EE252
:1042F00098F8FC0100F0FE00022840F08680BEF134
:10430000010F4FF0000440F08980D8F81402C8F87B
:104310000442F8E1BEF1010F4FF0000440F07E804E
:10432000D8F8140282680120C8F80402ECE142EADD
:104330000700000469D198F8FC01032865D0D8F87B
:1043400020020CF07F0490F8281488F8FE4101291F
:104350000CD0012180F8281480F824401CB9016891
:104360008022A1F84C20002180F828140421C8F8EC
:10437000F4110021C0E90F114164014600684FF4B7
:10438000807221F8282FFFF7FFFB002C14BF0220BA
:10439000012088F8FC0140E0701E062835D8DFE8CF
:1043A00010F00700F000FE00340034000D011A0187
:1043B000D8F810020DF10A01026898F81000904731
:1043C000002467E1012F20D198F8FC010024032884
:1043D00000F0108102287FF430AF48F8084F022027
:1043E000D8F81812C8F8EC010120C8F81000C8F875
:1043F0001400C1E90F8091E141F2D050BCF1020FED
:10440000C2F2000080F800C028D340468021FFF7A8
:1044100076FA40460021FFF772FA0024D9F800002E
:10442000B0F94410AAE498F8FC0103283ED0022811
:104430004FF000047FF401AF48060DD1EEE798F885
:10444000FC0103285DD002284FF000047FF4F5AE94
:1044500041F080008028E1D04046F4E698F8FC0165
:104460000024032800F0D38002287FF4E6AEBCF1DC
:10447000000F00F04C81D8F8140203210028C8F87E
:1044800004C088F8FC113FF4D8AE0268404661468B
:10449000D8E0BEF1000F40F0348141F08000802868
:1044A00000F02F814046FFF72AFA2AE101F07F024F
:1044B00011F0800008EB0211D8F8207201F114030A
:1044C00008BF01F5827307F1280101EB421602369D
:1044D00007EB4212002808BF02F22A263078002497
:1044E000002818BF012018600220C8F8F401C8E9AC
:1044F0000600C7E90F3038684FF480727C643A8553
:104500007FE6BEF1000F4FF000047FF487AF48064E
:1045100000F0FD80D8F8200201F07F0200EB42128B
:10452000283200EB41170E0658BF07F50A7203F058
:104530007F07177090F82874C909012F9470517083
:1045400000F0DF80012180F8281401685A00D2B2FF
:1045500031F81270B3F1FF3F40F3BA807B040BD502
:1045600031F8123040F60F773B404BF2800707F5E9
:1045700080573B4321F8123043F60F734BF280070C
:10458000B7E098F81010D8F8140200290CBF816A1F
:10459000C16A0DF10A0000248847022128E0BCF11D
:1045A000050F4FF000043FF648AEDFE80CF0035B68
:1045B0005F63676BD8F81002426866E098F81000F5
:1045C000002400287FF439AED8F81402416B0DF1B5
:1045D0000A0088475EE098F81000002400287FF465
:1045E0002CAED8F81402016B0DF10A0088470721A0
:1045F00041704FE002200122C8F8F401C8E9062208
:10460000D8F8201208F10400C1E90F0286E0BCF1DD
:10461000000F1CD0D8F80400604578D0D8F81412E8
:104620004A68C1B24046904741F2D051D8F81402CE
:10463000C2F2000109780028C8F804103FF4FDAD6B
:1046400002684046904700287FF4F7AD5FE0D8F855
:1046500014020221426888F8FC11C8F80440404660
:10466000614653E0D8F8100282680EE0D8F81002D4
:10467000C2680AE0D8F81002026906E0D8F8100211
:10468000426902E0D8F81002826998F810000DF132
:104690000A019047BDF80A20002A3FF4BFAEB8F8DF
:1046A0000E1200293FF4BAAE8A4238BF11460222E8
:1046B000C8F8F421D8F82022ADF80A1002F13C0322
:1046C000C8F81810C8F81C1013C31068114627E06A
:1046D0007B060AD531F8123040F60F773B4048F29E
:1046E000B00710373B4321F8123040F63F7348F2D1
:1046F000B00731F8126033407B4021F8123080F867
:104700002844D8F814028268404659469047D8F8A1
:1047100020120420C8F8F401CC630C644C640868CF
:104720004FF4807221F8282F6BE5002189F82410BE
:10473000D9F800008022A0F84C2089F82814B0F89D
:104740004410490405D5B0F8441021F48041A0F884
:104750004410B0F84410890405D5B0F8441021F491
:104760000051A0F84410B0F84410C90417D5B0F8AF
:10477000401021F00401A0F84010B0F8401021F0E2
:104780000801A0F84010D9F85C1491F8FD2181F8D7
:10479000FC21B0F8441021F48051A0F84410B0F886
:1047A0004410090529D5B0F8401041F00801A0F8DF
:1047B0004010B0F8441021F40061A0F84410B0F8A3
:1047C000401041F00401A0F84010B0F84410C904B2
:1047D00013D4D9F85C14042391F8FC2181F8FC313E
:1047E00081F8FD21D9F818203AB14EF61051CEF2D9
:1047F00000010A6842F006020A60B0F84410890518
:1048000013D5B0F8441021F40071A0F84410D9F881
:104810005C1491F8FC21032A07D1D1F81422D26943
:104820001AB108469047D9F80000B0F84410C905FD
:1048300005D5B0F8441021F48071A0F8441003B0FD
:10484000BDE8F08FFEE7B0B582B041F66421C2F258
:10485000000109680446CD69002015F0C00F08BFAB
:1048600045F040052906019048BFFEF782FD680625
:1048700007D550208DF8040001A80121FEF728FC7F
:1048800040B901208DF8040001A802218DF80540EF
:10489000FEF71EFC02B0B0BD2DE9F04F81B042F230
:1048A000F809C2F2000941F6542AD9F80040C2F2D0
:1048B000000ADAF8007093460E46054674B141F6D8
:1048C0005C20C2F200000068E91B001B814205D198
:1048D0003019ABEB0401FF22FBF7C1FC41F6642069
:1048E000C2F20000D0F80080D8F8140007EB802056
:1048F000A84210D941F64B20C2F2000001780329EA
:104900001ED80020DFE801F09D021E9D5FEA0B60CB
:1049100061D0584695E040F20801C2F2000101F56D
:10492000A05085424FF0FF0000F28B808D42C0F016
:104930008880284631465A46FBF74EFC002080E02E
:10494000FF207EE0D8F83030002B78D0D8F82C103B
:1049500079B142F2F104C2F20004207848B98847E4
:1049600058B941F66420C2F2000000680121036BCF
:104970002170E81B31465A469847010661D15846D6
:1049800002F0C2FC0646D9F80010DAF80000A5EBE8
:10499000000079B141F65C22C2F200021268D3171E
:1049A00002EBD35240F2FF139A43904208BF8B466A
:1049B0001FFA8BFB41F66423C104C2F2000307D146
:1049C00041F20C01C4F201010A6882F400520A604B
:1049D00019684B6B22E0584602F096FC0646A5EBA0
:1049E00007007CB141F65C21C2F200010968CA17D8
:1049F00001EBD25140F2FF129143884208BFA34617
:104A00001FFA8BFBC10407D141F20C01C4F2010172
:104A10000A6882F400520A60D8F8343031465A46A7
:104A2000984741F20C54C2F20004226830465946BD
:104A3000FBF754FC2060304602F03EFC7EE76FF04E
:104A4000030040B201B0BDE8F08F000041F20C005D
:104A500042F20011C4F20100C2F20001026882F4C5
:104A6000005202600A6800BF0B689B1A512BFBD3EF
:104A7000F4E7000010B504460020E0704FF0FF306E
:104A80002063204600F0E4FF08B1042010BDB4F814
:104A900032024AF6552188421CBF032010BD94F80B
:104AA0003400E838032827D8022825D04AF6E37CCA
:104AB00004F16A000021C0F6000C00BF435C1CF842
:104AC0000120022903D0934201F10101F6D0934263
:104AD00010D04AF6F02204F186000021C0F6000250
:104AE000435C545C042903D0A34201F10101F7D0D7
:104AF000A34201D1002010BD022010BD2DE9F04FCE
:104B000085B0D0F800900021044600F001FA10B101
:104B100005B0BDE8F08F4FF0FF3604F120054FF0EF
:104B2000FF0B4FF00D08FF27E66200BFA169484662
:104B300000F08EFF0028EBD1D4F81CA09AF80000FA
:104B4000002800F09C809AF80B20E52802F03F0135
:104B5000A17103D012070BD50F2909D0E6624FF0DF
:104B6000FF0B2046002100F08EF80028DED0CFE7B2
:104B70000F290AD194F82B104906F2D4410627D404
:104B80005FFA8BF18842EAD128E05FEA0B600ED130
:104B900000200021C9B24A0842EAC1111AF80020D7
:104BA00001300B281144F5D1C8B2874269D094F87E
:104BB0002B00C007D2D100201AF800102A5C0A2866
:104BC00003D0914200F10100F6D09142C6D158E0E5
:104BD00021699AF80D7000F0BF0BE1629AF80D00A0
:104BE0008742BCD1BAF81A000028B8D19AF8001050
:104BF000D9F80C000297039001F03F0000FB08F089
:104C0000A0F10D074FF000080126019147F2F430A2
:104C1000C0F6000010F80800002E3AF8006010D02E
:104C20003F2F21D8304600F0C5F90399049031F8A0
:104C30001710084600F0BEF90499814214D10137DB
:104C400004E04FF6FF7086420ED1002608F10108FD
:104C5000B8F10D0FDAD156B1019810F0400006D02E
:104C6000039830F8170010B14FF0FF0B01E0ABF1E3
:104C7000010B029F4FF0FF364FF00D0871E7042043
:104C800046E7002044E72DE9F04F81B00446006973
:104C900000F12006B6F5001F02D30020A0610EE04F
:104CA000A06960B13546D4F800B06FF35F2555B107
:104CB0000BEB05003430E0610020266100E00420A9
:104CC00001B0BDE8F08F0F4661690130A06191B17C
:104CD000BBF80A004FF6FF72C0F21F02104400F545
:104CE000C00010EA562FE3D1584600F0B7F9022869
:104CF00007D20220E4E7BBF80800B0EB561FCCD97E
:104D0000D6E78246013000F00081DBF818008245CA
:104D10000DD2AAF1020702388742C4F814A017D2B4
:104D2000DBF82C00BBF80A1007FB010011E0002F94
:104D3000B3D0D4F814902768B9F1000F0BD03846DF
:104D4000494600F08BF9022816D24FF002088FE096
:104D50000020A061ACE7D7F81080B8F1000F02D0B6
:104D6000B86980450FD3394651F8140F4FF0010848
:104D7000002800915BD17BE08246013028D0B869E1
:104D8000C84682456FD33A4652F8141F002966D0B0
:104D9000C84500924BD109F101088045206828BF21
:104DA0004FF00208414600F059F9824601305AD0CE
:104DB000BAF1000F0FD0BAF1010F54D0D7F810801C
:104DC000B8F1020F32D3B869804528BFC8462EE03B
:104DD0004FF000084CE0B8F1000FC246C84626D09C
:104DE000384651464FF0FF3201F0D4F8B9F1000FC8
:104DF00005D020B938464946524601F0CBF830B1CB
:104E00004FF0010A012808BF4FF0FF3A2BE0D7E925
:104E10000501C7F810A00239884202D8009901386C
:104E20000860387940F0010038711CE0C846C2467D
:104E3000B8690AF1010A824528BF4FF0020A02D37D
:104E4000B8F1020F0BD32068514600F007F9411C5E
:104E500008D00028C4D0012804D0C245E8D14FF0C2
:104E6000010805E082460AF10108B8F1030F0DD2EE
:104E70004FF6F870C0F2FF0040F2017100EAC8007E
:104E8000C0F2020121FA00F0C0B219E7584602F060
:104E900061F8D0BBDBF81800AAF10207023887429C
:104EA00006D2DBF82C00BBF80A9007FB090002E0F1
:104EB000BBF80A9000200BF134080090CBF83000CA
:104EC00040464FF40071FBF7D1F9B9F1000F11D052
:104ED0004FF000090098414600EB09020020012331
:104EE000FDF7A6FF50B9BBF80A0009F10109814599
:104EF000F0D305E000204FF0000901E0BBF80A0004
:104F0000814502D1DBF8180005E70120D8E6000052
:104F1000F0B581B00D461F21CFF6E0710D4202D0F1
:104F2000022001B0F0BD816806680446056169B1E0
:104F30007089B5EB402F23D2B0698A1E02388242B5
:104F400031D2F06A738902FB03000BE0307803284A
:104F500002D3B16A0029EBD13089B0EB551FDFD9FC
:104F6000B06A002100286161A061D9D000EB552012
:104F70006FF35F2571193431C4E906010020D0E7D1
:104F80004702ED1B304600BF00F068F801460130D3
:104F90000DD00229C4D3B0698142C1D2BD42CCD365
:104FA0002068ED1BF0E70020C4E90510B8E70120F8
:104FB000B7E700000021B1EB104F18BF704780B574
:104FC0004BF2AA124BF26621C0F60002C0F60001B5
:104FD000B0F5805F38BF0A46B2F800C0BCF1000FE0
:104FE00038D0844536D8538802F1040ED9B20CEB80
:104FF000010282424FEA13220AD80B46002A18BF48
:10500000002372463EF813C008BF02EB4102E5E7F9
:10501000082A1FD8DFE802F0050A10121416181A21
:105020001C00A0EB0C003EF8100013E0A0EB0C01FC
:1050300001F00101401A0DE010380BE0203809E0C2
:10504000303807E01A3805E0083003E0503801E056
:10505000A0F5E35080B2BDE880407047F0B581B064
:10506000022930D3054680690C4688422BD928781E
:1050700003282BD0022843D0012824D1686A04EBEE
:10508000540700EB5721284600F0E2FC00283ED1EF
:105090007E1C6FF35F27696AE81990F8347001EBA2
:1050A0005621284600F0D4FC88BB6FF35F26A81970
:1050B00090F83400E20747EA002108466FF31F30FA
:1050C00018BF080900E0012001B0F0BD686A00EBDC
:1050D000D411284600F0BCFCC8B904F07F0005EBF1
:1050E000800191F8363091F8340091F8352091F82C
:1050F00037101B0243EA0141114461F31B20E3E72F
:10510000686A00EB1421284600F0A2FC10B14FF0B1
:10511000FF30D9E7E0B205EB4000808ED4E7000015
:10512000D0F800C0BCF1000F1AD000231CF8031007
:105130005A1C202902D33A291346F7D13A290DD116
:105140009CF800304FF0FF31302B0BD8022A09D1E8
:10515000303B092B06D80CEB02010160002101E075
:105160004FF0FF31084670472DE9F041ADF5007D65
:1051700068464FF48071FF22FBF771F841F664270F
:10518000C2F2000738684169890224D041F20C0854
:105190000024C4F2010840AD6E4600BF14F4E05F85
:1051A00005D1D8F8001081F40051C8F80010436B05
:1051B000204629464FF480729847284631464FF4DE
:1051C0008072FAF7C0FF38B9386804F58064416925
:1051D000B4EB812FE2D300200DF5007DBDE8F08116
:1051E000F0B581B041F20C0542F200160446C4F25B
:1051F0000105C2F20006074617B1013F05E000BFF6
:105200002868274680F40050286030683168091A01
:105210000B29FBD3FDF732FF0128EDD14FF40050ED
:10522000686001B0F0BD000086B042F20008C4F230
:105230000208D8F800004EF60C5440F01000CEF2F0
:105240000004C8F8000020684FF6FF0640F2003561
:105250003040C0F2FA5541F2040740F204092843F5
:10526000C4F20207C4F201092060FBF751FA786921
:1052700040F001007861786900F00100009000982A
:10528000B86940F08050B861B86900F08050009073
:105290000098206830402843206020680020207358
:1052A000216860732168A0732168E074216820750B
:1052B0002168A0752168E075D9F80000022161F32A
:1052C0001A60C9F80000386842F2001600F00C00BD
:1052D0000428C2F2000640F08D8057F8040C3868AC
:1052E00000F00C00082800F09E806020C4F24220EC
:1052F00000210160316800BF57F8042C920104D5E9
:105300003268521A022AF7D98DE0396821F4003147
:105310003960396821F4741101F5E811396001210F
:105320000160306857F8041C890104D43168091AF7
:105330000329F7D377E0D8F8000010F0060F0CD15E
:10534000D8F80000022161F30200C8F80000D8F884
:10535000000000F00700022865D1386820F0F00056
:10536000386057F8040C80015DD53868022161F37C
:1053700001003860306841F2883100BF3A6802F0BD
:105380000C02082A04D03268121A8A42F6D94AE07E
:10539000D8F8000000F0070003280CD3D8F800006C
:1053A000022161F30200C8F80000D8F8000000F004
:1053B0000700022837D13868042161F30A203860D9
:1053C000386820F4605038603A6802F00C00082811
:1053D00041F20020C0F27A0030D1C2F383410FF2D3
:1053E0004C63595CD20320D440F60010C0F23D005B
:1053F000484323E0386800F00C00082803D13868DF
:10540000C0033FF56AAF57F8040C40F4803047F80A
:10541000040C306857F8041C89033FF560AF31680D
:10542000091A6429F6D9FFF711FB3A680FF20C63E9
:10543000C2F340429A5C4843B0FBF2F039680FF285
:105440000062C1F30311515C41F228454EF210088D
:10545000C840C2F20005CEF200082860FBF758F9F8
:10546000386844F6D35120F4800038602868C1F2CF
:105470006201A0FB01014FF0FF3000EB9111002011
:10548000B0EB116F08D1C8F80410F021E1750721C5
:10549000C8F80800C8F80010D8F8001041F004015E
:1054A000C8F800102168E075306800BF3168091A3B
:1054B000B1F5FA7FFAD941F2205BC2F2000B41F25A
:1054C000AC54DBF80000C2F2000494F8009040F6FF
:1054D000000A20F0030041F2A855C4F2010ACBF8FB
:1054E00000005FEAC970C2F2000540F0418100206F
:1054F000287041F2B450C2F200001C21FAF7B6FE47
:105500007869C00703D1786940F00100786104210F
:10551000C4F2010108680090009820F0010000909A
:1055200000980090009820F0E060009000980090B3
:1055300000980860786940F0040078617869400755
:1055400003D4786940F004007861DAF8000020F4B0
:105550007000CAF80000DAF8000040F43000CAF821
:105560000000786940F0040078617869400703D44E
:10557000786940F004007861DAF8000020F07040AB
:10558000CAF80000DAF8000040F03040CAF8000025
:10559000786940F0040078617869400703D478693D
:1055A00040F004007861DAF80C00022120F040009D
:1055B000CAF80C00DAF800004FF0010920F0706022
:1055C000CAF80000DAF8000040F00060CAF80000F5
:1055D0000120FAF745FF01200321FAF741FF41F2CC
:1055E0001C50C2F2000084F8009080F8009041F254
:1055F000B4510020C2F200012870088349F0020073
:105600002070786940F480507861B86840F4805028
:10561000B86000BF00BF00BF00BFB86820F4805072
:10562000B8600820C8F87402C8F8F40048F2010015
:1056300045F24041C0F20800C0F28901FCF7B8FF12
:10564000002840F0B88041F21C51DBF80000C2F2A3
:1056500000010A7820F00300CBF8000042F00200BD
:105660000870032005900598411E059170B16424CF
:105670009F20FCF7E7FB00940098411E0028009152
:10568000FAD10598411E00280591F1D142F2F205A8
:10569000C2F20005297842F2F408FF29C2F200089C
:1056A00072D1B8F800004FF6FF71884201D0FF2890
:1056B00019D10121059105994A1E059299B16424D9
:1056C0009020FCF757FB00940098411E00280091A1
:1056D000FAD10598411E00280591F1D12978FF29BA
:1056E00052D1B8F8000028B14FF6FF71884201D0BE
:1056F000FF281AD10121059105994A1E0592A1B1F1
:10570000642400BFAB20FCF735FB00940098411ED9
:1057100000280091FAD10598411E00280591F1D189
:105720002978FF2930D1B8F8000030B14FF6FF7169
:10573000884202D0FF2840F0F280012105910599AE
:105740004A1E0029059200F0E08064241520FCF731
:1057500079FB00940098411E00280091FAD1059829
:10576000411E00280591F1D12978B8F80000CDE05C
:1057700041F21C51C2F2000101220A70D8B15FEA65
:1057800089707FF534AF51E7B8F8000047F228443C
:10579000C0F60004E2688A4203D12269824200F026
:1057A000958054F8482F002AF4D141F66421002056
:1057B000C2F2000108607869042140F0200078619D
:1057C0007869C4F2010100F0200000900098786927
:1057D0004FF0020840F00400786178694FF40059F6
:1057E00000F00400009000987869EB4640F0080053
:1057F00078617869012400F00800009000987869C9
:10580000002540F010007861786941F20C0700F043
:105810001000009000980868C4F2010768F31A604D
:1058200008604FF08050C7F80490CAF810004FF499
:1058300080500090504659460194CDE90254FAF741
:1058400067FE0AF500605946CDE90094CDE902589B
:10585000FAF75EFE4FF40070CDE900050AF58060AE
:105860005946CDE90248FAF753FE41F66420C2F2E8
:1058700000000068316800BF3268521AB2F5487FF4
:10588000FAD9002800F0CD80002000F0FDF8282093
:105890002824FFF7A5FC012000F0F6F8002818BF27
:1058A00008242046FFF79CFC022000F0EDF80028B9
:1058B0007FF4B9AD386880F400503860306800BFBC
:1058C0003168091AB1F5FA7FFAD9F3E741F6602891
:1058D000C2F2000898F80020002A42D10425C4F240
:1058E00001052A68022363F31A621F292A6035D151
:1058F000B0F5185F15DAB0F50C5F1AD0B0F5105F8F
:1059000017D0B0F5145F14D028E0FF21FF297FF4F1
:105910003DAF4FF6FF7290423FF447AF36E7FF21AD
:1059200034E706D0B0F5205F03D042F2017188421F
:1059300014D16946D720FCF7EDFA78B9A0699DF833
:10594000001000F47F42000A00EB4010C90708BFB6
:10595000C20042F2FC00C2F200000280012088F87E
:1059600000006069B0F5804F41F66420C2F200008B
:1059700004607FF620AF607F10F01C0F3FF41BAF78
:105980000DF11200FCF796F900287FF414AF9DF892
:10599000120080063ED441F66421C2F2000109687B
:1059A000FF208DF81300C869B72142058DF8141047
:1059B0001DD4010516D4C00420D541F64824C2F2F6
:1059C0000004207858B9C520ADF80000FDF7D1FCDF
:1059D00068460221FDF77CFB00287FF4ECAE012035
:1059E00020700BE0FDF7C5FC00287FF4E4AE05A8AD
:1059F0000121FDF76DFB00287FF4DDAE0DF11300F2
:105A0000FCF758F900287FF4D6AE9DF81300800605
:105A10007FF5D1AE42F2F000C2F200000121017028
:105A2000C9E6032000F030F8FFF710F80203040580
:105A3000060708090A0B0C0D0E0F101001020000DA
:105A4000000000000000000001020304060708092E
:105A5000B0B50446006B884204BF0020B0BD2046AC
:105A60000D4601F077FA00B1B0BD04F13401002019
:105A70002A460123FDF78DF900281CBF4FF0FF35A2
:105A800001202563B0BD00002DE9F04F9BB041F629
:105A90006429C2F200090446D9F8000040F6100853
:105AA000C56941F64A2641F65C2AC4F20108C2F2F1
:105AB00000060020C2F2000A3070CAF800003CB1B3
:105AC000032C05D04FF08050C8F80000FBF757F8C2
:105AD00042F20017C2F20007386800BF3968091A9D
