:020000040800F2
:10000000584F0020010100082F0D00083508000896
:100010002D0D00083D020008094300080000000003
:10002000000000000000000000000000852D000816
:100030003F04000800000000310D0008892E000870
:100040001B0100081B0100081B0100081B01000820
:100050001B0100081B0100081B0100081B01000810
:100060001B0100081B0100081B010008DB0200083F
:10007000EB02000825030008510300086103000893
:1000800071030008810300081B0100081B01000820
:10009000A93700081B0100081B0100081B0100080C
:1000A0001B0100081B0100081B0100081B010008C0
:1000B0001B0100081B0100081B0100081B010008B0
:1000C0001B0100081B0100081B0100085328000841
:1000D0001B0100081B0100081B0100081B01000890
:1000E0001B0100081B0100081B010008DFF80CD0F1
:1000F00000F054F800480047D14B0008584F00204A
:100100000648804706480047FEE7FEE7FEE7FEE7B1
:10011000FEE7FEE7FEE7FEE7FEE7FEE7992E0008B2
:10012000ED000008CAB2401E10F8011F8A4202D03A
:100130000029F9D100207047421C10F8011B00294A
:10014000FBD1801A704730B504460020034600E01A
:100150005B1C934203D2E05CCD5C401BF8D030BD09
:100160000022CBB20178994200D10246401C0029FE
:10017000F8D11046704740EA01039B0703D009E01D
:1001800008C9121F08C0042AFAD203E011F8013B83
:1001900000F8013B521EF9D270470000064C074D93
:1001A00006E0E06840F0010394E807009847103447
:1001B000AC42F6D3FFF79EFF685F0108885F010835
:1001C000D2B201E000F8012B491EFBD27047002299
:1001D000F6E710B513460A4604461946FFF7F0FF46
:1001E000204610BD70B58C1810F8015B15F00703A0
:1001F00001D110F8013B2A1106D110F8012B03E0C0
:1002000010F8016B01F8016B5B1EF9D12B0705D4C7
:100210000023521E0DD401F8013BFAE710F8013B10
:10022000CB1A921C03E013F8015B01F8015B521E2C
:10023000F9D5A142D8D3002070BD0000FEE7000030
:1002400010B581B041F2140CC4F2020CDCF800309D
:1002500043F04003CCF80030DCF8003043F2000CEF
:10026000C4F2020C03F040030093009B0123CCF87E
:100270000830002300BF00BF00BFB3EB910F0ED0CA
:100280008B08C3F1000E00BF50F8043B1EF1010EB5
:1002900083EA020393FAA3F3CCF80030F4D111F00F
:1002A000030EDCF8001091FAA1F213D048F2203CC2
:1002B000CEF6B85C017882EA010308218CEA530289
:1002C000DC0708BF5A0801391346F7D10130BEF1E7
:1002D000010EEFD1D04301B010BD0020C4F20200E6
:1002E000016801F00F01416070470020C4F2020074
:1002F000016801F0F0014160C16921F00101C161B3
:10030000026A43F21860C2F20000016812B101B142
:100310007047002143F20C620023C160C2F2000268
:10032000137070470020C4F20200016801F470618C
:100330004160016B21F001010163426B43F21860DF
:10034000C2F2000001680AB101B170470161704753
:100350000020C4F20200016801F47041416070475E
:100360000020C4F20200016801F47021416070476E
:100370000020C4F20200016801F47001416070477E
:100380000020C4F20200016801F070614160704712
:10039000012818BF704741F21400C4F2020002683D
:1003A00042F0010202604A1E062A3ED80420C4F22E
:1003B0000200DFE802F0040A10171E252C000022BC
:1003C0000F2342604FF4006227E00022F023826195
:1003D0004FF4805221E000224FF47063C2624FF468
:1003E00000521AE000224FF4704302644FF480423E
:1003F00013E000224FF4702342654FF400420CE0FA
:1004000000224FF4700382664FF4803205E0002230
:100410004FF07063C2674FF4003203604EF2001079
:10042000CEF20000C0F8802102600120884040F236
:100430007811C2F200010A781043087070477047C3
:100440002DE9F04F82B041F20042042340F2004C0B
:100450004FF6FF7B4FF0010E0F274FF0000A4FF0D1
:100460000009C4F20102C4F2010CC1F2100B904267
:1004700008BF0323009300230A680EFA0AF812EA61
:10048000080F00F0D2804E685E4509DC032E35D897
:10049000DFE806F029023F43D1F80C9044E000BFAA
:1004A0004FF6FF72C1F2210296420DDC0022C1F22A
:1004B0001102964217D00022C1F21202964212D0C7
:1004C0000022C1F221020CE00022C1F22202964277
:1004D00009D00022C1F23102964204D00022C1F2BA
:1004E0003202964220D18A6882B1012A14BFC0F834
:1004F0001480C0F810804FF0080915E0112E0FD0BD
:10050000122E04BFCA6802F10C090DE04FF0040975
:100510000AE0CA6802F1080906E04FF0000903E0AA
:10052000CA6802F1040900BF1A460546BAF1080F6D
:1005300028BF203A28BF04352E6807FA02F409FACA
:1005400002F226EA040422432A60CA79D2066CD554
:1005500041F2180203F00C06C4F2020214461268BB
:1005600042F001022260226802F00102019207FAC1
:1005700006F2ACF57E77019C4FEA9A0457F82450B6
:10058000954340F60002C4F2010290420ED040F6BC
:100590000042C4F2010290420AD041F20002C4F2C9
:1005A00001029042009A08BF022202E0002200E00D
:1005B0000122B2402A4347F824204FF6FF77D1F8B2
:1005C00004B0C1F210075FEACB32DCF8002054BF60
:1005D00022EA080242EA0802CCF800205FEA8B32E5
:1005E000DCF8042054BF22EA080242EA0802CCF8F0
:1005F00004205FEACB22DCF8082054BF22EA08027C
:1006000042EA0802CCF808205FEA8B22BB464FF092
:100610000F0740F20C42C4F201021446126854BFA4
:1006200022EA080242EA080222600AF1010A0433BF
:10063000BAF1100F04BF02B0BDE8F08F1CE740F222
:10064000440044F6D351C2F20000C1F262010068D6
:10065000A0FB01014FF0FF3000EB91110020B0EB47
:10066000116F18BF70474EF21002F023CEF2000255
:1006700051604EF60C51CEF20001CB75072390600D
:1006800013600A68C8757047B0B5014643F6E86064
:10069000C2F200000029D0F85C440CD0D4F8140257
:1006A0004269002A6ED094F8FC0103286AD12046E2
:1006B000BDE8B0401047D4F8F421022A5AD1D4E959
:1006C0000732934214D900EB4110991A0025C06BF0
:1006D000E16189B2D4F8202202F13C0323C34FF434
:1006E0008070114621F8280F106802F0A1FF1BE06E
:1006F000A069904223D3B0FBF2F101FB1201F1B9E2
:10070000D4F8F81188421AD2D4F8200200254FF408
:1007100080720146C0E90F55456421F8282F006812
:1007200002F086FFC4F8F851D4F82012C1F83C5208
:10073000C1F84052C1F84452A1F8285215E0D4F84B
:100740001402C16829B194F8FC01032801D12046A4
:1007500088470520C4F8F4010020D4F82012C1E92C
:100760008F00C1F84402A1F82802086801F50A7157
:1007700002F05EFF94F80002012802BF002084F816
:100780000002B0BDB0BD10B5014643F6E860C2F24C
:1007900000000029D0F85C440BD0D4F81402826920
:1007A00052B394F8FC01032826D12046BDE810403E
:1007B0001047D4F8F421032A1ED1D4E943329342DE
:1007C0001BD900EB4110991AD0F83C02C4F80C1167
:1007D0009142D4F820324FF00004A3F8284238BFE9
:1007E0000A4691B203F50F7213C203F50A71186835
:1007F000BDE8104002F01CBF10BDD4F8140201691E
:1008000029B194F8FC01032801D12046884704202F
:1008100000214FF48072C4F8F401D4F82002C0E93A
:100820000F114164014621F8282F0068BDE81040EF
:1008300002F0FEBEFEE7B0B5D0F81852044695F8B7
:100840001802D8B12046812102F0B0FD687A022852
:1008500018BFB0BDD4F8201205F503701F23002285
:10086000C1E997030120C1F86422A1F84802086891
:1008700001F51271BDE8B04002F0DABED5F81402FD
:100880000028DFD0687A0028DCD12046012102F060
:100890008DFDD7E710B5D0F81842627A022A05D14B
:1008A000812102F083FD0020607210BD49B2B1F1D8
:1008B000FF3FFADC012A08BF10BD0121BDE810404E
:1008C00000F0CFB810B50446D0F81802017ACA1E5D
:1008D000022A05D220460021BDE8104000F0C1B830
:1008E000022910D190F8191200F21B22204601F0C3
:1008F0002FFBB0F1FF3FC8BF10BD20460121BDE86E
:10090000104000F0AEB810BDB0B5D0F81852044693
:10091000287A012834D0E8BBD5E98401C5E98C01E7
:10092000D4F82002B0F864021F2810D145F25531E6
:10093000D5F80C02C4F24231884208D195F8191258
:10094000012904D895F81A020138102823D395F804
:100950005D024FF4005205EBC0010130C1F84022A6
:10096000052281F83C2202216972C1B2043918BF04
:10097000014685F85D122046BDE8B040FFF75BBF39
:1009800095F8191205F21B22204601F0E1FAB0F1A8
:10099000FF3F34DDB0BD05F21B22204601F0D8FA3E
:1009A000297AB0F1FF3F28DD481E0328F2D3688979
:1009B00058B3D4F818124FF0000C042381F838C251
:1009C0000B72D1F81432D1F83422834238BF184662
:1009D000121AC1F8342205F10C01D4F82022C2E920
:1009E000171040F201101146C2F864C021F8480FF8
:1009F0001068BDE8B04002F01BBE0529BBD12046FF
:100A00000121BDE8B04000F02CB820460021BDE82F
:100A1000B04000F026B870B5D0F818620025044642
:100A20003581A6F85C52D0F81C0201680020884786
:100A3000D4F82012012291F82804012818BF81F867
:100A40002854A1F848221F2006F50372C1E9972017
:100A5000C1F86452086801F51271BDE8704002F0F7
:100A6000E7BD70B5D0F81852044645F2553000265F
:100A7000C5F2423085F83812C5F82C022E720D21CD
:100A800005F50B72D4F82002C0E9172140F20112DB
:100A90000146466621F8482F006802F0C9FDD4F8E7
:100AA00020121F2005F50372C1E997200120C1F82B
:100AB0006462A1F84802086801F51271BDE870404F
:100AC00002F0B6BDB0B543F6C4440125C2F200043D
:100AD00084F8FC51D4F814022179426820469047EA
:100AE000D4F8200290F82814012906D1002841D01A
:100AF000032180F82914016823E0016844F2FF2CE7
:100B00000324B1F8402002EA0C02A1F840200022A0
:100B1000A1F84050A1F84420A1F8404080F82944B1
:100B200080F828240168B1F8403003EA0C03A1F8EA
:100B30004030A1F84050A1F84420A1F8404080F88E
:100B4000282445F6004200F22940C4F200029142F6
:100B50000ED141F21C01C4F202010A6822F4000223
:100B60000A604EF280114FF48012CEF200010A604A
:100B700000210170B0BD000043F6C44CC2F2000C6D
:100B8000DCF8140210B10020CCF8140270B581B06A
:100B900040F2080043F6E86145F6004601220023D2
:100BA0004FF0030E0824C2F200008CF8FC21C2F2C0
:100BB0000001C4F20006CCF8100202208CF80030CC
:100BC000C1F85CC4CCF82012C1E906330B62C1E95C
:100BD0000064C1E9020E91F8290480BB41F21C00B7
:100BE00081F828344FF0FF35C4F20200046844F461
:100BF00000040460006800F40000009000984EF6C5
:100C00000C50CEF200000068C0F30220C41E80F039
:100C1000070038BF0024042828BF042005FA00F08C
:100C20000A2525EA0000A0404EF200140001CEF291
:100C3000000484F814034FF4801020600E6881F8DB
:100C400029E444F2FF24B6F8400020400024A6F82E
:100C5000400000200D182030AC8685F82840013473
:100C6000B0F5F07F85F82920C5E90E332B6485F8AF
:100C70002B30EFD100220020002300BF0D182030C0
:100C800085F8283285F82922C5E98E22C5F8402248
:100C900085F82B22AB860133B0F5F07FEED1012031
:100CA0000022A6F84000A6F84020A6F84420A6F8A6
:100CB0005020B6F8403043F43F43A6F8403081F866
:100CC000242081F829041821DCF82002A0F82C1235
:100CD000582180F8322280F8322080F85220818515
:100CE000982180F85222A0F84C10D821A0F84C127C
:100CF00040F20411C2F20001CCF81C1240F2600173
:100D0000C2F20001CCF8141290F82814012901B0A5
:100D1000BDE8704008BF70470168B1F8403043F447
:100D20003F43A1F8403080F828247047FEE7704721
:100D3000704700002DE9F04FADF52D7D40F27C1598
:100D400080464FF45051C2F200052846FFF73FFAA3
:100D500040F2281628463E22C2F20006314603F031
:100D6000FDFA074605F5FE7006F14201042203F084
:100D7000F5FA3E3640EA070405F5007004223146D4
:100D800003F0ECFA044305F580503146042203F0E9
:100D9000E5FA40F2240105F5F05604432022C2F2A0
:100DA0000001304603F0DAFA44EA000143F6AD20D0
:100DB000C2F200000078012840F0D3840496CDE907
:100DC000021841F6086045F255014CF2FF384FF029
:100DD0000F0B4FF0000A40F6FF7E295244F24211F9
:100DE000CFF67F5841F60460C4F64331295000BF66
:100DF00040F27C10C2F200000146407B096AB1FB60
:100E0000F0F4A0B2022871D340F27C11CAEBCA0000
:100E10000022C2F2000101EB402000F2032500BFD6
:100E200028685FFA82FCA3B24FF6FF71022B20EA1A
:100E30000E0040EA8C0000F10306A8882E6032D034
:100E400000EA010940F2FF300CF10101032BCFF65B
:100E50000070A5F8049000EA060040EA813028609E
:100E60002FD018F140714FEA8C066BF11F07084034
:100E7000711D042B40EA016007EA0907286047EA70
:100E8000112100EA0800A98029D0286001EA0B009E
:100E9000B11D043C013240EA0110A880A0B2063521
:100EA0000128BDD822E008404FF20001A88040F29E
:100EB000FF30C0F2FF01CFF60070304008432860D9
:100EC00014E018F1407100EA010040F07F40286012
:100ED0006BF11F0000EA090040F00F0005E02860F8
:100EE00001EA0B004FF6F0710843A8800AF1010AED
:100EF000BAF1020F7FF47CAF4FF40D7005F080F96A
:100F000043F6C04B804605AE2B21C2F2000BCBF856
:100F1000000043F63020C0F22F0010903046FFF75B
:100F200056F9039C2046FFF707F902463046214652
:100F3000FFF721F930462F21FFF7F4F848B15F247D
:100F400005AD00BF047028462F21FFF7EBF80028FD
:100F5000F8D143F6BC4A46F220314FF6FF72C2F296
:100F6000000AC0F60001DAF8000000BFCB68FF2BD2
:100F700002D10B69934207D001F5D073D1F8A011CB
:100F800000291946F2D10021884219D005A8FFF79F
:100F9000D3F8262814D305AD002400BF28465F21CE
:100FA000FFF7DEF8074628462921FFF7D9F88742E0
:100FB00098BF471C28463C70FFF7BEF82528EDD89F
:100FC0003046FFF7B9F846F22E210DF14009C6F67A
:100FD0006961CDF86C9231503044002101719BA8B9
:100FE00003F096FD002812DB43F27C51C2F20001AF
:100FF00051F820200AB100231370B8F1000F1CBF74
:10100000002288F8002041F82080002000E00B201A
:1010100043F6AE28A796C2F2000888F80000A7A8F9
:1010200003F076FD002835DB43F27C51C2F200016B
:1010300051F8207087B3397881B303979B97A79FA6
:101040009BAA00E0013738785C2818BF2F28F9D018
:1010500000209D90397820294DD2802000218DF8E4
:1010600097029BA803F048FC0546002D00F049823A
:10107000042D9BA840F0CC819DF8971211F0A00F91
:1010800000F04D8206250DF1400943F6AE28C2F26C
:101090000008BDE10B25BBE10C25B9E17870002506
:1010A000384600213D7003F0C5F902281ED19BACE3
:1010B000002021463A18103092F8F631002B14BF68
:1010C000D2F8FA21002241F8042B4028F2D1002660
:1010D00054F8265035B13846294603F0ABF90228BA
:1010E00001D269E103200136042EF1D3042840F037
:1010F000618101258CE145F6AF34039802F1200EA1
:101100004FF0203CC0F60104C0680137002932D0FE
:1011100000224BB2B3F1FF3F01DDCBB208E045F650
:101120006663C0F6010303EB41016FF0FF03CB5A86
:10113000202B1ED35C2B4FF0000118BF2F2B1ED08D
:101140007F2B0CD8264600BF16F8011B09B18B4235
:10115000FAD106253F2A00F25B8119B158E13F2AF6
:1011600000F2268120F81230013217F8011B002905
:10117000CFD1042103E00421002200E001373B78B5
:101180005C2B18BF2F2BF9D0002A00F00F8100EB49
:101190004203524233F8026C2E2E18BF202E03D188
:1011A000023B0132F6D101E1002652421E8000BF0F
:1011B00030F816300136202BFAD02E2B41F00305E3
:1011C00008BF2946831E012E18BF2946751E00BF81
:1011D00032B133F81260013A2E2EF9D1531C00E0DF
:1011E0000023CEF807C0CEF800C0CEF804C0CDF87A
:1011F00004E0A3F101094FF0080E4FF000084FF092
:10120000000C00BF30F815602C460135202E03D0AD
:101210002E2E04D1A1451AD041F00301F2E7002E91
:1012200064D0F4455CD2A1455AD0802E33D300243B
:101230000022009345F66663C0F6010333F81430CC
:10124000B34219D001340132802CF3D315E00122CE
:101250001D4641F00306BEF10B0F00F0A480002AEA
:1012600008BF31469D4241D84FEA88084FF00B0E27
:101270004FF0080C1D46C5E72246803241F00201BE
:10128000D6B2120606D546F26C2306F07F02C0F6EF
:1012900000039E5C009B4EB145F64432C0F601024D
:1012A00012F8014B0CB1A642FAD14CB141F0030146
:1012B0005F269BAA62440CF1010C82F82060A1E732
:1012C000412EF6D35A2E02D848F00208F1E7A6F1D3
:1012D000610292B2192A9CBF203E48F00108E8E75B
:1012E000A9EB0402B2FA82F25209B2E70E469DF867
:1012F0008C020DF14009E52804BF05218DF88C1200
:101300009BA8BEF1080F08BF4FEA880808F0030247
:1013100046F00201032A08F00C0208BF0E460C2A10
:1013200008BF0E46B10707D4102101EA081208F0E1
:10133000040142EA41010E438DF8976203F0C2F8BE
:1013400005469DF89702002D40F0FB8243F6AE283B
:101350004107C2F2000800F1D6809DF87202C00673
:1013600040F1FA829F98039B6FF35F20191891F860
:101370004E0091F84F2040EA02201A78032A06D145
:1013800034310A7D497D42EA012140EA01409D90C5
:1013900045F6AF34DDF804E04FF0203C39789B98F7
:1013A000C0F60104B0E64FF00B0EA0E7002101806B
:1013B00006252DE001282AD897F83F0097F840101D
:1013C00040EA0120B0F5007F21D197F84A0097F854
:1013D0004B1040EA012000B9B86DF86197F844302D
:1013E000591EBB70012912D897F84120002A7A8132
:1013F0000DD0511E11420AD13C4697F8457094F821
:10140000461047EA01213F07218100F011830D2595
:1014100000241194DBF800100498C02288F80050D2
:101420003431FEF7A8FE002C00F05A812078002805
:1014300000F05681E088BDF848102546814218BF6B
:10144000002540F04D819DF8540041060CD42078D1
:10145000002800F04581E088BDF84810814240F046
:101460003F81002611963CE1000611D511A8189A7B
:101470000123012600F12801002001F0DDFB0028F6
:1014800040F02F819DF8540000F07F008DF854004B
:101490001999284604F0D0F80646002840F021812A
:1014A0001A98C17A41F02001C1721399119A0B0A5E
:1014B0008176C3761278032A03D10A0E090C42758D
:1014C000017514994BF2C032C5F26A120177C0F867
:1014D0001620002242820A0EC2770A0C090A82777D
:1014E00041770120E870284604F02CFE002800F027
:1014F000AC8006469DF8540000F0BF008DF8540003
:10150000EFE09DF8970240B20028FFF651AF9DF83A
:10151000720210F0110F00F02E82072578E79B9BD6
:101520000027DA6832F8171001370029FAD10022B3
:101530000DF52878811891F8201008F80210013272
:101540000C2AF7D19DF8AB220093D10700F01A8145
:1015500041F2210A402100F1200C4FF0010E4FF022
:101560000309ABAC4FF0000BC0F2010A8DF89712E3
:10157000DE680021421818F8013001310B2982F889
:101580002030F7D1BEF1050F754615D93288754662
:1015900092B100BF1023294602F00105520845EA26
:1015A0004105090448BF85EA0A05013B2946F3D1F4
:1015B00036F8022F002AEDD1072600BF294669F32D
:1015C0001F11392988BF0731A155013E2909BBEBFD
:1015D000151F0D46F2D17E21002EA1554FF00001BE
:1015E00007D000BF1CF80120202A02D00131B142EF
:1015F000F8D3CDF804E000BF072E00EB010301F1A2
:1016000001019ABFA25D01362022082983F820201B
:10161000F2D3664602F056FF002840F0A780DDF8BE
:1016200004E0009B9BA8B4460EF1010EBEF1640FCE
:101630009ED343F6BC4A43F6C04BC2F2000AC2F244
:10164000000B40F0778107251DE5287803283DD160
:10165000287901283AD105F138004FF4FD71FEF7E1
:10166000B6FD45F252200024C4F2611045F8340F53
:101670004AF65520A5F8FE0147F27220C6F2411045
:10168000C5F8E40155E9090155F8142C0B0E85F84D
:10169000E81185F8EC01013285F8EB310B0C090AF1
:1016A00085F8EA3185F8E911010E012385F8EF117B
:1016B000010C000A85F8EE1185F8ED01002029469D
:1016C00045F8042C01F0B8FA05F8304C9DF85400A8
:1016D00000F0BF008DF85400119C002C7FF4B7AED1
:1016E00009269BA888F80060CDF86C9203F010FAE8
:1016F000002811DB43F27C5140F27C14C2F200015D
:10170000C2F2000451F82020002A1CBF00231370ED
:10171000002241F8202004E040F27C140B22C2F2A7
:101720000004DBF8000088F8002004F041FD98F880
:10173000000008B1FF2114E041F6DC60221800BF70
:1017400052F8241CA2F1200002460029F8D0DAF851
:10175000002001F50031526940F8041C0299920200
:10176000026048B20DF52D7DBDE8F08F43F6AE283E
:1017700005460428C2F2000840F0F0809DF8AB2234
:101780008DF8972290074FF0010609D54EF64F418C
:1017900007F10B00C4F6C461A0FB010106EB910642
:1017A0009B9F9BA8002103F0A7F843F6AE2843F6C1
:1017B000C04B054600280DF14009C2F20008C2F2F4
:1017C000000B18D100240DF51B7AA199384603F0BF
:1017D00033FF78B9A2980078E52800D018B9013411
:1017E000B44201D10DE000245046012102F03EFF39
:1017F0000028EAD00546042D08BF0725002D40F03B
:10180000B380B6F101096FD09F980DF51B78A0EB5E
:101810004911404603F070F843F6C04B43F6BC4A0A
:1018200005460028C2F2000BC2F2000A7FF42BAC7E
:101830004FF0000B20205FFA8BF218F800100130F7
:1018400053082B2843EAC21202EB010BF3D146F2F4
:10185000EC2A4FF6FF760DF51B78C0F6000A009CC7
:10186000A199204603F0E8FE002840F06581A29887
:1018700000220F23E1680D270025A4464283A0F82B
:101880000B305FFA89F380F80DB07B430D3B1AF8FB
:101890000240B5421ABF31F8135001334FF6FF75BD
:1018A0002F0A0132002D05550444677008BF3546E4
:1018B0000D2AECD1B54202D149F0400106E031F8E1
:1018C00013100029494608BF49F04001017001206A
:1018D00000218CF80300404602F0C8FE002840F0CA
:1018E0002B81B9F10109BAD1A199009803F0A4FEA6
:1018F00043F6C04B43F6BC4A05460028C2F2000B33
:10190000C2F2000A7FF4BFABA2982021FEF75FFC71
:101910009BA8A29A00212030435C535401310B292B
:10192000FAD19DF89702A29900F018000873009967
:101930000120C87043F6AE280DF14009C2F200083C
:1019400019E043F6AE28042DC2F200087FF48DABF7
:1019500040079BA83FF590AB052559E543F6C04BE2
:101960000DF14009C2F2000B43F6BC4A002DC2F251
:10197000000A7FF44DADA298039B817EC27E41EAAE
:1019800002261978032905D1017D427D41EA022111
:1019900046EA01464BF2C0312022C5F26A11C0F876
:1019A0000E1000214183C2721A78032A08BF818277
:1019B000C1610120002ED87000F09880012E01D165
:1019C000022525E55446DDF86CA2DAF81800B0428D
:1019D0002BD903983546006B0190504611E0DAE9A7
:1019E0000510821E914208D20131CAF814109AF8EB
:1019F000041041F001018AF8041087426AD29B98D2
:101A00003D46294603F01DF80746013000F09F804F
:101A1000002F5FD0012F08D050462946002203F046
:101A200027FE0028DBD0054600E00225A246EFE4B1
:101A300094F8477094F8486047EA062606B9666D40
:101A400094F84270039494F8434047EA0427002F27
:101A50003FF4DDAC434303EB11143C44A642FFF4D6
:101A6000D6AC361B9642FFF4D2AC4FF6F67CB6FBF2
:101A7000F2F24FF000084FF6F676C0F6FF7C6245B2
:101A800038BF4FF00308B24240F6F67638BF4FF049
:101A90000208B24238BF4FF00108B8F1000F6BD016
:101AA0006619039C2F440232B8F1030FE662C4E9C1
:101AB0000857A2614DD1039F97F85E3097F85F7089
:101AC000194341EA0721002956D1039B196E9962F7
:101AD00091004CE0039F0199384603F0ADFD0546A7
:101AE000701EA246002D38617FF492AC039C206BDF
:101AF0001990A2981A90817EC27E41EA0221227832
:101B0000032A05D1027D437D42EA032241EA0241D4
:101B1000139100254821C06914901194E08818950C
:101B2000ADF854104FF40071ADF8480011A81695A7
:101B30002830FEF74CFB6DE443F6C04B43F6BC4A3D
:101B40000546C2F2000BC2F2000AFFF79CBA01255B
:101B50006CE789B1F918039BB8F1020F99620FBFC6
:101B6000510002EB420102F0010202EB510101F2CD
:101B7000FF11B0EB512F02D20D25FFF786BA039962
:101B80004FF0FF30B8F1030FC1E904004FF08000BF
:101B9000087132D1039991F8640091F8651040EA18
:101BA0000120012829D10398691C03F045FD20BBC1
:101BB00003990020087191F8320291F8331240EA3B
:101BC00001204AF65521884217D1039845F2522147
:101BD000C4F26111406B88420FD1039847F2722121
:101BE000C6F24111D0F81802884206D1039AD2F801
:101BF0001C02D2F82012C2E90410039F43F288505D
:101C0000C2F2000087F8008043F6AE280188C2F2D5
:101C100000080131018043F28A50C2F20000F860EE
:101C2000F980FFF70ABA0000B0B582B043F2106540
:101C30000446C2F200052878800702D44FF0FF3036
:101C400034E043F20C60C2F20000007810B16FF093
:101C500001002BE043F21460FF21C2F20000C0F249
:101C60001801006808400121C0F208018842E5D14E
:101C700040F610004FF480110222C4F2010001600E
:101C800015208DF8040001A8811C00F00BFF68B935
:101C900043F21860C2F2000001E000BF00BFC1685B
:101CA0000229FBD19DF807002070002029788907C0
:101CB00019D543F20C61C2F20001097899B943F2D7
:101CC0001461FF22C2F20001C0F21802096811403B
:101CD0000122C0F20802914205D140F61001102203
:101CE000C4F201010A6002B0B0BD000010B584B0BA
:101CF00043F2106400210391CDE90111C2F2000406
:101D0000217889073AD543F20C61C2F200010978C3
:101D1000A1BB43F21461FF22C2F20001C0F218021B
:101D2000096811400122C0F20802914226D140F612
:101D300010014FF48012C4F201010A608DF8040012
:101D400001A80622811D00F0ADFEB8B943F218606B
:101D5000C2F2000001E000BF00BFC1680629FBD14C
:101D600044F24A309DF80E109DF80F20C2F2000098
:101D7000017044F24C30C2F20000028020788007EB
:101D800019D543F20C60C2F20000007898B943F212
:101D90001460FF21C2F20000C0F218010068084080
:101DA0000121C0F20801884205D140F6100010213F
:101DB000C4F20100016004B010BD000010B582B093
:101DC00043F210640021CDE90011C2F20004217831
:101DD00089073BD543F20C61C2F200010978A9BB27
:101DE00043F21461FF22C2F20001C0F21802096836
:101DF00011400122C0F20802914227D140F61001A1
:101E00004FF48012C4F201010A608DF800006846A8
:101E10000422011D00F046FEC0B943F21860C2F270
:101E2000000000E000BFC1680429FBD144F24A3041
:101E30009DF80510C2F200000170BDF8060044F2E2
:101E40004C31C2F2000100BA000C088020788007F3
:101E500019D543F20C60C2F20000007898B943F241
:101E60001460FF21C2F20000C0F2180100680840AF
:101E70000121C0F20801884205D140F6100010216E
:101E8000C4F20100016002B010BD0000B0B582B024
:101E900043F210650446C2F200052878800702D498
:101EA0004FF0FF3034E043F20C60C2F200000078E3
:101EB00010B16FF001002BE043F21460FF21C2F279
:101EC0000000C0F21801006808400121C0F20801BA
:101ED0008842E5D140F610004FF480110222C4F28E
:101EE0000100016005208DF8040001A8811C00F0AC
:101EF000D9FD68B943F21860C2F2000001E000BFEA
:101F000000BFC1680229FBD19DF8070020700020A6
:101F10002978890719D543F20C61C2F200010978CA
:101F200099B943F21461FF22C2F20001C0F2180213
:101F3000096811400122C0F20802914205D140F621
:101F400010011022C4F201010A6002B0B0BD00000D
:101F50002DE9F04182B00446107816460D46192846
:101F600013DDA0F11A0110292CD8DFE801F048098F
:101F70004141094141414159417D41419541D9008A
:101F8000D4F81802002545811CE2002800F00C81DD
:101F9000032800F0238112282AD17178D4F818027E
:101FA000C90740F05781D4F81C2205EBC501D2695E
:101FB00002EB81010A79531D32799A4240F2E381A2
:101FC0001A4649E12F2800F033815A2810D1D4F85D
:101FD000180208210FF2B04241811330002100BFE6
:101FE0005318DB794354013911F10803F8D13CE16E
:101FF000D4F8180290F85D124FF400533BE1D4F886
:10200000180208210FF2884241811330002100BFDD
:102010005318DB794354013911F10803F8D124E155
:10202000D4F81862002069460DF106027061306133
:10203000F060D4F81C0243682846984700BB08208B
:102040000221F0730098B1820138010AF074B17472
:10205000010C000E717430740C21BDF80600F0758F
:10206000000A7181B07500E1D4E98660436806F525
:10207000187106F25E2228469847002800F0018178
:10208000D4F818024FF4685390F85D1200EBC102C7
:10209000C2F8403202238BE1D4F81872387AB8467D
:1020A000002800F002814FF400767E8108F10C07D1
:1020B000B8F85E02D8E99913B1FBF0F2B3F5007FEE
:1020C00038BF1E46B6FBF0F0394683B2D4F81C0286
:1020D000D0F810C02846E047B0F1FF3F40F35881E8
:1020E000D4F82002002540F201120146C0E917761B
:1020F000456621F8482F006801F09AFAD8F83402B2
:10210000D8E99912921B3144A0EB0600C8E9991254
:10211000C8F8340240F05681032088F80800A4E093
:10212000D4F81872387A002800F0E380B7F85E021D
:10213000D7E9991607F10C08B6F5007FB1FBF0F26C
:1021400028BF4FF40076B6FBF0F0414683B2D4F8D6
:102150001C02D0F814C02846E047B0F1FF3F40F31E
:102160001C81D7F83412D7E999028319901BA1EB8F
:102170000601C7E99930C7F8341200F02781D4F876
:102180002012B0F5007F28BF4FF400700025C1E990
:1021900097800120C1F86452A1F84802086801F54F
:1021A000127101F045FA0DE1D4F81862D6F8140264
:1021B000002800F0CA8096F85D024FF4005206EB4A
:1021C000C0010130C1F84022052281F83C22C1B291
:1021D000043918BF014686F85D12F2E0D4F81842BF
:1021E000112104F10D00FDF7F2FF0C20E0747020C6
:1021F000207394F85C0294F85D12884211D004EBCD
:10220000C001013091F83C22A27391F8412222765C
:10221000C2B2043A18BF024691F8400284F85C2228
:102220006076122060813079122898BF60811CE0AE
:102230007178D4F81802890719D4D0E99812B0F847
:1022400068321A448A427FF69DAE90F85D124FF4D0
:10225000045310E090A10722428100BF013A93B2DB
:10226000CF5CC618002B3773F8D10025AAE090F890
:102270005D124FF4105300EBC102C2F84032052347
:1022800096E00025082035827081B6F85E02F07471
:10229000000AD6F860120139F173B074080AB073FD
:1022A000080C7073080E30738CE097F91802002840
:1022B00038DAD4F81C0281682846884700287FF461
:1022C000DFAED6F8020000BAC7F86402F179327ABC
:1022D00042EA0121C7F868120A18D4F81882D8F81F
:1022E00060329A4240F2AF8098F85D024FF4045297
:1022F000BAE097F91802B0F1FF3F13DDD4F81C02E1
:1023000081682846884700287FF4BAAED4F81C02BA
:10231000C16828468847002861D0D4F818024FF4D5
:102320001C53B1E697F85D024FF4005207EBC00171
:102330000130C1F84022052281F83C22C1B20439A3
:1023400018BF014687F85D123BE0D4F81C02816893
:102350002846884700283FD0D4F818024FF4685325
:1023600090F85D1200EBC1020131C2F84032022345
:1023700082F83C32CAB2043A18BF0A4680F85D229D
:10238000052030721DE0002A42817FF467AF6CE7C0
:10239000D4F818024FF4885303E0D4F818024FF42D
:1023A000407390F85D1200EBC102C2F84032042382
:1023B000013182F83C32CAB2043A18BF0A4680F8AA
:1023C0005D22FF2568B202B0BDE8F0812046002101
:1023D0000025FEF746FBF5E700257581F2E7D6F804
:1023E000020002BAC7F86422F079317A41EA00218A
:1023F000C7F868128B18D4F81802D0F86062B3429C
:102400003FF623AFB7F85E3259435A43C7E99921E3
:10241000D7F814228A427FF4EDAD0120002507F1A0
:102420000C03B1F5007F3872D4F8202228BF4FF496
:102430000071C2E99731C2F86452A2F8480202F56D
:1024400012711068ADE602223A72B7F85E2251436B
:102450005043C7E99901D7F8140288423FF423AEEC
:1024600098F85D024FF4005208EBC001C1F8402219
:102470000522013081F83C22C1B2043918BF01465F
:1024800088F85D129DE700BF000600000000000014
:102490000000000000000000000000030080830036
:1024A0002DE9F04143F2106CC2F2000C9CF80030B0
:1024B0009A0702D44FF0FF322FE0C5B2142D24D179
:1024C00043F20000C4F20100818821F00201818002
:1024D0001C21C4F202014A6922F001024A61828889
:1024E00022F001028280086820F00100086043F2B7
:1024F00018601C21C2F20000FDF769FE43F20C6077
:102500000022C2F20000027007E043F20C62C2F245
:102510000002127822B16FF001021046BDE8F0818E
:10252000132D20D86FF0060200260024DFE805F006
:10253000100B0E0A0A1B1B1B1B1B1B1B1B1B1B1B35
:102540001E2E3D43E9E70424012601E00024022673
:10255000C0F30222032A48D8DFE802F04F024A4DB6
:1025600044F0010449E06FF00302D6E745F200129F
:102570000020C0F2252200BF0746072800F29F80F6
:1025800022FA07F3781C9942F6D39DE043F200004B
:102590004AF20021C4F20100C0F24A410088C0F3AF
:1025A000C200013021FA00F2B7E743F21860C2F22C
:1025B000000001834BE143F21460FF22C2F20000ED
:1025C000C0F21802006810400122C0F208029042D6
:1025D0007FF470AF40F6000000290CBF10214FF4CB
:1025E0008011C4F20100016131E16FF0070294E74C
:1025F00044F0020401E044F0030400F47C32B2F53C
:10260000004F04D0B2F5803F35D104F5006480223C
:10261000022E02EAD02244EA020E2FD0012E4CD123
:10262000C0F3C14001287BD0022800F09C80032821
:1026300040F0BC8041F21800C4F20200026842F08F
:1026400004020260026852075EBF026842F00402A0
:10265000026040F60000C4F20100026822F4702219
:102660000260026842F4302202600120C0F20800D9
:1026700000F58010B2E06FF008024EE741F2180258
:102680008002C4F20202146834D444F004001060E2
:10269000106840075EBF106840F00400106040F60C
:1026A0000000C4F20100026822F470220260026895
:1026B00042F430220260022090E000208EE0082FD9
:1026C0003FF4F8AE22FA07F38B423FF6F3AE43F243
:1026D0000000C4F20100018821F04001018001885E
:1026E00021F0380141EAC7010180018841F0400131
:1026F0000180ACE060075EBF106840F0040010602D
:102700004EF4007E40F60000C4F20100026822F49C
:1027100070220260026802600220C0F220005DE0C8
:1027200041F218004EF4407E4FF02008C4F202003F
:10273000026842F004020260026852075EBF02684B
:1027400042F00402026040F60000C4F20100026898
:1027500022F470220260026842F4403202600120DA
:10276000C0F208003CE041F218004FF02408C4F227
:102770000200026842F004020260026852075EBF73
:10278000026842F00402026040F60000C4F2010058
:10279000026822F470220260026842F43022026071
:1027A0000120C0F2080000F5002019E041F21800F5
:1027B0004EF4407EC4F20200026852075EBF026817
:1027C00042F00402026040F60000C4F20100026818
:1027D00022F4702202600268026001204FF020089B
:1027E00045F2001500240026C0F225252246072EBA
:1027F00007D825FA06F702F108040136B942F5D3E5
:1028000004E0082E3FF456AE25FA06F78F423FF655
:1028100051AE43F2146142EA0E02C2F200010860B6
:1028200043F200018007C4F2010143F004000C8868
:1028300024F040040C80A1F804800A8008BF03F053
:10284000FB008CF80000088840F04000088000225F
:1028500063E643F20000C4F2010001894A0631D563
:102860000188090510D443F2186290F80CC0C2F236
:1028700000021368D16899421CD25368D3B1591C25
:10288000516083F800C015E043F21862B0F80CC044
:10289000C2F200021368D16899420BD253684BB15F
:1028A000591C516083F800C051684B1C53604FEABB
:1028B0001C220A7043F21861C2F20001CA68013298
:1028C000CA6001898A0644BF0288028010B5CA071F
:1028D0003FD0828852063CD543F2186EC2F2000EF9
:1028E000DEF80030DEF80C209A4232D2028812055F
:1028F0000AD490F80CC0DEF80430BBB15A1CCEF8F4
:10290000042083F800C011E0B0F80CC0DEF80430F9
:1029100063B15A1CCEF8042083F800C0DEF804200E
:10292000531CCEF804304FEA1C231370DEF80C3031
:10293000DEF8002001339342CEF80C3009D18288B2
:10294000002322F04002828043F20C62C2F20002B5
:102950001370890744BF81885FEA016100D410BD0C
:1029600043F2186CC2F2000CDCF80020DCF81030E6
:10297000934228BF10BDB0F800E0DCF808405FEAE1
:102980000E510DD4002C0FBF9CF81810611CCCF810
:10299000081021780173DCF80020DCF810300FE01B
:1029A0005CB1611CCCF80810214611F802EBCCF8A0
:1029B000081061784EEA012101E0BCF8181081810D
:1029C000591CCCF81010914202BF818821F080017F
:1029D000818010BDB0B502466FF00400002A5DD0C2
:1029E00000295BD043F21060C2F20000007840077B
:1029F00055D543F20C6EC2F2000E9EF8000010B1E5
:102A00006FF00100B0BD43F21460C2F20000007824
:102A10000138012843D843F2186C012300201C24FC
:102A20008EF8003043F2000EC2F2000CC4F2020431
:102A3000CCE90010CCE90220C4F2010ECCF8100061
:102A4000BEF800300EF10C051B0540F2025358BFD2
:102A500002232360A5600CF11403E3606160236826
:102A600043F001032360BEF8043043F00103AEF8E5
:102A70000430BEF800301B0540F2925358BF922339
:102A80006361E5612262A161616941F001016161F7
:102A9000BEF8041041F00201AEF80410B0BD4FF0D2
:102AA000FF30B0BD10B504466FF00400002C56D0C6
:102AB000002954D0002A52D043F21060C2F2000024
:102AC000007840075CBF4FF0FF3010BD43F20C6C44
:102AD000C2F2000C9CF8000010B16FF0010010BDB4
:102AE00043F2186E01208CF8000043F2040CC2F28D
:102AF000000E0020CEE90021CEE90240CEF8100001
:102B0000C4F2010C40F2825E3CF8043C1B0558BF45
:102B10004FF0820E1C23C4F20203C3F800E00CF154
:102B2000080EC3F808E0D9605A60196841F0010145
:102B30001960BCF8001041F00101ACF800109221BE
:102B40005961C3F81CE01C629A61596941F00101A6
:102B50005961BCF8001041F00201ACF8001010BD42
:102B600080B943F6BC404FF6FE73C2F20000C0F2DB
:102B70007F030068406903EA40001D3008604FF49D
:102B800000701080002070470020704700207047C0
:102B90000020704743F6A820C2F20000007800F041
:102BA00001004042704780B501283BD028BB1D2A58
:102BB00025D343F6AD20C2F200000078012820D1D1
:102BC0004CF20060CFF6FF7000EB42205A0210F486
:102BD000785F09D141F20C0CC4F2010CDCF8003032
:102BE00083F40053CCF8003043F6BC43C2F2000338
:102BF0001B68D3F88C31984714E0012080BD1B2A54
:102C000005D35A0208461146FDF7E1FA0AE040F200
:102C10007C10C2F2000000EB422C08465A026146CA
:102C2000FDF7A9FA002080BD80B5FFF7BCFF0028A2
:102C300018BF0120400080BDF0B581B0012800F030
:102C4000938038B943F6B040C2F20000007818B162
:102C5000FF208AE0012088E01E4614460D461D2A0A
:102C600016D344F25030C2F20000016800294BD064
:102C700043F6B440C2F200000068C21700EBD25025
:102C80001D2202EB6020A0423ED140F274173EE0CC
:102C90000F2C30D143F6AD20C2F20000007850BBBB
:102CA000E86B60B343F6B441002005F1DC02C2F2E8
:102CB0000001086052F820090028FBD0086043F6A4
:102CC000BC41C2F2000109684969B0EB812FBFD84D
:102CD000C11740F2FF1200EBD1519143401A44F268
:102CE0005031C2F20001086044F24E3118BF012099
:102CF000C2F200010870A4F110000D2818D340F2B0
:102D00007C10C2F200000AE040F274177102C2F2B5
:102D100000073A682846FDF793FA386000207102F0
:102D200000EB44208AB2294601F018FB01281FD08D
:102D300043F6B440C2F200000068012814DB44F2FC
:102D40004E31C2F20001097801EB50201C30A04244
:102D50000AD143F6AF200121C2F20000017043F610
:102D6000A820C2F200000170002040B201B0F0BD06
:102D700001F04CFB80B5FFF75FFF002818BF012072
:102D8000400080BD70470000B0B543F210650C46AE
:102D9000C2F200052978890702D44FF0FF302FE0F6
:102DA00043F20C61C2F20001097811B16FF0010029
:102DB00026E043F21461FF22C2F20001C0F21802C1
:102DC000096811400122C0F208029142E5D140F6A3
:102DD00010014FF48012C4F201010A602146FFF78E
:102DE000F9FD68B943F21861C2F20001C868A04257
:102DF00001D1002004E0002000BFCA68A242FBD13C
:102E0000297889071AD543F20C61C2F200010978CA
:102E1000A1B943F21461FF22C2F20001C0F218020C
:102E2000096811400122C0F20802914218BFB0BDEA
:102E300040F610011022C4F201010A60B0BD80B555
:102E400082B00DF10700FFF721F818B99DF80700CF
:102E5000800716D4062001218DF807000DF1070028
:102E6000FFF792FF70B900208DF807000DF1070001
:102E7000FFF70CF830B99DF80700C0F340000138A7
:102E800000E0002002B080BD44F25430C2F20000E5
:102E9000016801310160704741F200000022C4F274
:102EA0000200CFF6FF02016841F0010101604168B4
:102EB00011404FF6FF724160CFF6F6620168114093
:102EC0000160016821F480210160416821F4FE0164
:102ED00041604FF41F0181604EF608504FF00061D1
:102EE000CEF200000160704780B504A000F068F8E1
:102EF00043F23860C2F2000080BD00BF4D53432052
:102F0000436F6E66696700001220088040F2480037
:102F1000C2F200007047000080B504A000F050F835
:102F200043F23860C2F2000080BD00BF4D53432021
:102F3000496E746572666163650000000420088054
:102F400040F25C00C2F200007047000080B504A0AF
:102F500000F036F843F23860C2F2000080BD00BFD6
:102F600053544D6963726F656C656374726F6E69FB
:102F70006373000080B504A000F022F843F23860CB
:102F8000C2F2000080BD00BF53544D3332204D616A
:102F900073732053746F72616765000080B504A07D
:102FA00000F00EF843F23860C2F2000080BD00BFAE
:102FB00030303030303030303030314100000000BF
:102FC00080B558B3027862B1431C002213F801CBDC
:102FD0000132BCF1000FF9D1D2B2022303EB42025D
:102FE00000E0022243F2386E03230A80C2F2000E90
:102FF0008EF801308EF8002002787AB10130022379
:103000004FF0000CD9B202330EF8012041F001015B
:103010000EF801C010F8012B002AF3D180BD10B5C5
:10302000D0F820E201F07F0C0B060EEB4C1000F103
:10303000280258BF00F50A72C809507082F800C013
:103040009EF82834012B01D110216FE001234900A3
:1030500048F2800C8EF82834C9B2937ADEF800204A
:1030600032F8114002EB410143B304F4804280B3D3
:103070003AB1088840F60F7210400CF580421043B8
:1030800008800888400607D5088840F60F7210406F
:103090000CF1400210430880088840F60F7210407F
:1030A0000CF58042104340F63F72088008881040BB
:1030B00040EA0C00088043F60F732FE0E8B3600687
:1030C0002AD5088840F60F7210400CF140021043D8
:1030D00021E03AB1088840F60F7210400CF58042AA
:1030E000104308800888400607D5088840F60F720C
:1030F00010400CF1400210430880088840F60F721F
:1031000010400CF14002104343F60F72088008880B
:10311000104040EA0C00088040F63F7308881840D1
:1031200040EA0C00088000218EF8281440F20020AC
:10313000C0F20120C840C0B210BD6004BBD50888F1
:1031400040F60F7210400CF580421043B2E70000C9
:1031500070B5D0F820C201F07F0E0D060CEB4E14B6
:1031600004F1280058BF04F50A700361CB094370CD
:1031700080F800E0C2709CF82844012C01D1102096
:103180000CE10124032A8CF82844DCF800400DD817
:10319000DFE802F0020F19214A0048F68F16D5B277
:1031A00034F81520324002F500721DE04A00D5B215
:1031B0001CE04A0048F68F16D5B234F8152032408C
:1031C00002F5806210E04A0048F68F16D5B234F856
:1031D0001520324008E04A0048F68F16D5B234F880
:1031E0001520324002F5C06224F8152034F815206D
:1031F00040F60F763240114348F28002114324F822
:10320000151004EB4501857A002D48D00D8840F655
:103210000F66002B05EA060502F5807645EA0605ED
:103220000D80C588B4F8506006EBCE0625F0010588
:1032300004EB4606C6F800540089B4F8505005EB7C
:10324000CE0620F0010004EB4606C6F80804088804
:1032500000F4804040D038B1088840F60F73184021
:1032600002F58043184308800888400607D508887F
:1032700040F60F73184002F1400318430880088895
:1032800040F60F73184002F58043184340F63F7331
:1032900008800888184043F60F73104341E0858882
:1032A000B4F85060002B06EBCE0625F001053DD0AA
:1032B00004EB4600C0F800540888400607D508888B
:1032C00040F60F73184002F1400318430880088845
:1032D00040F63F7320325BE038B1088840F60F7348
:1032E000184002F58043184308800888400607D537
:1032F000088840F60F73184002F140031843088015
:10330000088840F60F73184002F14003184343F653
:103310000F7308800888184002F54053584040F663
:103320003F73088008881840104333E004EB4606DA
:103330004FEACE03C6F8085404F20C45B4F85060C6
:10334000006933443F280BD3460140F2FF34C006E6
:1033500026EA040608BF06F5F84646F4004004E0F5
:1033600000F0010606EB5000800280B245F8130021
:103370000888400407D5088840F60F73184002F506
:10338000804318430880088843F60F7302F54052C3
:1033900018405040088000208CF8280440F200219A
:1033A000C0F2012121FA00F0C0B270BD10B5D0F812
:1033B000200201F07F020C064FEAD11400EB421309
:1033C00000EB411C4FF0010103F1280358BF0CF53D
:1033D0000A735C701A70997090F82834012B08BF3A
:1033E00010BD80F82814002A01680DD031F822C0E1
:1033F000520049F2800EA4B140F63F73AEF57F64EF
:1034000003EA0C03634012E00B8843F63F74234049
:1034100049F28004CFF6FF741034634021F8223063
:1034200007E043F60F7303EA0C0383EA0E0321F867
:103430001230002180F8281410BD80B5FDF742FA43
:10344000002080BD80B5FDF75FFA002080BD10B57B
:1034500001210446FFF7E3FD20468121FFF7DFFD50
:10346000D4F8181200200029087201D0C4F81802FC
:10347000002010BD0A21018040F2D800C2F20000F5
:1034800070472021018040F29800C2F2000070478E
:103490002021018040F2B800C2F2000070472021D4
:1034A000018040F2E400C2F20000704710B504460B
:1034B000007C50B12046012102224023FFF748FE44
:1034C00020468121022240230BE0204601210222D6
:1034D0004FF40073FFF73CFE2046812102224FF497
:1034E0000073FFF735FE43F63800C2F20000C4F85F
:1034F00018022046FDF78FFA002010BD70B5044673
:10350000D0F8186208780D4610F060011ED020290E
:1035100040F08B806978FF2935D0FE2935D1698844
:1035200099BB000631D5E88801282ED1D4F81C02B9
:103530008069804730600220C4F8F4010120C4E9AA
:103540000600D4F820220024D66311E06878012810
:1035500025D00B2839D00A2867D101200221C4E9DF
:103560000600C4F8F411311DD4F820220024D163E0
:1035700010644FF480701146546421F8280F1068CD
:1035800000F056F852E0698811B320468021FFF719
:103590000DFF20460021FFF709FF022446E0D4F882
:1035A0002012A88891F82824012A1CBF002281F843
:1035B0002824C1B22046FFF732FDA988207C0906E5
:1035C0001FD420B3204601211EE0A87870602CE0B3
:1035D0000006DAD4E8880028D7D14FF480700122A1
:1035E00030811F20D4F820120024A1F8482206F5CB
:1035F0000372C1E99720C1F86442086801F51271AD
:10360000BEE738B1204681210222402307E0204650
:10361000012101E02046812102224FF40073FFF7CF
:1036200097FD29792046FDF735F90024204670BD25
:1036300070B50A698E691346964288BF3346A3EB7C
:1036400002038B6188BF16464A788B7A012A36D1ED
:10365000CBB30B7830F82320B0F8505005EBC305FE
:103660005B0000EB4505C5F80464B6B2751C002686
:10367000B6EB550F14D052064FEA55064FF008022C
:10368000C6F1000458BF06228A5A496900EB42027B
:1036900002F5806231F8026B013422F8046BF9D133
:1036A00030F8131040F60F7211404BF28002CFF643
:1036B000FF7202F58052114320F8131022E043B349
:1036C0006AB3097864E0B2B200230132B3EB520F5F
:1036D0000ED08B8852084C69524200EB430303F52D
:1036E000806300BF34F8025B013223F8045BF9D138
:1036F000B0F85020097802EBC1024B0000EB420207
:10370000C2F8046400EB430048F2B00140F63F7297
:1037100044E0B0F85020097802EBC10C20E0B0F88A
:103720005020097800F204433F2E02EBC10E4FEA0D
:10373000C10C0AD3720140F2FF34A243F40608BF61
:1037400002F5F84242F4004204E006F0010202EB06
:103750005602920292B243F81E20B0F850209444D0
:1037600000F20C433F2E0BD3720140F2FF35F606F8
:1037700022EA050208BF02F5F84242F4004204E0E2
:1037800006F0010202EB5602920292B243F81C20AC
:1037900000EB810043F60F724BF2800103881A4060
:1037A0005140018070BD00002DE9F04F83B043F619
:1037B000E86BC2F2000BDBF80000B0F94410B1F185
:1037C000FF3F00F3E4844FF00009ADF80890ADF836
:1037D0000690B0F94410B1F1FF3FADF8081000F3C6
:1037E000D68409E2D8F814025146826840469047D0
:1037F000B8F80E02002840F0C18418E098F8FC11D7
:1038000001F0FE01022940F06384012840F0B684F3
:10381000C8F8049205E0012840F0B0840120C8F8FF
:103820000402D8F8140251468268404690470420AA
:10383000C8F8F401D8F82002C0F83C90C0F84090D5
:103840006DE145EA0700000440F0428498F8FC016D
:10385000032800F03D840CF07F0488F8FE41D8F87E
:10386000200290F8281401290DD0002C4FF00101FE
:1038700080F8244080F8281403D101688022A1F840
:103880004C2080F8289404214FF48072C8F8F41179
:103890000146C0E90F99C0F8449021F8282F00682C
:1038A000FFF7C6FE002C0CBF0120022088F8FC01A7
:1038B00000F064BC601E062800F20A84DFE810F005
:1038C0000700CD00DA0008040804E900F500D8F884
:1038D000101298F810000A680DF10A019047F1E003
:1038E000012F40F0F58398F8FC01032800F00B81CC
:1038F000022840F0ED8348F8089F02200121C8F813
:10390000EC01C8E90411D8F81802C0F83C80016441
:1039100005E143F23460BCF1020FC2F2000080F80E
:1039200000C080F0D58398F8FC01032800F00081E6
:10393000022840F0CD83BCF1000F3FF478AF0320A4
:1039400088F8FC01C8F804C0D8F81402002800F078
:10395000BF8302684046614606E198F8FC010328EF
:1039600014D0022840F0B483480640F0BA8300F037
:1039700005BC98F8FC21032A33D0022A40F0A88322
:1039800041F08000802800F0F983AAE301F07F0075
:1039900011F0800708EB001202F1140308BF02F5D2
:1039A0008273D8F82022002F02F1280102EB401682
:1039B00001EB401000F1020008BF06F22A20007857
:1039C000002818BF012018600220C8E90600C8F8C6
:1039D000F401C2E90F304FF48070C2F844901085B2
:1039E0008FE0002840F0CA8348063FF420AFD8F8A3
:1039F000200201F07F0700EB471300EB411203F1B7
:103A000028060B064FEAD11358BF02F50A767370E9
:103A1000377086F8029090F82824012A3FF401AF0D
:103A200001224900002B80F82824C9B2026832F82C
:103A3000117000F0C6807B060AD532F8113040F6CE
:103A40000F773B4048F2B00710373B4322F8113064
:103A500040F63F7348F2B007C5E098F81010D8F868
:103A6000140200290CBF816AC16A0DF10A0088475F
:103A7000022126E0BCF1050F00F22A83DFE80CF0FA
:103A80000383898F959BD8F8101298F810004A6824
:103A900022E798F81000002840F01A83D8F81402A2
:103AA000416B0DF10A0088470CE098F810000028DF
:103AB00040F00E83D8F81402016B0DF10A0088471C
:103AC00007214170BDF80A20002A00F05783B8F89A
:103AD0000E12002900F052838A4238BF114602229A
:103AE000ADF80A10C8E90611C8F8F421D8F8202268
:103AF00002F13C0383E8030211464FF4807021F881
:103B0000280F1068C8E20122022008F10401C8E968
:103B10000622C8F8F401D8F82002C0E90F120146C5
:103B20004FF48072C0F8449021F8282F0068B3E267
:103B3000BCF1000F1DD0D8F8040060453FF477AE0B
:103B4000D8F814124A68C1B24046904743F2346034
:103B5000C2F200000178C8F80410D8F81402002856
:103B600000F0B682026840469047002840F0B082DC
:103B70005DE60220C8F80490614688F8FC01D8F898
:103B80001402426851E6D8F8101298F810008A68BA
:103B9000A2E6D8F8101298F81000CA689CE6D8F887
:103BA000101298F810000A6996E6D8F8101298F8E2
:103BB00010004A6990E6D8F8101298F810008A6947
:103BC0008AE67B040BD532F8113040F60F773B4084
:103BD0004BF2800707F580573B4322F8113043F63C
:103BE0000F734BF2800732F8116033407B4022F8AC
:103BF000113080F8289414E6BDF8081011F00F0574
:103C000048D030F825104FEA4508ADF80610BDF948
:103C10000610B1F1FF3F00F39D8130F8181040F617
:103C20008F7211400BEB451220F8181002F50A7143
:103C300092F83232002B00F01D8191F800E030F84C
:103C40002E30B0F850104FEA4E0C01EBCE015B0461
:103C500000EB410100F13381D1F80C346FF39F2365
:103C6000002B00F04681591CB9EB510F00F0428146
:103C7000B2F830424908D2F83C72494200EB4404A1
:103C800004F5806454F8046B013127F8026BF9D114
:103C900030E100BFBDF808200188D2062FD448F6D5
:103CA0000F7211400180B0F850109BF8282001EBF2
:103CB000C20100EB4100D0F804046FF39F20CBF861
:103CC0004400DBF83C100844CBF83C000020FCF733
:103CD000DBFCDBF840009BF82410002900F04E824A
:103CE000002840F04B82DBF800009BF8241041F0E4
:103CF0008001C9B2A0F84C108BF824903EE2ADF8D8
:103D00000610BDF80610090532D4BDF90610B1F150
:103D1000FF3F00F33382018840F68F72114001802B
:103D2000B0F850109BF8282201EBC20100EB4101D2
:103D3000D1F80C146FF39F210029CBF8441200F046
:103D4000F3814A1CB9EB520F00F0E981BBF82C3229
:103D50005208002700EB430000F58063DBF83C02CB
:103D600053F8276020F817600137BA42F8D1D8E13C
:103D7000B0F850109BF8282201EBC20100EB410182
:103D8000D1F80C146FF39F21CBF844120131B9EB39
:103D9000510F0FD04B08BBF82C120BF22C425B4298
:103DA00000EB410101F5806151F8047B013322F8F9
:103DB000027BF9D1018840F68F7211400180DBF857
:103DC0005C849BF82C6488F8086208F5027A9BF8FA
:103DD0002D3488F809329BF82EC49BF82F444CEA06
:103DE0000420A8F80A029BF830149BF8312441EA19
:103DF00002250122A8F80C52BBF83274C8E97D27CD
:103E000006F01F02A8F80E72022A00F04E81012A65
:103E100000F05681002A40F06281092B00F258819F
:103E2000DFE813F010000F0056010E0056010D00E0
:103E30000C0056010B000A006BE551E53AE500E580
:103E4000E9E4DBE498F8FC0100F0FE00022840F011
:103E50003F81D8F80402022100284FF0030008BF78
:103E6000012048F80C0FC8F8E811C8E90311D8F888
:103E700014024AE5B0F8503091F800E003EBCE01AF
:103E800000EB4101D1F80C346FF39F23002B00F0BD
:103E90000A81591CB9EB510F37D0B2F82C424908AE
:103EA000D2F83C72494200EB440404F5806400BF40
:103EB00054F8046B013127F8026BF9D125E0D1F8F1
:103EC00004346FF39F23A3B1591CB9EB510F11D0E8
:103ED000B2F82E424908D2F83C72494200EB440441
:103EE00004F5806454F8046B013127F8026BF9D1B2
:103EF00000E0002330F81C1040F60F74214048F217
:103F0000B0041034214320F81C10D2E98F71D2F88C
:103F100044621E441F440029C2F84462C2F83C7245
:103F200003D0D2F838229A4203D97046FCF72BFC12
:103F300010E00EF07F020BEB4213C3E98F7103F523
:103F40000A71C3F8449283F8299283F82822FFF774
:103F50006FFB00BFBDF80600000640F10F81DBF8E3
:103F6000000048F60F7230F8181011400BEB4512A4
:103F700020F8181002F1280192F832303BB309788A
:103F800030F82130B0F850704FEAC10C4E0007EB0A
:103F9000C1075B0600EB47073DD4D7F80C746FF3FD
:103FA0009F27002F57644FD00137B9EB570F4BD0E5
:103FB000158E7B08D76B5C4200EB450505F58065E7
:103FC00037F8023B013425F8043BF9D13CE0B0F866
:103FD0005030097800F2044603EBC1034FEAC10CEC
:103FE00056F813706FF39F27002F57643AD00137AC
:103FF000B9EB570F36D0958D7C08D76B644200EB38
:10400000450505F5806500BF37F8023B013425F80A
:10401000043BF9D126E0D7F804746FF39F27002FF3
:10402000576411D00137B9EB570F0DD0D58D7B08F0
:10403000D76B5C4200EB450505F5806537F8023B20
:10404000013425F8043BF9D130F8163040F60F77EB
:104050003B404BF2800707F580573B4320F8163072
:1040600000F20446B0F85030634456F813706FF312
:104070009F275764D2E90F633744002BD7630ED0D4
:1040800001F07F020BEB421101F8282F0122C1E958
:104090000573C1F81C904A70FFF7CAFA6EE0084633
:1040A000FCF7F2FA6AE000232FE706F06002202A0C
:1040B0001BD1D8F8140251468268404690475DE013
:1040C00098F8FC01032808BF11F0FE0F3FF48AABFB
:1040D00040468021FFF76AF94046002102E006F0E1
:1040E00080014046FFF762F948E0002B3FF435AC11
:1040F000012B3FF43EAC032B40D198F8FC21032A5E
:104100007FF43BAC00287FF48CAB41F0800080282A
:104110003FF487AB4046FFF749F9FFF782BBDBF876
:104120003C020844CBF83C020020FCF72CFBDBF8F7
:104130000000B0F85010DBF8383200F20C423F2B90
:104140000BD35F0140F2FF36DB0627EA060708BF04
:1041500007F5F84747F4004304E003F0010707EBD5
:1041600053039B029BB242F8113043F60F72018851
:1041700011404BF280025140018000BFDBF800008B
:10418000B0F944100029ADF80810FFF635ADB0F8CD
:104190004410490535D5B0F84410012500224023CC
:1041A000402621F48061A0F844100021DBF85C4433
:1041B00020462574FEF7CCFF2046802100224023B4
:1041C000C4F81061FEF7C4FF84F8FC512662D4F8ED
:1041D000180228B1D4F81402217942682046904789
:1041E0009BF82804012802D1DBF8000009E0002137
:1041F00080228BF82410DBF80000A0F84C208BF80C
:104200002814B0F84410490442BFB0F8441021F417
:104210008041A0F84410B0F84410890442BFB0F8BF
:10422000441021F40051A0F84410B0F84410C9041F
:1042300017D5B0F8401021F00401A0F84010B0F8F4
:10424000401021F00801A0F84010DBF85C1491F850
:10425000FD2181F8FC21B0F8441021F48051A0F830
:104260004410B0F84410090529D5B0F8401041F0C9
:104270000801A0F84010B0F8441021F40061A0F843
:104280004410B0F8401041F00401A0F84010B0F81C
:104290004410C90413D4DBF85C1491F8FC2181F8B4
:1042A000FD21042281F8FC21DBF8181039B14EF60B
:1042B0001051CEF200010A6842F006020A60B0F81E
:1042C0004410890513D5B0F8441021F40071A0F80A
:1042D0004410DBF85C1491F8FC21032A07D1D1F8D3
:1042E0001422D2691AB108469047DBF80000B0F8F2
:1042F0004410C90542BFB0F8441021F48071A0F801
:10430000441003B0BDE8F08FFEE7B0B582B00446BC
:104310000020019043F6BC40C2F200000068C5696D
:1043200015F0C00F08BF45F04005280648BFFEF74E
:1043300086FD680610D55020012101258DF8040066
:1043400001A8FEF721FD38B901A802218DF805402A
:104350008DF80450FEF718FD02B0B0BDF0B581B085
:104360000C4644F250311546C2F20001096851B1C1
:1043700043F6B442A0F56853C2F200021268521A22
:10438000934208BF0D4643F6BC474FF46853C2F250
:10439000000739684A6903EB8222824223D943F637
:1043A000AD22C2F20002127862BBA0F56856F0049A
:1043B00007D141F20C00C4F20100026882F40052FD
:1043C0000260D1F8883163B1D1F8840120B180470F
:1043D00038B93868D0F88831AAB2304621469847B3
:1043E00080B1FF210FE040F27C120121C2F20002F5
:1043F00002F55053984206D8904204D3AAB22146FF
:10440000FBF7B9FE002148B201B0F0BD41F20C004B
:1044100044F25431C4F20100C2F20001026882F495
:10442000005202600A6800BF0B689B1A512BFBD335
:10443000F4E7000010B504464FF0FF302063002081
:10444000E070204601F0F8F808B1042010BD94F89F
:10445000320294F8331240EA01204AF6552188428C
:104460001CBF032010BD94F83400E838032826D878
:10447000022824D045F6FB2C04F16A000021C0F686
:10448000010C00BF1CF80130425C022902D001314E
:104490009A42F7D09A4210D045F26B7204F186002E
:1044A0000021C0F6010200BF535C445C042902D025
:1044B00001319C42F8D09C4201D1002010BD022065
:1044C00010BD00002DE9F04F85B0066800210446BC
:1044D00000F012FA10B105B0BDE8F08F4FF0FF37D1
:1044E00004F120054FF0FF0B4FF00D084FF0FF09CE
:1044F000E76200BFA169304601F09EF80028EAD1CA
:10450000D4F81CA09AF80000002800F0AB809AF8BC
:104510000B20E52802F03F01A17137D0120727D404
:104520000F2927D05FEA0B6010D10020002100BFC7
:10453000C9B21AF8002001304B080B2843EAC11118
:104540001144F5D1C8B2814500F08E8094F82B005B
:10455000C0071BD1002000BF295C1AF800200A28E0
:1045600002D001308A42F7D08A420FD17CE000BFEE
:104570000F290BD194F82B1049060AD441060FD409
:104580005FFA8BF1884202D110E000BFE7624FF082
:10459000FF0B2046002100F069F80028AAD09AE716
:1045A00021699AF80D9000F0BF0BE1629AF80D00B6
:1045B0008145ECD19AF81A009AF81B1040EA0120C4
:1045C0000028E4D1CDE902964FF00009F06804908C
:1045D0009AF80000019000F03F0000FB08F0A0F105
:1045E0000D08012046F2EC210028C0F6000111F868
:1045F00009101AF801205144497842EA012611D0E5
:10460000B8F13F0F21D8304600F0C6F907460498AC
:1046100030F8180000F0C0F9874216D108F10108FF
:10462000304604E04FF6FF7086420ED1002009F1BB
:104630000109B9F10D0FD5D350B1019810F0400028
:1046400006D0049830F8180010B14FF0FF0B01E0CD
:10465000ABF1010B039EDDF808904FF0FF374FF0F0
:104660000D0896E7042036E7002034E72DE9F04FE7
:1046700081B00446006900F12007B7F5001F02D39E
:104680000020A0610EE0A06960B13D46D4F800B002
:104690006FF35F2555B10BEB050027613430E06106
:1046A000002000E0042001B0BDE8F08F01300E468C
:1046B000A061616991B14FF6FF70BBF80A20C0F2AA
:1046C0001F00104400F5C00010EA572FE3D15846F0
:1046D00000F0B7F9022807D20220E4E7BBF808008F
:1046E000B0EB571FCCD9D6E78246013000F00181EC
:1046F000DBF8180082450FD2AAF102060238C4F88E
:1047000014A086422FBF0020DBF82C00BBF80A1053
:1047100006FB0100A061BEE7002EB1D06669D4F8A7
:104720000090002E07D04846314600F08AF9022852
:104730000DD2022090E0D9F81080B8F1000F0FD010
:10474000D9F81800804528BF4FF001080AE08246DA
:10475000013030D0D9F81800B046824502D277E057
:104760004FF00108D9F81400002845D0B045B246F2
:1047700026D1D9F818000AF10106D046864228BF92
:1047800002262068314600F05CF9824601305FD095
:10479000BAF1000F11D0BAF1010F59D0D9F81000B9
:1047A000C246414602280BD3D9F81810884228BFC8
:1047B0005046804604E000204EE0002EC2461FD145
:1047C0004646CDF800A0D9F818000136864228BF29
:1047D000022602D3B8F1020F0ED32068314600F052
:1047E00030F98246013033D0BAF1000F06D0BAF169
:1047F000010F2DD04645E6D101202DE0DDF800A0C7
:10480000484631464FF0FF3200F032FFBAF1000F58
:1048100005D020B951464846324600F029FF30B154
:104820004FF0010A012808BF4FF0FF3A10E0C9F825
:104830001060B246D9E90501023988429CBF0138AF
:10484000C9F8140099F8040040F0010089F8040048
:104850000AF1010003280DD24FF6F871C0F2FF01F2
:1048600001EAC00040F20171C0F2020121FA00F039
:10487000C0B218E7584601F065FCD0BBDBF8180061
:10488000AAF102060238864206D2DBF82C00BBF8F9
:104890000A9006FB090002E0BBF80A9000200BF129
:1048A00034080090CBF830004FF400714046FBF71D
:1048B0008EFCB9F1000F11D04FF00009009841466D
:1048C000012300EB09020020FEF7B6F950B9BBF84E
:1048D0000A0009F101098145F0D305E000204FF0FD
:1048E000000901E0BBF80A00814502D1DBF818009D
:1048F00004E70120D7E60000F0B581B004461F2090
:10490000CFF6E070014202D0022001B0F0BD26686F
:1049100021610D46A16869B17089B5EB402F23D2A2
:10492000B0698A1E0238824232D2F06A738902FB71
:1049300003000BE03078032802D3B16A0029EBD1E1
:104940003089B0EB551FDFD9B06A00210028C4E9D7
:104950000510D9D000EB55206FF35F257119343164
:10496000C4E906010020D0E747023046ED1B08E00D
:104970000229C9D3B0698142C6D2BD42D1D32068D1
:10498000ED1B00F05EF801460130F1D10120BCE7DB
:104990000020C4E90510B7E70021B1EB104F18BFA4
:1049A000704710B545F6B83245F674411FFA80FCE1
:1049B000C0F60102C0F60101BCF5805F38BF0A46AF
:1049C000B2F800E011E000BF51880432CBB2090A0E
:1049D0000EEB0304A44511D30029194618BF00218A
:1049E00032F811E008BF02EB4302BEF1000F01D024
:1049F000F445E9D280B2BDE8104070470829F9D8E3
:104A0000DFE801F0050A10121416181A1C00ACEBAE
:104A10000E0032F81000EDE7A0EB0E0101F00101ED
:104A2000401AE7E71038E5E72038E3E73038E1E7F8
:104A30001A38DFE70830DDE75038DBE7A0F5E35050
:104A4000D8E7F0B581B0022931D3054680690C461C
:104A500088422CD9287803282CD0022844D0012859
:104A600025D1686A04EB540700EB5721284600F073
:104A7000E3FD00283FD17E1C6FF35F27E81990F813
:104A80003470686A00EB5621284600F0D5FD90BBD3
:104A90006FF35F26E20705EB060090F8340047EA63
:104AA000002108466FF31F3018BF080900E00120FD
:104AB00001B0F0BD686A00EBD411284600F0BCFDDF
:104AC000C8B904F07F0005EB800191F8340091F83B
:104AD000352091F8363091F8371043EA012142EA47
:104AE000012161F31B20E3E7686A00EB14212846EB
:104AF00000F0A2FD10B14FF0FF30D9E7E0B205EBB6
:104B0000400090F8341090F8350041EA0020CFE7DB
:104B100080B50268D2B10023D15C0133202901D3D2
:104B20003A29F9D13A290ED14FF0FF3E022B0FD18D
:104B300092F800C0ACF13001092909D8BCF1300F5E
:104B400006D8D11801604FF0000E01E04FF0FF3E93
:104B5000704680BD2DE9F041ADF5007D68464FF40B
:104B60008071FF22FBF72CFB43F6BC47C2F2000723
:104B700038684169890225D041F20C08002440AD13
:104B80006E46C4F2010800BF14F4705F05D1D8F876
:104B9000001081F40051C8F80010D0F88C31204684
:104BA00029464FF480729847284631464FF4807268
:104BB000FBF7C9FA38B9386804F580644169B4EB89
:104BC000812FE1D300200DF5007DBDE8F0810000CC
:104BD00086B042F200084EF60C5440F200374FF611
:104BE000FF06C4F20208CEF20004C0F2FA57D8F869
:104BF000000040F01000C8F8000020683040384342
:104C00002060FBF71CFD41F204050422C4F20205FA
:104C1000C4F20102686940F001006861686900F04F
:104C2000010000900098A86940F08050A861A86930
:104C300000F0805000900098206830403843206099
:104C4000206800202073216860732168A0732168A8
:104C5000E074216820752168A0752168E0751068EE
:104C6000022161F31A601060286800F00C0004282B
:104C700002D155F8040C1DE0286800F00C0008284B
:104C800002D12868C003F4D455F8040C40F48030F5
:104C900045F8040C44F25430C2F20000016800BF31
:104CA00055F8042C920305D40268521A642AF7D9E5
:104CB00000F095BC286800F00C00082800F08F84F4
:104CC000602044F254360021C4F24220C2F20006B1
:104CD0000160316855F8042C920105D53268521AEA
:104CE000022AF7D900F07BBC296821F40031296041
:104CF000296821F4741101F5E8112960012101608E
:104D0000306800BF55F8041C890105D43168091AC0
:104D10000329F7D300F063BCD8F8000010F0060FA9
:104D20000DD1D8F80000022161F30200C8F800009C
:104D3000D8F8000000F00700022840F050842868EE
:104D400020F0F000286055F8040C800140F1478401
:104D50002868022161F3010041F28831286030683F
:104D60002A6802F00C02082A05D03268121A8A4218
:104D7000F6D900F034BCD8F8000000F00700032892
:104D80000DD3D8F80000022161F30200C8F800003A
:104D9000D8F8000000F00700022840F020842868BE
:104DA000042161F30A202860286820F460502860FC
:104DB00041F200202968C0F27A0001F00C02082AB2
:104DC00015D1C1F383420FF61C03C9039A5C05D4C5
:104DD00040F60010C0F23D00504308E029685043FF
:104DE0000FF61002C1F34041515CB0FBF1F02968AD
:104DF0000FF6040240F24407C2F20007C1F30311A8
:104E0000515CC8403860FBF71AFC286844F6D3515F
:104E10004EF2100BC1F26201CEF2000B20F48000C2
:104E200028603868A0FB01014FF0FF3000EB9111C2
:104E30000020B0EB116F08D1CBF80410F021E17520
:104E40000721CBF80800CBF80010DBF8001041F088
:104E50000401CBF800102168E07530683168091A48
:104E6000B1F5FA7FFAD943F2845943F2106A40F659
:104E70000008C2F20009C2F2000AC4F20108D9F81F
:104E800000009AF8007020F00300C9F80000F8074D
:104E900040F04A8143F20C600021C2F20000017030
:104EA00043F218601C21C2F20000FBF790F9686918
:104EB0000127C00702BF686940F001006861042053
:104EC000C4F20100014600680090009820F0010043
:104ED000009000980090009820F0E060009000980A
:104EE0000090009808600221686940F00400686141
:104EF000686940075EBF686940F004006861D8F8DF
:104F0000000020F47000C8F80000D8F8000040F459
:104F10003000C8F80000686940F004006861686902
:104F200040075EBF686940F004006861D8F800007F
:104F300020F07040C8F80000D8F8000040F0304081
:104F4000C8F80000686940F00400686168694007BB
:104F50005EBF686940F004006861D8F80C0020F07A
:104F60004000C8F80C00D8F8000020F07060C8F8C5
:104F70000000D8F8000040F00060C8F800000120F0
:104F8000FBF706FA01200321FBF702FA43F28050F7
:104F90008AF80070C2F20000077043F21860002126
:104FA000C2F20000018343F20C60C2F20000017003
:104FB00047F002008AF80000686940F48050686198
:104FC000A86840F48050A86000BF00BF00BF00BFC9
:104FD000A86820F48050A8600820CBF87402CBF8B1
:104FE000F40048F2010043F20061C0F20800C0F290
:104FF0006E11FDF755FA002840F0CA80D9F800007C
:1050000020F00300C9F8000043F28050C2F2000013
:10501000017841F002010170032005900598411EBE
:10502000002805910ED064249F20FCF7C7FE009451
:105030000098411E00280091FAD10598411E0028D1
:105040000591F1D144F24A37C2F200073978FF29BD
:1050500040F0808044F24C394FF6FF71C2F20009F3
:10506000B9F80000884201D0FF281AD1012105912A
:1050700005994A1E0029059213D064249020FCF75C
:1050800035FE00940098411E00280091FAD1059841
:10509000411E00280591F1D13978FF295AD1B9F87C
:1050A000000028B14FF6FF71884201D0FF281AD1C5
:1050B0000121059105994A1E0029059213D0642407
:1050C000AB20FCF713FE00940098411E00280091CD
:1050D000FAD10598411E00280591F1D13978FF29B0
:1050E00038D1B9F8000028B14FF6FF71884201D0DD
:1050F000FF282ED10121059105994A1E002905920C
:105100001FD064241520FCF759FE00940098411E1E
:1051100000280091FAD10598411E00280591F1D18F
:10512000B9F8000039780DE043F2805100284FF0C3
:105130000102C2F200010A702AD0B8077FF52DAF34
:105140004FE7FF21FF2905D14FF6FF72904219D09A
:1051500000E0FF2144F24C30C2F20000028846F227
:105160002030C0F6000000BFC3688B4203D1036942
:10517000934200F0C78100F5D073D0F8A001002859
:105180001846F1D143F6BC400021C2F20000016094
:1051900068694FF0020A41F20C074FF400590124EC
:1051A0004FF0000BC4F2010740F02000686168690D
:1051B00000F0200000900098686940F004006861E9
:1051C000686900F0040000900098686940F00800E9
:1051D0006861686900F0080000900098686940F014
:1051E0001000686168696D4600F01000009000983A
:1051F0000420C4F20100014600686AF31A600860E6
:105200004FF08050C7F804902946C8F810004FF4BA
:1052100080500394CDE9014B00904046FBF710F914
:1052200008F500602946CDE902BACDE90094FBF704
:1052300007F94FF40070CDF80CA0CDE901B4294670
:10524000009008F58060FBF7FBF843F6BC44C2F21F
:1052500000042068002800F09A80017D1D2202EBE6
:10526000410140F22812C2F2000282F82010416986
:10527000C90982F821104169C1F3C63182F82210B0
:10528000316800BF3268521AB2F5487FFAD943F646
:10529000AD290121C2F2000989F800104068FBF72E
:1052A00049FD002840F09B81306800BF3168091A31
:1052B0003329FBD3FBF760FC4FF4805028210022F8
:1052C000C8F8100040F22410C2F2000003685D1E0E
:1052D000002B056004D13B6883F400533B60016000
:1052E000336800BF3568ED1A0B2DFBD38DF8002015
:1052F0000FE000BF336800BF3568ED1A022DFBD305
:105300009DF80030092B09D89DF8003001338DF845
:105310000030D8F808349B05ECD5D7E700254FF4CA
:1053200000508DF8005078604FF08050C8F81000A1
:10533000FBF7C8FB89F80050306800BF3168091AD4
:105340006529FBD32068D0F89011A1B100F12C039E
:10535000002200BF53F8045C012D01D11D681DB16E
:1053600001322C33082AF5D32C2302FB030090F8DA
:105370004C00884718B3012089F80000A9A0FBF76A
:10538000D9FC30683168091A3329FBD3A6E03068AC
:105390003168091AB1F5487FFAD943F6AD200121E9
:1053A000C2F20000017045F68030C0F60100FBF744
:1053B000C1FC30683168091A3329FBD38EE04FF401
:1053C00000507860306800BF3168091A6529FBD346
:1053D0000020FBF7AFFC002840F00181FBF7CCFB7D
:1053E0004FF48050C8F8100043F6AF20C2F200001E
:1053F00001780029FCD030683168091A0B29FBD3E9
:105400004FF08050C8F81000FBF75CFB43F6B44A3D
:10541000C2F2000ADAF80000B0F5007F40F3DF8046
:1054200021684969B0EB812F00F2D98000210091F9
:1054300005910099814231D243F6B02540F27019AE
:105440004FF4007BC2F20005C2F200090099411A34
:10545000B1F5007F8FBFCDF814B00099401A0590C8
:105460000098059A810403D1396881F400513960AC
:105470002168D1F88C31294698470599D9F8002040
:105480002846FAF7DDFEC9F800000598009908449F
:105490000090DAF8000000998142D7D340F27410EE
:1054A00040F27011C2F20000C2F200010068096807
:1054B000884205D143F6B040C2F200000078A8B19E
:1054C00043F6AD210120C2F2000108704EA0FBF7A7
:1054D00031FC30683168091A3329FBD3FBF74CFBE8
:1054E0004FF48050C8F81000FEF790FF386880F441
:1054F00000503860306800BF3168091AB1F5FA7F92
:10550000FAD9F3E743F6B841C2F200010A7852B97A
:1055100004220223C4F201021746126863F31A62DE
:105520003A6001220A70416943F6BC44C2F20004A9
:10553000B1F5804F20607FF62BAE407F10F01C0F3E
:105540003FF426AE0DF11200FCF76EFB00287FF44D
:105550001FAE9DF8120080063AD4FF208DF813008C
:10556000B7208DF814002068C06941051DD40105DD
:1055700016D4C00420D543F6AC24C2F2000420782F
:1055800058B9C520ADF80000FDF759FC6846022166
:10559000FDF7FAFB00287FF4FBAD012020700BE043
:1055A000FDF74DFC00287FF4F3AD05A80121FDF7C0
:1055B000EBFB00287FF4ECAD0DF11300FCF734FB9E
:1055C00000287FF4E5AD9DF8130080067FF5E0AD7F
:1055D00044F248300121C2F200000170D8E5FEF724
:1055E00015FF00BF02030405060708090A0B0C0D8E
:1055F0000E0F10100102000000000000000000006B
:105600000102030406070809435243206572726FC2
:10561000722061667465722070726F6772616D6D61
:10562000696E670043686970206572617365206503
:1056300072726F7200000000B0B50546006B8842C0
:1056400004BF0020B0BD28460C4600F07BFD00B131
:10565000B0BD05F13401002022460123FDF7A3FA75
:10566000002818BF4FF0FF342C6318BF0120B0BDD5
:105670002DE9F04102293DD3044680690E46884257
:1056800038D920781546032837D0022854D001286D
:1056900030D1606A06EB560700EB57212046FFF732
:1056A000CBFF002862D107F101086FF35F2716F0E6
:1056B000010604EB070000F134000FBFE9B20178E6
:1056C00001F00F0165F30B1101700120E070606AB9
:1056D00000EB58212046FFF7AFFF002846D16FF3BB
:1056E0005F28002E04EB080000F1340034D0C5F32D
:1056F000071137E00220BDE8F081606A00EBD611A7
:105700002046FFF799FF88BB06F07F00290C05F0C3
:10571000706204EB800080F83610290A80F835109A
:1057200080F8345090F8371001F0F00142EA01613E
:10573000090E80F8371016E0606A00EB162120464B
:10574000FFF77AFF90B9F0B2290A04EB400080F825
:10575000351080F8345006E0C5F30321027802F0DA
:10576000F002114401700120E0700020BDE8F081DA
:105770002DE9F04383B00D4601466FF00400002D83
:1057800000F0CB80144643F6BC42C2F2000212681D
:10579000526992028A42C0F0C08044F24830C2F29C
:1057A0000000007850B113200B0A0A0E05268DF870
:1057B00003008DF80710080C194605E003200A0CB9
:1057C00004268DF80300080A43F210678DF80610CE
:1057D0008DF805008DF80420C2F2000738788007A4
:1057E00040F17C8043F20C68C2F2000898F8000097
:1057F00010B16FF0010073E043F21469FF21C2F2AF
:105800000009C0F21801D9F8000008400121C0F2D7
:105810000801884262D140F610004FF48011C4F2B2
:10582000010001600DF103003146FDF7D3F80028B7
:1058300056D143F21860C2F2000000E000BFC16818
:10584000B142FBD1002C6BD03978490746D598F886
:1058500000100029CDD199F80010013901293DD857
:10586000012200211C2388F80020C0E90045C0E97E
:105870000211016143F20001C4F20203C4F201010A
:105880000A88120540F2825258BF82221A6001F142
:105890000C029A60DD605C601E6846F001061E60C6
:1058A0008E8846F001068E800E88360540F212562C
:1058B00058BF12265E61DA6100F118021A629C611B
:1058C0005A6942F001025A618A8842F002028A80D3
:1058D00000BFC168A142FBD1204601E04FF0FF307C
:1058E0003978890719D543F20C61C2F200010978B1
:1058F00099B943F21461FF22C2F20001C0F218020A
:10590000096811400122C0F20802914205D140F617
:1059100010011022C4F201010A6003B0BDE8F08357
:105920006FF00400DCE700002DE9F04F81B006467F
:105930006FF00400002900F0A48043F6BC4A0D4635
:105940001446C2F2000ADAF800104A699202B24222
:10595000C0F09780002C00F0938043F2106943F26E
:1059600018684FF0000B6F46C2F20009C2F200083F
:1059700077E000BF43F20C60C2F20000007800281C
:1059800040F0828043F21460FF21C2F20000C0F2B6
:105990001801006808400121C0F2080188426CD15A
:1059A00040F610004FF48011C4F2010001600220A3
:1059B00004218DF80000300A8DF803608DF8020094
:1059C000300C8DF801003846FDF704F808B15DE0B1
:1059D00000BFD8F80C000428FAD105EB0B00012118
:1059E000FCF7F8FF08B151E000BFD8F80C0001281F
:1059F000FAD199F80000013C0BF1010B0136800748
:105A00001AD543F20C60C2F200000078A0B943F24C
:105A10001460FF21C2F20000C0F2180100680840C3
:105A20000121C0F20801884206D140F61000102181
:105A3000C4F20100016000BF3846FCF727FA00BB42
:105A40009DF80000C007F7D143F28450002CC2F249
:105A500000000146006820F00100086036D0DAF846
:105A60000010087F10F0A00F02D0FDF7E8F940B950
:105A700099F8000080073FF57DAF4FF0FF3005E05B
:105A8000002001B0BDE8F08F6FF0010099F8001020
:105A90008907F6D543F20C61C2F2000109780029AA
:105AA000EFD143F21461FF22C2F20001C0F21802EA
:105AB000096811400122C0F208029142E1D140F68A
:105AC00010021021C4F201021160DAE75846D8E74B
:105AD0002DE9F04F87B06FF00404002900F0F0804A
