:020000040800F2
:10000000684F002001010008CB0D0008D10800084E
:10001000C90D0008D90200081547000800000000BB
:10002000000000000000000000000000DD2F0008BC
:10003000DB04000800000000CD0D0008933200082A
:100040001B0100081B0100081B0100081B01000820
:100050001B0100081B0100081B0100081B01000810
:100060001B0100081B0100081B01000877030008A2
:1000700087030008C1030008ED030008FD03000822
:100080000D0400081D0400081B0100081B010008E6
:10009000B53B00081B0100081B0100081B010008FC
:1000A0001B0100081B0100081B0100081B010008C0
:1000B0001B0100081B0100081B0100081B010008B0
:1000C0001B0100081B0100081B010008CB290008C8
:1000D0001B0100081B0100081B0100081B01000890
:1000E0001B0100081B0100081B010008DFF80CD0F1
:1000F00000F084F8004800479D500008684F002039
:100100000648804706480047FEE7FEE7FEE7FEE7B1
:10011000FEE7FEE7FEE7FEE7FEE7FEE7A3320008A4
:10012000ED000008CAB2401E10F8011F8A4202D03A
:100130000029F9D100207047421C10F8011B00294A
:10014000FBD1801A704730B504460020034600E01A
:100150005B1C934203D2E05CCD5C401BF8D030BD09
:100160000022CBB20178994200D10246401C0029FE
:10017000F8D1104670472DE9F05F05460020924601
:100180009B4688460646814640241BE02846414659
:100190004746224600F053F853465A46C01A91414A
:1001A00010D311461846224600F03AF82D1A67EB94
:1001B00001084F4622460120002100F031F817EBDC
:1001C00000094E41201EA4F10104DFDC48463146FF
:1001D0002A464346BDE8F09F40EA01039B0703D04F
:1001E00009E008C9121F08C0042AFAD203E011F876
:1001F000013B00F8013B521EF9D27047064C074DF7
:1002000006E0E06840F0010394E8070098471034E6
:10021000AC42F6D3FFF76EFF307801085078010842
:10022000202A04DB203A00FA02F1002070479140B6
:10023000C2F1200320FA03F3194390407047202AAB
:1002400004DB203A21FA02F00021704721FA02F380
:10025000D040C2F120029140084319467047D2B203
:1002600001E000F8012B491EFBD270470022F6E79F
:1002700010B513460A4604461946FFF7F0FF20461C
:1002800010BD70B58C1810F8015B15F0070301D193
:1002900010F8013B2A1106D110F8012B03E010F8E9
:1002A000016B01F8016B5B1EF9D12B0705D400230C
:1002B000521E0DD401F8013BFAE710F8013BCB1AAE
:1002C000921C03E013F8015B01F8015B521EF9D5A3
:1002D000A142D8D3002070BDFEE7000010B581B068
:1002E00041F2140CC4F2020CDCF8003043F040037D
:1002F000CCF80030DCF8003043F2000CC4F2020C01
:1003000003F040030093009B0123CCF80830002346
:1003100000BF00BF00BFB3EB910F0ED08B08C3F13D
:10032000000E00BF50F8043B1EF1010E83EA0203E9
:1003300093FAA3F3CCF80030F4D111F0030EDCF8FB
:10034000001091FAA1F213D048F2203CCEF6B85C2E
:10035000017882EA010308218CEA5302DC0708BF16
:100360005A0801391346F7D10130BEF1010EEFD121
:10037000D04301B010BD0020C4F20200016801F0BA
:100380000F01416070470020C4F20200016801F0D3
:10039000F0014160C16921F00101C161026A43F2CB
:1003A0002060C2F20000016812B101B17047002163
:1003B00043F214620023C160C2F20002137070475E
:1003C0000020C4F20200016801F470614160016B19
:1003D00021F001010163426B43F22060C2F2000090
:1003E00001680AB101B17047016170470020C4F291
:1003F0000200016801F47041416070470020C4F2BE
:100400000200016801F47021416070470020C4F2CD
:100410000200016801F47001416070470020C4F2DD
:100420000200016801F0706141607047012818BF47
:10043000704741F21400C4F20200026842F0010267
:1004400002604A1E062A3ED80420C4F20200DFE8F9
:1004500002F0040A10171E252C0000220F23426010
:100460004FF4006227E00022F02382614FF48052B3
:1004700021E000224FF47063C2624FF400521AE090
:1004800000224FF4704302644FF4804213E00022D4
:100490004FF4702342654FF400420CE000224FF409
:1004A000700382664FF4803205E000224FF07063E3
:1004B000C2674FF4003203604EF20010CEF200002B
:1004C000C0F8802102600120884040F28011C2F211
:1004D00000010A7810430870704770472DE9F04F0B
:1004E00082B041F20042042340F2004C4FF6FF7B01
:1004F0004FF0010E0F274FF0000A4FF00009C4F231
:100500000102C4F2010CC1F2100B904208BF032398
:10051000009300230A680EFA0AF812EA080F00F0A6
:10052000D2804E685E4509DC032E35D8DFE806F040
:1005300029023F43D1F80C9044E000BF4FF6FF7210
:10054000C1F2210296420DDC0022C1F21102964254
:1005500017D00022C1F21202964212D00022C1F23C
:1005600021020CE00022C1F22202964209D00022B0
:10057000C1F23102964204D00022C1F23202964208
:1005800020D18A6882B1012A14BFC0F81480C0F853
:1005900010804FF0080915E0112E0FD0122E04BF65
:1005A000CA6802F10C090DE04FF004090AE0CA68BC
:1005B00002F1080906E04FF0000903E0CA6802F101
:1005C000040900BF1A460546BAF1080F28BF203AB1
:1005D00028BF04352E6807FA02F409FA02F226EA67
:1005E000040422432A60CA79D2066CD541F218026B
:1005F00003F00C06C4F202021446126842F0010233
:100600002260226802F00102019207FA06F2ACF5BC
:100610007E77019C4FEA9A0457F82450954340F6A0
:100620000002C4F2010290420ED040F60042C4F231
:10063000010290420AD041F20002C4F2010290424B
:10064000009A08BF022202E0002200E00122B2402C
:100650002A4347F824204FF6FF77D1F804B0C1F2BF
:1006600010075FEACB32DCF8002054BF22EA080210
:1006700042EA0802CCF800205FEA8B32DCF8042062
:1006800054BF22EA080242EA0802CCF804205FEADA
:10069000CB22DCF8082054BF22EA080242EA080212
:1006A000CCF808205FEA8B22BB464FF00F0740F2E0
:1006B0000C42C4F201021446126854BF22EA080236
:1006C00042EA080222600AF1010A0433BAF1100F6B
:1006D00004BF02B0BDE8F08F1CE740F2480044F6CA
:1006E000D351C2F20000C1F262010068A0FB010117
:1006F0004FF0FF3000EB91110020B0EB116F18BFED
:1007000070474EF21002F023CEF2000251604EF616
:100710000C51CEF20001CB750723906013600A687C
:10072000C8757047B0B5014643F6F060C2F20000EC
:100730000029D0F85C440CD0D4F814024269002A95
:100740006ED094F8FC0103286AD12046BDE8B04081
:100750001047D4F8F421022A5AD1D4E9073293423F
:1007600014D900EB4110991A0025C06BE16189B2E0
:10077000D4F8202202F13C0323C34FF480701146C9
:1007800021F8280F106803F059F91BE0A069904286
:1007900023D3B0FBF2F101FB1201F1B9D4F8F81147
:1007A00088421AD2D4F8200200254FF48072014604
:1007B000C0E90F55456421F8282F006803F03EF981
:1007C000C4F8F851D4F82012C1F83C52C1F8405294
:1007D000C1F84452A1F8285215E0D4F81402C168B7
:1007E00029B194F8FC01032801D12046884705204F
:1007F000C4F8F4010020D4F82012C1E98F00C1F838
:100800004402A1F82802086801F50A7103F016F9FC
:1008100094F80002012802BF002084F80002B0BD55
:10082000B0BD10B5014643F6F060C2F200000029E9
:10083000D0F85C440BD0D4F81402826952B394F817
:10084000FC01032826D12046BDE810401047D4F80B
:10085000F421032A1ED1D4E9433293421BD900EB81
:100860004110991AD0F83C02C4F80C119142D4F806
:1008700020324FF00004A3F8284238BF0A4691B254
:1008800003F50F7213C203F50A711868BDE8104032
:1008900003F0D4B810BDD4F81402016929B194F85A
:1008A000FC01032801D120468847042000214FF491
:1008B0008072C4F8F401D4F82002C0E90F11416439
:1008C000014621F8282F0068BDE8104003F0B6B8B3
:1008D000FEE7B0B5D0F81852044695F81802D8B122
:1008E0002046812102F068FF687A022818BFB0BD57
:1008F000D4F8201205F503701F230022C1E99703E5
:100900000120C1F86422A1F84802086801F51271BB
:10091000BDE8B04003F092B8D5F814020028DFD04B
:10092000687A0028DCD12046012102F045FFD7E794
:1009300010B5D0F81842627A022A05D1812102F05E
:100940003BFF0020607210BD49B2B1F1FF3FFADCFD
:10095000012A08BF10BD0121BDE8104000F0CFB84A
:1009600010B50446D0F81802017ACA1E022A05D230
:1009700020460021BDE8104000F0C1B8022910D186
:1009800090F8191200F21B22204601F09DFBB0F1F5
:10099000FF3FC8BF10BD20460121BDE8104000F058
:1009A000AEB810BDB0B5D0F818520446287A012868
:1009B00034D0E8BBD5E98401C5E98C01D4F8200224
:1009C000B0F864021F2810D145F25531D5F80C0259
:1009D000C4F24231884208D195F81912012904D88D
:1009E00095F81A020138102823D395F85D024FF4C8
:1009F000005205EBC0010130C1F84022052281F808
:100A00003C2202216972C1B2043918BF014685F83F
:100A10005D122046BDE8B040FFF75BBF95F81912A4
:100A200005F21B22204601F04FFBB0F1FF3F34DD01
:100A3000B0BD05F21B22204601F046FB297AB0F139
:100A4000FF3F28DD481E0328F2D3688958B3D4F845
:100A500018124FF0000C042381F838C20B72D1F841
:100A60001432D1F83422834238BF1846121AC1F822
:100A7000342205F10C01D4F82022C2E9171040F20B
:100A800001101146C2F864C021F8480F1068BDE893
:100A9000B04002F0D3BF0529BBD120460121BDE8FB
:100AA000B04000F02CB820460021BDE8B04000F076
:100AB00026B870B5D0F81862002504463581A6F82E
:100AC0005C52D0F81C02016800208847D4F820123C
:100AD000012291F82804012818BF81F82854A1F8B0
:100AE00048221F2006F50372C1E99720C1F864521D
:100AF000086801F51271BDE8704002F09FBF70B543
:100B0000D0F81852044645F255300026C5F242305E
:100B100085F83812C5F82C022E720D2105F50B72DE
:100B2000D4F82002C0E9172140F2011201464666BE
:100B300021F8482F006802F081FFD4F820121F200E
:100B400005F50372C1E997200120C1F86462A1F89C
:100B50004802086801F51271BDE8704002F06EBFEE
:100B6000B0B543F6CC440125C2F2000484F8FC5130
:100B7000D4F814022179426820469047D4F8200224
:100B800090F82814012906D1002841D0032180F8CB
:100B90002914016823E0016844F2FF2C0324B1F812
:100BA000402002EA0C02A1F840200022A1F84050A7
:100BB000A1F84420A1F8404080F8294480F8282476
:100BC0000168B1F8403003EA0C03A1F84030A1F805
:100BD0004050A1F84420A1F8404080F8282445F670
:100BE000004200F22940C4F2000291420ED141F2CB
:100BF0001C01C4F202010A6822F400020A604EF2EB
:100C000080114FF48012CEF200010A6000210170C1
:100C1000B0BD000043F6CC4CC2F2000CDCF814026C
:100C200010B10020CCF8140270B581B040F20C0075
:100C300043F6F06145F60046012200234FF0030E13
:100C40000824C2F200008CF8FC21C2F20001C4F2B8
:100C50000006CCF8100202208CF80030C1F85CC409
:100C6000CCF82012C1E906330B62C1E90064C1E986
:100C7000020E91F8290480BB41F21C0081F828344F
:100C80004FF0FF35C4F20200046844F4000404602D
:100C9000006800F40000009000984EF60C50CEF270
:100CA00000000068C0F30220C41E80F0070038BFB7
:100CB0000024042828BF042005FA00F00A2525EAAC
:100CC0000000A0404EF200140001CEF2000484F8AF
:100CD00014034FF4801020600E6881F829E444F278
:100CE000FF24B6F8400020400024A6F84000002071
:100CF0000D182030AC8685F828400134B0F5F07F1F
:100D000085F82920C5E90E332B6485F82B30EFD107
:100D100000220020002300BF0D18203085F8283263
:100D200085F82922C5E98E22C5F8402285F82B22B4
:100D3000AB860133B0F5F07FEED101200022A6F89A
:100D40004000A6F84020A6F84420A6F85020B6F8A7
:100D5000403043F43F43A6F8403081F8242081F826
:100D600029041821DCF82002A0F82C12582180F860
:100D7000322280F8322080F852208185982180F834
:100D80005222A0F84C10D821A0F84C1240F20811C1
:100D9000C2F20001CCF81C1240F26401C2F2000160
:100DA000CCF8141290F82814012901B0BDE8704065
:100DB00008BF70470168B1F8403043F43F43A1F8E1
:100DC000403080F828247047FEE7704770470000E5
:100DD0002DE9F04FADF52D7D40F284168846814611
:100DE0004FF45051C2F200063046FFF73FFA40F28E
:100DF0002C1730463E22C2F20007394603F0BAFCF7
:100E0000054606F5FE7007F14201042203F0B2FC2C
:100E100040EA050407F13E0506F500700422294664
:100E200003F0A8FC044306F580502946042203F091
:100E3000A1FC40F2280106F5F05504432022C2F23D
:100E40000001284603F096FC44EA0002B8F1000FC6
:100E500009D0B8F8040041F60861705241F6046107
:100E6000D8F80000705043F6B520C2F200000078B8
:100E7000012840F0F9844CF2FF3A0395CDE90129AD
:100E80004FF00F094FF0000B40F6FF7ECFF67F5A70
:100E900040F28410C2F200000146407B096AB1FBB7
:100EA000F0F4A0B2022871D340F28411CBEBCB0056
:100EB0000022C2F2000101EB402000F2032500BF36
:100EC00028685FFA82FCA3B24FF6FF71022B20EA7A
:100ED0000E0040EA8C0000F10306A8882E6032D094
:100EE00000EA010840F2FF300CF10101032BCFF6BC
:100EF0000070A5F8048000EA060040EA813028600E
:100F00002FD01AF140714FEA8C0669F11F07084093
:100F1000711D042B40EA016007EA0807286047EAD0
:100F2000112100EA0A00A98029D0286001EA0900FD
:100F3000B11D043C013240EA0110A880A0B2063580
:100F40000128BDD822E008404FF20001A88040F2FD
:100F5000FF30C0F2FF01CFF6007030400843286038
:100F600014E01AF1407100EA010040F07F4028606F
:100F700069F11F0000EA080040F00F0005E028605A
:100F800001EA09004FF6F0710843A8800BF1010B4C
:100F9000BBF1020F7FF47CAF4FF40D7006F0F0F858
:100FA00043F6C84A834604AE2E21C2F2000ACAF8AC
:100FB000000043F63020C0F22F0010903046FFF7BB
:100FC00055F9029C2046FFF7B7F802463046214605
:100FD000FFF702F930462F21FFF7A4F848B15F244C
:100FE00004AD00BF047028462F21FFF79BF80028AE
:100FF000F8D143F6C44947F2C4214FF6FF72C2F25A
:101000000009C0F60001D9F8000000BFCB68FF2B33
:1010100002D10B69934207D001F5D073D1F8A0112A
:1010200000291946F2D10021884218BF00286FD14B
:101030003046FFF781F846F22E210DF14008C6F642
:101040006961CDF86C8231503044002101719BA858
:1010500003F0D6FF002812DB43F28451C2F20001F4
:1010600051F820200AB100231370BBF1000F1CBF00
:1010700000228BF8002041F820B0002000E00B2077
:1010800043F6B624A796C2F200042070A7A803F086
:10109000B7FF00283ADB43F28451C2F2000151F855
:1010A00020B0BBF1000F4ED09BF8001000294CD0AF
:1010B000A79F9BAACDF86CB201E000BF013738783A
:1010C0005C2818BF2F28F9D000209D90397820295E
:1010D00071D2802000218DF897029BA803F064FE56
:1010E0000546002D00F0DE81042D9BA840F01B82F8
:1010F0009DF8971211F0A00F00F09582062543F697
:10110000C4490DF14008C2F200090CE20B250AE2C5
:1011100004A8FFF711F82628FFF48AAF04AD0024D5
:1011200028465F21FFF71CF8074628462921FFF7CC
:1011300017F8874298BF471C28463C70FEF7FCFF13
:101140002528EDD874E70C25EDE18BF8010000258A
:10115000584600218BF8005003F0C4FB022821D12F
:101160009BAC0020214600BF0BEB0002103092F830
:10117000F631002B14BFD2F8FA21002241F8042BDB
:101180004028F1D1002600BF54F8265035B158460A
:10119000294603F0A7FB022801D290E10320013683
:1011A000042EF1D3042840F07681012543F6B624BD
:1011B000C2F20004B7E147F2774E02F1200C584624
:1011C000C0F6010EC0680137002932D000224BB2B0
:1011D000B3F1FF3F01DDCBB208E047F22E73C0F65A
:1011E000010303EB41016FF0FF03CB5A202B1ED309
:1011F0005C2B4FF0000118BF2F2B1ED07F2B0CD87B
:10120000764600BF16F8011B09B18B42FAD10625BC
:101210003F2A00F2888119B185E13F2A00F2398125
:1012200020F81230013217F8011B0029CFD1042118
:1012300003E00421002200E001373B785C2B18BF5B
:101240002F2BF9D0002A00F0228100EB42035242FA
:1012500033F8026C2E2E18BF202E03D1023B013230
:10126000F6D114E1002652421E8000BF30F816303D
:101270000136202BFAD02E2B41F0030508BF29465A
:10128000831E012E18BF2946751ECDF808B000BF79
:1012900042B133F81260013A2E2EF9D1C34602F161
:1012A000010E02E0C3464FF0000E4FF02032CDF8A1
:1012B00000C0AEF101094FF0000A4FF00008CCF871
:1012C0000720CCF80020CCF804204FF0080C00BF19
:1012D00030F815602C460135202E03D02E2E04D177
:1012E000A1451AD041F00301F2E7002E66D0E04597
:1012F0005ED2A1455CD0802E35D30024002200BFF1
:1013000047F22E73C0F6010333F81430B3421CD0F9
:1013100001340132802CF3D318E00122754641F0EC
:101320000304BCF10B0FD84600F0AC80002A08BFC4
:101330002146754500F2A980C3464FEA8A0A4FF05C
:101340000B0C4FF008087546C2E72246803241F088
:101350000201D6B2120606D547F2102306F07F022C
:10136000C0F600039E5C4EB147F26B32C0F601023C
:1013700012F8014B0CB1A642FAD14CB141F0030175
:101380005F269BAA424408F1010882F820609FE78B
:10139000412EF6D35A2E02D84AF0020AF1E7A6F1FE
:1013A000610292B2192A9CBF203E4AF0010AE8E786
:1013B000A9EB0402B2FA82F25209B0E70C46D84611
:1013C0009DF88C02DDF808B043F6C44944F00201F0
:1013D000C2F20009E52804BF05208DF88C02BCF19B
:1013E000080F08BF4FEA8A0A0AF0030003280AF030
:1013F0000C0008BF0C460C2808BF0C46A00707D4F9
:1014000010200AF0040100EA0A1040EA41000443F7
:101410009BA88DF8974203F0ADFA05469DF8970218
:10142000002D40F00D8343F6C84A43F6B624410729
:10143000C2F2000AC2F2000436D49DF87202C0065D
:1014400040F10D839F986FF35F200BEB000191F843
:101450004E0091F84F2040EA02209BF80020032A1A
:1014600006D134310A7D497D42EA012140EA01403A
:101470009D9047F2774EDDF800C039789B98C0F612
:10148000010E9FE64FF00B0C9AE70C4698E70021FF
:101490000180062547E043F6B6240128C2F2000485
:1014A00040D810E09DF8970240B20028F1DB9DF88B
:1014B000720210F0110F00F0E782072533E043F6C7
:1014C000B624C2F200049BF83F009BF8401040EAAB
:1014D0000120B0F5007F25D19BF84A009BF84B1006
:1014E00040EA012008B9DBF85800CBF81C009BF853
:1014F0004430591E8BF80230012913D89BF8412043
:10150000002AABF80A200DD0511E11420AD19BF8D7
:1015100045709BF8461047EA01213F07ABF80810D9
:1015200000F00F830D254FF0000BCDF844B0DAF832
:101530000000C022257000F134010398FEF74CFE34
:10154000BBF1000F00F055819BF80000002800F06F
:101550005081BBF80600BDF848105D46814218BFB7
:10156000002540F046819DF8540041060ED49BF8BA
:101570000000002800F03D81BBF80600BDF84810CF
:10158000814240F036810026119633E1000611D5E4
:1015900011A8189A0123012600F12801002001F06A
:1015A00067FC002840F026819DF8540000F07F0081
:1015B0008DF854001999284604F094FB064600283B
:1015C00040F018811A98C17A41F02001C172139934
:1015D000119A0B0A8176C3761278032A03D10A0E78
:1015E000090C4275017514994BF2C032C5F28C2278
:1015F0000177C0F81620002242820A0EC2770A0C38
:10160000090A827741770120E870284605F0FFFA41
:10161000002800F09F8006469DF8540000F0BF00AF
:101620008DF85400E6E09B9B4FF00009DA6800BF9C
:1016300032F8191009F101090029F9D10022A8AFE7
:10164000CDF808B0811891F82010B95401320C2A55
:10165000F8D19DF8AB220093D10700F0128141F23E
:10166000210A402100F1200C01244FF0030E0DF55A
:101670002B784FF0000BC0F2010A8DF89712DE684C
:10168000002100BF42187B5C01310B2982F8203019
:10169000F8D1052C254615D93288254692B100BFD0
:1016A0001023294602F00105520845EA41050904C4
:1016B00048BF85EA0A05013B2946F3D136F8022FD7
:1016C000002AEDD1072600BF29466EF31F113929E4
:1016D00088BF073108F80610013E2909BBEB151F2A
:1016E0000D46F1D17E21002E08F806104FF00001C2
:1016F00008D000BF1CF80120202A03D00131B142DC
:10170000F8D300BF072E00EB010301F101019ABFDE
:1017100018F8062001362022082983F82020F1D36A
:10172000664603F027F9002840F0A3800134009BAF
:101730009BA8B4464FF0030E642CA0D343F6C84ACE
:1017400043F6B624C2F2000AC2F2000440F06F81F0
:101750000725D4E4287803283FD1287901283CD1F3
:1017600005F138004FF4FD71FEF780FD45F252207F
:1017700026460024C4F2611045F8340F4AF655207D
:10178000A5F8FE0147F27220C6F24110C5F8E40147
:1017900055E9090155F8142C0B0E85F8E81185F868
:1017A000EC01013285F8EB310B0C090A85F8EA31BE
:1017B00085F8E911010E012385F8EF11010C000AEB
:1017C00085F8EE1185F8ED010020294645F8042C36
:1017D00001F04EFB05F8304C34469DF8540000F003
:1017E000BF008DF85400DDF844B0BBF1000F7FF46A
:1017F000BEAE09269BA82670CDF86C8203F000FCD3
:1018000000280CDB43F28451C2F2000151F8202081
:101810000AB100231370002241F8202000E00B22BF
:10182000DAF80000227005F083FC207808B1FF226E
:101830001AE040F2841141F6DC60C2F200010A189D
:1018400052F8241CA2F1200002460029F8D0D9F851
:10185000002001F50031002A1ABF526992020022CD
:1018600040F8041C0260019A50B20DF52D7DBDE8D0
:10187000F08F0546042840F0F4809DF8AB228DF8E7
:10188000972290074FF0010609D54EF64F4109F116
:101890000B00C4F6C461A0FB010106EB91069B9FFF
:1018A0009BA8002103F080FA43F6C449DDF808B094
:1018B000054600280DF14008C2F2000918D10024A5
:1018C0000DF51B7AA199384604F00CFA78B9A29864
:1018D0000078E52800D018B90134B44201D10DE0F8
:1018E00000245046012103F019F90028EAD00546EA
:1018F000042D08BF0725002D40F0BB8043F6B62419
:10190000B6F10109C2F200046FD09F980DF51B7863
:10191000A0EB4911404603F047FA43F6C84A054692
:101920000028C2F2000A7FF4EAAB4FF0000B20203F
:101930005FFA8BF218F80010013053082B2843EAA5
:10194000C21202EB010BF3D147F2902A4FF6FF7659
:101950000DF51B78C0F6000A009FA199384604F0E7
:10196000C1F9002840F04281A29800220F23F968B3
:101970000D25BC464283A0F80B305FFA89F380F84E
:101980000DB06B4300250D3B1AF80240B5421ABF5B
:1019900031F8135001334FF6FF752F0A0132002D35
:1019A00005550444677043F6B62408BF35460D2A32
:1019B000C2F20004E8D1B54202D149F0400106E08C
:1019C00031F813100029494608BF49F04001017061
:1019D000012000218CF80300404603F09FF8002806
:1019E00040F00481B9F10109B6D1A199009804F041
:1019F00079F943F6C84A05460028C2F2000A7FF486
:101A00007EABA2982021FEF731FC9BA8A29A002170
:101A10002030435C535401310B29FAD19DF89702D1
:101A2000A29900F01800087300990120C87043F6CD
:101A3000C449DDF808B00DF14008C2F2000923E006
:101A400043F6C84A43F6B624042DC2F2000AC2F295
:101A500000047FF446AB40079BA83FF549AB052542
:101A600061E543F6C449DDF808B00DF14008C2F263
:101A7000000943F6C84A43F6B624002DC2F2000A14
:101A8000C2F200047FF44FADA298817EC27E41EA8B
:101A900002269BF80010032905D1017D427D41EA11
:101AA000022146EA01464BF2C0312022C5F28C21C8
:101AB000C0F80E1000214183C2729BF80020032A57
:101AC00008BF8182C1610120002E8BF8030064D021
:101AD000012E01D1022526E55446DDF86CA2DAF884
:101AE0001800B04229D9DBF8300035460090504646
:101AF00011E0DAE90510821E914208D20131CAF8DC
:101B000014109AF8041041F001018AF80410874279
:101B100033D29B983D46294603F00BFA0746013025
:101B20006BD057B3012F08D050462946002204F04D
:101B3000F5F80028DDD0054600E00225A246FFF7B3
:101B400035BB9BF847709BF8486047EA06260EB9FC
:101B5000DBF854609BF842709BF8434047EA042747
:101B600047B1434303EB11143C44A64202D3361B56
:101B7000964244D20D25FFF719BB0099584604F050
:101B8000B1F80546A24643F6B624701E002DC2F2F7
:101B90000004CBF810007FF4C6ACDBF830001990DD
:101BA000A2981A90817EC27E41EA02219BF8002011
:101BB000032A05D1027D437D42EA032241EA024124
:101BC000139100254821C0691490CDF844B0BBF8AA
:101BD00006001895ADF854104FF40071ADF84800A8
:101BE00011A816952830FEF741FBA0E443F6C84A39
:101BF0000546C2F2000AFFF782BA01259EE74FF6BA
:101C0000F67CB6FBF2F24FF000084FF6F676C0F61F
:101C1000FF7C624538BF4FF00308B24240F6F676CB
:101C200038BF4FF00208B24238BF4FF00108B8F198
:101C3000000F2CD066192F440232B8F1030FCBF8F5
:101C40002C605E46CBE90857CBF818200DD196F8EA
:101C50005E3096F85F703446194341EA0721B1B906
:101C6000316E3346B16291000CE081B1F918B8F1E0
:101C7000020FB1620FBF510002EB420102F00102FC
:101C800002EB510101F2FF11B0EB512F04D20D25EF
:101C90000DF14008FFF78ABA4FF0FF30B8F1030F9B
:101CA0003146C6E904004FF08000307130D1314632
:101CB00096F8640096F8651040EA0120012827D1C3
:101CC000691C304604F00EF810BB0020314630711C
:101CD00096F8320296F8331240EA01204AF655216E
:101CE000884215D145F25221706BC4F261118842CD
:101CF0000ED147F27221D6F81802C6F2411188427D
:101D000006D1D6F81C02D6F820123246C6E90410D5
:101D100043F2905086F8008043F6B624B3460DF1A6
:101D20004008C2F20000C2F20004018801310180C3
:101D300043F29250C2F20000F060F180FFF7B8B9B0
:101D4000B0B582B043F218650446C2F200052878A7
:101D5000800702D44FF0FF3034E043F21460C2F247
:101D60000000007810B16FF001002BE043F21C601E
:101D7000FF21C2F20000C0F21801006808400121F2
:101D8000C0F208018842E5D140F610004FF48011FE
:101D90000222C4F20100016015208DF8040001A8A0
:101DA000811C00F0A3FF68B943F22060C2F200007A
:101DB00001E000BF00BFC1680229FBD19DF8070008
:101DC000207000202978890719D543F21461C2F2E6
:101DD0000001097899B943F21C61FF22C2F20001A7
:101DE000C0F21802096811400122C0F208029142B3
:101DF00005D140F610011022C4F201010A6002B0C0
:101E0000B0BD000070B5064614460D46800407D1EB
:101E100041F20C00C4F20100016881F4005101603C
:101E200008A03146224604F019FF43F6C440294673
:101E30002246C2F200000068D0F88C313046BDE87E
:101E4000704018470A2072645F61646472202D3EFE
:101E500020307825303578202020636E74202D3E88
:101E6000203078253033780010B584B043F2186400
:101E700000210391CDE90111C2F200042178890704
:101E80003AD543F21461C2F200010978A1BB43F2D2
:101E90001C61FF22C2F20001C0F218020968114061
:101EA0000122C0F20802914226D140F610014FF4FF
:101EB0008012C4F201010A608DF8040001A8062214
:101EC000811D00F013FFB8B943F22060C2F2000098
:101ED00001E000BF00BFC1680629FBD144F25230C7
:101EE0009DF80E109DF80F20C2F20000017044F220
:101EF0005430C2F2000002802078800719D543F2E6
:101F00001460C2F20000007898B943F21C60FF210F
:101F1000C2F20000C0F21801006808400121C0F2BE
:101F20000801884205D140F610001021C4F20100DA
:101F3000016004B010BD000010B582B043F2186417
:101F40000021CDE90011C2F20004217889073BD5B8
:101F500043F21461C2F200010978A9BB43F21C618B
:101F6000FF22C2F20001C0F21802096811400122EA
:101F7000C0F20802914227D140F610014FF48012BE
:101F8000C4F201010A608DF8000068460422011DB8
:101F900000F0ACFEC0B943F22060C2F2000000E0E5
:101FA00000BFC1680429FBD144F252309DF80510EE
:101FB000C2F200000170BDF8060044F25431C2F2D2
:101FC000000100BA000C08802078800719D543F280
:101FD0001460C2F20000007898B943F21C60FF213F
:101FE000C2F20000C0F21801006808400121C0F2EE
:101FF0000801884205D140F610001021C4F201000A
:10200000016002B010BD0000B0B582B043F21865A7
:102010000C46C2F200052978890702D44FF0FF3040
:1020200032E043F21461C2F20001097811B16FF09D
:10203000010029E043F21C61FF22C2F20001C0F25C
:102040001802096811400122C0F208029142E5D14C
:1020500040F610014FF48012C4F201010A608DF8BD
:10206000040001A80222811C00F040FE60B943F286
:102070002060C2F2000000E000BFC1680229FBD16D
:102080009DF80700207000202978890719D543F2B0
:102090001461C2F20001097899B943F21C61FF2270
:1020A000C2F20001C0F21802096811400122C0F218
:1020B0000802914205D140F610011022C4F201013C
:1020C0000A6002B0B0BD00002DE9F04182B00446C4
:1020D000107816460D46192813DDA0F11A011029B3
:1020E0002CD8DFE801F048094141094141414159FB
:1020F000417D41419541D900D4F818020025458120
:102100001CE2002800F00C81032800F02381122833
:102110002AD17178D4F81802C90740F05781D4F851
:102120001C2205EBC501D26902EB81010A79531D1E
:1021300032799A4240F2E3811A4649E12F2800F0B1
:1021400033815A2810D1D4F8180208210FF2B04276
:1021500041811330002100BF5318DB79435401390A
:1021600011F10803F8D13CE1D4F8180290F85D129F
:102170004FF400533BE1D4F8180208210FF28842D3
:1021800041811330002100BF5318DB7943540139DA
:1021900011F10803F8D124E1D4F81862002069464F
:1021A0000DF1060270613061F060D4F81C024368E2
:1021B0002846984700BB08200221F0730098B1829E
:1021C0000138010AF074B174010C000E717430749E
:1021D0000C21BDF80600F075000A7181B07500E1B0
:1021E000D4E98660436806F5187106F25E22284637
:1021F0009847002800F00181D4F818024FF4685382
:1022000090F85D1200EBC102C2F8403202238BE16C
:10221000D4F81872387AB846002800F002814FF4DA
:1022200000767E8108F10C07B8F85E02D8E99913B0
:10223000B1FBF0F2B3F5007F38BF1E46B6FBF0F0FD
:10224000394683B2D4F81C02D0F810C02846E047C3
:10225000B0F1FF3F40F35881D4F82002002540F24E
:1022600001120146C0E91776456621F8482F00683B
:1022700001F0E4FBD8F83402D8E99912921B3144FA
:10228000A0EB0600C8E99912C8F8340240F0568164
:10229000032088F80800A4E0D4F81872387A0028DF
:1022A00000F0E380B7F85E02D7E9991607F10C0851
:1022B000B6F5007FB1FBF0F228BF4FF40076B6FB15
:1022C000F0F0414683B2D4F81C02D0F814C028467E
:1022D000E047B0F1FF3F40F31C81D7F83412D7E953
:1022E00099028319901BA1EB0601C7E99930C7F841
:1022F000341200F02781D4F82012B0F5007F28BFF7
:102300004FF400700025C1E997800120C1F86452A4
:10231000A1F84802086801F5127101F08FFB0DE188
:10232000D4F81862D6F81402002800F0CA8096F893
:102330005D024FF4005206EBC0010130C1F84022AB
:10234000052281F83C22C1B2043918BF014686F843
:102350005D12F2E0D4F81842112104F10D00FDF7EE
:1023600085FF0C20E0747020207394F85C0294F8D0
:102370005D12884211D004EBC001013091F83C227B
:10238000A27391F841222276C2B2043A18BF0246E3
:1023900091F8400284F85C226076122060813079E6
:1023A000122898BF60811CE07178D4F81802890760
:1023B00019D4D0E99812B0F868321A448A427FF6EC
:1023C0009DAE90F85D124FF4045310E090A10722E7
:1023D000428100BF013A93B2CF5CC618002B37731D
:1023E000F8D10025AAE090F85D124FF4105300EBED
:1023F000C102C2F84032052396E00025082035824C
:102400007081B6F85E02F074000AD6F860120139E5
:10241000F173B074080AB073080C7073080E30734F
:102420008CE097F91802002838DAD4F81C02816889
:102430002846884700287FF4DFAED6F8020000BAAD
:10244000C7F86402F179327A42EA0121C7F86812CA
:102450000A18D4F81882D8F860329A4240F2AF8055
:1024600098F85D024FF40452BAE097F91802B0F1FF
:10247000FF3F13DDD4F81C028168284688470028F6
:102480007FF4BAAED4F81C02C168284688470028F9
:1024900061D0D4F818024FF41C53B1E697F85D02EE
:1024A0004FF4005207EBC0010130C1F84022052271
:1024B00081F83C22C1B2043918BF014687F85D1289
:1024C0003BE0D4F81C0281682846884700283FD0AA
:1024D000D4F818024FF4685390F85D1200EBC10273
:1024E0000131C2F84032022382F83C32CAB2043AC7
:1024F00018BF0A4680F85D22052030721DE0002AD0
:1025000042817FF467AF6CE7D4F818024FF4885328
:1025100003E0D4F818024FF4407390F85D1200EB1A
:10252000C102C2F840320423013182F83C32CAB2FF
:10253000043A18BF0A4680F85D22FF2568B202B04F
:10254000BDE8F081204600210025FEF7D8FAF5E726
:1025500000257581F2E7D6F8020002BAC7F86422B6
:10256000F079317A41EA0021C7F868128B18D4F863
:102570001802D0F86062B3423FF623AFB7F85E327C
:1025800059435A43C7E99921D7F814228A427FF464
:10259000EDAD0120002507F10C03B1F5007F387285
:1025A000D4F8202228BF4FF40071C2E99731C2F855
:1025B0006452A2F8480202F512711068ADE60222D8
:1025C0003A72B7F85E2251435043C7E99901D7F8F0
:1025D000140288423FF423AE98F85D024FF4005293
:1025E00008EBC001C1F840220522013081F83C22ED
:1025F000C1B2043918BF014688F85D129DE700BFDB
:1026000000060000000000000000000000000000C4
:1026100000000003008083002DE9F04143F2186CB4
:10262000C2F2000C9CF800309A0702D44FF0FF323F
:102630002FE0C5B2142D24D143F20000C4F20100F2
:10264000818821F0020181801C21C4F202014A69C3
:1026500022F001024A61828822F001028280086829
:1026600020F00100086043F220601C21C2F200004B
:10267000FDF7FCFD43F214600022C2F2000002707C
:1026800007E043F21462C2F20002127822B16FF046
:1026900001021046BDE8F081132D20D86FF006022C
:1026A00000260024DFE805F0100B0E0A0A1B1B1B96
:1026B0001B1B1B1B1B1B1B1B1E2E3D43E9E704247E
:1026C000012601E000240226C0F30222032A48D892
:1026D000DFE802F04F024A4D44F0010449E06FF098
:1026E0000302D6E745F200120020C0F2252200BF07
:1026F0000746072800F29F8022FA07F3781C9942C8
:10270000F6D39DE043F200004AF20021C4F201003A
:10271000C0F24A410088C0F3C200013021FA00F241
:10272000B7E743F22060C2F2000001834BE143F2BD
:102730001C60FF22C2F20000C0F2180200681040C4
:102740000122C0F2080290427FF470AF40F6000010
:1027500000290CBF10214FF48011C4F20100016167
:1027600031E16FF0070294E744F0020401E044F025
:10277000030400F47C32B2F5004F04D0B2F5803F80
:1027800035D104F500648022022E02EAD02244EA08
:10279000020E2FD0012E4CD1C0F3C14001287BD0B6
:1027A000022800F09C80032840F0BC8041F2180011
:1027B000C4F20200026842F004020260026852079A
:1027C0005EBF026842F00402026040F60000C4F2FC
:1027D0000100026822F470220260026842F4302292
:1027E00002600120C0F2080000F58010B2E06FF036
:1027F00008024EE741F218028002C4F20202146895
:1028000034D444F004001060106840075EBF1068C4
:1028100040F00400106040F60000C4F201000268BD
:1028200022F470220260026842F430220260022028
:1028300090E000208EE0082F3FF4F8AE22FA07F374
:102840008B423FF6F3AE43F20000C4F20100018870
:1028500021F040010180018821F0380141EAC701DF
:102860000180018841F040010180ACE060075EBF5B
:10287000106840F0040010604EF4007E40F6000046
:10288000C4F20100026822F4702202600268026051
:102890000220C0F220005DE041F218004EF4407EBC
:1028A0004FF02008C4F20200026842F00402026005
:1028B000026852075EBF026842F00402026040F6FE
:1028C0000000C4F20100026822F470220260026873
:1028D00042F4403202600120C0F208003CE041F2C4
:1028E00018004FF02408C4F20200026842F004020B
:1028F0000260026852075EBF026842F00402026092
:1029000040F60000C4F20100026822F47022026066
:10291000026842F4302202600120C0F2080000F593
:10292000002019E041F218004EF4407EC4F202008B
:10293000026852075EBF026842F00402026040F67D
:102940000000C4F20100026822F4702202600268F2
:10295000026001204FF0200845F2001500240026F7
:10296000C0F225252246072E07D825FA06F702F1E0
:1029700008040136B942F5D304E0082E3FF456AE00
:1029800025FA06F78F423FF651AE43F21C6142EA48
:102990000E02C2F20001086043F200018007C4F297
:1029A000010143F004000C8824F040040C80A1F8DD
:1029B00004800A8008BF03F0FB008CF80000088840
:1029C00040F040000880002263E643F20000C4F2B9
:1029D000010001894A0631D50188090510D443F266
:1029E000206290F80CC0C2F200021368D1689942CC
:1029F0001CD25368D3B1591C516083F800C015E054
:102A000043F22062B0F80CC0C2F200021368D16831
:102A100099420BD253684BB1591C516083F800C0E6
:102A200051684B1C53604FEA1C220A7043F220612C
:102A3000C2F20001CA680132CA6001898A0644BF35
:102A40000288028010B5CA073FD0828852063CD562
:102A500043F2206EC2F2000EDEF80030DEF80C20E9
:102A60009A4232D2028812050AD490F80CC0DEF8DD
:102A70000430BBB15A1CCEF8042083F800C011E02A
:102A8000B0F80CC0DEF8043063B15A1CCEF8042054
:102A900083F800C0DEF80420531CCEF804304FEA5F
:102AA0001C231370DEF80C30DEF800200133934253
:102AB000CEF80C3009D18288002322F040028280B7
:102AC00043F21462C2F200021370890744BF818886
:102AD0005FEA016100D410BD43F2206CC2F2000C29
:102AE000DCF80020DCF81030934228BF10BDB0F8AD
:102AF00000E0DCF808405FEA0E510DD4002C0FBF57
:102B00009CF81810611CCCF8081021780173DCF8CF
:102B10000020DCF810300FE05CB1611CCCF808102C
:102B2000214611F802EBCCF8081061784EEA012139
:102B300001E0BCF818108181591CCCF810109142AA
:102B400002BF818821F08001818010BD10B502464E
:102B50006FF00400002A5DD000295BD043F21860BA
:102B6000C2F200000078400755D543F2146EC2F25D
:102B7000000E9EF8000010B16FF0010010BD43F28E
:102B80001C60C2F2000000780138012843D843F2EB
:102B9000206C012300201C248EF8003043F2000E2C
:102BA000C2F2000CC4F20204CCE90012CCE902002B
:102BB000CCF81000C4F2010EBEF800301B0540F244
:102BC000825358BF822323600EF10C03A360E2609E
:102BD0006160226842F001022260BEF8042042F0E7
:102BE0000102AEF80420BEF80020120540F2125295
:102BF00058BF12226261E3610CF118022262A161E6
:102C0000616941F001016161BEF8041041F0020107
:102C1000AEF8041010BD4FF0FF3010BDB0B5024645
:102C20006FF00400002A5DD000295BD043F21860E9
:102C3000C2F200000078400755D543F2146EC2F28C
:102C4000000E9EF8000010B16FF00100B0BD43F21D
:102C50001C60C2F2000000780138012843D843F21A
:102C6000206C012300201C248EF8003043F2000E5B
:102C7000C2F2000CC4F20204CCE90010CCE902203C
:102C8000C4F2010ECCF81000BEF800300EF10C05B5
:102C90001B0540F2025358BF02232360A5600CF1CC
:102CA0001403E3606160236843F001032360BEF80E
:102CB000043043F00103AEF80430BEF800301B05C9
:102CC00040F2925358BF92236361E5612262A16191
:102CD000616941F001016161BEF8041041F0020137
:102CE000AEF80410B0BD4FF0FF30B0BD10B50446D3
:102CF0006FF00400002C56D0002954D0002A52D086
:102D000043F21860C2F20000007840075CBF4FF049
:102D1000FF3010BD43F2146CC2F2000C9CF80000AE
:102D200010B16FF0010010BD43F2206E01208CF84D
:102D3000000043F2040CC2F2000E0020CEE9002194
:102D4000CEE90240CEF81000C4F2010C40F2825EDF
:102D50003CF8043C1B0558BF4FF0820E1C23C4F204
:102D60000203C3F800E00CF1080EC3F808E0D960D4
:102D70005A60196841F001011960BCF8001041F077
:102D80000101ACF8001092215961C3F81CE01C62EB
:102D90009A61596941F001015961BCF8001041F094
:102DA0000201ACF8001010BDA0B943F6C440C2F255
:102DB0000000006840B14FF6FE734069C0F27F0327
:102DC00003EA40001D3001E040F61D0008604FF4AA
:102DD000007010800020704700207047002070476E
:102DE0000020704743F6B020C2F20000007800F0E7
:102DF00001004042704780B501282ED0C0B91D2A7D
:102E000018D343F6B520C2F200000078012813D190
:102E100043F6C440C2F20000006868B14CF20060A2
:102E2000CFF6FF7000EB42205A02FEF7EBFF14E0F2
:102E3000012080BD1B2A05D35A0208461146FDF722
:102E400015FA0AE040F28410C2F2000000EB422CB6
:102E500008465A026146FDF7BFF9002080BD80B5E3
:102E6000FFF7C9FF002818BF0120400080BD000007
:102E7000F0B581B0012800F0938038B943F6B8402E
:102E8000C2F20000007818B1FF208AE0012088E03B
:102E90001E4614460D461D2A16D344F25830C2F27F
:102EA0000000016800294BD043F6BC40C2F200008C
:102EB0000068C21700EBD2501D2202EB6020A04236
:102EC0003ED140F27C173EE00F2C30D143F6B520C6
:102ED000C2F20000007850BBE86B60B343F6BC411F
:102EE000002005F1DC02C2F20001086052F820095E
:102EF0000028FBD0086043F6C441C2F20001096813
:102F00004969B0EB812FBFD8C11740F2FF1200EB27
:102F1000D1519143401A44F25831C2F20001086085
:102F200044F2563118BF0120C2F200010870A4F12A
:102F300010000D2818D340F28410C2F200000AE0FD
:102F400040F27C177102C2F200073A682846FDF78A
:102F5000C5F938600020710200EB44208AB229468E
:102F600001F008FC01281FD043F6BC40C2F200006B
:102F70000068012814DB44F25631C2F200010978DE
:102F800001EB50201C30A0420AD143F6B7200121AA
:102F9000C2F20000017043F6B020C2F200000170DE
:102FA000002040B201B0F0BD02A040F2DB1101F000
:102FB00075FC00BF2E2E2F5372632F757362645FF2
:102FC00073746F726167652E6300000080B5FFF750
:102FD0004FFF002818BF0120400080BD704700004F
:102FE000B0B543F218650C46C2F20005297889078E
:102FF00002D44FF0FF302FE043F21461C2F200011F
:10300000097811B16FF0010026E043F21C61FF2244
:10301000C2F20001C0F21802096811400122C0F298
:1030200008029142E5D140F610014FF48012C4F23B
:1030300001010A602146FFF7F1FD68B943F2206102
:10304000C2F20001C868A04201D1002004E00020C3
:1030500000BFCA68A242FBD1297889071AD543F27A
:103060001461C2F200010978A1B943F21C61FF2288
:10307000C2F20001C0F21802096811400122C0F238
:103080000802914218BFB0BD40F610011022C4F2F0
:1030900001010A60B0BD00002DE9F04F83B0154674
:1030A00044F25C32994621230126C2F200021288C2
:1030B000571E00BF9C1E013B06FA04F43C42F9D0A7
:1030C0008DF80800B1FBF2F000FA03F300FB1210D8
:1030D0001F0C18438DF8097043F218678DF80B0028
:1030E000000AC2F200078DF80A003878800702D47F
:1030F0004FF0FF3007E043F21466C2F2000630786A
:1031000020B16FF0010003B0BDE8F08F43F21C6BFB
:1031100040F2FF0A0124C2F2000BC0F2180AC0F20A
:103120000804DBF8000000EA0A00A042E0D140F603
:1031300010014FF48010C4F20101086002A80421BC
:10314000FFF76CFD90B138788007D1D53078002832
:10315000CED1DBF8000000EA0A00A042C8D140F658
:1031600010011020C4F201010860C1E743F2206899
:10317000C2F2000801E000BF00BFD8F80C0004282C
:10318000FAD175B1B9F1000F0BD028464946FFF7C7
:1031900045FD0028D7D100E000BFD8F80C00484515
:1031A000FAD138788007A3D530780028A9D1DBF888
:1031B000000000EA0A00A0429AD140F61001102057
:1031C000C4F2010108604FF6D770ADF808003078FE
:1031D00000287FF496AF4FF48010086002A8022107
:1031E000FFF71CFD0028AED100E000BFD8F80C00AE
:1031F0000228FAD10DF107000121FFF7A7FC08B161
:10320000A1E700BFD8F80C000128FAD19DF907000A
:10321000B0F1FF3FEEDC387880077FF569AF30789A
:1032200000287FF46EAFDBF8000000EA0A00A0423D
:103230007FF45EAF40F610011020C4F20101086077
:10324000002060E780B582B00DF107010520FEF790
:10325000DBFE18B99DF80700800717D4062001216E
:103260008DF807000DF10700FFF7BAFE78B90020CE
:103270000DF107018DF807000520FEF7C5FE30B9F6
:103280009DF80700C0F34000013800E0002002B0C4
:1032900080BD44F26030C2F200000168013101607B
:1032A000704741F200000022C4F20200CFF6FF0294
:1032B000016841F001010160416811404FF6FF7261
:1032C0004160CFF6F662016811400160016821F4A7
:1032D00080210160416821F4FE0141604FF41F012B
:1032E00081604EF608504FF00061CEF200000160A0
:1032F0007047000080B504A000F068F843F2406019
:10330000C2F2000080BD00BF4D534320436F6E6684
:10331000696700001220088040F24C00C2F20000F1
:103320007047000080B504A000F050F843F2406000
:10333000C2F2000080BD00BF4D534320496E74654A
:1033400072666163650000000420088040F260003E
:10335000C2F200007047000080B504A000F036F80B
:1033600043F24060C2F2000080BD00BF53544D697B
:1033700063726F656C656374726F6E69637300006E
:1033800080B504A000F022F843F24060C2F20000D1
:1033900080BD00BF53544D3332204D6173732053B1
:1033A000746F72616765000080B504A000F00EF8CC
:1033B00043F24060C2F2000080BD00BF30303030C8
:1033C00030303030303031410000000080B558B32B
:1033D000027862B1431C002213F801CB0132BCF128
:1033E000000FF9D1D2B2022303EB420200E0022225
:1033F00043F2406E03230A80C2F2000E8EF80130C1
:103400008EF8002002787AB1013002234FF0000CD0
:10341000D9B202330EF8012041F001010EF801C0CB
:1034200010F8012B002AF3D180BD10B5D0F820E2AE
:1034300001F07F0C0B060EEB4C1000F1280258BF78
:1034400000F50A72C809507082F800C09EF828344E
:10345000012B01D110216FE00123490048F2800CBB
:103460008EF82834C9B2937ADEF8002032F8114081
:1034700002EB410143B304F4804280B33AB10888BF
:1034800040F60F7210400CF5804210430880088807
:10349000400607D5088840F60F7210400CF1400234
:1034A00010430880088840F60F7210400CF58042E7
:1034B000104340F63F7208800888104040EA0C0034
:1034C000088043F60F732FE0E8B360062AD508881A
:1034D00040F60F7210400CF14002104321E03AB167
:1034E000088840F60F7210400CF5804210430880A7
:1034F0000888400607D5088840F60F7210400CF186
:10350000400210430880088840F60F7210400CF10A
:103510004002104343F60F7208800888104040EACA
:103520000C00088040F63F730888184040EA0C0001
:10353000088000218EF8281440F20020C0F20120FB
:10354000C840C0B210BD6004BBD5088840F60F72F9
:1035500010400CF580421043B2E7000070B5D0F87F
:1035600020C201F07F0E0D060CEB4E1404F1280072
:1035700058BF04F50A700361CB09437080F800E07E
:10358000C2709CF82844012C01D110200CE10124C8
:10359000032A8CF82844DCF800400DD8DFE802F05C
:1035A000020F19214A0048F68F16D5B234F81520BB
:1035B000324002F500721DE04A00D5B21CE04A001C
:1035C00048F68F16D5B234F81520324002F58062E5
:1035D00010E04A0048F68F16D5B234F81520324074
:1035E00008E04A0048F68F16D5B234F8152032406C
:1035F00002F5C06224F8152034F8152040F60F7645
:103600003240114348F28002114324F8151004EBB4
:103610004501857A002D48D00D8840F60F66002BB5
:1036200005EA060502F5807645EA06050D80C5889F
:10363000B4F8506006EBCE0625F0010504EB460613
:10364000C6F800540089B4F8505005EBCE0620F0BF
:10365000010004EB4606C6F80804088800F4804020
:1036600040D038B1088840F60F73184002F5804307
:10367000184308800888400607D5088840F60F736D
:10368000184002F1400318430880088840F60F7381
:10369000184002F58043184340F63F7308800888BD
:1036A000184043F60F73104341E08588B4F850602A
:1036B000002B06EBCE0625F001053DD004EB4600BD
:1036C000C0F800540888400607D5088840F60F73F4
:1036D000184002F1400318430880088840F63F7301
:1036E00020325BE038B1088840F60F73184002F5CD
:1036F0008043184308800888400607D5088840F6AC
:103700000F73184002F1400318430880088840F600
:103710000F73184002F14003184343F60F730880FB
:103720000888184002F54053584040F63F7308801F
:1037300008881840104333E004EB46064FEACE03F6
:10374000C6F8085404F20C45B4F8506000693344DC
:103750003F280BD3460140F2FF34C00626EA040698
:1037600008BF06F5F84646F4004004E000F0010604
:1037700006EB5000800280B245F813000888400430
:1037800007D5088840F60F73184002F580431843A8
:103790000880088843F60F7302F5405218405040E5
:1037A000088000208CF8280440F20021C0F201219A
:1037B00021FA00F0C0B270BD10B5D0F8200201F0BF
:1037C0007F020C064FEAD11400EB421300EB411CC0
:1037D0004FF0010103F1280358BF0CF50A735C7028
:1037E0001A70997090F82834012B08BF10BD80F82A
:1037F0002814002A01680DD031F822C0520049F285
:10380000800EA4B140F63F73AEF57F6403EA0C036B
:10381000634012E00B8843F63F74234049F2800472
:10382000CFF6FF741034634021F8223007E043F6EE
:103830000F7303EA0C0383EA0E0321F81230002110
:1038400080F8281410BD80B5FDF78AF8002080BDEF
:1038500080B5FDF7A7F8002080BD10B50121044612
:10386000FFF7E3FD20468121FFF7DFFDD4F81812B2
:1038700000200029087201D0C4F81802002010BDF1
:103880000A21018040F2DC00C2F2000070472021D2
:10389000018040F29C00C2F20000704720210180AC
:1038A00040F2BC00C2F2000070472021018040F2CB
:1038B000E800C2F20000704710B50446007C50B129
:1038C0002046012102224023FFF748FE20468121A5
:1038D000022240230BE02046012102224FF4007314
:1038E000FFF73CFE2046812102224FF40073FFF7D0
:1038F00035FE43F64000C2F20000C4F8180220462C
:10390000FDF7D7F8002010BD70B50446D0F8186256
:1039100008780D4610F060011ED0202940F08B8001
:103920006978FF2935D0FE2935D1698899BB000611
:1039300031D5E88801282ED1D4F81C02806980474F
:1039400030600220C4F8F4010120C4E90600D4F874
:1039500020220024D66311E06878012825D00B28A6
:1039600039D00A2867D101200221C4E90600C4F831
:10397000F411311DD4F820220024D16310644FF4D7
:1039800080701146546421F8280F106800F056F832
:1039900052E0698811B320468021FFF70DFF2046D1
:1039A0000021FFF709FF022446E0D4F82012A8887E
:1039B00091F82824012A1CBF002281F82824C1B2D2
:1039C0002046FFF732FDA988207C09061FD420B3CA
:1039D000204601211EE0A87870602CE00006DAD4B1
:1039E000E8880028D7D14FF48070012230811F2051
:1039F000D4F820120024A1F8482206F50372C1E988
:103A00009720C1F86442086801F51271BEE738B129
:103A1000204681210222402307E02046012101E0C7
:103A20002046812102224FF40073FFF797FD297988
:103A30002046FCF77DFF0024204670BD70B50A6962
:103A40008E691346964288BF3346A3EB02038B610F
:103A500088BF16464A788B7A012A36D1CBB30B78C9
:103A600030F82320B0F8505005EBC3055B0000EBA5
:103A70004505C5F80464B6B2751C0026B6EB550FB3
:103A800014D052064FEA55064FF00802C6F1000462
:103A900058BF06228A5A496900EB420202F5806249
:103AA00031F8026B013422F8046BF9D130F81310AD
:103AB00040F60F7211404BF28002CFF6FF7202F512
:103AC0008052114320F8131022E043B36AB30978FF
:103AD00064E0B2B200230132B3EB520F0ED08B88F8
:103AE00052084C69524200EB430303F5806300BF68
:103AF00034F8025B013223F8045BF9D1B0F85020AE
:103B0000097802EBC1024B0000EB4202C2F80464E8
:103B100000EB430048F2B00140F63F7244E0B0F8D9
:103B20005020097802EBC10C20E0B0F85020097851
:103B300000F204433F2E02EBC10E4FEAC10C0AD340
:103B4000720140F2FF34A243F40608BF02F5F842C6
:103B500042F4004204E006F0010202EB5602920237
:103B600092B243F81E20B0F85020944400F20C4367
:103B70003F2E0BD3720140F2FF35F60622EA050212
:103B800008BF02F5F84242F4004204E006F00102E8
:103B900002EB5602920292B243F81C2000EB810025
:103BA00043F60F724BF2800103881A4051400180A6
:103BB00070BD00002DE9F04F83B043F6F06BC2F208
:103BC000000BDBF80000B0F94410B1F1FF3F00F347
:103BD000E4844FF00009ADF80890ADF80690B0F914
:103BE0004410B1F1FF3FADF8081000F3D68409E2AC
:103BF000D8F814025146826840469047B8F80E0241
:103C0000002840F0C18418E098F8FC1101F0FE0192
:103C1000022940F06384012840F0B684C8F8049279
:103C200005E0012840F0B0840120C8F80402D8F86B
:103C3000140251468268404690470420C8F8F401B7
:103C4000D8F82002C0F83C90C0F840906DE145EAF9
:103C50000700000440F0428498F8FC01032800F0BB
:103C60003D840CF07F0488F8FE41D8F8200290F8DB
:103C7000281401290DD0002C4FF0010180F82440B8
:103C800080F8281403D101688022A1F84C2080F824
:103C9000289404214FF48072C8F8F4110146C0E959
:103CA0000F99C0F8449021F8282F0068FFF7C6FE4E
:103CB000002C0CBF0120022088F8FC0100F064BC3D
:103CC000601E062800F20A84DFE810F00700CD002D
:103CD000DA0008040804E900F500D8F8101298F892
:103CE00010000A680DF10A019047F1E0012F40F041
:103CF000F58398F8FC01032800F00B81022840F0BE
:103D0000ED8348F8089F02200121C8F8EC01C8E9BA
:103D10000411D8F81802C0F83C80016405E143F2B0
:103D20003C60BCF1020FC2F2000080F800C080F0DD
:103D3000D58398F8FC01032800F00081022840F0A8
:103D4000CD83BCF1000F3FF478AF032088F8FC016D
:103D5000C8F804C0D8F81402002800F0BF83026835
:103D60004046614606E198F8FC01032814D0022879
:103D700040F0B483480640F0BA8300F005BC98F8E0
:103D8000FC21032A33D0022A40F0A88341F08000AE
:103D9000802800F0F983AAE301F07F0011F080078A
:103DA00008EB001202F1140308BF02F58273D8F881
:103DB0002022002F02F1280102EB401601EB4010F7
:103DC00000F1020008BF06F22A200078002818BF80
:103DD000012018600220C8E90600C8F8F401C2E911
:103DE0000F304FF48070C2F8449010858FE00028A7
:103DF00040F0CA8348063FF420AFD8F8200201F013
:103E00007F0700EB471300EB411203F128060B0676
:103E10004FEAD11358BF02F50A767370377086F8EF
:103E2000029090F82824012A3FF401AF01224900B2
:103E3000002B80F82824C9B2026832F8117000F013
:103E4000C6807B060AD532F8113040F60F773B402A
:103E500048F2B00710373B4322F8113040F63F7369
:103E600048F2B007C5E098F81010D8F814020029FD
:103E70000CBF816AC16A0DF10A008847022126E061
:103E8000BCF1050F00F22A83DFE80CF00383898F71
:103E9000959BD8F8101298F810004A6822E798F815
:103EA0001000002840F01A83D8F81402416B0DF17D
:103EB0000A0088470CE098F81000002840F00E83B4
:103EC000D8F81402016B0DF10A00884707214170F0
:103ED000BDF80A20002A00F05783B8F80E12002916
:103EE00000F052838A4238BF11460222ADF80A1010
:103EF000C8E90611C8F8F421D8F8202202F13C03E1
:103F000083E8030211464FF4807021F8280F1068EF
:103F1000C8E20122022008F10401C8E90622C8F81B
:103F2000F401D8F82002C0E90F1201464FF4807264
:103F3000C0F8449021F8282F0068B3E2BCF1000FCC
:103F40001DD0D8F8040060453FF477AED8F81412BD
:103F50004A68C1B24046904743F23C60C2F200005A
:103F60000178C8F80410D8F81402002800F0B682CE
:103F7000026840469047002840F0B0825DE602208B
:103F8000C8F80490614688F8FC01D8F81402426829
:103F900051E6D8F8101298F810008A68A2E6D8F80E
:103FA000101298F81000CA689CE6D8F8101298F819
:103FB00010000A6996E6D8F8101298F810004A69BD
:103FC00090E6D8F8101298F810008A698AE67B0407
:103FD0000BD532F8113040F60F773B404BF280079B
:103FE00007F580573B4322F8113043F60F734BF22D
:103FF000800732F8116033407B4022F8113080F89E
:10400000289414E6BDF8081011F00F0548D030F8D8
:1040100025104FEA4508ADF80610BDF90610B1F1BC
:10402000FF3F00F39D8130F8181040F68F72114069
:104030000BEB451220F8181002F50A7192F8323293
:10404000002B00F01D8191F800E030F82E30B0F820
:1040500050104FEA4E0C01EBCE015B0400EB410126
:1040600000F13381D1F80C346FF39F23002B00F063
:104070004681591CB9EB510F00F04281B2F8304231
:104080004908D2F83C72494200EB440404F58064CC
:1040900054F8046B013127F8026BF9D130E100BF0D
:1040A000BDF808200188D2062FD448F60F721140BF
:1040B0000180B0F850109BF8282001EBC20100EB02
:1040C0004100D0F804046FF39F20CBF84400DBF8E4
:1040D0003C100844CBF83C000020FCF723FBDBF845
:1040E00040009BF82410002900F04E82002840F088
:1040F0004B82DBF800009BF8241041F08001C9B22C
:10410000A0F84C108BF824903EE2ADF80610BDF8F4
:104110000610090532D4BDF90610B1F1FF3F00F3D6
:104120003382018840F68F7211400180B0F8501040
:104130009BF8282201EBC20100EB4101D1F80C14DD
:104140006FF39F210029CBF8441200F0F3814A1C41
:10415000B9EB520F00F0E981BBF82C32520800276E
:1041600000EB430000F58063DBF83C0253F8276066
:1041700020F817600137BA42F8D1D8E1B0F85010F2
:104180009BF8282201EBC20100EB4101D1F80C148D
:104190006FF39F21CBF844120131B9EB510F0FD0CF
:1041A0004B08BBF82C120BF22C425B4200EB410196
:1041B00001F5806151F8047B013322F8027BF9D1CB
:1041C000018840F68F7211400180DBF85C849BF817
:1041D0002C6488F8086208F5027A9BF82D3488F878
:1041E00009329BF82EC49BF82F444CEA0420A8F80F
:1041F0000A029BF830149BF8312441EA022501227F
:10420000A8F80C52BBF83274C8E97D2706F01F02EB
:10421000A8F80E72022A00F04E81012A00F05681A1
:10422000002A40F06281092B00F25881DFE813F088
:1042300010000F0056010E0056010D000C00560133
:104240000B000A006BE551E53AE500E5E9E4DBE443
:1042500098F8FC0100F0FE00022840F03F81D8F8F9
:104260000402022100284FF0030008BF012048F893
:104270000C0FC8F8E811C8E90311D8F814024AE590
:10428000B0F8503091F800E003EBCE0100EB4101B3
:10429000D1F80C346FF39F23002B00F00A81591CD6
:1042A000B9EB510F37D0B2F82C424908D2F83C7222
:1042B000494200EB440404F5806400BF54F8046BE9
:1042C000013127F8026BF9D125E0D1F804346FF3FE
:1042D0009F23A3B1591CB9EB510F11D0B2F82E4254
:1042E0004908D2F83C72494200EB440404F580646A
:1042F00054F8046B013127F8026BF9D100E0002378
:1043000030F81C1040F60F74214048F2B00410340D
:10431000214320F81C10D2E98F71D2F844621E4468
:104320001F440029C2F84462C2F83C7203D0D2F89C
:1043300038229A4203D97046FCF773FA10E00EF067
:104340007F020BEB4213C3E98F7103F50A71C3F8C7
:10435000449283F8299283F82822FFF76FFB00BF6D
:10436000BDF80600000640F10F81DBF8000048F6BA
:104370000F7230F8181011400BEB451220F818108E
:1043800002F1280192F832303BB3097830F821303D
:10439000B0F850704FEAC10C4E0007EBC1075B0646
:1043A00000EB47073DD4D7F80C746FF39F27002F1D
:1043B00057644FD00137B9EB570F4BD0158E7B08A0
:1043C000D76B5C4200EB450505F5806537F8023B8D
:1043D000013425F8043BF9D13CE0B0F850300978BD
:1043E00000F2044603EBC1034FEAC10C56F8137008
:1043F0006FF39F27002F57643AD00137B9EB570F5F
:1044000036D0958D7C08D76B644200EB450505F5E9
:10441000806500BF37F8023B013425F8043BF9D131
:1044200026E0D7F804746FF39F27002F576411D04C
:104430000137B9EB570F0DD0D58D7B08D76B5C4298
:1044400000EB450505F5806537F8023B013425F89A
:10445000043BF9D130F8163040F60F773B404BF271
:10446000800707F580573B4320F8163000F20446DA
:10447000B0F85030634456F813706FF39F275764B9
:10448000D2E90F633744002BD7630ED001F07F02CF
:104490000BEB421101F8282F0122C1E90573C1F885
:1044A0001C904A70FFF7CAFA6EE00846FCF73AF92A
:1044B0006AE000232FE706F06002202A1BD1D8F81B
:1044C000140251468268404690475DE098F8FC012E
:1044D000032808BF11F0FE0F3FF48AAB404680214D
:1044E000FFF76AF94046002102E006F080014046ED
:1044F000FFF762F948E0002B3FF435AC012B3FF4A5
:104500003EAC032B40D198F8FC21032A7FF43BAC4E
:1045100000287FF48CAB41F0800080283FF487AB0B
:104520004046FFF749F9FFF782BBDBF83C0208443D
:10453000CBF83C020020FCF774F9DBF80000B0F87F
:104540005010DBF8383200F20C423F2B0BD35F01E6
:1045500040F2FF36DB0627EA060708BF07F5F847F3
:1045600047F4004304E003F0010707EB53039B0209
:104570009BB242F8113043F60F72018811404BF2A2
:1045800080025140018000BFDBF80000B0F9441008
:104590000029ADF80810FFF635ADB0F84410490514
:1045A00035D5B0F84410012500224023402621F4DF
:1045B0008061A0F844100021DBF85C44204625749B
:1045C000FEF7CCFF2046802100224023C4F8106172
:1045D000FEF7C4FF84F8FC512662D4F8180228B113
:1045E000D4F8140221794268204690479BF82804A9
:1045F000012802D1DBF8000009E0002180228BF8BD
:104600002410DBF80000A0F84C208BF82814B0F838
:104610004410490442BFB0F8441021F48041A0F88E
:104620004410B0F84410890442BFB0F8441021F49B
:104630000051A0F84410B0F84410C90417D5B0F8E0
:10464000401021F00401A0F84010B0F8401021F013
:104650000801A0F84010DBF85C1491F8FD2181F806
:10466000FC21B0F8441021F48051A0F84410B0F8B7
:104670004410090529D5B0F8401041F00801A0F810
:104680004010B0F8441021F40061A0F84410B0F8D4
:10469000401041F00401A0F84010B0F84410C904E3
:1046A00013D4DBF85C1491F8FC2181F8FD2104227D
:1046B00081F8FC21DBF8181039B14EF61051CEF21A
:1046C00000010A6842F006020A60B0F84410890549
:1046D00013D5B0F8441021F40071A0F84410DBF8B1
:1046E0005C1491F8FC21032A07D1D1F81422D26975
:1046F0001AB108469047DBF80000B0F84410C9052D
:1047000042BFB0F8441021F48071A0F8441003B007
:10471000BDE8F08FFEE7B0B582B0044600200190FE
:1047200043F6C440C2F200000068C56915F0C00F2E
:1047300007D147F28830C0F6010002F057FD45F07E
:104740004005280648BFFEF77DFD680610D55020BD
:10475000012101258DF8040001A8FEF741FC38B9BC
:1047600001A802218DF805408DF80450FEF738FCB1
:1047700002B0B0BDF0B581B00C4644F258311546D8
:10478000C2F20001096851B143F6BC42A0F568537A
:10479000C2F200021268521A934208BF0D4643F655
:1047A000C4474FF46853C2F2000739684A6903EB03
:1047B000822282422CD943F6B522C2F2000212783C
:1047C000AABBA0F56856F00407D141F20C00C4F270
:1047D0000100026882F400520260D1F8880140B3FF
:1047E000D1F8840108B1804750BBADB216A0314664
:1047F0002A4602F033FA386821462A46D0F8883132
:10480000304698470146B0F1FF3F16DDC1B90EE0D2
:1048100040F284120121C2F2000202F55053984284
:104820000FD890420DD3AAB22146FBF7D5FC002148
:1048300007E015A002F012FA02E00CA002F00EFA56
:10484000FF2148B201B0F0BD0A2077725F61646455
:1048500072202D3E20307825303578202020636E60
:1048600074202D3E20307825303378000A20507295
:104870006F6772616D44617461206572726F72203E
:104880002D3E2025640000000A204E6F20777269BB
:10489000746520737570706F727421000A4601464A
:1048A0000BA002F0DBF941F20C0044F26031C4F2DB
:1048B0000100C2F2000100BF026882F400520260EF
:1048C0000A6800BF0B689B1A512BFBD3F4E700BFAB
:1048D0000A0D204552524F52202D3E20257320258F
:1048E0006400000010B504464FF0FF302063002044
:1048F000E070204601F0F6F908B1042010BD94F8EC
:10490000320294F8331240EA01204AF655218842D7
:104910001CBF032010BD94F83400E838032826D8C3
:10492000022824D047F2FB2C04F16A000021C0F6D3
:10493000010C00BF1CF80130425C022902D0013199
:104940009A42F7D09A4210D046F6297204F18600B6
:104950000021C0F6010200BF535C445C042902D070
:1049600001319C42F8D09C4201D1002010BD0220B0
:1049700010BD00002DE9F04F85B006680021044607
:1049800000F012FA10B105B0BDE8F08F4FF0FF371C
:1049900004F120054FF0FF0B4FF00D084FF0FF0919
:1049A000E76200BFA169304601F09CF90028EAD116
:1049B000D4F81CA09AF80000002800F0AB809AF808
:1049C0000B20E52802F03F01A17137D0120727D450
:1049D0000F2927D05FEA0B6010D10020002100BF13
:1049E000C9B21AF8002001304B080B2843EAC11164
:1049F0001144F5D1C8B2814500F08E8094F82B00A7
:104A0000C0071BD1002000BF295C1AF800200A282B
:104A100002D001308A42F7D08A420FD17CE000BF39
:104A20000F290BD194F82B1049060AD441060FD454
:104A30005FFA8BF1884202D110E000BFE7624FF0CD
:104A4000FF0B2046002100F069F80028AAD09AE761
:104A500021699AF80D9000F0BF0BE1629AF80D0001
:104A60008145ECD19AF81A009AF81B1040EA01200F
:104A70000028E4D1CDE902964FF00009F0680490D7
:104A80009AF80000019000F03F0000FB08F0A0F150
:104A90000D08012047F290210028C0F6000111F80E
:104AA00009101AF801205144497842EA012611D030
:104AB000B8F13F0F21D8304600F0C6F907460498F8
:104AC00030F8180000F0C0F9874216D108F101084B
:104AD000304604E04FF6FF7086420ED1002009F107
:104AE0000109B9F10D0FD5D350B1019810F0400074
:104AF00006D0049830F8180010B14FF0FF0B01E019
:104B0000ABF1010B039EDDF808904FF0FF374FF03B
:104B10000D0896E7042036E7002034E72DE9F04F32
:104B200081B00446006900F12007B7F5001F02D3E9
:104B30000020A0610EE0A06960B13D46D4F800B04D
:104B40006FF35F2555B10BEB050027613430E06151
:104B5000002000E0042001B0BDE8F08F01300E46D7
:104B6000A061616991B14FF6FF70BBF80A20C0F2F5
:104B70001F00104400F5C00010EA572FE3D158463B
:104B800000F0D7F9022807D20220E4E7BBF80800BA
:104B9000B0EB571FCCD9D6E78246013000F0018137
:104BA000DBF8180082450FD2AAF102060238C4F8D9
:104BB00014A086422FBF0020DBF82C00BBF80A109F
:104BC00006FB0100A061BEE7002EB1D06669D4F8F3
:104BD0000090002E07D04846314600F0AAF902287E
:104BE0000DD2022090E0D9F81080B8F1000F0FD05C
:104BF000D9F81800804528BF4FF001080AE0824626
:104C0000013030D0D9F81800B046824502D277E0A2
:104C10004FF00108D9F81400002845D0B045B2463D
:104C200026D1D9F818000AF10106D046864228BFDD
:104C300002262068314600F07CF9824601305FD0C0
:104C4000BAF1000F11D0BAF1010F59D0D9F8100004
:104C5000C246414602280BD3D9F81810884228BF13
:104C60005046804604E000204EE0002EC2461FD190
:104C70004646CDF800A0D9F818000136864228BF74
:104C8000022602D3B8F1020F0ED32068314600F09D
:104C900050F98246013033D0BAF1000F06D0BAF194
:104CA000010F2DD04645E6D101202DE0DDF800A012
:104CB000484631464FF0FF3201F030F8BAF1000FAC
:104CC00005D020B951464846324601F027F830B1A8
:104CD0004FF0010A012808BF4FF0FF3A10E0C9F871
:104CE0001060B246D9E90501023988429CBF0138FB
:104CF000C9F8140099F8040040F0010089F8040094
:104D00000AF1010003280DD24FF6F871C0F2FF013D
:104D100001EAC00040F20171C0F2020121FA00F084
:104D2000C0B218E7584601F072FFD0BBDBF818009C
:104D3000AAF102060238864206D2DBF82C00BBF844
:104D40000A9006FB090002E0BBF80A9000200BF174
:104D500034080090CBF830004FF400714046FBF768
:104D600085FAB9F1000F11D04FF0000900984146C3
:104D7000012300EB09020020FEF77AF850B9BBF8D6
:104D80000A0009F101098145F0D305E000204FF048
:104D9000000901E0BBF80A00814502D1DBF81800E8
:104DA00004E70120D7E60000F0B581B004461F20DB
:104DB000CFF6E070014202D0022001B0F0BD2668BB
:104DC00021610D46A16869B17089B5EB402F23D2EE
:104DD000B0698A1E0238824232D2F06A738902FBBD
:104DE00003000BE03078032802D3B16A0029EBD12D
:104DF0003089B0EB551FDFD9B06A00210028C4E923
:104E00000510D9D000EB55206FF35F2571193431AF
:104E1000C4E906010020D0E747023046ED1B08E058
:104E20000229C9D3B0698142C6D2BD42D1D320681C
:104E3000ED1B00F07EF801460130F1D10120BCE706
:104E40000020C4E90510B7E70021B1EB104F18BFEF
:104E5000704710B547F2804247F23C511FFA80FC80
:104E6000C0F60102C0F60101BCF5805F38BF0A46FA
:104E7000B2F800E011E000BF51880432CBB2090A59
:104E80000EEB0304A44511D30029194618BF0021D5
:104E900032F811E008BF02EB4302BEF1000F01D06F
:104EA000F445E9D280B2BDE8104070470829F9D82E
:104EB000DFE801F0050A10121416181A1C00ACEBFA
:104EC0000E0032F81000EDE7A0EB0E0101F0010139
:104ED000401AE7E71038E5E72038E3E73038E1E744
:104EE0001A38DFE70830DDE75038DBE7A0F5E3509C
:104EF000D8E7000040F20002C2F2000291421CBF5B
:104F00004FF0FF30704740F60061CEF20001D1F85B
:104F10008020D2071CBF09685FEAC17100D17047C9
:104F20004FF060410A68002AFCD04FF060410870E1
:104F30007047F0B581B0022931D3054680690C462F
:104F400088422CD9287803282CD0022844D0012864
:104F500025D1686A04EB540700EB5721284600F07E
:104F6000C1FE00283FD17E1C6FF35F27E81990F83F
:104F70003470686A00EB5621284600F0B3FE90BBFF
:104F80006FF35F26E20705EB060090F8340047EA6E
:104F9000002108466FF31F3018BF080900E0012008
:104FA00001B0F0BD686A00EBD411284600F09AFE0B
:104FB000C8B904F07F0005EB800191F8340091F846
:104FC000352091F8363091F8371043EA012142EA52
:104FD000012161F31B20E3E7686A00EB14212846F6
:104FE00000F080FE10B14FF0FF30D9E7E0B205EBE2
:104FF000400090F8341090F8350041EA0020CFE7E7
:1050000080B50268D2B10023D15C0133202901D3DD
:105010003A29F9D13A290ED14FF0FF3E022B0FD198
:1050200092F800C0ACF13001092909D8BCF1300F69
:1050300006D8D11801604FF0000E01E04FF0FF3E9E
:10504000704680BDF0B5ADF5017D01A84FF48071CB
:10505000FF22FBF704F943F6C447C2F200073868A1
:105060004069800216D0002441AD01AE2046294699
:105070004FF48072FCF7C6FE284631464FF480722A
:10508000FBF761F838B9386804F580644069B4EB1F
:10509000802FEBD300200DF5017DF0BD86B042F2EC
:1050A00000084EF60C5740F200354FF6FF06C4F2EA
:1050B0000208CEF20007C0F2FA55D8F8000040F01E
:1050C0001000C8F800003868304028433860FBF70B
:1050D00004FB41F2040440F20409C4F20204C4F2E5
:1050E0000109606940F001006061606900F0010041
:1050F00000900098A06940F08050A061A06900F085
:1051000080500090009838683040284338603868F4
:1051100000203873396878733968B8733968F8745F
:10512000396838753968B8753968F875D9F8000084
:10513000022161F31A60C9F80000206800F00C0039
:10514000042802D154F8040C1BE0206800F00C0085
:10515000082802D12068C003F4D454F8040C40F4A9
:10516000803044F8040C44F26030C2F20000016860
:1051700054F8042C920304D40268521A642AF7D912
:105180002CE0206800F00C00082827D0602044F2B2
:1051900060360021C4F24220C2F20006016031688C
:1051A00054F8042C920104D53268521A022AF7D915
:1051B00014E0216821F400312160216821F4741188
:1051C00001F5E811216001210160306854F8041CE8
:1051D00089010BD43168091A0329F7D347F27230D9
:1051E0004FF48571C0F60100FFF758FBD8F80000B6
:1051F00010F0060F0CD1D8F80000022161F3020074
:10520000C8F80000D8F8000000F00700022818D104
:10521000206820F0F000206054F8040C800110D5C4
:105220002068022161F3010041F28831206030687A
:10523000226802F00C02082A0BD03268121A8A4245
:10524000F6D947F272304FF48C71C0F60100FFF7C7
:1052500025FBD8F8000000F0070003280CD3D8F88D
:105260000000022161F30200C8F80000D8F8000035
:1052700000F007000228E4D12068042161F30A202D
:105280002060206820F46050206041F200202168F6
:10529000C0F27A0001F00C02082A15D1C1F3834252
:1052A0000FF6A013C9039A5C05D440F60010C0F2B3
:1052B0003D00504308E0216850430FF69812C1F3B7
:1052C0004041515CB0FBF1F021680FF68C1240F2C6
:1052D0004805C2F20005C1F30311515CC8402860C3
:1052E000FBF7FBF9206844F6D351C1F2620120F4C8
:1052F0008000206028684EF21005CEF20005A0FB69
:1053000001014FF0FF3000EB91110020B0EB116F65
:1053100005D16960F021F9750721A8602960296825
:1053200041F0040129603968F8750FF63C1001F06E
:1053300095FC0FF63C10992101F090FC306800BFFD
:105340003168091AB1F5FA7FFAD943F28C5A43F25F
:10535000186B40F60008C2F2000AC2F2000BC4F259
:105360000108DAF800009BF8007020F00300CAF88A
:105370000000F80740F0488143F214600021C2F2B7
:105380000000017043F220601C21C2F20000FAF715
:105390006DFF606902210127C00702BF606940F00C
:1053A00001006061D9F800000090009820F0010031
:1053B000009000980090009820F0E0600090009825
:1053C00000900098C9F80000606940F00400606136
:1053D000606940075EBF606940F004006061D8F812
:1053E000000020F47000C8F80000D8F8000040F475
:1053F0003000C8F80000606940F004006061606936
:1054000040075EBF606940F004006061D8F80000AA
:1054100020F07040C8F80000D8F8000040F030409C
:10542000C8F80000606940F00400606160694007EE
:105430005EBF606940F004006061D8F80C0020F0A5
:105440004000C8F80C00D8F8000020F07060C8F8E0
:105450000000D8F8000040F00060C8F8000001200B
:10546000FAF7E4FF01200321FAF7E0FF43F2885046
:105470008BF80070C2F20000077043F22060002138
:10548000C2F20000018343F21460C2F20000017016
:1054900047F002008BF80000606940F480506061C2
:1054A000A06840F48050A06000BF00BF00BF00BFF4
:1054B000A06820F48050A0600820C5F87402C5F8E8
:1054C000F40048F2010043F20061C0F20800C0F2AB
:1054D0006E11FDF7A1F8002840F0CE80DAF8000048
:1054E00020F00300CAF8000043F28850C2F2000026
:1054F000017841F002010170032005900598411EDA
:10550000002805910ED064259F20FCF715FD00951D
:105510000098411E00280091FAD10598411E0028EC
:105520000591F1D144F2523BC2F2000B9BF80010FE
:10553000FF2940F07F8044F254354FF6FF71C2F2EC
:1055400000052888884201D0FF281AD10121059141
:1055500005994A1E0029059213D064279020FCF774
:1055600083FC00970098411E00280091FAD105980D
:10557000411E00280591F1D19BF80010FF2959D157
:10558000288828B14FF6FF71884201D0FF281AD130
:105590000121059105994A1E0029059213D064271F
:1055A000AB20FCF761FC00970098411E0028009199
:1055B000FAD10598411E00280591F1D19BF8001001
:1055C000FF2937D1288828B14FF6FF71884201D0D2
:1055D000FF282ED10121059105994A1E0029059227
:1055E0001FD064271520FCF7A7FC00970098411EE8
:1055F00000280091FAD10598411E00280591F1D1AB
:1056000028889BF800100DE043F2885100284FF0E5
:105610000102C2F200010A702ED0B8077FF52DAF4B
:105620004FE7FF21FF2905D14FF6FF72904219D0B5
:1056300000E0FF2144F2543747F2C425C2F20007CC
:10564000C0F60005388800BFEA688A4203D12A699B
:10565000824200F03482D5F8A03105F5D0721546AB
:10566000002BF1D10FF2206001F0C0FD43F6C440E1
:105670000021C2F2000001606069022141F20C07C2
:1056800001254FF0000AEB46C4F2010740F020006C
:105690006061606900F0200000900098606940F04F
:1056A00004006061606900F0040000900098606987
:1056B00040F008006061606900F008000090009808
:1056C000606940F010006061606908F5806400F076
:1056D000100000900098D9F8000061F31A60594654
:1056E000C9F800004FF400594FF08040C7F804900B
:1056F000C8F810044FF480400395CDE9015A00909A
:105700002046FAF7EBFE02205946CDE902A008F543
:105710000060CDE90095FAF7E1FE022059460390BA
:105720004FF40070CDE901A500902046FAF7D6FEAF
:1057300043F6C448C2F20008D8F80000002800F080
:105740003F81017D1D2202EB410140F22C12C2F289
:10575000000282F820104169C90982F821104169CC
:10576000C1F3C63182F82210316800BF3268521A84
:10577000B2F5487FFAD943F6B5290121C2F20009F2
:1057800089F800100FF24C514068FBF721FB40F6FE
:1057900000040028C4F2010440F03F82306800BFDA
:1057A0003168091A3329FBD3FBF734FA4FF48040F0
:1057B00028210022C4F8100440F22810C2F2000090
:1057C00003685D1E002B056004D13B6883F4005321
:1057D0003B600160336800BF3568ED1A0B2DFBD3C9
:1057E0008DF800200FE000BF336800BF3568ED1A68
:1057F000022DFBD39DF80030092B09D89DF800300D
:1058000001338DF80030D4F808349B05ECD5D7E788
:1058100000254FF400508DF8005078604FF0804024
:10582000C4F81004FBF79CF989F80050306800BFF9
:105830003168091A6529FBD3D8F80000D0F8901117
:10584000002900F0F38000F12C03002253F8045CDF
:10585000012D01D11D681DB101322C33082AF5D369
:105860002C2302FB030090F84C008847002840F0EE
:10587000E3804FF400507860306800BF3168091A47
:105880006529FBD30FF254410020FBF7A1FA002851
:1058900040F0D181FBF7BEF94FF48040C4F810040A
:1058A00043F6B720C2F2000001780029FCD030682E
:1058B0003168091A0B29FBD34FF08040C4F810045B
:1058C000FBF74EF943F6BC4BC2F2000BDBF80000CD
:1058D000B0F5007F40F3A881D8F800104969B0EB1B
:1058E000812F00F2A1810021009105910099814250
:1058F00028D243F6B82840F278154FF4007AC2F265
:105900000008C2F2000500BF0099411AB1F5007FFE
:105910008FBFCDF814A00099401A05900098059A01
:105920004146FCF76FFA05992A684046FAF7D6FC1B
:1059300028600598009908440090DBF80000009961
:105940008142E1D340F27C1040F27811C2F20000B3
:10595000C2F2000100680968884205D143F6B840E8
:10596000C2F200000078F8B1012046F68D3189F8C6
:10597000000047F2DD30C0F60101C0F60100FBF780
:1059800027FA30683168091A3329FBD3FBF742F94B
:105990004FF48040C921C4F8100447F27230C0F6B9
:1059A0000100FEF77BFF00BF386880F400503860CC
:1059B000306800BF3168091AB1F5FA7FFAD9F3E708
:1059C000306800BF3168091AB1F5487FFAD940F252
:1059D0002C10002140F60009C2F20000C4F20109B7
:1059E00080F8221040F61D01018443F6B520012104
:1059F000C2F20000017044F25430C2F20000038889
:105A000044F25230C2F200000278FF2A33D043F64B
:105A1000B82447F24431C2F20004C0F60101204626
:105A200001F02CF946F68D31204631E046F6124061
:105A3000C0F6010001F012F9012046F68D3189F817
:105A4000000047F23740C0F60101C0F60100FBF745
:105A5000BFF930683168091A3329FBD3FBF7DAF84C
:105A60004FF48040A521C4F8100447F27230C0F60C
:105A70000100FEF713FF2BB1FF2B03D04FF6FF7091
:105A80008342C4D147F2484046F68D31C0F601004A
:105A9000C0F60101FBF79CF9306800BF3168091AB4
:105AA0003329FBD3FBF7B6F84FF48040E821C9F85F
:105AB000100447F27230C0F60100FEF7EFFE43F625
:105AC000C04AC2F2000A9AF8000080BBD9F8000070
:105AD000022161F31A60C9F8000071A0D5E9001233
