:020000040800F2
:10000000282D002001010008FB0D0008010900084F
:10001000F90D0008D9020008D14C000800000000CA
:10002000000000000000000000000000153500087E
:100030000B05000800000000FD0D00085538000801
:100040001B0100081B0100081B0100081B01000820
:100050001B0100081B0100081B0100081B01000810
:100060001B0100081B0100081B010008A503000874
:10007000B5030008EF0300081B0400082B04000868
:100080003B0400084B0400081B0100081B0100088A
:10009000754100081B0100081B0100081B01000836
:1000A0001B0100081B0100081B0100081B010008C0
:1000B0001B0100081B0100081B0100081B010008B0
:1000C0001B0100081B0100081B010008CB290008C8
:1000D0001B0100081B0100081B0100081B01000890
:1000E0001B0100081B0100081B010008DFF80CD0F1
:1000F00000F084F8004800476D550008282D0020C6
:100100000648804706480047FEE7FEE7FEE7FEE7B1
:10011000FEE7FEE7FEE7FEE7FEE7FEE765380008DC
:10012000ED000008CAB2401E10F8011F8A4202D03A
:100130000029F9D100207047421C10F8011B00294A
:10014000FBD1801A704730B504460020034600E01A
:100150005B1C934203D2E05CCD5C401BF8D030BD09
:100160000022CBB20178994200D10246401C0029FE
:10017000F8D1104670472DE9F05F05460020924601
:100180009B4688460646814640241BE02846414659
:100190004746224600F053F853465A46C01A91414A
:1001A00010D311461846224600F03AF82D1A67EB94
:1001B00001084F4622460120002100F031F817EBDC
:1001C00000094E41201EA4F10104DFDC48463146FF
:1001D0002A464346BDE8F09F40EA01039B0703D04F
:1001E00009E008C9121F08C0042AFAD203E011F876
:1001F000013B00F8013B521EF9D27047064C074DF7
:1002000006E0E06840F0010394E8070098471034E6
:10021000AC42F6D3FFF76EFF5CBA00087CBA000868
:10022000202A04DB203A00FA02F1002070479140B6
:10023000C2F1200320FA03F3194390407047202AAB
:1002400004DB203A21FA02F00021704721FA02F380
:10025000D040C2F120029140084319467047D2B203
:1002600001E000F8012B491EFBD270470022F6E79F
:1002700010B513460A4604461946FFF7F0FF20461C
:1002800010BD70B58C1810F8015B15F0070301D193
:1002900010F8013B2A1106D110F8012B03E010F8E9
:1002A000016B01F8016B5B1EF9D12B0705D400230C
:1002B000521E0DD401F8013BFAE710F8013BCB1AAE
:1002C000921C03E013F8015B01F8015B521EF9D5A3
:1002D000A142D8D3002070BDFEE700002DE9F04F09
:1002E00082B00029009259D041F2140843F2000B69
:1002F00048F220344FF0010E4FF00009C4F202081A
:10030000C4F2020BCEF6B854009BD8F80020A1EB43
:10031000090A0746BAF5807F42F04002C8F800207B
:10032000D8F8002002F040020192019ACBF808E0D0
:1003300028BF4FF4807A00BF00BF00BF0022B2EB9D
:100340009A0F0DD04FEA9A020746554257F8042BF0
:10035000013582EA030292FAA2F2CBF80020F5D12D
:100360001AF00303DBF8002092FAA2F510D000BFC8
:100370003A7808266A4000BF84EA52055FEAC27CE8
:1003800008BF5508013E2A46F6D10137013BEFD19F
:10039000D144EA43504489450092B5D3009802B055
:1003A000BDE8F08F0020C4F20200016801F00F01E7
:1003B000416070470020C4F20200016801F0F001C2
:1003C0004160C16921F00101C161026A41F2BC5082
:1003D000C2F20000016812B101B17047002141F280
:1003E000B0520023C160C2F20002137070470020B7
:1003F000C4F20200016801F470614160016B21F0F8
:1004000001010163426B41F2BC50C2F2000001687D
:100410000AB101B17047016170470020C4F20200C7
:10042000016801F47041416070470020C4F202008D
:10043000016801F47021416070470020C4F202009D
:10044000016801F47001416070470020C4F20200AD
:10045000016801F07061416070470000012818BF19
:10046000704741F21400C4F20200026842F0010237
:1004700002604A1E062A3ED80420C4F20200DFE8C9
:1004800002F0040A10171E252C0000220F234260E0
:100490004FF4006227E00022F02382614FF4805283
:1004A00021E000224FF47063C2624FF400521AE060
:1004B00000224FF4704302644FF4804213E00022A4
:1004C0004FF4702342654FF400420CE000224FF4D9
:1004D000700382664FF4803205E000224FF07063B3
:1004E000C2674FF4003203604EF20010CEF20000FB
:1004F000C0F8802102600120884041F21C51C2F204
:1005000000010A7810430870704770472DE9F04FDA
:1005100082B041F20042042340F2004C4FF6FF7BD0
:100520004FF0010E0F274FF0000A4FF00009C4F200
:100530000102C4F2010CC1F2100B904208BF032368
:10054000009300230A680EFA0AF812EA080F00F076
:10055000D2804E685E4509DC032E35D8DFE806F010
:1005600029023F43D1F80C9044E000BF4FF6FF72E0
:10057000C1F2210296420DDC0022C1F21102964224
:1005800017D00022C1F21202964212D00022C1F20C
:1005900021020CE00022C1F22202964209D0002280
:1005A000C1F23102964204D00022C1F232029642D8
:1005B00020D18A6882B1012A14BFC0F81480C0F823
:1005C00010804FF0080915E0112E0FD0122E04BF35
:1005D000CA6802F10C090DE04FF004090AE0CA688C
:1005E00002F1080906E04FF0000903E0CA6802F1D1
:1005F000040900BF1A460546BAF1080F28BF203A81
:1006000028BF04352E6807FA02F409FA02F226EA36
:10061000040422432A60CA79D2066CD541F218023A
:1006200003F00C06C4F202021446126842F0010202
:100630002260226802F00102019207FA06F2ACF58C
:100640007E77019C4FEA9A0457F82450954340F670
:100650000002C4F2010290420ED040F60042C4F201
:10066000010290420AD041F20002C4F2010290421B
:10067000009A08BF022202E0002200E00122B240FC
:100680002A4347F824204FF6FF77D1F804B0C1F28F
:1006900010075FEACB32DCF8002054BF22EA0802E0
:1006A00042EA0802CCF800205FEA8B32DCF8042032
:1006B00054BF22EA080242EA0802CCF804205FEAAA
:1006C000CB22DCF8082054BF22EA080242EA0802E2
:1006D000CCF808205FEA8B22BB464FF00F0740F2B0
:1006E0000C42C4F201021446126854BF22EA080206
:1006F00042EA080222600AF1010A0433BAF1100F3B
:1007000004BF02B0BDE8F08F1CE741F22C4044F674
:10071000D351C2F20000C1F262010068A0FB0101E6
:100720004FF0FF3000EB91110020B0EB116F18BFBC
:1007300070474EF21002F023CEF2000251604EF6E6
:100740000C51CEF20001CB750723906013600A684C
:10075000C8757047B0B5014641F69C40C2F2000032
:100760000029D0F85C440CD0D4F814024269002A65
:100770006ED094F8FC0103286AD12046BDE8B04051
:100780001047D4F8F421022A5AD1D4E9073293420F
:1007900014D900EB4110991A0025C06BE16189B2B0
:1007A000D4F8202202F13C0323C34FF48070114699
:1007B00021F8280F106803F021FC1BE0A06990428B
:1007C00023D3B0FBF2F101FB1201F1B9D4F8F81117
:1007D00088421AD2D4F8200200254FF480720146D4
:1007E000C0E90F55456421F8282F006803F006FC86
:1007F000C4F8F851D4F82012C1F83C52C1F8405264
:10080000C1F84452A1F8285215E0D4F81402C16886
:1008100029B194F8FC01032801D12046884705201E
:10082000C4F8F4010020D4F82012C1E98F00C1F807
:100830004402A1F82802086801F50A7103F0DEFB02
:1008400094F80002012802BF002084F80002B0BD25
:10085000B0BD10B5014641F69C40C2F2000000292F
:10086000D0F85C440BD0D4F81402826952B394F8E7
:10087000FC01032826D12046BDE810401047D4F8DB
:10088000F421032A1ED1D4E9433293421BD900EB51
:100890004110991AD0F83C02C4F80C119142D4F8D6
:1008A00020324FF00004A3F8284238BF0A4691B224
:1008B00003F50F7213C203F50A711868BDE8104002
:1008C00003F09CBB10BDD4F81402016929B194F85F
:1008D000FC01032801D120468847042000214FF461
:1008E0008072C4F8F401D4F82002C0E90F11416409
:1008F000014621F8282F0068BDE8104003F07EBBB8
:10090000FEE7B0B5D0F81852044695F81802D8B1F1
:100910002046812103F030FA687A022818BFB0BD62
:10092000D4F8201205F503701F230022C1E99703B4
:100930000120C1F86422A1F84802086801F512718B
:10094000BDE8B04003F05ABBD5F814020028DFD050
:10095000687A0028DCD12046012103F00DFAD7E7A0
:1009600010B5D0F81842627A022A05D1812103F02D
:1009700003FA0020607210BD49B2B1F1FF3FFADC0A
:10098000012A08BF10BD0121BDE8104000F0CFB81A
:1009900010B50446D0F81802017ACA1E022A05D200
:1009A00020460021BDE8104000F0C1B8022910D156
:1009B00090F8191200F21B22204601F063FBB0F1FF
:1009C000FF3FC8BF10BD20460121BDE8104000F028
:1009D000AEB810BDB0B5D0F818520446287A012838
:1009E00034D0E8BBD5E98401C5E98C01D4F82002F4
:1009F000B0F864021F2810D145F25531D5F80C0229
:100A0000C4F24231884208D195F81912012904D85C
:100A100095F81A020138102823D395F85D024FF497
:100A2000005205EBC0010130C1F84022052281F8D7
:100A30003C2202216972C1B2043918BF014685F80F
:100A40005D122046BDE8B040FFF75BBF95F8191274
:100A500005F21B22204601F015FBB0F1FF3F34DD0B
:100A6000B0BD05F21B22204601F00CFB297AB0F143
:100A7000FF3F28DD481E0328F2D3688958B3D4F815
:100A800018124FF0000C042381F838C20B72D1F811
:100A90001432D1F83422834238BF1846121AC1F8F2
:100AA000342205F10C01D4F82022C2E9171040F2DB
:100AB00001101146C2F864C021F8480F1068BDE863
:100AC000B04003F09BBA0529BBD120460121BDE807
:100AD000B04000F02CB820460021BDE8B04000F046
:100AE00026B870B5D0F81862002504463581A6F8FE
:100AF0005C52D0F81C02016800208847D4F820120C
:100B0000012291F82804012818BF81F82854A1F87F
:100B100048221F2006F50372C1E99720C1F86452EC
:100B2000086801F51271BDE8704003F067BA70B54E
:100B3000D0F81852044645F255300026C5F242302E
:100B400085F83812C5F82C022E720D2105F50B72AE
:100B5000D4F82002C0E9172140F20112014646668E
:100B600021F8482F006803F049FAD4F820121F201A
:100B700005F50372C1E997200120C1F86462A1F86C
:100B80004802086801F51271BDE8704003F036BAFA
:100B9000B0B541F678240125C2F2000484F8FC5176
:100BA000D4F814022179426820469047D4F82002F4
:100BB00090F82814012906D1002841D0032180F89B
:100BC0002914016823E0016844F2FF2C0324B1F8E2
:100BD000402002EA0C02A1F840200022A1F8405077
:100BE000A1F84420A1F8404080F8294480F8282446
:100BF0000168B1F8403003EA0C03A1F84030A1F8D5
:100C00004050A1F84420A1F8404080F8282445F63F
:100C1000004200F22940C4F2000291420ED141F29A
:100C20001C01C4F202010A6822F400020A604EF2BA
:100C300080114FF48012CEF200010A600021017091
:100C4000B0BD000041F6782CC2F2000CDCF81402B2
:100C500010B10020CCF8140270B581B041F20C4004
:100C600041F69C4145F60046012200234FF0030E59
:100C70000824C2F200008CF8FC21C2F20001C4F288
:100C80000006CCF8100202208CF80030C1F85CC4D9
:100C9000CCF82012C1E906330B62C1E90064C1E956
:100CA000020E91F8290480BB41F21C0081F828341F
:100CB0004FF0FF35C4F20200046844F400040460FD
:100CC000006800F40000009000984EF60C50CEF240
:100CD00000000068C0F30220C41E80F0070038BF87
:100CE0000024042828BF042005FA00F00A2525EA7C
:100CF0000000A0404EF200140001CEF2000484F87F
:100D000014034FF4801020600E6881F829E444F247
:100D1000FF24B6F8400020400024A6F84000002040
:100D20000D182030AC8685F828400134B0F5F07FEE
:100D300085F82920C5E90E332B6485F82B30EFD1D7
:100D400000220020002300BF0D18203085F8283233
:100D500085F82922C5E98E22C5F8402285F82B2284
:100D6000AB860133B0F5F07FEED101200022A6F86A
:100D70004000A6F84020A6F84420A6F85020B6F877
:100D8000403043F43F43A6F8403081F8242081F8F6
:100D900029041821DCF82002A0F82C12582180F830
:100DA000322280F8322080F852208185982180F804
:100DB0005222A0F84C10D821A0F84C1241F2EC417C
:100DC000C2F20001CCF81C1241F24841C2F200010B
:100DD000CCF8141290F82814012901B0BDE8704035
:100DE00008BF70470168B1F8403043F43F43A1F8B1
:100DF000403080F828247047FEE7704770470000B5
:100E00002DE9F04FADF5337D8A4642F21811914637
:100E1000002216234FF43057C2F20001C1E900222C
:100E200042F21011C2F200010A7041F65321C2F2DF
:100E300000010A7041F66821C2F200010A6042F224
:100E40002011C2F200010A6041F65C21C2F20001E9
:100E50000B6041F66021C2F200010F604FF6FE7197
:100E600040F20C07C0F27F01C2F2000701EA400025
:100E700041F65421C2F200010C78611E022938BFEC
:100E800056231D184021B2EB154F02BF40F20C0053
:100E9000C2F20000A0F813500120387479734AF6AA
:100EA0005521A7F8FE113D62F88107F5017041F266
:100EB000FC11FFF7DBF94FF6F87807F580560FF6CF
:100EC00080612022C0F2FF083046C7F80082FFF799
:100ED00083F9B9F1000F09D0B9F8040041F2080113
:100EE000785241F20401D9F800007850032C02D066
:100EF000002C40F0ED840494CDE9026AC7F800822A
:100F0000C5F38F1002286CD340F20C004CF2FF3A6C
:100F1000A9094FF00F094FF6FF7E4FF0000C40F685
:100F2000FF78C2F20000CFF6FF5A00F2032000BFA4
:100F300002688EB28788022E22EA08035FFA8CF2DA
:100F40004FEA820202F103021344036030D040F200
:100F5000FF3402F1010B07EA0E07032ECFF60074EF
:100F6000878003EA040343EA0B3303602ED01AF1AF
:100F7000407469F11F052340941C042E05EA0705FF
:100F800043EA046345EA14270360878024D003EA18
:100F90000A03033204390CF1010C036007EA090368
:100FA00043EA021282808AB20630012AC0D818E0D1
:100FB00007EA0E01818040F2FF31CFF6007119403F
:100FC00041F4700141F47F2101600AE043F07F4168
:100FD000016047F00F0103E04FF6F0710360394301
:100FE00081804FF40D7006F08FFB41F6742B804624
:100FF0000DF114094121C2F2000BCBF8000043F6B9
:101000003020C0F22F0016904846FFF72FF9DDF888
:1010100010A03C24BAF1030F08BF4024039D2846CA
:10102000FFF78AF80246A0424846294688BF224672
:10103000FFF7D2F848462F21FFF774F848B15F2632
:1010400005AD00BF067028462F21FFF76BF800287A
:10105000F8D141F6702047F628014FF6FF72C2F230
:101060000000C0F600010068CB68FF2B02D10B69BD
:10107000934204D051F8483F002BF5D1002188421B
:1010800018BF00280FD1BAF1030F10D04846FFF760
:1010900053F846F22E21C6F6696149F8001048441B
:1010A0000021017103E0BAF1030F40F0F28016A8AD
:1010B000A1AFA190384604F0D7F9002812DB41F225
:1010C0002051C2F2000151F820200AB10023137010
:1010D000B8F1000F1CBF002288F8002041F82080E2
:1010E000002000E00B2041F65121CDF8B492C2F26D
:1010F00000010870ADA804F0B7F90028C0F2C5805F
:1011000041F22051C2F2000151F82090B9F1000FD4
:1011100000F0BD8099F80010002900F0D680AD9C49
:10112000CDF8849201E000BF013420785C2818BF1C
:101130002F28F9D00020A3902178202980F0F78073
:10114000802000218DF8AF02A1A804F061F80546C7
:10115000002D00F01B83042D40F089829DF8AF0222
:1011600010F0A00F40F04F82A19800240390C068B7
:1011700030F8141001340029FAD10020AEAECDF8B9
:10118000049000BF391891F82010315401300C2818
:10119000F8D19DF8C302C10700F0AB8341F2210BE7
:1011A000402007F1200C01254FF003080DF5317A9E
:1011B0004FF00009C0F2010B8DF8AF020398002137
:1011C000C06800BF7A18735C01310B2982F82030A7
:1011D000F8D1052D2F4615D902882F4692B100BFB0
:1011E0001023394602F00107520847EA4107090473
:1011F00048BF87EA0B07013B3946F3D130F8022F8D
:10120000002AEDD1072000BF394668F31F113929A4
:1012100088BF07310AF8001001383909B9EB171FE8
:101220000F46F1D17E21A1AF00280AF800104FF03F
:10123000000106D01CF80120202A02D00131814291
:10124000F8D30495072807EB010301F101019ABFC8
:101250001AF8002001302022082983F82020F1D339
:101260003846664603F0BAFD002840F03783049DF7
:10127000B446AEAE0135642DA0D341F6742BC2F254
:10128000000B00F08F8200F001BC0B25EFE10C2574
:10129000EDE105A8FEF750FFA042FFF4F7AE05AD63
:1012A000002700BF28465F21FEF75AFF0646284662
:1012B0002921FEF755FF864298BF461C2846377005
:1012C000FEF73AFFA042EDD2DDE689F801000027E3
:1012D0004846002189F8007003F038FD022821D12A
:1012E000A1AC0020214600BF09EB0002103092F8AB
:1012F000F631002B14BFD2F8FA21002241F8042B5A
:101300004028F1D1002600BF54F8267037B1484676
:10131000394603F01BFD022801D278E10320013693
:10132000042EF1D3042840F0708101259FE14BF297
:10133000A36E07F1200C4FF020386FF0FF064846EF
:10134000C0F6000EC0680134002930D000224BB234
:10135000B3F1FF3F01DDCBB206E04BF65A13C0F606
:10136000000303EB41018B5B202B1ED35C2B4FF062
:10137000000118BF2F2B1ED07F2B0CD8774600BF43
:1013800017F8011B09B18B42FAD106253F2A00F25A
:101390006E8119B16BE13F2A00F2358120F81230DD
:1013A000013214F8011B0029D1D1042103E00421EA
:1013B000002200E0013423785C2B18BF2F2BF9D0DA
:1013C000002A00F01E8100EB4203524233F8027CF7
:1013D0002E2F18BF202F03D1023B0132F6D110E18E
:1013E000002752421F8000BF30F817300137202BF2
:1013F000FAD02E2B41F0030608BF3146831E7D1E16
:10140000012F18BF314600BF42B133F81270013AC4
:101410002E2FF9D1CA4602F1010E02E0CA464FF062
:10142000000ECCF80780CCF80080CCF80480CDF812
:1014300010C0AEF1010B4FF0080C4FF000084FF058
:10144000000900BF30F815602F460135202E03D06B
:101450002E2E04D1BB451AD041F00301F2E7002E35
:1014600069D0E14561D2BB455FD0802E36D30027DD
:10147000002200BF4BF65A13C0F6000333F81730B2
:10148000B3421DD001370132802FF3D319E001227E
:10149000754641F00306BCF10B0FD146A1AF00F039
:1014A000AB80002A08BF3146754500F2A880CA46C5
:1014B0004FEA88084FF00B0C4FF008097546C1E75A
:1014C0003A46803241F00201D6B2120606D547F202
:1014D000747306F07F02C0F600039E5C56B14BF2B7
:1014E000EF42C0F6000200BF12F8017B0FB1BE420E
:1014F000FAD14FB141F003015F26A1AA4A4409F194
:10150000010982F820609DE7412EF6D35A2E02D8B9
:1015100048F00208F1E7A6F1610292B2192AA1AAE5
:101520009CBF203E48F00108E8E7ABEB0702B2FAA7
:1015300082F25209ADE70E46D146A1AF9DF8A40252
:1015400041F6742B46F00201C2F2000BE52804BFFD
:1015500005208DF8A402BCF1080F08BF4FEA8808E7
:1015600008F00300032808F00C0008BF0E460C2802
:1015700008BF0E46B00707D4102008F0040100EAA7
:10158000081040EA4100064338468DF8AF6203F088
:1015900025FC05469DF8AF02002D40F0D0824107A2
:1015A00000F1F6809DF88A02C00640F1CE82A5982F
:1015B0006FF35F2009EB000191F84E0091F84F2086
:1015C00040EA022099F80020032A06D134310A7D2E
:1015D000497D42EA012140EA0140A3904BF2A36613
:1015E000DDF810C04FF02038C0F600062178A19831
:1015F000B6466FF0FF06A5E64FF00B0C9EE70E46D1
:101600009CE700210180062531E001282ED899F8B9
:101610003F0099F8401040EA0120B0F5007F25D145
:1016200099F84A0099F84B1040EA012008B9D9F816
:101630005800C9F81C0099F84430591E89F8023046
:10164000012913D899F84120002AA9F80A200DD0C1
:10165000511E11420AD199F8456099F8461046EAA0
:1016600001213607A9F8081000F071820D254FF00E
:101670000009CDF85C9041F6512702984FF40072B2
:101680000DF15808C2F20007397829433970DBF8A8
:1016900000103431FEF7A0FDB9F1000F25D099F804
:1016A000000040F20C06C2F20006002800F0C980DB
:1016B000B9F80600BDF860104C46814218BF0024FE
:1016C00040F0BF809DF86C00410614D499F80000EA
:1016D000002800F0B680B9F80600BDF8601081421D
:1016E00040F0AF8000251795ACE040F20C060925CC
:1016F000C2F20006A6E0000611D517A81E9A012323
:10170000012500F12801002001F006FC002840F02E
:1017100099809DF86C0000F07F008DF86C001F9997
:10172000204604F02DFB0546002840F08B802098D1
:10173000C17A41F02001C1721999179A0B0A81767A
:10174000C3761278032A03D10A0E090C427501757B
:101750001A9944F62402C5F673020177C0F81620E0
:10176000002242820A0EC2770A0C090A8277417768
:101770000120E070204605F0DDFDA8B105469DF88A
:101780006C0000F0BF008DF86C005BE09DF8AF02CC
:1017900040B20028FFF637AF9DF88A0210F0110F13
:1017A00000F07681072562E7207803283DD1207973
:1017B00001283AD104F138004FF4FD71FEF756FDCF
:1017C00045F252200025C4F2611044F8340F4AF665
:1017D0005520A4F8FE0147F27220C6F24110C4F869
:1017E000E40154E9090154F8142C0B0E84F8E811B3
:1017F00084F8EC01013284F8EB310B0C090A84F80F
:10180000EA3184F8E911010E012384F8EF11010C8B
:10181000000A84F8EE1184F8ED010020214644F816
:10182000042C01F079FB04F8305C9DF86C0000F0AA
:10183000BF008DF86C00DDF85C90B9F1000F7FF40B
:1018400045AF09253878CDF8848240EA0504A1A87F
:101850003C7003F009FE00280CDB41F22051C2F27B
:10186000000151F820200AB100231370002241F832
:10187000202000E00B2244EA02003870DBF8000070
:1018800005F01AFF387808B1FF2022E041F67020F9
:101890004FF48151C2F20000006800281ABF40696D
:1018A00080020020715C0029EED041F22B02B25C74
:1018B00002F03F020F2A4FF0020211BF06F58151DC
:1018C00001F03F0106EB411101F581514A83C861E6
:1018D000002040B20DF5337DBDE8F08F41F6742B4A
:1018E00005460428C2F2000B3BD19DF8C3028DF8D7
:1018F000AF0280074FF0010909D54EF64F4104F1C0
:101900000B00C4F6C461A0FB010109EB9109A19C85
:10191000A1A8002103F07CFC41F6742B039F05462F
:101920000028C2F2000B18D100260DF52178A799E6
:10193000204604F025FA78B9A8980078E52800D068
:1019400018B901364E4501D111E00026404601216B
:1019500003F018FB0028EAD00546042D08BF072530
:101960002DB1DDF80490002D7FF481AE90E0B9F147
:1019700001096AD0A5980DF52178A0EB49114046E0
:1019800003F046FC41F6742B05460028C2F2000B1A
:101990007FF46DAE4FF0000B20205FFA8BF218F849
:1019A0000010013053082B2843EAC21202EB010B4E
:1019B000F3D147F2F47A4FF6FF760DF52178C0F6B1
:1019C000000AA799384604F0DBF9002840F0498165
:1019D000A89800220F23F9680D274283A0F80B3046
:1019E0005FFA89F380F80DB07B4300270D3B00BF01
:1019F0001AF80250B7421ABF31F8137001334FF68C
:101A0000FF773C0A0132002F475505446C7008BF30
:101A100037460D2AECD1B74202D149F0400106E029
:101A200031F813100029494608BF49F04001039FCF
:101A3000017001200021F870404603F0A3FA00284D
:101A400040F00F81B9F10109BBD1A799384604F0E4
:101A500097F941F6742B05460028C2F2000B7FF47B
:101A600006AEA8982021FEF701FCA1A8A89A0021A3
:101A70002030435C535401310B29FAD19DF8AF0259
:101A8000A89900F0180008730120F870DDF80490A0
:101A9000A898817EC27E41EA022899F800100329A5
:101AA00005D1017D427D41EA022148EA014844F620
:101AB00024012022C5F67301C0F80E1000214183D5
:101AC000C27299F80020032A08BF8182C1610120F7
:101AD000B8F1000F89F8030000F09A80B8F1010F07
:101AE0002BD0A19CA069404527D9D9F830A0204629
:101AF00047460EE0D4E90510821E914205D201311D
:101B00006161217941F001012171864274D2A1986D
:101B10003746394603F041FC064601303FF405AC38
:101B2000002E69D0012E08D020463946002204F04C
:101B30003DFC0028DED0054699E5022597E5042DF9
:101B40007FF406AB40073FF509AB05258FE599F813
:101B5000476099F8485046EA05240CB9D9F8544032
:101B600099F8426099F8435046EA0526002E3FF462
:101B70007DAD434303EB11153544AC42FFF476AD24
:101B8000641B9442FFF472AD4FF6F67CB4FBF2F2A4
:101B90004FF000084FF6F674C0F6FF7C624538BF80
:101BA0004FF00308A24240F6F67438BF4FF0020827
:101BB000A24238BF4FF00108B8F1000F3FF456AD14
:101BC0003D443E440232B8F1030FC9F82C50C9E934
:101BD0000876C9F818204AD199F85E3099F85F6004
:101BE000194341EA062100297FF440AD4D464B469A
:101BF000296EA96291004BE04846514604F0C0F8B6
:101C00000546A8F10100002DC9F810007FF42FADA2
:101C1000D9F830001F90A8982090817EC27E41EABA
:101C2000022199F80020032A05D1027D437D42EA72
:101C3000032241EA0241199100254821C0691A9006
:101C4000CDF85C90B9F806001E95ADF86C104FF415
:101C50000071ADF8600017A81C952830FEF706FB50
:101C600009E541F6742B0546C2F2000BFFE400299A
:101C70003FF4FCACF1184D46B8F1020FC9F828103A
:101C80000FBF510002EB420102F0010202EB5101D1
:101C900001F2FF11B0EB512FFFF4E8AC4FF0FF3031
:101CA000A946B8F1030FC5E904004FF08000287180
:101CB00032D1494699F8640099F8651040EA01204C
:101CC000012829D1791C484604F05AF820BB00208D
:101CD000494689F8040099F8320299F8331240EA2B
:101CE00001204AF65521884216D145F25221D9F8F1
:101CF0003400C4F2611188420ED147F27221D9F842
:101D00001802C6F24111884206D1D9F81C02D9F84E
:101D100020124A46C9E9041041F22C5089F800808B
:101D2000A1AFC2F2000001880131018041F22E50C2
:101D3000C2F20000C9F80C00A9F80610FFF7EFB9CD
:101D40005350492D50524F472020200800000000DA
:101D50000000000000004853A84E000000000000F2
:101D6000B0B582B041F2B4550446C2F200052878FD
:101D7000800702D44FF0FF3034E041F2B050C2F29D
:101D80000000007810B16FF001002BE041F2B85074
:101D9000FF21C2F20000C0F21801006808400121D2
:101DA000C0F208018842E5D140F610004FF48011DE
:101DB0000222C4F20100016015208DF8040001A880
:101DC000811C00F093FF68B941F2BC50C2F20000E0
:101DD00001E000BF00BFC1680229FBD19DF80700E8
:101DE000207000202978890719D541F2B051C2F23C
:101DF0000001097899B941F2B851FF22C2F20001FD
:101E0000C0F21802096811400122C0F20802914292
:101E100005D140F610011022C4F201010A6002B09F
:101E2000B0BD000010B584B041F2B454002103915C
:101E3000CDE90111C2F20004217889073AD541F2B7
:101E4000B051C2F200010978A1BB41F2B851FF22A2
:101E5000C2F20001C0F21802096811400122C0F26A
:101E60000802914226D140F610014FF48012C4F2CC
:101E700001010A608DF8040001A80622811D00F00E
:101E800035FFB8B941F2BC50C2F2000001E000BF1A
:101E900000BFC1680629FBD142F2FE009DF80E107A
:101EA0009DF80F20C2F20000017042F20010C2F251
:101EB000000002802078800719D541F2B050C2F2AC
:101EC0000000007898B941F2B850FF21C2F200003A
:101ED000C0F21801006808400121C0F208018842E0
:101EE00005D140F610001021C4F20100016004B0D9
:101EF00010BD000010B582B041F2B4540021CDE90C
:101F00000011C2F20004217889073BD541F2B0519B
:101F1000C2F200010978A9BB41F2B851FF22C2F216
:101F20000001C0F21802096811400122C0F2080243
:101F3000914227D140F610014FF48012C4F2010102
:101F40000A608DF8000068460422011D00F0CEFEF4
:101F5000C0B941F2BC50C2F2000000E000BFC1684D
:101F60000429FBD142F2FE009DF80510C2F20000E8
:101F70000170BDF8060042F20011C2F2000100BA81
:101F8000000C08802078800719D541F2B050C2F2C9
:101F90000000007898B941F2B850FF21C2F2000069
:101FA000C0F21801006808400121C0F2080188420F
:101FB00005D140F610001021C4F20100016002B00A
:101FC00010BD0000B0B582B041F2B4550C46C2F26B
:101FD00000052978890702D44FF0FF3032E041F242
:101FE000B051C2F20001097811B16FF0010029E08F
:101FF00041F2B851FF22C2F20001C0F21802096892
:1020000011400122C0F208029142E5D140F61001D0
:102010004FF48012C4F201010A608DF8040001A897
:102020000222811C00F062FE60B941F2BC50C2F293
:10203000000000E000BFC1680229FBD19DF8070045
:10204000207000202978890719D541F2B051C2F2D9
:102050000001097899B941F2B851FF22C2F200019A
:10206000C0F21802096811400122C0F20802914230
:1020700005D140F610011022C4F201010A6002B03D
:10208000B0BD00002DE9F04182B00446107816463C
:102090000D4619281BDDA0F11A01102934D8DFE8FC
:1020A00011F0600011005900590011005900590049
:1020B000590059007F005900A30059005900BB0086
:1020C0005900FF00D4F81802002545813AE20028A3
:1020D00000F02A81032800F0418112283AD171785A
:1020E000D4F81802C90740F07581D4F81C2205EB1A
:1020F000C501D26902EB81010A79531D32799A42F6
:1021000040F201821A4667E12F2800F051815A28D7
:1021100020D1D4F81C02C1682846884741F22841E2
:102120000128C2F200018A7802F07F0308BF42F062
:1021300080038B7008210FF2D042D4F8180241813D
:10214000133000215318DB794354013911F108038E
:10215000F8D14AE1D4F8180290F85D124FF4005318
:1021600049E1D4F81C02C1682846884741F2284159
:102170000128C2F200018A7802F07F0308BF42F012
:1021800080038B700822D4F8180242811330002299
:102190008B18DB798354013A12F10803F8D124E15A
:1021A000D4F81862002069460DF1060270613061B2
:1021B000F060D4F81C0243682846984700BB08200A
:1021C0000221F0730098B1820138010AF074B174F1
:1021D000010C000E717430740C21BDF80600F0750E
:1021E000000A7181B07500E1D4E98660436806F5A4
:1021F000187106F25E2228469847002800F00181F7
:10220000D4F818024FF4685390F85D1200EBC10245
:10221000C2F8403202238BE1D4F81872387AB846FB
:10222000002800F002814FF400767E8108F10C074F
:10223000B8F85E02D8E99913B1FBF0F2B3F5007F6C
:1022400038BF1E46B6FBF0F0394683B2D4F81C0204
:10225000D0F810C02846E047B0F1FF3F40F3588166
:10226000D4F82002002540F201120146C0E9177699
:10227000456621F8482F006801F0C0FED8F8340206
:10228000D8E99912921B3144A0EB0600C8E99912D3
:10229000C8F8340240F05681032088F80800A4E012
:1022A000D4F81872387A002800F0E380B7F85E029C
:1022B000D7E9991607F10C08B6F5007FB1FBF0F2EB
:1022C00028BF4FF40076B6FBF0F0414683B2D4F855
:1022D0001C02D0F814C02846E047B0F1FF3F40F39D
:1022E0001C81D7F83412D7E999028319901BA1EB0E
:1022F0000601C7E99930C7F8341200F02781D4F8F5
:102300002012B0F5007F28BF4FF400700025C1E90E
:1023100097800120C1F86452A1F84802086801F5CD
:10232000127101F06BFE0DE1D4F81862D6F81402B8
:10233000002800F0CA8096F85D024FF4005206EBC8
:10234000C0010130C1F84022052281F83C22C1B20F
:10235000043918BF014686F85D12F2E0D4F818423D
:10236000112104F10D00FDF781FF0C20E0747020B5
:10237000207394F85C0294F85D12884211D004EB4B
:10238000C001013091F83C22A27391F841222276DB
:10239000C2B2043A18BF024691F8400284F85C22A7
:1023A0006076122060813079122898BF60811CE02D
:1023B0007178D4F81802890719D4D0E99812B0F8C6
:1023C00068321A448A427FF67FAE90F85D124FF46D
:1023D000045310E08EA10622428100BF013A93B25D
:1023E000CF5CC618002B3773F8D10025AAE090F80F
:1023F0005D124FF4105300EBC102C2F840320523C6
:1024000096E00025082035827081B6F85E02F074EF
:10241000000AD6F860120139F173B074080AB0737B
:10242000080C7073080E30738CE097F918020028BE
:1024300038DAD4F81C0281682846884700287FF4DF
:10244000DFAED6F8020000BAC7F86402F179327A3A
:1024500042EA0121C7F868120A18D4F81882D8F89D
:1024600060329A4240F2AF8098F85D024FF4045215
:10247000BAE097F91802B0F1FF3F13DDD4F81C025F
:1024800081682846884700287FF4BAAED4F81C0239
:10249000C16828468847002861D0D4F818024FF454
:1024A0001C53B1E697F85D024FF4005207EBC001F0
:1024B0000130C1F84022052281F83C22C1B2043922
:1024C00018BF014687F85D123BE0D4F81C02816812
:1024D0002846884700283FD0D4F818024FF46853A4
:1024E00090F85D1200EBC1020131C2F840320223C4
:1024F00082F83C32CAB2043A18BF0A4680F85D221C
:10250000052030721DE0002A42817FF467AF6CE73E
:10251000D4F818024FF4885303E0D4F818024FF4AB
:10252000407390F85D1200EBC102C2F84032042300
:10253000013182F83C32CAB2043A18BF0A4680F828
:102540005D22FF2568B202B0BDE8F081204600217F
:102550000025FEF7ECFAF5E700257581F2E7D6F8DD
:10256000020002BAC7F86422F079317A41EA002108
:10257000C7F868128B18D4F81802D0F86062B3421A
:102580003FF623AFB7F85E3259435A43C7E9992162
:10259000D7F814228A427FF4DFAD0120002507F12D
:1025A0000C03B1F5007F3872D4F8202228BF4FF415
:1025B0000071C2E99731C2F86452A2F8480202F5EC
:1025C00012711068ADE602223A72B7F85E225143EA
:1025D0005043C7E99901D7F8140288423FF423AE6B
:1025E00098F85D024FF4005208EBC001C1F8402298
:1025F0000522013081F83C22C1B2043918BF0146DE
:1026000088F85D129DE700BF070000000000000091
:1026100000000002008083002DE9F04141F2B45C2B
:10262000C2F2000C9CF800309A0702D44FF0FF323F
:102630002FE0C5B2142D24D143F20000C4F20100F2
:10264000818821F0020181801C21C4F202014A69C3
:1026500022F001024A61828822F001028280086829
:1026600020F00100086041F2BC501C21C2F20000C1
:10267000FDF7FCFD41F2B0500022C2F200000270F2
:1026800007E041F2B052C2F20002127822B16FF0BC
:1026900001021046BDE8F081132D20D86FF006022C
:1026A00000260024DFE805F0100B0E0A0A1B1B1B96
:1026B0001B1B1B1B1B1B1B1B1E2E3D43E9E704247E
:1026C000012601E000240226C0F30222032A48D892
:1026D000DFE802F04F024A4D44F0010449E06FF098
:1026E0000302D6E745F200120020C0F2252200BF07
:1026F0000746072800F29F8022FA07F3781C9942C8
:10270000F6D39DE043F200004AF20021C4F201003A
:10271000C0F24A410088C0F3C200013021FA00F241
:10272000B7E741F2BC50C2F2000001834BE141F235
:10273000B850FF22C2F20000C0F218020068104038
:102740000122C0F2080290427FF470AF40F6000010
:1027500000290CBF10214FF48011C4F20100016167
:1027600031E16FF0070294E744F0020401E044F025
:10277000030400F47C32B2F5004F04D0B2F5803F80
:1027800035D104F500648022022E02EAD02244EA08
:10279000020E2FD0012E4CD1C0F3C14001287BD0B6
:1027A000022800F09C80032840F0BC8041F2180011
:1027B000C4F20200026842F004020260026852079A
:1027C0005EBF026842F00402026040F60000C4F2FC
:1027D0000100026822F470220260026842F4302292
:1027E00002600120C0F2080000F58010B2E06FF036
:1027F00008024EE741F218028002C4F20202146895
:1028000034D444F004001060106840075EBF1068C4
:1028100040F00400106040F60000C4F201000268BD
:1028200022F470220260026842F430220260022028
:1028300090E000208EE0082F3FF4F8AE22FA07F374
:102840008B423FF6F3AE43F20000C4F20100018870
:1028500021F040010180018821F0380141EAC701DF
:102860000180018841F040010180ACE060075EBF5B
:10287000106840F0040010604EF4007E40F6000046
:10288000C4F20100026822F4702202600268026051
:102890000220C0F220005DE041F218004EF4407EBC
:1028A0004FF02008C4F20200026842F00402026005
:1028B000026852075EBF026842F00402026040F6FE
:1028C0000000C4F20100026822F470220260026873
:1028D00042F4403202600120C0F208003CE041F2C4
:1028E00018004FF02408C4F20200026842F004020B
:1028F0000260026852075EBF026842F00402026092
:1029000040F60000C4F20100026822F47022026066
:10291000026842F4302202600120C0F2080000F593
:10292000002019E041F218004EF4407EC4F202008B
:10293000026852075EBF026842F00402026040F67D
:102940000000C4F20100026822F4702202600268F2
:10295000026001204FF0200845F2001500240026F7
:10296000C0F225252246072E07D825FA06F702F1E0
:1029700008040136B942F5D304E0082E3FF456AE00
:1029800025FA06F78F423FF651AE41F2B85142EABE
:102990000E02C2F20001086043F200018007C4F297
:1029A000010143F004000C8824F040040C80A1F8DD
:1029B00004800A8008BF03F0FB008CF80000088840
:1029C00040F040000880002263E643F20000C4F2B9
:1029D000010001894A0631D50188090510D441F268
:1029E000BC5290F80CC0C2F200021368D168994240
:1029F0001CD25368D3B1591C516083F800C015E054
:102A000041F2BC52B0F80CC0C2F200021368D168A7
:102A100099420BD253684BB1591C516083F800C0E6
:102A200051684B1C53604FEA1C220A7041F2BC51A2
:102A3000C2F20001CA680132CA6001898A0644BF35
:102A40000288028010B5CA073FD0828852063CD562
:102A500041F2BC5EC2F2000EDEF80030DEF80C205F
:102A60009A4232D2028812050AD490F80CC0DEF8DD
:102A70000430BBB15A1CCEF8042083F800C011E02A
:102A8000B0F80CC0DEF8043063B15A1CCEF8042054
:102A900083F800C0DEF80420531CCEF804304FEA5F
:102AA0001C231370DEF80C30DEF800200133934253
:102AB000CEF80C3009D18288002322F040028280B7
:102AC00041F2B052C2F200021370890744BF8188FC
:102AD0005FEA016100D410BD41F2BC5CC2F2000C9F
:102AE000DCF80020DCF81030934228BF10BDB0F8AD
:102AF00000E0DCF808405FEA0E510DD4002C0FBF57
:102B00009CF81810611CCCF8081021780173DCF8CF
:102B10000020DCF810300FE05CB1611CCCF808102C
:102B2000214611F802EBCCF8081061784EEA012139
:102B300001E0BCF818108181591CCCF810109142AA
:102B400002BF818821F08001818010BD10B502464E
:102B50006FF00400002A5DD000295BD041F2B45030
:102B6000C2F200000078400755D541F2B05EC2F2D3
:102B7000000E9EF8000010B16FF0010010BD41F290
:102B8000B850C2F2000000780138012843D841F261
:102B9000BC5C012300201C248EF8003043F2000EA0
:102BA000C2F2000CC4F20204CCE90012CCE902002B
:102BB000CCF81000C4F2010EBEF800301B0540F244
:102BC000825358BF822323600EF10C03A360E2609E
:102BD0006160226842F001022260BEF8042042F0E7
:102BE0000102AEF80420BEF80020120540F2125295
:102BF00058BF12226261E3610CF118022262A161E6
:102C0000616941F001016161BEF8041041F0020107
:102C1000AEF8041010BD4FF0FF3010BDB0B5024645
:102C20006FF00400002A5DD000295BD041F2B4505F
:102C3000C2F200000078400755D541F2B05EC2F202
:102C4000000E9EF8000010B16FF00100B0BD41F21F
:102C5000B850C2F2000000780138012843D841F290
:102C6000BC5C012300201C248EF8003043F2000ECF
:102C7000C2F2000CC4F20204CCE90010CCE902203C
:102C8000C4F2010ECCF81000BEF800300EF10C05B5
:102C90001B0540F2025358BF02232360A5600CF1CC
:102CA0001403E3606160236843F001032360BEF80E
:102CB000043043F00103AEF80430BEF800301B05C9
:102CC00040F2925358BF92236361E5612262A16191
:102CD000616941F001016161BEF8041041F0020137
:102CE000AEF80410B0BD4FF0FF30B0BD10B50446D3
:102CF0006FF00400002C56D0002954D0002A52D086
:102D000041F2B450C2F20000007840075CBF4FF0BF
:102D1000FF3010BD41F2B05CC2F2000C9CF8000024
:102D200010B16FF0010010BD41F2BC5E01208CF8C3
:102D3000000043F2040CC2F2000E0020CEE9002194
:102D4000CEE90240CEF81000C4F2010C40F2825EDF
:102D50003CF8043C1B0558BF4FF0820E1C23C4F204
:102D60000203C3F800E00CF1080EC3F808E0D960D4
:102D70005A60196841F001011960BCF8001041F077
:102D80000101ACF8001092215961C3F81CE01C62EB
:102D90009A61596941F001015961BCF8001041F094
:102DA0000201ACF8001010BD48BB41F6542341F6B7
:102DB0007020C2F20003C2F200001B780068013BE1
:102DC000012B09D890B14FF6FE734069C0F27F0322
:102DD00003EA400056300EE058B14FF6FE734069EA
:102DE000C0F27F0303EA4000163004E040F65600CC
:102DF00001E040F6160008604FF4007010800020DB
:102E00007047002070470020704700207047000086
:102E100010B541F64C2404A0C2F20004217804F05D
:102E2000B1FA207810BD00BF0A0D204973577269AE
:102E3000746550726F746563746564202D3E20253F
:102E400064200000012849D060BBB0B541F65C2089
:102E50001C461546C2F200000068904224D841F694
:102E60005422C2F200021278F2B941F67022C2F284
:102E70000002D2F800E0BEF1000F17D02A1A50026B
:102E800012074FEA442209D141F20C0CC4F2010CA2
:102E9000DCF8003083F40053CCF80030DEF8343036
:102EA000984714E0FF201AE00A2D05D36202084675
:102EB0001146FDF7DBF90AE040F20C006202C2F2B3
:102EC000000000EB452308461946FDF785F905A0EB
:102ED0002946224604F056FABDE8B040002040B230
:102EE000704700BF0A0D20524420626C6B5F616422
:102EF00064722D3E20256420626C6B5F6C656E2DC4
:102F00003E2025640000000080B5FFF79BFF0028ED
:102F100018BF0120400080BD2DE9F04F81B001288D
:102F200000F0A48270B90C46164611460FF24850C4
:102F30001A461D4604F026FA41F65620C2F2000059
:102F4000007808B1FF2092E241F65C27C2F2000748
:102F50003868B0424AD841F66420C2F200000178D5
:102F6000A1B90121562E01704FF4305041F6602175
:102F700008BF4FF42C40C2F20001086031460FF246
:102F80001C5018BF1621396004F0FCF942F20410FD
:102F9000C2F200000168B1B141F66820C2F200003F
:102FA0000068C21700EBD2503A6802EB6020B042D2
:102FB00009D141F65420C2F200000078022815D150
:102FC00041F2185809E041F65420C2F2000000789E
:102FD00002280BD141F218586902C2F20008D8F851
:102FE00000202046FDF77AF9C8F800003868082E5E
:102FF0004ED1B0424CD941F65420C2F200000078C4
:103000000138012800F28B80E16B0FF2AC4004F034
:10301000B9F9E06B002800F08280204610F8201FEC
:10302000D9B394F82B2041F6682BC2F2000B02F0C2
:103030003F020F2A04BF01F03F0100EB4110C169BC
:103040000029CBF800106AD041F6582842F2201926
:103050004FF0010A0FF28040C2F20008C2F20009EC
:1030600088F800A0D9F8002004F08CF941F670210E
:10307000DBF80000C2F2000109684969B0EB812F5A
:1030800012D94AF68E40C0F6000004F07BF959E7E9
:10309000092E28BFB04243D9A9E141F6682000219A
:1030A000C2F2000001603AE0C11740F2FF1242F2A2
:1030B000021300EBD151C2F2000321EA0202801A8E
:1030C00042F20412C2F200021060024618BF01224E
:1030D0001A7000284FEA612218BF0AEB6122D9F862
:1030E0000000B0EB422F1AD14BF24B60C0F600004B
:1030F00004F048F941F64C200121C2F200000170B1
:1031000041F65220C2F20000017041F66421002015
:10311000C2F2000188F80000C9F8000008703868A1
:10312000B04214D940F20C02FF21C2F2000202EBBD
:10313000462002F5A053984200F29B809042C0F0D6
:10314000988069028AB22146FDF746F84FE1301AAD
:1031500041024BF27540C0F6000004F013F942F250
:10316000041A41F6602377024FEA452BC2F2000AA7
:10317000C2F20003DAF800901E68B9F1000F14D013
:1031800041F66821B81BC2F200010968A1EB0901F0
:1031900088420AD10BF47E4104EB0900FF221D4650
:1031A000A1EB0901FDF75BF82B4641F67025C2F251
:1031B0000005D5F80080D8F8140006EB8020B8424E
:1031C0004FD941F65420C2F200000078032848D8B5
:1031D000DFE810F00601040068000601B9F1000FF5
:1031E00058460FD041F66821B81BC2F200010968A9
:1031F000CA1701EBD25140F2FF129143884218BF27
:10320000D946484642F21011C2F20001097800295D
:1032100040F0E680A7EB060A87B25FEACA4107D111
:1032200041F20C00C4F20100016881F40051016018
:10323000384604F069FA8146D8F8343050463A46A8
:10324000494698474FB10025665D19F80500B04220
:1032500040F0A9800135AF42F6D1002400260025B8
:10326000A2E042F22010C2F200000168594401605D
:10327000FF2141F657244BF22C504FF42372C2F237
:103280000004C0F6000021704BF2F641C0F60001C8
:1032900004F078F84BF214502178C0F6000004F0E6
:1032A00071F8A4E0D8F830C0BCF1000F24D0D8F8F1
:1032B0002C10994671B142F2FD08C2F2000898F84C
:1032C000000038B9884750B9012088F80000286804
:1032D000D0F830C0B81B0BF47E422146E04701060F
:1032E00013D042F22011C2F200010A685A440A6067
:1032F000C1B20029BDD17AE042F22010C2F2000032
:10330000016859440160FC21B3E7DAF8000059462E
:1033100088B141F66822D9F80010C2F200021268A2
:10332000791AD31702EBD35240F2FF139A4391421A
:1033300018BF5846014641F6532AC2F2000A9AF8CD
:10334000000000284CD18CB2204604F0DDF9804604
:10335000D9F80000381AC10407D141F20C01C4F2B7
:1033600001010A6882F400520A60296822464B6B08
:103370004146984741F2145640462146C2F20006A3
:103380003268FCF7ABFF41F218513060C2F2000125
:103390003068096888421CBF01208AF80000404656
:1033A00004F08AF91CE00402484604F085F946EA74
:1033B000040042F21013F2B2C0F30721C2F200037C
:1033C0008A420DD042F21812010A000CC2F2000229
:1033D00051710121167119700AEB05011160D0803D
:1033E00042F22010C2F2000001685944016041F627
:1033F0006820C2F200000268012A37DB42F20210A4
:1034000042F2201440F2FF11C2F20000C2F20004A6
:10341000007802EB402088432168814226D14BF29C
:103420004F402168C0F6000003F0ACFF41F658257C
:10343000C2F200052878012818D14BF22B60C0F6A3
:10344000000003F09FFF41F64C200121C2F2000072
:10345000017041F65220C2F20000017041F6642171
:103460000020C2F20001287020600870002040B2E5
:1034700001B0BDE8F08F00BF0A0D20575220626CEA
:103480006B5F616464722D3E20256420626C6B5F0B
:103490006C656E2D3E202564000000000A0D20663C
:1034A00061745F66696C655F646174615F626C6BB7
:1034B000202D3E20256400000A0D2066696C655FA2
:1034C00073697A65206F6666736574203343202DB7
:1034D0003E203078255800000A0D2066696C655F33
:1034E00073697A65202D3E20307825582077725FE9
:1034F000646174615F616472202D3E2030782558CC
:103500000000000080B5FFF707FD002818BF01206C
:10351000400080BD7047000081B040F608410020A7
:103520008DF80300C4F201010A6892051CD442F22E
:103530000C10C2F2000000BF026800BF03689B1AB3
:10354000022BFBD39DF80320092A09D89DF80320FC
:1035500001328DF803200A689205EDD5002003E0C2
:1035600000208DF80300012001B07047B0B541F292
:10357000B4550C46C2F200052978890702D44FF0F1
:10358000FF302FE041F2B051C2F20001097811B1D1
:103590006FF0010026E041F2B851FF22C2F20001B3
:1035A000C0F21802096811400122C0F208029142DB
:1035B000E5D140F610014FF48012C4F201010A6017
:1035C0002146FFF72BFB68B941F2BC51C2F2000162
:1035D000C868A04201D1002004E0002000BFCA68F2
:1035E000A242FBD1297889071AD541F2B051C2F223
:1035F00000010978A1B941F2B851FF22C2F20001DD
:10360000C0F21802096811400122C0F2080291427A
:1036100018BFB0BD40F610011022C4F201010A60CB
:10362000B0BD00002DE9F04F83B0154642F20812FC
:10363000994621230126C2F200021288571E00BFBC
:103640009C1E013B06FA04F43C42F9D08DF80800B8
:10365000B1FBF2F000FA03F300FB12101F0C184349
:103660008DF8097041F2B4578DF80B00000AC2F2D0
:1036700000078DF80A003878800702D44FF0FF3039
:1036800007E041F2B056C2F20006307820B16FF088
:10369000010003B0BDE8F08F41F2B85B40F2FF0AD1
:1036A0000124C2F2000BC0F2180AC0F20804DBF8D1
:1036B000000000EA0A00A042E0D140F610014FF4F9
:1036C0008010C4F20101086002A80421FFF7A6FAE5
:1036D00090B138788007D1D530780028CED1DBF88A
:1036E000000000EA0A00A042C8D140F610011020F4
:1036F000C4F201010860C1E741F2BC58C2F20008FF
:1037000001E000BF00BFD8F80C000428FAD175B161
:10371000B9F1000F0BD028464946FFF77FFA002881
:10372000D7D100E000BFD8F80C004845FAD138786E
:103730008007A3D530780028A9D1DBF8000000EA83
:103740000A00A0429AD140F610011020C4F20101F3
:1037500008604FF6D770ADF80800307800287FF485
:1037600096AF4FF48010086002A80221FFF756FAC6
:103770000028AED100E000BFD8F80C000228FAD132
:103780000DF107000121FFF7E1F908B1A1E700BF42
:10379000D8F80C000128FAD19DF90700B0F1FF3FDD
:1037A000EEDC387880077FF569AF307800287FF449
:1037B0006EAFDBF8000000EA0A00A0427FF45EAFC3
:1037C00040F610011020C4F201010860002060E7FB
:1037D00080B582B0042001218DF807000DF10700AB
:1037E000FFF7C4FE68B900200DF107018DF807004E
:1037F0000520FEF7E7FB20B99DF80700800140B2E5
:10380000C01102B080BD80B582B00DF10701052066
:10381000FEF7D8FB18B99DF80700800717D40620DB
:1038200001218DF807000DF10700FFF79FFE78B921
:1038300000200DF107018DF807000520FEF7C2FBFF
:1038400030B99DF80700C0F34000013800E00020C7
:1038500002B080BD42F20C10C2F2000001680131DA
:103860000160704741F200000022C4F20200CFF66E
:10387000FF02016841F001010160416811404FF60B
:10388000FF724160CFF6F662016811400160016885
:1038900021F480210160416821F4FE0141604FF470
:1038A0001F0181604EF608504FF00061CEF200001B
:1038B0000160704780B504A000F068F841F2DC5068
:1038C000C2F2000080BD00BF4D534320436F6E66BF
:1038D000696700001220088041F23040C2F2000007
:1038E0007047000080B504A000F050F841F2DC50B1
:1038F000C2F2000080BD00BF4D534320496E746585
:1039000072666163650000000420088041F2444053
:10391000C2F200007047000080B504A000F036F845
:1039200041F2DC50C2F2000080BD00BF53544D692B
:1039300063726F656C656374726F6E6963730000A8
:1039400080B504A000F022F841F2DC50C2F2000081
:1039500080BD00BF53544D3332204D6173732053EB
:10396000746F72616765000080B504A000F00EF806
:1039700041F2DC50C2F2000080BD00BF3030303078
:1039800030303030303031410000000080B558B365
:10399000027862B1431C002213F801CB0132BCF162
:1039A000000FF9D1D2B2022303EB420200E002225F
:1039B00041F2DC5E03230A80C2F2000E8EF8013071
:1039C0008EF8002002787AB1013002234FF0000C0B
:1039D000D9B202330EF8012041F001010EF801C006
:1039E00010F8012B002AF3D180BD10B5D0F820E2E9
:1039F00001F07F0C0B060EEB4C1000F1280258BFB3
:103A000000F50A72C809507082F800C09EF8283488
:103A1000012B01D110216FE00123490048F2800CF5
:103A20008EF82834C9B2937ADEF8002032F81140BB
:103A300002EB410143B304F4804280B33AB10888F9
:103A400040F60F7210400CF5804210430880088841
:103A5000400607D5088840F60F7210400CF140026E
:103A600010430880088840F60F7210400CF5804221
:103A7000104340F63F7208800888104040EA0C006E
:103A8000088043F60F732FE0E8B360062AD5088854
:103A900040F60F7210400CF14002104321E03AB1A1
:103AA000088840F60F7210400CF5804210430880E1
:103AB0000888400607D5088840F60F7210400CF1C0
:103AC000400210430880088840F60F7210400CF145
:103AD0004002104343F60F7208800888104040EA05
:103AE0000C00088040F63F730888184040EA0C003C
:103AF000088000218EF8281440F20020C0F2012036
:103B0000C840C0B210BD6004BBD5088840F60F7233
:103B100010400CF580421043B2E7000070B5D0F8B9
:103B200020C201F07F0E0D060CEB4E1404F12800AC
:103B300058BF04F50A700361CB09437080F800E0B8
:103B4000C2709CF82844012C01D110200CE1012402
:103B5000032A8CF82844DCF800400DD8DFE802F096
:103B6000020F19214A0048F68F16D5B234F81520F5
:103B7000324002F500721DE04A00D5B21CE04A0056
:103B800048F68F16D5B234F81520324002F580621F
:103B900010E04A0048F68F16D5B234F815203240AE
:103BA00008E04A0048F68F16D5B234F815203240A6
:103BB00002F5C06224F8152034F8152040F60F767F
:103BC0003240114348F28002114324F8151004EBEF
:103BD0004501857A002D48D00D8840F60F66002BF0
:103BE00005EA060502F5807645EA06050D80C588DA
:103BF000B4F8506006EBCE0625F0010504EB46064E
:103C0000C6F800540089B4F8505005EBCE0620F0F9
:103C1000010004EB4606C6F80804088800F480405A
:103C200040D038B1088840F60F73184002F5804341
:103C3000184308800888400607D5088840F60F73A7
:103C4000184002F1400318430880088840F60F73BB
:103C5000184002F58043184340F63F7308800888F7
:103C6000184043F60F73104341E08588B4F8506064
:103C7000002B06EBCE0625F001053DD004EB4600F7
:103C8000C0F800540888400607D5088840F60F732E
:103C9000184002F1400318430880088840F63F733B
:103CA00020325BE038B1088840F60F73184002F507
:103CB0008043184308800888400607D5088840F6E6
:103CC0000F73184002F1400318430880088840F63B
:103CD0000F73184002F14003184343F60F73088036
:103CE0000888184002F54053584040F63F7308805A
:103CF00008881840104333E004EB46064FEACE0331
:103D0000C6F8085404F20C45B4F850600069334416
:103D10003F280BD3460140F2FF34C00626EA0406D2
:103D200008BF06F5F84646F4004004E000F001063E
:103D300006EB5000800280B245F81300088840046A
:103D400007D5088840F60F73184002F580431843E2
:103D50000880088843F60F7302F54052184050401F
:103D6000088000208CF8280440F20021C0F20121D4
:103D700021FA00F0C0B270BD10B5D0F8200201F0F9
:103D80007F020C064FEAD11400EB421300EB411CFA
:103D90004FF0010103F1280358BF0CF50A735C7062
:103DA0001A70997090F82834012B08BF10BD80F864
:103DB0002814002A01680DD031F822C0520049F2BF
:103DC000800EA4B140F63F73AEF57F6403EA0C03A6
:103DD000634012E00B8843F63F74234049F28004AD
:103DE000CFF6FF741034634021F8223007E043F629
:103DF0000F7303EA0C0383EA0E0321F8123000214B
:103E000080F8281410BD80B5FCF7C2FD002080BDED
:103E100080B5FCF7DFFD002080BD10B50121044610
:103E2000FFF7E3FD20468121FFF7DFFDD4F81812EC
:103E300000200029087201D0C4F81802002010BD2B
:103E40000A21018041F2C040C2F2000070472021E7
:103E5000018041F28040C2F20000704720210180C1
:103E600041F2A040C2F2000070472021018041F2DF
:103E7000CC40C2F20000704710B50446007C50B13F
:103E80002046012102224023FFF748FE20468121DF
:103E9000022240230BE02046012102224FF400734E
:103EA000FFF73CFE2046812102224FF40073FFF70A
:103EB00035FE41F2DC70C2F20000C4F81802204660
:103EC000FCF70FFE002010BD70B50446D0F8186254
:103ED00008780D4610F060011ED0202940F08B803C
:103EE0006978FF2935D0FE2935D1698899BB00064C
:103EF00031D5E88801282ED1D4F81C02806980478A
:103F000030600220C4F8F4010120C4E90600D4F8AE
:103F100020220024D66311E06878012825D00B28E0
:103F200039D00A2867D101200221C4E90600C4F86B
:103F3000F411311DD4F820220024D16310644FF411
:103F400080701146546421F8280F106800F056F86C
:103F500052E0698811B320468021FFF70DFF20460B
:103F60000021FFF709FF022446E0D4F82012A888B8
:103F700091F82824012A1CBF002281F82824C1B20C
:103F80002046FFF732FDA988207C09061FD420B304
:103F9000204601211EE0A87870602CE00006DAD4EB
:103FA000E8880028D7D14FF48070012230811F208B
:103FB000D4F820120024A1F8482206F50372C1E9C2
:103FC0009720C1F86442086801F51271BEE738B164
:103FD000204681210222402307E02046012101E002
:103FE0002046812102224FF40073FFF797FD2979C3
:103FF0002046FCF7B5FC0024204670BD70B50A6968
:104000008E691346964288BF3346A3EB02038B6149
:1040100088BF16464A788B7A012A36D1CBB30B7803
:1040200030F82320B0F8505005EBC3055B0000EBDF
:104030004505C5F80464B6B2751C0026B6EB550FED
:1040400014D052064FEA55064FF00802C6F100049C
:1040500058BF06228A5A496900EB420202F5806283
:1040600031F8026B013422F8046BF9D130F81310E7
:1040700040F60F7211404BF28002CFF6FF7202F54C
:104080008052114320F8131022E043B36AB3097839
:1040900064E0B2B200230132B3EB520F0ED08B8832
:1040A00052084C69524200EB430303F5806300BFA2
:1040B00034F8025B013223F8045BF9D1B0F85020E8
:1040C000097802EBC1024B0000EB4202C2F8046423
:1040D00000EB430048F2B00140F63F7244E0B0F814
:1040E0005020097802EBC10C20E0B0F8502009788C
:1040F00000F204433F2E02EBC10E4FEAC10C0AD37B
:10410000720140F2FF34A243F40608BF02F5F84200
:1041100042F4004204E006F0010202EB5602920271
:1041200092B243F81E20B0F85020944400F20C43A1
:104130003F2E0BD3720140F2FF35F60622EA05024C
:1041400008BF02F5F84242F4004204E006F0010222
:1041500002EB5602920292B243F81C2000EB81005F
:1041600043F60F724BF2800103881A4051400180E0
:1041700070BD00002DE9F04F83B041F69C4BC2F2B8
:10418000000BDBF80000B0F94410B1F1FF3F00F381
:10419000E2844FF00009ADF80890ADF80690B0F950
:1041A0004410B1F1FF3FADF8081000F3D48409E2E8
:1041B000D8F814025146826840469047B8F80E027B
:1041C000002840F0BF8418E098F8FC1101F0FE01CF
:1041D000022940F06184012840F0B484C8F80492B8
:1041E00005E0012840F0AE840120C8F80402D8F8A8
:1041F000140251468268404690470420C8F8F401F2
:10420000D8F82002C0F83C90C0F840906DE145EA33
:104210000700000440F0408498F8FC01032800F0F7
:104220003B840CF07F0488F8FE41D8F8200290F817
:10423000281401290DD0002C4FF0010180F82440F2
:1042400080F8281403D101688022A1F84C2080F85E
:10425000289404214FF48072C8F8F4110146C0E993
:104260000F99C0F8449021F8282F0068FFF7C6FE88
:10427000002C0CBF0120022088F8FC0100F062BC79
:10428000601E062800F20884DFE810F00700CD0069
:10429000DA0006040604E900F500D8F8101298F8D0
:1042A00010000A680DF10A019047F1E0012F40F07B
:1042B000F38398F8FC01032800F00B81022840F0FA
:1042C000EB8348F8089F02200121C8F8EC01C8E9F7
:1042D0000411D8F81802C0F83C80016405E141F2ED
:1042E000D850BCF1020FC2F2000080F800C080F08C
:1042F000D38398F8FC01032800F00081022840F0E5
:10430000CB83BCF1000F3FF478AF032088F8FC01A9
:10431000C8F804C0D8F81402002800F0BD83026871
:104320004046614606E198F8FC01032814D00228B3
:1043300040F0B283480640F0B88300F003BC98F820
:10434000FC21032A33D0022A40F0A68341F08000EA
:10435000802800F0F783A8E301F07F0011F08007C8
:1043600008EB001202F1140308BF02F58273D8F8BB
:104370002022002F02F1280102EB401601EB401031
:1043800000F1020008BF06F22A200078002818BFBA
:10439000012018600220C8E90600C8F8F401C2E94B
:1043A0000F304FF48070C2F8449010858FE00028E1
:1043B00040F0C88348063FF420AFD8F8200201F04F
:1043C0007F0700EB471300EB411203F128060B06B1
:1043D0004FEAD11358BF02F50A767370377086F82A
:1043E000029090F82824012A3FF401AF01224900ED
:1043F000002B80F82824C9B2026832F8117000F04E
:10440000C6807B060AD532F8113040F60F773B4064
:1044100048F2B00710373B4322F8113040F63F73A3
:1044200048F2B007C5E098F81010D8F81402002937
:104430000CBF816AC16A0DF10A008847022126E09B
:10444000BCF1050F00F22883DFE80CF00383898FAD
:10445000959BD8F8101298F810004A6822E798F84F
:104460001000002840F01883D8F81402416B0DF1B9
:104470000A0088470CE098F81000002840F00C83F0
:10448000D8F81402016B0DF10A008847072141702A
:10449000BDF80A20002A00F05583B8F80E12002952
:1044A00000F050838A4238BF11460222ADF80A104C
:1044B000C8E90611C8F8F421D8F8202202F13C031B
:1044C00083E8030211464FF4807021F8280F10682A
:1044D000C6E20122022008F10401C8E90622C8F858
:1044E000F401D8F82002C0E90F1201464FF480729F
:1044F000C0F8449021F8282F0068B1E2BCF1000F09
:104500001DD0D8F8040060453FF477AED8F81412F7
:104510004A68C1B24046904741F2D850C2F200000A
:104520000178C8F80410D8F81402002800F0B4820A
:10453000026840469047002840F0AE825DE60220C7
:10454000C8F80490614688F8FC01D8F81402426863
:1045500051E6D8F8101298F810008A68A2E6D8F848
:10456000101298F81000CA689CE6D8F8101298F853
:1045700010000A6996E6D8F8101298F810004A69F7
:1045800090E6D8F8101298F810008A698AE67B0441
:104590000BD532F8113040F60F773B404BF28007D5
:1045A00007F580573B4322F8113043F60F734BF267
:1045B000800732F8116033407B4022F8113080F8D8
:1045C000289414E6BDF8081011F00F0548D030F813
:1045D00025104FEA4508ADF80610BDF90610B1F1F7
:1045E000FF3F00F39B8130F8181040F68F721140A6
:1045F0000BEB451220F8181002F50A7192F83232CE
:10460000002B00F01C8191F800E030F82E30B0F85B
:1046100050104FEA4E0C01EBCE015B0400EB410160
:1046200000F13181D1F80C346FF39F23002B00F09F
:104630004481591CB9EB510F00F04081B2F830426F
:104640004908D2F83C72494200EB440404F5806406
:1046500054F8046B013127F8026BF9D12EE100BF49
:10466000BDF808200188D2062FD448F60F721140F9
:104670000180B0F850109BF8282001EBC20100EB3C
:104680004100D0F804046FF39F20CBF84400DBF81E
:104690003C100844CBF83C000020FCF75BF8DBF84A
:1046A00040009BF82410002900F04C82002840F0C4
:1046B0004982DBF800009BF8241041F08001C9B268
:1046C000A0F84C108BF824903CE2ADF80610BDF831
:1046D0000610090532D4BDF90610B1F1FF3F00F311
:1046E0003182018840F68F7211400180B0F850107D
:1046F0009BF8282201EBC20100EB4101D1F80C1418
:104700006FF39F210029CBF8441200F0F1814A1C7D
:10471000B9EB520F00F0E781BBF82C3252080027AA
:1047200000EB430000F58063DBF83C0253F82760A0
:1047300020F817600137BA42F8D1D6E1B0F850102E
:104740009BF8282201EBC20100EB4101D1F80C14C7
:104750006FF39F21CBF844120131B9EB510F0FD009
:104760004B08BBF82C120BF22C425B4200EB4101D0
:1047700001F5806151F8047B013322F8027BF9D105
:10478000018840F68F7211400180DBF85C849BF851
:104790002C6488F8086208F5027A9BF82D3488F8B2
:1047A00009329BF82EC49BF82F444CEA0420A8F849
:1047B0000A029BF830149BF8312441EA02250122B9
:1047C000A8F80C52BBF83274C8E97D2706F01F0226
:1047D000A8F80E72022A00F04C81012A00F05481E0
:1047E000002A40F06081092B00F25681DFE813F0C7
:1047F00010000F0054010E0054010D000C00540174
:104800000B000A006BE551E53AE500E5E9E4DBE47D
:1048100098F8FC0100F0FE00022840F03D81D8F835
:1048200004020221002818BF0120400048F80C0FA4
:10483000C8F8E811C8E90311D8F814024BE5B0F83C
:10484000503091F800E003EBCE0100EB4101D1F8CC
:104850000C346FF39F23002B00F00981591CB9EB36
:10486000510F36D0B2F82C424908D2F83C72494276
:1048700000EB440404F5806454F8046B013127F81C
:10488000026BF9D125E0D1F804346FF39F23A3B173
:10489000591CB9EB510F11D0B2F82E424908D2F889
:1048A0003C72494200EB440404F5806454F8046B04
:1048B000013127F8026BF9D100E0002330F81C1019
:1048C00040F60F74214048F2B0041034214320F820
:1048D0001C10D2E98F71D2F844621E441F44002993
:1048E000C2F84462C2F83C7203D0D2F838229A422D
:1048F00003D97046FBF7ADFF10E00EF07F020BEB23
:104900004213C3E98F7103F50A71C3F8449283F827
:10491000299283F82822FFF771FB00BFBDF806003B
:10492000000640F10F81DBF8000048F60F7230F806
:10493000181011400BEB451220F8181002F1280155
:1049400092F832303BB3097830F82130B0F850702B
:104950004FEAC10C4E0007EBC1075B0600EB4707AF
:104960003DD4D7F80C746FF39F27002F57644FD0B6
:104970000137B9EB570F4BD0158E7B08D76B5C42D4
:1049800000EB450505F5806537F8023B013425F855
:10499000043BF9D13CE0B0F85030097800F204460D
:1049A00003EBC1034FEAC10C56F813706FF39F2756
:1049B000002F57643AD00137B9EB570F36D0958D99
:1049C0007C08D76B644200EB450505F5806500BFA8
:1049D00037F8023B013425F8043BF9D126E0D7F83B
:1049E00004746FF39F27002F576411D00137B9EB80
:1049F000570F0DD0D58D7B08D76B5C4200EB45057A
:104A000005F5806537F8023B013425F8043BF9D100
:104A100030F8163040F60F773B404BF2800707F531
:104A200080573B4320F8163000F20446B0F850306F
:104A3000634456F813706FF39F275764D2E90F63EE
:104A40003744002BD7630ED001F07F020BEB4211ED
:104A500001F8282F0122C1E90573C1F81C904A70A2
:104A6000FFF7CCFA6EE00846FBF774FE6AE000231D
:104A70002FE706F06002202A1BD1D8F81402514615
:104A80008268404690475DE098F8FC01032808BF23
:104A900011F0FE0F3FF48CAB40468021FFF76CF91C
:104AA0004046002102E006F080014046FFF764F92D
:104AB00048E0002B3FF437AC012B3FF440AC032B14
:104AC00040D198F8FC21032A7FF43DAC00287FF404
:104AD0008EAB41F0800080283FF489AB4046FFF761
:104AE0004BF9FFF784BBDBF83C020844CBF83C02EF
:104AF0000020FBF7AEFEDBF80000B0F85010DBF84A
:104B0000383200F20C423F2B0BD35F0140F2FF36EC
:104B1000DB0627EA060708BF07F5F84747F4004316
:104B200004E003F0010707EB53039B029BB242F83A
:104B3000113043F60F72018811404BF28002514050
:104B4000018000BFDBF80000B0F944100029ADF887
:104B50000810FFF637ADB0F84410490535D5B0F868
:104B60004410012500224023402621F48061A0F852
:104B700044100021DBF85C4420462574FEF7CEFF8C
:104B80002046802100224023C4F81061FEF7C6FFB2
:104B900084F8FC512662D4F8180228B1D4F8140223
:104BA00021794268204690479BF82804012802D1C9
:104BB000DBF8000009E0002180228BF82410DBF8EC
:104BC0000000A0F84C208BF82814B0F844104904D9
:104BD00042BFB0F8441021F48041A0F84410B0F86E
:104BE0004410890442BFB0F8441021F40051A0F8E9
:104BF0004410B0F84410C90417D5B0F8401021F0A3
:104C00000401A0F84010B0F8401021F00801A0F80D
:104C10004010DBF85C1491F8FD2181F8FC21B0F81C
:104C2000441021F48051A0F84410B0F84410090554
:104C300029D5B0F8401041F00801A0F84010B0F8B4
:104C4000441021F40061A0F84410B0F8401041F085
:104C50000401A0F84010B0F84410C90413D4DBF8E4
:104C60005C1491F8FC2181F8FD21042281F8FC21DB
:104C7000DBF8181039B14EF61051CEF200010A6877
:104C800042F006020A60B0F84410890513D5B0F866
:104C9000441021F40071A0F84410DBF85C1491F882
:104CA000FC21032A07D1D1F81422D2691AB108468F
:104CB0009047DBF80000B0F84410C90542BFB0F8D7
:104CC000441021F48071A0F8441003B0BDE8F08FC7
:104CD000FEE7B0B582B004460020019041F6702096
:104CE000C2F200000068C56915F0C00F08BF45F0AA
:104CF0004005280648BFFEF786FD680607D5502008
:104D000001218DF8040001A8FEF730FC40B9012014
:104D10008DF8054002218DF8040001A8FEF726FC5D
:104D200002B0B0BD41F20C0042F20C11C4F201001D
:104D3000C2F20001026882F4005202600A6800BFF9
:104D40000B689B1A512BFBD3F4E7000010B5044607
:104D50004FF0FF3020630020E070204601F010F893
:104D600008B1042010BD94F8320294F8331240EADE
:104D700001204AF6552188421CBF032010BD94F83B
:104D80003400E838032826D8022824D04BF2064CF9
:104D900004F16A000021C0F6000C00BF1CF80130CD
:104DA000425C022902D001319A42F7D09A4210D0D7
:104DB0004AF60E7204F186000021C0F6000200BF20
:104DC000535C445C042902D001319C42F8D09C42DF
:104DD00001D1002010BD022010BD00002DE9F04FD0
:104DE00085B006680021044600F012FA10B105B043
:104DF000BDE8F08F4FF0FF3704F120054FF0FF0BB7
:104E00004FF00D084FF0FF09E76200BFA16930467F
:104E100000F0B6FF0028EAD1D4F81CA09AF80000F0
:104E2000002800F0AB809AF80B20E52802F03F0143
:104E3000A17137D0120727D40F2927D05FEA0B6062
:104E400010D10020002100BFC9B21AF800200130A3
:104E50004B080B2843EAC1111144F5D1C8B2814572
:104E600000F08E8094F82B00C0071BD1002000BFFB
:104E7000295C1AF800200A2802D001308A42F7D0B3
:104E80008A420FD17CE000BF0F290BD194F82B1080
:104E900049060AD441060FD45FFA8BF1884202D149
:104EA00010E000BFE7624FF0FF0B2046002100F04A
:104EB00069F80028AAD09AE721699AF80D9000F0C5
:104EC000BF0BE1629AF80D008145ECD19AF81A0007
:104ED0009AF81B1040EA01200028E4D1CDE902969F
:104EE0004FF00009F06804909AF80000019000F07B
:104EF0003F0000FB08F0A0F10D08012047F2F4711B
:104F00000028C0F6000111F809101AF801205144D8
:104F1000497842EA012611D0B8F13F0F21D8304636
:104F200000F0C6F90746049830F8180000F0C0F900
:104F3000874216D108F10108304604E04FF6FF70B1
:104F400086420ED1002009F10109B9F10D0FD5D328
:104F500050B1019810F0400006D0049830F81800C5
:104F600010B14FF0FF0B01E0ABF1010B039EDDF838
:104F700008904FF0FF374FF00D0896E7042036E712
:104F8000002034E72DE9F04F81B00446006900F1BC
:104F90002007B7F5001F02D30020A0610EE0A06932
:104FA00060B13D46D4F800B06FF35F2555B10BEB0F
:104FB000050027613430E061002000E0042001B0EA
:104FC000BDE8F08F01300E46A061616991B14FF6E6
:104FD000FF70BBF80A20C0F21F00104400F5C000AB
:104FE00010EA572FE3D1584600F0D7F9022807D22C
:104FF0000220E4E7BBF80800B0EB571FCCD9D6E796
:105000008246013000F00181DBF8180082450FD2A2
:10501000AAF102060238C4F814A086422FBF00206D
:10502000DBF82C00BBF80A1006FB0100A061BEE70C
:10503000002EB1D06669D4F80090002E07D0484603
:10504000314600F0AAF902280DD2022090E0D9F8EA
:105050001080B8F1000F0FD0D9F81800804528BF94
:105060004FF001080AE08246013030D0D9F818002C
:10507000B046824502D277E04FF00108D9F814001B
:10508000002845D0B045B24626D1D9F818000AF11B
:105090000106D046864228BF02262068314600F02D
:1050A0007CF9824601305FD0BAF1000F11D0BAF11D
:1050B000010F59D0D9F81000C246414602280BD33F
:1050C000D9F81810884228BF5046804604E00020D6
:1050D0004EE0002EC2461FD14646CDF800A0D9F8BA
:1050E00018000136864228BF022602D3B8F1020F0B
:1050F0000ED32068314600F050F98246013033D09B
:10510000BAF1000F06D0BAF1010F2DD04645E6D115
:1051100001202DE0DDF800A0484631464FF0FF3277
:1051200001F044F9BAF1000F05D020B951464846C4
:10513000324601F03BF930B14FF0010A012808BFB7
:105140004FF0FF3A10E0C9F81060B246D9E9050106
:10515000023988429CBF0138C9F8140099F804004C
:1051600040F0010089F804000AF1010003280DD283
:105170004FF6F871C0F2FF0101EAC00040F2017180
:10518000C0F2020121FA00F0C0B218E7584602F05E
:10519000D1F8D0BBDBF81800AAF10206023886422B
:1051A00006D2DBF82C00BBF80A9006FB090002E0EF
:1051B000BBF80A9000200BF134080090CBF83000C7
:1051C0004FF400714046FBF751F8B9F1000F11D0D0
:1051D0004FF0000900984146012300EB090200202E
:1051E000FDF79AFE50B9BBF80A0009F101098145A3
:1051F000F0D305E000204FF0000901E0BBF80A0001
:10520000814502D1DBF8180004E70120D7E6000051
:10521000F0B581B004461F20CFF6E070014202D005
:10522000022001B0F0BD266821610D46A16869B178
:105230007089B5EB402F23D2B0698A1E02388242B2
:1052400032D2F06A738902FB03000BE03078032846
:1052500002D3B16A0029EBD13089B0EB551FDFD9F9
:10526000B06A00210028C4E90510D9D000EB552010
:105270006FF35F2571193431C4E906010020D0E7CE
:1052800047023046ED1B08E00229C9D3B0698142CC
:10529000C6D2BD42D1D32068ED1B00F07EF8014696
:1052A0000130F1D10120BCE70020C4E90510B7E7C7
:1052B0000021B1EB104F18BF704710B54BF2AC6234
:1052C0004BF268711FFA80FCC0F60002C0F60001C4
:1052D000BCF5805F38BF0A46B2F800E011E000BFBD
:1052E00051880432CBB2090A0EEB0304A44511D352
:1052F0000029194618BF002132F811E008BF02EB5F
:105300004302BEF1000F01D0F445E9D280B2BDE8FE
:10531000104070470829F9D8DFE801F0050A10129B
:105320001416181A1C00ACEB0E0032F81000EDE752
:10533000A0EB0E0101F00101401AE7E71038E5E7A4
:105340002038E3E73038E1E71A38DFE70830DDE7F7
:105350005038DBE7A0F5E350D8E7000040F2000248
:10536000C2F2000291421CBF4FF0FF30704740F67E
:105370000061CEF20001D1F88020D2071CBF09687D
:105380005FEAC17100D170474FF060410A68002A9E
:10539000FCD04FF0604108707047F0B581B0022931
:1053A00031D3054680690C4688422CD928780328D9
:1053B0002CD0022844D0012825D1686A04EB540778
:1053C00000EB5721284600F0DBFC00283FD17E1C73
:1053D0006FF35F27E81990F83470686A00EB562184
:1053E000284600F0CDFC90BB6FF35F26E20705EB8B
:1053F000060090F8340047EA002108466FF31F309A
:1054000018BF080900E0012001B0F0BD686A00EB98
:10541000D411284600F0B4FCC8B904F07F0005EBB5
:10542000800191F8340091F8352091F8363091F8E8
:10543000371043EA012142EA012161F31B20E3E72F
:10544000686A00EB1421284600F09AFC10B14FF076
:10545000FF30D9E7E0B205EB400090F8341090F847
:10546000350041EA0020CFE780B50268D2B10023C1
:10547000D15C0133202901D33A29F9D13A290ED13F
:105480004FF0FF3E022B0FD192F800C0ACF130017B
:10549000092909D8BCF1300F06D8D11801604FF0A6
:1054A000000E01E04FF0FF3E704680BD2DE9F04157
:1054B000ADF5007D68464FF48071FF22FAF7CFFE0C
:1054C00041F67027C2F2000738684169890224D08A
:1054D00041F20C08002440AD6E46C4F2010800BF42
:1054E00014F4E05F05D1D8F8001081F40051C8F839
:1054F0000010436B204629464FF480729847284697
:1055000031464FF48072FAF71EFE38B9386804F558
:1055100080644169B4EB812FE2D300200DF5007D5A
:10552000BDE8F081F0B581B041F20C0542F20C16F5
:1055300004460746C4F20105C2F2000617B1013F56
:1055400005E000BF2868274680F4005028603068D6
:105550003168091A0B29FBD3FDF7DEFF0128EDD1D5
:105560004FF40050686001B0F0BD000086B042F218
:1055700000094EF60C5440F200374FF6FF06C4F215
:105580000209CEF20004C0F2FA57D9F8000040F048
:105590001000C9F800002068304038432060FBF755
:1055A000B4F841F2040540F20408C4F20205C4F262
:1055B0000108686940F001006861686900F0010055
:1055C00000900098A86940F08050A861A86900F098
:1055D0008050009000982068304038432060206858
:1055E00000202073216860732168A0732168E07433
:1055F000216820752168A0752168E075D8F8000041
:10560000022161F31A60C8F80000286800F00C005D
:10561000042802D155F8040C1BE0286800F00C00A7
:10562000082802D12868C003F4D455F8040C40F4CB
:10563000803045F8040C42F20C10C2F20000016800
:1056400055F8042C920304D40268521A642AF7D93C
:1056500059E0286800F00C00082854D0602042F27D
:105660000C160021C4F24220C2F20006016031682B
:1056700055F8042C920104D53268521A022AF7D93F
:1056800041E0296821F400312960296821F474116E
:1056900001F5E811296001210160306855F8041C0A
:1056A000890104D43168091A0329F7D32BE0D9F80A
:1056B000000010F0060F0CD1D9F80000022161F3B0
:1056C0000200C9F80000D9F8000000F00700022825
:1056D00019D1286820F0F000286055F8040C8001EA
:1056E00011D52868022161F3010041F28831286058
:1056F000306800BF2A6802F00C02082A05D0326820
:10570000121A8A42F6D9FFF70DFBD9F8000000F013
:10571000070003280CD3D9F80000022161F302002E
:10572000C9F80000D9F8000000F007000228EAD10B
:105730002868042161F30A202860286820F460505A
:10574000286041F200202968C0F27A0001F00C02C2
:10575000082A15D1C1F383420FF20063C9039A5C92
:1057600005D440F60010C0F23D00504308E029681F
:1057700050430FF2F852C1F34041515CB0FBF1F0DD
:1057800029680FF2EC5241F22C47C2F20007C1F334
:105790000311515CC8403860FAF7B7FF286844F637
:1057A000D351C1F2620120F48000286038684EF2C3
:1057B0001007CEF20007A0FB01014FF0FF3000EB15
:1057C00091110020B0EB116F05D17960F021E175E6
:1057D0000721B8603960396841F0040139602168F7
:1057E000E07530683168091AB1F5FA7FFAD941F2EB
:1057F000285A41F2B45B40F60009C2F2000AC2F234
:10580000000BC4F20109DAF800009BF8004020F018
:105810000300CAF80000E00740F0488141F2B050B0
:105820000021C2F20000017041F2BC501C21C2F202
:105830000000FAF71BFD686902210124C00702BFBE
:10584000686940F001006861D8F800000090009895
:1058500020F00100009000980090009820F0E06097
:105860000090009800900098C8F80000686940F027
:1058700004006861686940075EBF686940F0040021
:105880006861D9F8000020F47000C9F80000D9F868
:10589000000040F43000C9F80000686940F00400DE
:1058A0006861686940075EBF686940F0040068612C
:1058B000D9F8000020F07040C9F80000D9F80000C5
:1058C00040F03040C9F80000686940F004006861A9
:1058D000686940075EBF686940F004006861D9F8F4
:1058E0000C0020F04000C9F80C00D9F8000020F0AE
:1058F0007060C9F80000D9F8000040F00060C9F8F5
:1059000000000120FAF7AAFD01200321FAF7A6FD05
:1059100041F224508BF80040C2F20000047041F2C2
:10592000BC500021C2F20000018341F2B050C2F22B
:105930000000017044F002008BF80000686940F438
:1059400080506861A86840F48050A86000BF00BF24
:1059500000BF00BFA86820F48050A8600820C7F8E6
:105960007402C7F8F40048F201004AF68001C0F260
:105970000800C0F21211FCF74FFE002840F0C7806B
:10598000DAF8000020F00300CAF8000041F22450C9
:10599000C2F20000017841F002010170032005907D
:1059A0000598411E002805910ED064249F20FCF725
:1059B000A1FA00940098411E00280091FAD10598A0
:1059C000411E00280591F1D142F2FE04C2F200040A
:1059D0002178FF2940F0808042F2001A4FF6FF71D3
:1059E000C2F2000ABAF80000884201D0FF281AD19A
:1059F0000121059105994A1E0029059213D06427BB
:105A00009020FCF70FFA00970098411E00280091A3
:105A1000FAD10598411E00280591F1D12178FF297E
:105A20005AD1BAF8000028B14FF6FF71884201D070
:105A3000FF281AD10121059105994A1E00290592D6
:105A400013D06427AB20FCF7EDF900970098411EB6
:105A500000280091FAD10598411E00280591F1D146
:105A60002178FF2938D1BAF8000028B14FF6FF712C
:105A7000884201D0FF282ED10121059105994A1EA7
:105A8000002905921FD064271520FCF733FA0097F0
:105A90000098411E00280091FAD10598411E002867
:105AA0000591F1D1BAF8000021780DE041F22451BE
:105AB00000284FF00102C2F200010A7027D0A007AF
:105AC0007FF52DAF4FE7FF21FF2905D14FF6FF727C
:105AD000904216D000E0FF2142F2001047F6280461
