:020000040800F2
:10000000404D002001010008030E00080909000806
:10001000010E0008D9020008B147000800000000E6
:10002000000000000000000000000000F12F0008A8
:100030001305000800000000050E00083133000819
:100040001B0100081B0100081B0100081B01000820
:100050001B0100081B0100081B0100081B01000810
:100060001B0100081B0100081B010008AF0300086A
:10007000BF030008F9030008250400083504000840
:1000800045040008550400081B0100081B01000876
:10009000513C00081B0100081B0100081B0100085F
:1000A0001B0100081B0100081B0100081B010008C0
:1000B0001B0100081B0100081B0100081B010008B0
:1000C0001B0100081B0100081B010008FB29000898
:1000D0001B0100081B0100081B0100081B01000890
:1000E0001B0100081B0100081B010008DFF80CD0F1
:1000F00000F084F800480047C1510008404D00203E
:100100000648804706480047FEE7FEE7FEE7FEE7B1
:10011000FEE7FEE7FEE7FEE7FEE7FEE74133000805
:10012000ED000008CAB2401E10F8011F8A4202D03A
:100130000029F9D100207047421C10F8011B00294A
:10014000FBD1801A704730B504460020034600E01A
:100150005B1C934203D2E05CCD5C401BF8D030BD09
:100160000022CBB20178994200D10246401C0029FE
:10017000F8D1104670472DE9F05F05460020924601
:100180009B4688460646814640241BE02846414659
:100190004746224600F053F853465A46C01A91414A
:1001A00010D311461846224600F03AF82D1A67EB94
:1001B00001084F4622460120002100F031F817EBDC
:1001C00000094E41201EA4F10104DFDC48463146FF
:1001D0002A464346BDE8F09F40EA01039B0703D04F
:1001E00009E008C9121F08C0042AFAD203E011F876
:1001F000013B00F8013B521EF9D27047064C074DF7
:1002000006E0E06840F0010394E8070098471034E6
:10021000AC42F6D3FFF76EFF1CBF00083CBF0008DE
:10022000202A04DB203A00FA02F1002070479140B6
:10023000C2F1200320FA03F3194390407047202AAB
:1002400004DB203A21FA02F00021704721FA02F380
:10025000D040C2F120029140084319467047D2B203
:1002600001E000F8012B491EFBD270470022F6E79F
:1002700010B513460A4604461946FFF7F0FF20461C
:1002800010BD70B58C1810F8015B15F0070301D193
:1002900010F8013B2A1106D110F8012B03E010F8E9
:1002A000016B01F8016B5B1EF9D12B0705D400230C
:1002B000521E0DD401F8013BFAE710F8013BCB1AAE
:1002C000921C03E013F8015B01F8015B521EF9D5A3
:1002D000A142D8D3002070BDFEE7000010B581B068
:1002E00041F2140CC4F2020CDCF8003043F040037D
:1002F000CCF80030DCF8003043F2000CC4F2020C01
:1003000003F040030093009B0123CCF80830002346
:1003100000BF00BF00BFB3EB910F0ED08B08C3F13D
:10032000000E00BF50F8043B1EF1010E83EA0203E9
:1003300093FAA3F3CCF80030F4D111F0030EDCF8FB
:10034000001091FAA1F213D048F2203CCEF6B85C2E
:10035000017882EA010308218CEA5302DC0708BF16
:100360005A0801391346F7D10130BEF1010EEFD121
:10037000D04301B010BD0000F0B581B0002900925B
:1003800012D00C4605460027E61B2846B6F5807FAE
:1003900028BF4FF48076009A3146FFF79FFF37441D
:1003A00035440090A742EFD3009801B0F0BD002083
:1003B000C4F20200016801F00F01416070470020A3
:1003C000C4F20200016801F0F0014160C16921F04E
:1003D0000101C161026A43F2F850C2F200000168F3
:1003E00012B101B17047002143F2EC520023C16009
:1003F000C2F20002137070470020C4F202000168CC
:1004000001F470614160016B21F001010163426BF5
:1004100043F2F850C2F2000001680AB101B170471E
:10042000016170470020C4F20200016801F47041CC
:10043000416070470020C4F20200016801F470219D
:10044000416070470020C4F20200016801F47001AD
:10045000416070470020C4F20200016801F0706141
:1004600041607047012818BF704741F21400C4F280
:100470000200026842F0010202604A1E062A3ED8CB
:100480000420C4F20200DFE802F0040A10171E255F
:100490002C0000220F2342604FF4006227E000226C
:1004A000F02382614FF4805221E000224FF4706308
:1004B000C2624FF400521AE000224FF4704302640B
:1004C0004FF4804213E000224FF4702342654FF452
:1004D00000420CE000224FF4700382664FF4803239
:1004E00005E000224FF07063C2674FF400320360F2
:1004F0004EF20010CEF20000C0F880210260012010
:10050000884040F25811C2F200010A781043087086
:10051000704770472DE9F04F82B041F2004204234A
:1005200040F2004C4FF6FF7B4FF0010E0F274FF0CB
:10053000000A4FF00009C4F20102C4F2010CC1F23A
:10054000100B904208BF0323009300230A680EFAA1
:100550000AF812EA080F00F0D2804E685E4509DC06
:10056000032E35D8DFE806F029023F43D1F80C907E
:1005700044E000BF4FF6FF72C1F2210296420DDC4B
:100580000022C1F21102964217D00022C1F21202DB
:10059000964212D00022C1F221020CE00022C1F2E8
:1005A0002202964209D00022C1F23102964204D0C2
:1005B0000022C1F23202964220D18A6882B1012A19
:1005C00014BFC0F81480C0F810804FF0080915E07F
:1005D000112E0FD0122E04BFCA6802F10C090DE0D3
:1005E0004FF004090AE0CA6802F1080906E04FF07A
:1005F000000903E0CA6802F1040900BF1A46054673
:10060000BAF1080F28BF203A28BF04352E6807FA30
:1006100002F409FA02F226EA040422432A60CA79A3
:10062000D2066CD541F2180203F00C06C4F20202A5
:100630001446126842F001022260226802F00102B0
:10064000019207FA06F2ACF57E77019C4FEA9A0414
:1006500057F82450954340F60002C4F2010290423C
:100660000ED040F60042C4F2010290420AD041F29C
:100670000002C4F201029042009A08BF022202E086
:10068000002200E00122B2402A4347F824204FF61E
:10069000FF77D1F804B0C1F210075FEACB32DCF883
:1006A000002054BF22EA080242EA0802CCF80020E7
:1006B0005FEA8B32DCF8042054BF22EA080242EAE7
:1006C0000802CCF804205FEACB22DCF8082054BFF3
:1006D00022EA080242EA0802CCF808205FEA8B22EC
:1006E000BB464FF00F0740F20C42C4F20102144621
:1006F000126854BF22EA080242EA080222600AF1A4
:10070000010A0433BAF1100F04BF02B0BDE8F08F44
:100710001CE740F2280044F6D351C2F20000C1F2B7
:1007200062010068A0FB01014FF0FF3000EB911166
:100730000020B0EB116F18BF70474EF21002F0238B
:10074000CEF2000251604EF60C51CEF20001CB7594
:100750000723906013600A68C8757047B0B50146FA
:1007600043F6CC40C2F200000029D0F85C440CD023
:10077000D4F814024269002A6ED094F8FC010328D0
:100780006AD12046BDE8B0401047D4F8F421022ACF
:100790005AD1D4E90732934214D900EB4110991A87
:1007A0000025C06BE16189B2D4F8202202F13C033C
:1007B00023C34FF48070114621F8280F106803F00E
:1007C0008BF91BE0A069904223D3B0FBF2F101FB4F
:1007D0001201F1B9D4F8F81188421AD2D4F82002E3
:1007E00000254FF480720146C0E90F55456421F899
:1007F000282F006803F070F9C4F8F851D4F82012DB
:10080000C1F83C52C1F84052C1F84452A1F82852F4
:1008100015E0D4F81402C16829B194F8FC0103284A
:1008200001D1204688470520C4F8F4010020D4F8FF
:100830002012C1E98F00C1F84402A1F8280208681B
:1008400001F50A7103F048F994F80002012802BF8B
:10085000002084F80002B0BDB0BD10B5014643F6DB
:10086000CC40C2F200000029D0F85C440BD0D4F890
:100870001402826952B394F8FC01032826D1204661
:10088000BDE810401047D4F8F421032A1ED1D4E962
:10089000433293421BD900EB4110991AD0F83C0225
:1008A000C4F80C119142D4F820324FF00004A3F8A0
:1008B000284238BF0A4691B203F50F7213C203F5FE
:1008C0000A711868BDE8104003F006B910BDD4F8ED
:1008D0001402016929B194F8FC01032801D12046D2
:1008E0008847042000214FF48072C4F8F401D4F842
:1008F0002002C0E90F114164014621F8282F006849
:10090000BDE8104003F0E8B8FEE7B0B5D0F81852E3
:10091000044695F81802D8B12046812102F09AFFCA
:10092000687A022818BFB0BDD4F8201205F503700C
:100930001F230022C1E997030120C1F86422A1F816
:100940004802086801F51271BDE8B04003F0C4B870
:10095000D5F814020028DFD0687A0028DCD12046C0
:10096000012102F077FFD7E710B5D0F81842627A7C
:10097000022A05D1812102F06DFF0020607210BDB6
:1009800049B2B1F1FF3FFADC012A08BF10BD0121D5
:10099000BDE8104000F0CFB810B50446D0F81802FA
:1009A000017ACA1E022A05D220460021BDE8104065
:1009B00000F0C1B8022910D190F8191200F21B22E0
:1009C000204601F099FBB0F1FF3FC8BF10BD2046A3
:1009D0000121BDE8104000F0AEB810BDB0B5D0F8B0
:1009E00018520446287A012834D0E8BBD5E984019E
:1009F000C5E98C01D4F82002B0F864021F2810D198
:100A000045F25531D5F80C02C4F24231884208D182
:100A100095F81912012904D895F81A0201381028FE
:100A200023D395F85D024FF4005205EBC00101306D
:100A3000C1F84022052281F83C2202216972C1B22C
:100A4000043918BF014685F85D122046BDE8B04064
:100A5000FFF75BBF95F8191205F21B22204601F043
:100A60004BFBB0F1FF3F34DDB0BD05F21B22204649
:100A700001F042FB297AB0F1FF3F28DD481E032830
:100A8000F2D3688958B3D4F818124FF0000C04233D
:100A900081F838C20B72D1F81432D1F83422834273
:100AA00038BF1846121AC1F8342205F10C01D4F8E7
:100AB0002022C2E9171040F201101146C2F864C0AA
:100AC00021F8480F1068BDE8B04003F005B80529CB
:100AD000BBD120460121BDE8B04000F02CB8204633
:100AE0000021BDE8B04000F026B870B5D0F818621B
:100AF000002504463581A6F85C52D0F81C02016836
:100B000000208847D4F82012012291F828040128F7
:100B100018BF81F82854A1F848221F2006F5037257
:100B2000C1E99720C1F86452086801F51271BDE867
:100B3000704002F0D1BF70B5D0F81852044645F2AB
:100B400055300026C5F2423085F83812C5F82C021F
:100B50002E720D2105F50B72D4F82002C0E9172181
:100B600040F201120146466621F8482F006802F063
:100B7000B3FFD4F820121F2005F50372C1E99720B6
:100B80000120C1F86462A1F84802086801F51271F9
:100B9000BDE8704002F0A0BFB0B543F6A82401251F
:100BA000C2F2000484F8FC51D4F81402217942689E
:100BB00020469047D4F8200290F82814012906D145
:100BC000002841D0032180F82914016823E001683E
:100BD00044F2FF2C0324B1F8402002EA0C02A1F8F1
:100BE00040200022A1F84050A1F84420A1F8404044
:100BF00080F8294480F828240168B1F8403003EADD
:100C00000C03A1F84030A1F84050A1F84420A1F80D
:100C1000404080F8282445F6004200F22940C4F202
:100C2000000291420ED141F21C01C4F202010A6895
:100C300022F400020A604EF280114FF48012CEF2CC
:100C400000010A6000210170B0BD000043F6A82C2D
:100C5000C2F2000CDCF8140210B10020CCF814022F
:100C600070B581B040F20C0043F6CC4145F6004629
:100C7000012200234FF0030E0824C2F200008CF87A
:100C8000FC21C2F20001C4F20006CCF810020220DE
:100C90008CF80030C1F85CC4CCF82012C1E90633EE
:100CA0000B62C1E90064C1E9020E91F8290480BB1E
:100CB00041F21C0081F828344FF0FF35C4F20200E5
:100CC000046844F400040460006800F4000000902C
:100CD00000984EF60C50CEF200000068C0F30220DF
:100CE000C41E80F0070038BF0024042828BF042059
:100CF00005FA00F00A2525EA0000A0404EF2001493
:100D00000001CEF2000484F814034FF48010206038
:100D10000E6881F829E444F2FF24B6F84000204030
:100D20000024A6F8400000200D182030AC8685F87D
:100D300028400134B0F5F07F85F82920C5E90E334D
:100D40002B6485F82B30EFD100220020002300BF58
:100D50000D18203085F8283285F82922C5E98E2221
:100D6000C5F8402285F82B22AB860133B0F5F07F21
:100D7000EED101200022A6F84000A6F84020A6F8F7
:100D80004420A6F85020B6F8403043F43F43A6F87C
:100D9000403081F8242081F829041821DCF8200251
:100DA000A0F82C12582180F8322280F8322080F8E6
:100DB00052208185982180F85222A0F84C10D82129
:100DC000A0F84C1240F2E801C2F20001CCF81C126B
:100DD00040F24401C2F20001CCF8141290F8281439
:100DE000012901B0BDE8704008BF70470168B1F843
:100DF000403043F43F43A1F8403080F82824704746
:100E0000FEE77047704700002DE9F04FADF52D7DEE
:100E100040F25C16884681464FF45051C2F20006FB
:100E20003046FFF723FA40F2081730463E22C2F25E
:100E30000007394603F0ECFC054606F5FE7007F1A5
:100E40004201042203F0E4FC40EA050407F13E05F8
:100E500006F500700422294603F0DAFC044306F587
:100E600080502946042203F0D3FC47F6B00106F572
:100E7000F05504432022C0F60001284603F0C8FCC8
:100E800044EA0002B8F1000F09D0B8F8040041F6B6
:100E90000861705241F60461D8F80000705043F6C2
:100EA0009420C2F200000078032802D0002840F00D
:100EB000DD840395CDE901294CF2FF394FF00F0E87
:100EC0004FF0000A40F6FF7BCFF67F5940F25C10EE
:100ED000C2F200000146407B096AB1FBF0F5A8B2FE
:100EE000022871D340F25C11CAEBCA000022C2F2A0
:100EF000000101EB402000F2032400BF20685FFAEC
:100F000082FCABB24FF6FF71022B20EA0B0040EAE5
:100F10008C0000F10306A088266032D000EA0108A8
:100F200040F2FF300CF10101032BCFF60070A4F862
:100F3000048000EA060040EA813020602FD019F1D9
:100F400040714FEA8C066EF11F070840711D042B9B
:100F500040EA016007EA0807206047EA112100EA39
:100F60000900A18029D0206001EA0E00B11D043DD6
:100F7000013240EA0110A080A8B206340128BDD891
:100F800022E008404FF20001A08040F2FF30C0F2A2
:100F9000FF01CFF6007030400843206014E019F1E3
:100FA000407100EA010040F07F4020606EF11F00B8
:100FB00000EA080040F00F0005E0206001EA0E00A2
:100FC0004FF6F0710843A0800AF1010ABAF1020F4E
:100FD0007FF47CAF4FF40D7006F0E2FB43F6A428DB
:100FE000814604AE2E21C2F20008C8F8000043F684
:100FF0003020C0F22F0010903046FFF737F9029CE6
:101000002046FFF799F8024630462146FFF7E4F8FC
:1010100030462F21FFF786F848B15F2404AD00BFAA
:10102000047028462F21FFF77DF80028F8D143F6F9
:10103000A02A47F6241140F25C1B4FF6FF72C2F261
:10104000000AC0F60001C2F2000BDAF8000000BF8F
:10105000CB68FF2B02D10B69934204D051F84C3F6F
:10106000002BF5D10021884218BF00286AD13046F4
:10107000FFF762F846F22E21C6F66961315030441E
:101080000021017110A89B909BA804F027F800286C
:1010900012DB43F25C51C2F2000151F820200AB188
:1010A00000231370B9F1000F1CBF002289F8002043
:1010B00041F82090002000E00B2043F68D29A796F0
:1010C000C2F2000989F80000A7A804F007F8002878
:1010D00036DB43F25C51C2F2000151F82070002F60
:1010E0004BD0397800294AD002979B97A79F9BAA9B
:1010F00001E000BF013738785C2818BF2F28F9D0ED
:1011000000209D903978202967D2802000218DF819
:1011100097029BA803F0B6FE0546002D00F07982E9
:10112000042D9BA840F0FB819DF8971211F0A00FB1
:1011300000F07D82062540F25C1BC2F2000BEEE15E
:101140000B25ECE104A8FEF7F7FF26288FD304ADAA
:10115000002700BF28465F21FFF702F80446284613
:101160002921FEF7FDFF844298BF441C28462770C2
:10117000FEF7E2FF2528EDD879E70C25CFE178705E
:101180000025384600213D7003F01AFC02281FD1CB
:101190009BAC0020214600BF3A18103092F8F6317F
:1011A000002B14BFD2F8FA21002241F8042B40286A
:1011B000F2D1002654F8265035B13846294603F0BE
:1011C000FFFB022801D27DE103200136042EF1D37A
:1011D000042840F075810125A1E14BF665340298A1
:1011E00002F1200E4FF0203CC0F60004C068013729
:1011F000002932D000224BB2B3F1FF3F01DDCBB268
:1012000008E04BF61C63C0F6000303EB41016FF0EE
:10121000FF03CB5A202B1ED35C2B4FF0000118BFCD
:101220002F2B1ED07F2B0CD8264600BF16F8011B93
:1012300009B18B42FAD106253F2A00F2708119B11B
:101240006DE13F2A00F23A8120F81230013217F89E
:10125000011B0029CFD1042103E00421002200E07A
:1012600001373B785C2B18BF2F2BF9D0002A00F0F8
:10127000238100EB4203524233F8026C2E2E18BF3A
:10128000202E03D1023B0132F6D115E10026524255
:101290001E8000BF30F816300136202BFAD02E2BDE
:1012A00041F0030508BF2946731E012E18BF2946C9
:1012B000851E00BF3AB135F81260013A2E2EF9D1E1
:1012C00002F1010B01E04FF0000BCEF807C0CEF8A1
:1012D00000C0CEF804C0ABF1010A4FF0080C4FF08B
:1012E00000084FF00009CDF800E000BF30F81360AF
:1012F0001D460133202E03D02E2E04D1AA451AD02C
:1013000041F00301F2E7002E6AD0E14562D2AA451E
:1013100060D0802E38D30025002400BF4BF61C621D
:10132000C0F6000232F81520B2421ED00135013459
:10133000802DF3D31AE001255B4643F68D2941F059
:101340000304BCF10B0FC2F2000900F0B080002DC5
:1013500008BF21465B4500F2AD804FEA88084FF098
:101360000B0C4FF008095B46C0E72C4604F18002E5
:1013700041F00201D6B2120606D547F6300406F057
:101380007F02C0F60004A65C56B14BF62614C0F6E8
:10139000000400BF14F8015B0DB1AE42FAD14DB1AB
:1013A00041F003015F269BAA4A4409F1010982F832
:1013B00020609BE7412EF6D35A2E02D848F002084F
:1013C000F1E7A6F1610292B2192A9CBF203E48F0D3
:1013D0000108E8E7AAEB0504B4FA84F46509ACE770
:1013E00043F68D290C46C2F200099DF88C0243F6A3
:1013F000A02A40F25C1B44F00201C2F2000AC2F2D1
:10140000000BE52804BF05208DF88C02BCF1080F05
:1014100008BF4FEA880808F00300032808F00C0012
:1014200008BF0C460C2808BF0C46A00707D41020A4
:1014300008F0040100EA081040EA410004439BA8B8
:101440008DF8974203F004FB05469DF89702002DA6
:1014500040F0068343F6A4284107C2F2000800F1D9
:10146000DA809DF87202C00640F105839F98029BC6
:101470006FF35F20191891F84E0091F84F2040EA61
:1014800002201A78032A06D134310A7D497D42EAC6
:10149000012140EA01409D904BF66534DDF800E003
:1014A0004FF0203C39789B98C0F600049EE64FF040
:1014B0000B0C9AE70C4698E70021018006252EE0E8
:1014C00001282BD897F83F0097F8401040EA0120F8
:1014D000B0F5007F22D197F84A0097F84B1040EA08
:1014E000012000B9B86DF86197F84430591EBB70FF
:1014F000012913D897F84120002A7A810ED0511E75
:1015000011420BD13C4697F8457094F8461047EAD3
:10151000012E3F07A4F808E000F017830D250024F2
:101520001194D8F80000C02289F8005000F134016D
:101530000398FEF751FE002C00F05D812078002812
:1015400000F05981E088BDF848102546814218BF57
:10155000002540F050819DF8540041060CD42078BD
:10156000002800F04881E088BDF84810814240F032
:101570004281002611963FE1000611D511A8189A64
:101580000123012600F12801002001F087FC00283A
:1015900040F032819DF8540000F07F008DF8540037
:1015A0001999284604F0D4FA0646002840F0248110
:1015B0001A98C17A41F02001C1721399119A0B0A4D
:1015C0008176C3761278032A03D10A0E090C42757C
:1015D000017514994BF2C032C5F65B020177C0F871
:1015E0001620002242820A0EC2770A0C090A82776C
:1015F00041770120E870284605F018FE002800F029
:10160000AF8006469DF8540000F0BF008DF85400EE
:10161000F2E09DF8970240B20028FFF64FAF9DF828
:10162000720210F0110F00F03382072577E79B9BC1
:101630004FF0000BDA6800BF32F81B100BF1010B02
:101640000029F9D10022A8AC811891F82010A154EA
:1016500001320C2AF8D19DF8AB220093D10700F09B
:101660001A8141F2210A402100F1200C01264FF09D
:10167000030E0DF52B784FF00009C0F2010A8DF82A
:101680009712DF68002100BF4218635C01310B290B
:1016900082F82030F8D1052E354615D93A883546DE
:1016A00092B100BF1023294602F00105520845EA15
:1016B0004105090448BF85EA0A05013B2946F3D1E3
:1016C00037F8022F002AEDD1072700BF29466EF315
:1016D0001F11392988BF073108F80710013F290970
:1016E000B9EB151F0D46F1D17E21002F08F8071028
:1016F0004FF0000108D000BF1CF80120202A03D0C1
:101700000131B942F8D300BF072F00EB010301F10B
:1017100001019ABF18F8072001372022082983F811
:101720002020F1D3674603F093F9002840F0A3800E
:101730000136009B9BA8BC464FF0030E642EA0D33D
:1017400043F6A42843F6A02A43F68D29C2F20008E6
:10175000C2F2000AC2F2000940F07D810725EAE4E6
:10176000287803283DD1287901283AD105F138009D
:101770004FF4FD71FEF77AFD45F252200024C4F2C9
:10178000611045F8340F4AF65520A5F8FE0147F2DE
:101790007220C6F24110C5F8E40155E9090155F877
:1017A000142C0B0E85F8E81185F8EC01013285F850
:1017B000EB310B0C090A85F8EA3185F8E911010EC5
:1017C000012385F8EF11010C000A85F8EE1185F868
:1017D000ED010020294645F8042C01F05FFB05F8D7
:1017E000304C9DF8540000F0BF008DF85400119C5F
:1017F000002C7FF4B4AE092610A889F800609B90F5
:101800009BA803F06BFC00280CDB43F25C51C2F296
:10181000000151F820200AB100231370002241F882
:10182000202000E00B22D8F8000089F8002005F005
:101830008FFF99F8000008B1FF2217E041F6DC6045
:101840000BEB000252F8241CA2F1200002460029F2
:10185000F8D0DAF8002001F50031002A1ABF5269E9
:101860009202002240F8041C0260019A50B20DF569
:101870002D7DBDE8F08F43F6A42843F68D2905465B
:101880000428C2F20008C2F2000940F0F6809DF878
:10189000AB228DF8972290074FF0010609D54EF63E
:1018A0004F410BF10B00C4F6C461A0FB010106EB34
:1018B00091069B9F9BA8002103F0E4FA43F6A4281D
:1018C00043F68D2940F25C1B05460028C2F2000851
:1018D000C2F20009C2F2000B18D100240DF51B7AE8
:1018E000A199384604F034F978B9A2980078E5282F
:1018F00000D018B90134B44201D10DE000245046A3
:10190000012103F079F90028EAD00546042D08BF2B
:101910000725002D40F0B580B6F1010B71D09F98DE
:101920009BAFA0EB4B11384603F0ACFA43F6A4286A
:1019300043F6A02A43F68D2905460028C2F2000886
:10194000C2F2000AC2F200097FF4F5AB4FF0000AC0
:1019500020205FFA8AF2395C013053082B2843EAD1
:10196000C21202EB010AF4D147F6D0094FF6FF7715
:101970000DF51B78C0F60009009CA199204604F0E3
:10198000E7F8002840F06781A29800220F23E16861
:101990000D260025A4464283A0F80B305FFA8BF396
:1019A00080F80DA073430D3B19F80240BD421ABFE9
:1019B00031F8135001334FF6FF752E0A0132002D16
:1019C00005550444667008BF3D460D2AECD1BD4262
:1019D00002D14BF0400106E031F8131000295946BE
:1019E00008BF4BF040010170012000218CF803007A
:1019F000404603F001F9002840F02D81BBF1010BB6
:101A0000BAD1A199009804F0A3F843F6A42843F6AC
:101A1000A02A43F68D2905460028C2F20008C2F22A
:101A2000000AC2F200097FF486ABA2982021FEF7DB
:101A30001DFC9BA8A29A00212030435C5354013125
:101A40000B29FAD19DF89702A29900F018000873AB
:101A500000990120C87040F25C1BC2F2000B17E035
:101A600043F6A428042DC2F200087FF456AB4007C9
:101A70009BA83FF559AB052551E540F25C1BC2F22E
:101A8000000B43F6A02A002DC2F2000A7FF447ADF6
:101A9000A298029B817EC27E41EA02241978032922
:101AA00005D1017D427D41EA022144EA01444BF225
:101AB000C0312022C5F65B01C0F80E100021418321
:101AC000C2721A78032A08BF8182C1610120002CEA
:101AD000D87000F09A80012C01D102251FE55646EE
:101AE000DDF86CA2DAF81800A0422BD9029825463E
:101AF000006B0090504611E0DAE90510821E914219
:101B000008D20131CAF814109AF8041041F001010A
:101B10008AF8041087426CD29B983D46294603F010
:101B200076FA0746013000F0A580002F61D0012F22
:101B300008D050462946002204F096FA0028DBD04F
:101B4000054600E00225B246E9E494F8477094F8AF
:101B5000486047EA062101B9616D94F8427094F833
:101B60004360029447EA0627002F3FF4D7AC434373
:101B700003EB1E163E44B142FFF4D0AC8C1B9442E2
:101B8000FFF4CCAC4FF6F67CB4FBF2F2C1464FF05A
:101B900000084FF6F674C0F6FF7C624538BF4FF080
:101BA0000308A24240F6F67438BF4FF00208A24282
:101BB00038BF4FF00108B8F1000F5DD002992E44F4
:101BC0002F440232B8F1030FCE62C1E908578A618F
:101BD00054D1029991F85E3091F85F704EEA03019A
:101BE00041EA072100295ED1029B196E996291009A
:101BF00054E0029F0099384603F0AAFF0546601E94
:101C0000B246002D38617FF48AAC029C206B19909B
:101C1000A2981A90817EC27E41EA02212278032A8C
:101C200005D1027D437D42EA032241EA024113913C
:101C300000254821C06914901194E0881895ADF8EA
:101C400054104FF40071ADF8480011A816952830D3
:101C5000FEF70CFB65E443F6A42843F6A02A43F6FE
:101C60008D290546C2F20008C2F2000AC2F200093C
:101C7000FFF761BA012566E70D2519E0BEF1000FF7
:101C800011D0F918029BB8F1020F99620FBF5100F1
:101C900002EB420102F0010202EB510101F2FF11DD
:101CA000B0EB512F0BD240F25C1B0D25C2F2000BA2
:101CB000C84643F68D29C2F20009FFF730BC0299ED
:101CC0004FF0FF30B8F1030FC1E904004FF080007E
:101CD000087132D1029991F8640091F8651040EAD8
:101CE0000120012829D10298691C03F031FF20BB93
:101CF00002990020087191F8320291F8331240EAFB
:101D000001204AF65521884217D1029845F2522106
:101D1000C4F26111406B88420FD1029847F27221E0
:101D2000C6F24111D0F81802884206D1029AD2F8C0
:101D30001C02D2F82012C2E90410029F43F268503C
:101D400040F25C1BC2F20000C2F2000B87F8008078
:101D5000C84643F68D290188C2F20009013101808D
:101D600043F26A50C2F20000F860F980FFF7BCB994
:101D7000B0B582B043F2F0550446C2F200052878AF
:101D8000800702D44FF0FF3034E043F2EC50C2F24F
:101D90000000007810B16FF001002BE043F2F45026
:101DA000FF21C2F20000C0F21801006808400121C2
:101DB000C0F208018842E5D140F610004FF48011CE
:101DC0000222C4F20100016015208DF8040001A870
:101DD000811C00F0A3FF68B943F2F850C2F2000082
:101DE00001E000BF00BFC1680229FBD19DF80700D8
:101DF000207000202978890719D543F2EC51C2F2EE
:101E00000001097899B943F2F451FF22C2F20001AE
:101E1000C0F21802096811400122C0F20802914282
:101E200005D140F610011022C4F201010A6002B08F
:101E3000B0BD000070B5064614460D46800407D1BB
:101E400041F20C00C4F20100016881F4005101600C
:101E500008A03146224605F011FA43F6A020294693
:101E60002246C2F200000068836B3046BDE8704035
:101E7000184700BF0A2072645F61646472202D3EBF
:101E800020307825303578202020636E74202D3E58
:101E9000203078253033780010B584B043F2F05408
:101EA00000210391CDE90111C2F2000421788907D4
:101EB0003AD543F2EC51C2F200010978A1BB43F2DA
:101EC000F451FF22C2F20001C0F218020968114069
:101ED0000122C0F20802914226D140F610014FF4CF
:101EE0008012C4F201010A608DF8040001A80622E4
:101EF000811D00F013FFB8B943F2F850C2F20000A0
:101F000001E000BF00BFC1680629FBD144F22E10DA
:101F10009DF80E109DF80F20C2F20000017044F2EF
:101F20003010C2F2000002802078800719D543F2F9
:101F3000EC50C2F20000007898B943F2F450FF214F
:101F4000C2F20000C0F21801006808400121C0F28E
:101F50000801884205D140F610001021C4F20100AA
:101F6000016004B010BD000010B582B043F2F0541F
:101F70000021CDE90011C2F20004217889073BD588
:101F800043F2EC51C2F200010978A9BB43F2F451CB
:101F9000FF22C2F20001C0F21802096811400122BA
:101FA000C0F20802914227D140F610014FF480128E
:101FB000C4F201010A608DF8000068460422011D88
:101FC00000F0ACFEC0B943F2F850C2F2000000E0ED
:101FD00000BFC1680429FBD144F22E109DF8051002
:101FE000C2F200000170BDF8060044F23011C2F2E6
:101FF000000100BA000C08802078800719D543F250
:10200000EC50C2F20000007898B943F2F450FF217E
:10201000C2F20000C0F21801006808400121C0F2BD
:102020000801884205D140F610001021C4F20100D9
:10203000016002B010BD0000B0B582B043F2F055AF
:102040000C46C2F200052978890702D44FF0FF3010
:1020500032E043F2EC51C2F20001097811B16FF0A5
:10206000010029E043F2F451FF22C2F20001C0F264
:102070001802096811400122C0F208029142E5D11C
:1020800040F610014FF48012C4F201010A608DF88D
:10209000040001A80222811C00F040FE60B943F256
:1020A000F850C2F2000000E000BFC1680229FBD175
:1020B0009DF80700207000202978890719D543F280
:1020C000EC51C2F20001097899B943F2F451FF22B0
:1020D000C2F20001C0F21802096811400122C0F2E8
:1020E0000802914205D140F610011022C4F201010C
:1020F0000A6002B0B0BD00002DE9F04182B0044694
:10210000107816460D46192813DDA0F11A01102982
:102110002CD8DFE801F048094141094141414159CA
:10212000417D41419541D900D4F8180200254581EF
:102130001CE2002800F00C81032800F02381122803
:102140002AD17178D4F81802C90740F05781D4F821
:102150001C2205EBC501D26902EB81010A79531DEE
:1021600032799A4240F2E3811A4649E12F2800F081
:1021700033815A2810D1D4F8180208210FF2B04246
:1021800041811330002100BF5318DB7943540139DA
:1021900011F10803F8D13CE1D4F8180290F85D126F
:1021A0004FF400533BE1D4F8180208210FF28842A3
:1021B00041811330002100BF5318DB7943540139AA
:1021C00011F10803F8D124E1D4F81862002069461F
:1021D0000DF1060270613061F060D4F81C024368B2
:1021E0002846984700BB08200221F0730098B1826E
:1021F0000138010AF074B174010C000E717430746E
:102200000C21BDF80600F075000A7181B07500E17F
:10221000D4E98660436806F5187106F25E22284606
:102220009847002800F00181D4F818024FF4685351
:1022300090F85D1200EBC102C2F8403202238BE13C
:10224000D4F81872387AB846002800F002814FF4AA
:1022500000767E8108F10C07B8F85E02D8E9991380
:10226000B1FBF0F2B3F5007F38BF1E46B6FBF0F0CD
:10227000394683B2D4F81C02D0F810C02846E04793
:10228000B0F1FF3F40F35881D4F82002002540F21E
:1022900001120146C0E91776456621F8482F00680B
:1022A00001F01AFCD8F83402D8E99912921B314493
:1022B000A0EB0600C8E99912C8F8340240F0568134
:1022C000032088F80800A4E0D4F81872387A0028AF
:1022D00000F0E380B7F85E02D7E9991607F10C0821
:1022E000B6F5007FB1FBF0F228BF4FF40076B6FBE5
:1022F000F0F0414683B2D4F81C02D0F814C028464E
:10230000E047B0F1FF3F40F31C81D7F83412D7E922
:1023100099028319901BA1EB0601C7E99930C7F810
:10232000341200F02781D4F82012B0F5007F28BFC6
:102330004FF400700025C1E997800120C1F8645274
:10234000A1F84802086801F5127101F0C5FB0DE122
:10235000D4F81862D6F81402002800F0CA8096F863
:102360005D024FF4005206EBC0010130C1F840227B
:10237000052281F83C22C1B2043918BF014686F813
:102380005D12F2E0D4F81842112104F10D00FDF7BE
:102390006DFF0C20E0747020207394F85C0294F8B8
:1023A0005D12884211D004EBC001013091F83C224B
:1023B000A27391F841222276C2B2043A18BF0246B3
:1023C00091F8400284F85C226076122060813079B6
:1023D000122898BF60811CE07178D4F81802890730
:1023E00019D4D0E99812B0F868321A448A427FF6BC
:1023F0009DAE90F85D124FF4045310E090A10722B7
:10240000428100BF013A93B2CF5CC618002B3773EC
:10241000F8D10025AAE090F85D124FF4105300EBBC
:10242000C102C2F84032052396E00025082035821B
:102430007081B6F85E02F074000AD6F860120139B5
:10244000F173B074080AB073080C7073080E30731F
:102450008CE097F91802002838DAD4F81C02816859
:102460002846884700287FF4DFAED6F8020000BA7D
:10247000C7F86402F179327A42EA0121C7F868129A
:102480000A18D4F81882D8F860329A4240F2AF8025
:1024900098F85D024FF40452BAE097F91802B0F1CF
:1024A000FF3F13DDD4F81C028168284688470028C6
:1024B0007FF4BAAED4F81C02C168284688470028C9
:1024C00061D0D4F818024FF41C53B1E697F85D02BE
:1024D0004FF4005207EBC0010130C1F84022052241
:1024E00081F83C22C1B2043918BF014687F85D1259
:1024F0003BE0D4F81C0281682846884700283FD07A
:10250000D4F818024FF4685390F85D1200EBC10242
:102510000131C2F84032022382F83C32CAB2043A96
:1025200018BF0A4680F85D22052030721DE0002A9F
:1025300042817FF467AF6CE7D4F818024FF48853F8
:1025400003E0D4F818024FF4407390F85D1200EBEA
:10255000C102C2F840320423013182F83C32CAB2CF
:10256000043A18BF0A4680F85D22FF2568B202B01F
:10257000BDE8F081204600210025FEF7DCFAF5E7F2
:1025800000257581F2E7D6F8020002BAC7F8642286
:10259000F079317A41EA0021C7F868128B18D4F833
:1025A0001802D0F86062B3423FF623AFB7F85E324C
:1025B00059435A43C7E99921D7F814228A427FF434
:1025C000EDAD0120002507F10C03B1F5007F387255
:1025D000D4F8202228BF4FF40071C2E99731C2F825
:1025E0006452A2F8480202F512711068ADE60222A8
:1025F0003A72B7F85E2251435043C7E99901D7F8C0
:10260000140288423FF423AE98F85D024FF4005262
:1026100008EBC001C1F840220522013081F83C22BC
:10262000C1B2043918BF014688F85D129DE700BFAA
:102630000006000000000000000000000000000094
:1026400000000003008083002DE9F04143F2F05CBC
:10265000C2F2000C9CF800309A0702D44FF0FF320F
:102660002FE0C5B2142D24D143F20000C4F20100C2
:10267000818821F0020181801C21C4F202014A6993
:1026800022F001024A61828822F0010282800868F9
:1026900020F00100086043F2F8501C21C2F2000053
:1026A000FDF7E4FD43F2EC500022C2F2000002709C
:1026B00007E043F2EC52C2F20002127822B16FF04E
:1026C00001021046BDE8F081132D20D86FF00602FC
:1026D00000260024DFE805F0100B0E0A0A1B1B1B66
:1026E0001B1B1B1B1B1B1B1B1E2E3D43E9E704244E
:1026F000012601E000240226C0F30222032A48D862
:10270000DFE802F04F024A4D44F0010449E06FF067
:102710000302D6E745F200120020C0F2252200BFD6
:102720000746072800F29F8022FA07F3781C994297
:10273000F6D39DE043F200004AF20021C4F201000A
:10274000C0F24A410088C0F3C200013021FA00F211
:10275000B7E743F2F850C2F2000001834BE143F2C5
:10276000F450FF22C2F20000C0F2180200681040CC
:102770000122C0F2080290427FF470AF40F60000E0
:1027800000290CBF10214FF48011C4F20100016137
:1027900031E16FF0070294E744F0020401E044F0F5
:1027A000030400F47C32B2F5004F04D0B2F5803F50
:1027B00035D104F500648022022E02EAD02244EAD8
:1027C000020E2FD0012E4CD1C0F3C14001287BD086
:1027D000022800F09C80032840F0BC8041F21800E1
:1027E000C4F20200026842F004020260026852076A
:1027F0005EBF026842F00402026040F60000C4F2CC
:102800000100026822F470220260026842F4302261
:1028100002600120C0F2080000F58010B2E06FF005
:1028200008024EE741F218028002C4F20202146864
:1028300034D444F004001060106840075EBF106894
:1028400040F00400106040F60000C4F2010002688D
:1028500022F470220260026842F4302202600220F8
:1028600090E000208EE0082F3FF4F8AE22FA07F344
:102870008B423FF6F3AE43F20000C4F20100018840
:1028800021F040010180018821F0380141EAC701AF
:102890000180018841F040010180ACE060075EBF2B
:1028A000106840F0040010604EF4007E40F6000016
:1028B000C4F20100026822F4702202600268026021
:1028C0000220C0F220005DE041F218004EF4407E8C
:1028D0004FF02008C4F20200026842F004020260D5
:1028E000026852075EBF026842F00402026040F6CE
:1028F0000000C4F20100026822F470220260026843
:1029000042F4403202600120C0F208003CE041F293
:1029100018004FF02408C4F20200026842F00402DA
:102920000260026852075EBF026842F00402026061
:1029300040F60000C4F20100026822F47022026036
:10294000026842F4302202600120C0F2080000F563
:10295000002019E041F218004EF4407EC4F202005B
:10296000026852075EBF026842F00402026040F64D
:102970000000C4F20100026822F4702202600268C2
:10298000026001204FF0200845F2001500240026C7
:10299000C0F225252246072E07D825FA06F702F1B0
:1029A00008040136B942F5D304E0082E3FF456AED0
:1029B00025FA06F78F423FF651AE43F2F45142EA50
:1029C0000E02C2F20001086043F200018007C4F267
:1029D000010143F004000C8824F040040C80A1F8AD
:1029E00004800A8008BF03F0FB008CF80000088810
:1029F00040F040000880002263E643F20000C4F289
:102A0000010001894A0631D50188090510D443F235
:102A1000F85290F80CC0C2F200021368D1689942D3
:102A20001CD25368D3B1591C516083F800C015E023
:102A300043F2F852B0F80CC0C2F200021368D16839
:102A400099420BD253684BB1591C516083F800C0B6
:102A500051684B1C53604FEA1C220A7043F2F85134
:102A6000C2F20001CA680132CA6001898A0644BF05
:102A70000288028010B5CA073FD0828852063CD532
:102A800043F2F85EC2F2000EDEF80030DEF80C20F1
:102A90009A4232D2028812050AD490F80CC0DEF8AD
:102AA0000430BBB15A1CCEF8042083F800C011E0FA
:102AB000B0F80CC0DEF8043063B15A1CCEF8042024
:102AC00083F800C0DEF80420531CCEF804304FEA2F
:102AD0001C231370DEF80C30DEF800200133934223
:102AE000CEF80C3009D18288002322F04002828087
:102AF00043F2EC52C2F200021370890744BF81888E
:102B00005FEA016100D410BD43F2F85CC2F2000C30
:102B1000DCF80020DCF81030934228BF10BDB0F87C
:102B200000E0DCF808405FEA0E510DD4002C0FBF26
:102B30009CF81810611CCCF8081021780173DCF89F
:102B40000020DCF810300FE05CB1611CCCF80810FC
:102B5000214611F802EBCCF8081061784EEA012109
:102B600001E0BCF818108181591CCCF8101091427A
:102B700002BF818821F08001818010BD10B502461E
:102B80006FF00400002A5DD000295BD043F2F050C2
:102B9000C2F200000078400755D543F2EC5EC2F265
:102BA000000E9EF8000010B16FF0010010BD43F25E
:102BB000F450C2F2000000780138012843D843F2F3
:102BC000F85C012300201C248EF8003043F2000E34
:102BD000C2F2000CC4F20204CCE90012CCE90200FB
:102BE000CCF81000C4F2010EBEF800301B0540F214
:102BF000825358BF822323600EF10C03A360E2606E
:102C00006160226842F001022260BEF8042042F0B6
:102C10000102AEF80420BEF80020120540F2125264
:102C200058BF12226261E3610CF118022262A161B5
:102C3000616941F001016161BEF8041041F00201D7
:102C4000AEF8041010BD4FF0FF3010BDB0B5024615
:102C50006FF00400002A5DD000295BD043F2F050F1
:102C6000C2F200000078400755D543F2EC5EC2F294
:102C7000000E9EF8000010B16FF00100B0BD43F2ED
:102C8000F450C2F2000000780138012843D843F222
:102C9000F85C012300201C248EF8003043F2000E63
:102CA000C2F2000CC4F20204CCE90010CCE902200C
:102CB000C4F2010ECCF81000BEF800300EF10C0585
:102CC0001B0540F2025358BF02232360A5600CF19C
:102CD0001403E3606160236843F001032360BEF8DE
:102CE000043043F00103AEF80430BEF800301B0599
:102CF00040F2925358BF92236361E5612262A16161
:102D0000616941F001016161BEF8041041F0020106
:102D1000AEF80410B0BD4FF0FF30B0BD10B50446A2
:102D20006FF00400002C56D0002954D0002A52D055
:102D300043F2F050C2F20000007840075CBF4FF051
:102D4000FF3010BD43F2EC5CC2F2000C9CF80000B6
:102D500010B16FF0010010BD43F2F85E01208CF855
:102D6000000043F2040CC2F2000E0020CEE9002164
:102D7000CEE90240CEF81000C4F2010C40F2825EAF
:102D80003CF8043C1B0558BF4FF0820E1C23C4F2D4
:102D90000203C3F800E00CF1080EC3F808E0D960A4
:102DA0005A60196841F001011960BCF8001041F047
:102DB0000101ACF8001092215961C3F81CE01C62BB
:102DC0009A61596941F001015961BCF8001041F064
:102DD0000201ACF8001010BDA0B943F6A020C2F269
:102DE0000000006840B14FF6FE734069C0F27F03F7
:102DF00003EA40001D3001E040F61D0008604FF47A
:102E0000007010800020704700207047002070473D
:102E10000020704743F68820C2F20000007800F0DE
:102E200001004042704780B501282DD0B8B91D2A55
:102E300017D343F69420C2F20000007898B943F605
:102E4000A020C2F20000006868B14CF20060CFF62A
:102E5000FF7000EB42205A02FEF7ECFF14E0012065
:102E600080BD1B2A05D35A0208461146FDF7FEF91C
:102E70000AE040F25C10C2F2000000EB422C08466F
:102E80005A026146FDF7A8F9002080BD80B5FFF722
:102E9000CAFF002818BF0120400080BDF0B581B0F6
:102EA000012800F0998038B943F69620C2F200005C
:102EB000007818B1FF2090E001208EE01E461446F5
:102EC0000D461D2A16D344F23410C2F200000168E8
:102ED00000294DD043F69820C2F200000068C217C6
:102EE00000EBD2501D2202EB6020A04240D140F204
:102EF000541740E00F2C32D143F69420C2F2000068
:102F00000078013801282ED8E86B60B343F6982189
:102F1000002005F1DC02C2F20001086052F820092D
:102F20000028FBD0086043F6A021C2F20001096826
:102F30004969B0EB812FBDD8C11740F2FF1200EBF9
:102F4000D1519143401A44F23411C2F20001086099
:102F500044F2321118BF0120C2F200010870A4F13E
:102F600010000D281CD340F25C10C2F200000AE0F1
:102F700040F254177102C2F200073A682846FDF782
:102F8000FBF938600020710200EB44208AB2294628
:102F900001F03EFC20B143F69721C2F20001087017
:102FA00043F69820C2F200000068012814DB44F2C6
:102FB0003211C2F20001097801EB50201C30A0420E
:102FC0000AD143F68E200121C2F20000017043F6BF
:102FD0008820C2F200000170002040B201B0F0BDB4
:102FE00080B5FFF75BFF002818BF0120400080BDBF
:102FF0007047000081B040F6084100208DF80300C2
:10300000C4F201010A6892051CD444F23C10C2F2D9
:10301000000000BF026800BF03689B1A022BFBD3AD
:103020009DF80320092A09D89DF8032001328DF864
:1030300003200A689205EDD5002003E000208DF8FA
:103040000300012001B07047B0B543F2F0550C46C3
:10305000C2F200052978890702D44FF0FF302FE033
:1030600043F2EC51C2F20001097811B16FF0010096
:1030700026E043F2F451FF22C2F20001C0F218022E
:10308000096811400122C0F208029142E5D140F6E0
:1030900010014FF48012C4F201010A602146FFF7CB
:1030A000D5FD68B943F2F851C2F20001C868A042E8
:1030B00001D1002004E0002000BFCA68A242FBD179
:1030C000297889071AD543F2EC51C2F20001097838
:1030D000A1B943F2F451FF22C2F20001C0F218027A
:1030E000096811400122C0F20802914218BFB0BD28
:1030F00040F610011022C4F201010A60B0BD0000C8
:103100002DE9F04F83B0154644F238129946212339
:103110000126C2F200021288571E00BF9C1E013B0E
:1031200006FA04F43C42F9D08DF80800B1FBF2F045
:1031300000FA03F300FB12101F0C18438DF80970FE
:1031400043F2F0578DF80B00000AC2F200078DF829
:103150000A003878800702D44FF0FF3007E043F2CE
:10316000EC56C2F20006307820B16FF0010003B0D7
:10317000BDE8F08F43F2F45B40F2FF0A0124C2F293
:10318000000BC0F2180AC0F20804DBF8000000EAE5
:103190000A00A042E0D140F610014FF48010C4F2C2
:1031A0000101086002A80421FFF750FD90B13878B2
:1031B0008007D1D530780028CED1DBF8000000EAB6
:1031C0000A00A042C8D140F610011020C4F201014B
:1031D0000860C1E743F2F858C2F2000801E000BFFE
:1031E00000BFD8F80C000428FAD175B1B9F1000F6E
:1031F0000BD028464946FFF729FD0028D7D100E02B
:1032000000BFD8F80C004845FAD138788007A3D51C
:1032100030780028A9D1DBF8000000EA0A00A042BB
:103220009AD140F610011020C4F2010108604FF657
:10323000D770ADF80800307800287FF496AF4FF4CF
:103240008010086002A80221FFF700FD0028AED11F
:1032500000E000BFD8F80C000228FAD10DF10700F9
:103260000121FFF78BFC08B1A1E700BFD8F80C00E3
:103270000128FAD19DF90700B0F1FF3FEEDC387864
:1032800080077FF569AF307800287FF46EAFDBF8F8
:10329000000000EA0A00A0427FF45EAF40F6100191
:1032A0001020C4F201010860002060E780B582B000
:1032B000042001218DF807000DF10700FFF7C4FE7F
:1032C00068B900200DF107018DF807000520FEF711
:1032D000B3FE20B99DF80700800140B2C01102B0D2
:1032E00080BD80B582B00DF107010520FEF7A4FE78
:1032F00018B99DF80700800717D4062001218DF822
:1033000007000DF10700FFF79FFE78B900200DF1CF
:1033100007018DF807000520FEF78EFE30B99DF8F5
:103320000700C0F34000013800E0002002B080BD7B
:1033300044F23C10C2F200000168013101607047A4
:1033400041F200000022C4F20200CFF6FF02016841
:1033500041F001010160416811404FF6FF72416088
:10336000CFF6F662016811400160016821F4802106
:103370000160416821F4FE0141604FF41F0181604A
:103380004EF608504FF00061CEF200000160704729
:1033900080B504A000F068F843F21860C2F20000A3
:1033A00080BD00BF4D534320436F6E6669670000C8
:1033B0001220088040F22C00C2F20000704700008A
:1033C00080B504A000F050F843F21860C2F200008B
:1033D00080BD00BF4D534320496E746572666163C2
:1033E000650000000420088040F24000C2F20000A6
:1033F0007047000080B504A000F036F843F2186072
:10340000C2F2000080BD00BF53544D6963726F6506
:103410006C656374726F6E696373000080B504A09D
:1034200000F022F843F21860C2F2000080BD00BF35
:1034300053544D3332204D6173732053746F726156
:103440006765000080B504A000F00EF843F2186034
:10345000C2F2000080BD00BF30303030303030303C
:10346000303031410000000080B558B3027862B1BD
:10347000431C002213F801CB0132BCF1000FF9D13B
:10348000D2B2022303EB420200E0022243F2186EA2
:1034900003230A80C2F2000E8EF801308EF800205D
:1034A00002787AB1013002234FF0000CD9B2023316
:1034B0000EF8012041F001010EF801C010F8012BB7
:1034C000002AF3D180BD10B5D0F820E201F07F0CC6
:1034D0000B060EEB4C1000F1280258BF00F50A72E3
:1034E000C809507082F800C09EF82834012B01D121
:1034F00010216FE00123490048F2800C8EF8283437
:10350000C9B2937ADEF8002032F8114002EB410193
:1035100043B304F4804280B33AB1088840F60F7296
:1035200010400CF58042104308800888400607D5FB
:10353000088840F60F7210400CF1400210430880DA
:10354000088840F60F7210400CF58042104340F698
:103550003F7208800888104040EA0C00088043F65B
:103560000F732FE0E8B360062AD5088840F60F7283
:1035700010400CF14002104321E03AB1088840F6B7
:103580000F7210400CF580421043088008884006F6
:1035900007D5088840F60F7210400CF14002104326
:1035A0000880088840F60F7210400CF1400210436A
:1035B00043F60F7208800888104040EA0C0008802B
:1035C00040F63F730888184040EA0C00088000214C
:1035D0008EF8281440F20020C0F20120C840C0B28A
:1035E00010BD6004BBD5088840F60F7210400CF582
:1035F00080421043B2E7000070B5D0F820C201F05D
:103600007F0E0D060CEB4E1404F1280058BF04F594
:103610000A700361CB09437080F800E0C2709CF827
:103620002844012C01D110200CE10124032A8CF83C
:103630002844DCF800400DD8DFE802F0020F192121
:103640004A0048F68F16D5B234F81520324002F5FC
:1036500000721DE04A00D5B21CE04A0048F68F1601
:10366000D5B234F81520324002F5806210E04A00ED
:1036700048F68F16D5B234F81520324008E04A00DB
:1036800048F68F16D5B234F81520324002F5C062E4
:1036900024F8152034F8152040F60F7632401143F7
:1036A00048F28002114324F8151004EB4501857A95
:1036B000002D48D00D8840F60F66002B05EA060560
:1036C00002F5807645EA06050D80C588B4F850609D
:1036D00006EBCE0625F0010504EB4606C6F80054BD
:1036E0000089B4F8505005EBCE0620F0010004EB41
:1036F0004606C6F80804088800F4804040D038B177
:10370000088840F60F73184002F58043184308807C
:103710000888400607D5088840F60F73184002F164
:10372000400318430880088840F60F73184002F5DC
:103730008043184340F63F7308800888184043F6DA
:103740000F73104341E08588B4F85060002B06EBFE
:10375000CE0625F001053DD004EB4600C0F800542C
:103760000888400607D5088840F60F73184002F114
:10377000400318430880088840F63F7320325BE01E
:1037800038B1088840F60F73184002F5804318439B
:1037900008800888400607D5088840F60F7318404F
:1037A00002F1400318430880088840F60F73184060
:1037B00002F14003184343F60F730880088818404D
:1037C00002F54053584040F63F730880088818407F
:1037D000104333E004EB46064FEACE03C6F8085424
:1037E00004F20C45B4F85060006933443F280BD311
:1037F000460140F2FF34C00626EA040608BF06F57B
:10380000F84646F4004004E000F0010606EB5000E4
:10381000800280B245F813000888400407D5088864
:1038200040F60F73184002F580431843088008885B
:1038300043F60F7302F540521840504008800020B4
:103840008CF8280440F20021C0F2012121FA00F096
:10385000C0B270BD10B5D0F8200201F07F020C0696
:103860004FEAD11400EB421300EB411C4FF0010171
:1038700003F1280358BF0CF50A735C701A70997035
:1038800090F82834012B08BF10BD80F82814002AB6
:1038900001680DD031F822C0520049F2800EA4B167
:1038A00040F63F73AEF57F6403EA0C03634012E019
:1038B0000B8843F63F74234049F28004CFF6FF742F
:1038C0001034634021F8223007E043F60F7303EA17
:1038D0000C0383EA0E0321F81230002180F828142B
:1038E00010BD80B5FDF758F8002080BD80B5FDF70C
:1038F00075F8002080BD10B501210446FFF7E3FDF7
:1039000020468121FFF7DFFDD4F81812002000299E
:10391000087201D0C4F81802002010BD0A210180ED
:1039200040F2BC00C2F2000070472021018040F24A
:103930007C00C2F2000070472021018040F29C0010
:10394000C2F2000070472021018040F2C800C2F29C
:103950000000704710B50446007C50B1204601219C
:1039600002224023FFF748FE204681210222402305
:103970000BE02046012102224FF40073FFF73CFECA
:103980002046812102224FF40073FFF735FE43F6F3
:103990001800C2F20000C4F818022046FDF7A5F88E
:1039A000002010BD70B50446D0F8186208780D46A6
:1039B00010F060011ED0202940F08B806978FF292B
:1039C00035D0FE2935D1698899BB000631D5E88804
:1039D00001282ED1D4F81C02806980473060022073
:1039E000C4F8F4010120C4E90600D4F82022002420
:1039F000D66311E06878012825D00B2839D00A2831
:103A000067D101200221C4E90600C4F8F411311D78
:103A1000D4F820220024D16310644FF48070114642
:103A2000546421F8280F106800F056F852E06988B5
:103A300011B320468021FFF70DFF20460021FFF73C
:103A400009FF022446E0D4F82012A88891F828241F
:103A5000012A1CBF002281F82824C1B22046FFF7AA
:103A600032FDA988207C09061FD420B320460121FD
:103A70001EE0A87870602CE00006DAD4E888002800
:103A8000D7D14FF48070012230811F20D4F820124A
:103A90000024A1F8482206F50372C1E99720C1F875
:103AA0006442086801F51271BEE738B120468121F1
:103AB0000222402307E02046012101E02046812127
:103AC00002224FF40073FFF797FD29792046FCF797
:103AD0004BFF0024204670BD70B50A698E691346FD
:103AE000964288BF3346A3EB02038B6188BF16461C
:103AF0004A788B7A012A36D1CBB30B7830F8232061
:103B0000B0F8505005EBC3055B0000EB4505C5F868
:103B10000464B6B2751C0026B6EB550F14D05206DD
:103B20004FEA55064FF00802C6F1000458BF0622BE
:103B30008A5A496900EB420202F5806231F8026B51
:103B4000013422F8046BF9D130F8131040F60F72EB
:103B500011404BF28002CFF6FF7202F58052114302
:103B600020F8131022E043B36AB3097864E0B2B2DC
:103B700000230132B3EB520F0ED08B8852084C69F0
:103B8000524200EB430303F5806300BF34F8025B4D
:103B9000013223F8045BF9D1B0F85020097802EB28
:103BA000C1024B0000EB4202C2F8046400EB430088
:103BB00048F2B00140F63F7244E0B0F85020097876
:103BC00002EBC10C20E0B0F85020097800F2044369
:103BD0003F2E02EBC10E4FEAC10C0AD3720140F234
:103BE000FF34A243F40608BF02F5F84242F4004253
:103BF00004E006F0010202EB5602920292B243F890
:103C00001E20B0F85020944400F20C433F2E0BD3FA
:103C1000720140F2FF35F60622EA050208BF02F5FE
:103C2000F84242F4004204E006F0010202EB5602C0
:103C3000920292B243F81C2000EB810043F60F720F
:103C40004BF2800103881A405140018070BD000092
:103C50002DE9F04F83B043F6CC4BC2F2000BDBF8FA
:103C60000000B0F94410B1F1FF3F00F3E4844FF0DD
:103C70000009ADF80890ADF80690B0F94410B1F124
:103C8000FF3FADF8081000F3D68409E2D8F814021B
:103C90005146826840469047B8F80E02002840F02E
:103CA000C18418E098F8FC1101F0FE01022940F0EF
:103CB0006384012840F0B684C8F8049205E0012826
:103CC00040F0B0840120C8F80402D8F8140251462C
:103CD0008268404690470420C8F8F401D8F82002D2
:103CE000C0F83C90C0F840906DE145EA0700000440
:103CF00040F0428498F8FC01032800F03D840CF069
:103D00007F0488F8FE41D8F8200290F82814012991
:103D10000DD0002C4FF0010180F8244080F82814C9
:103D200003D101688022A1F84C2080F82894042156
:103D30004FF48072C8F8F4110146C0E90F99C0F839
:103D4000449021F8282F0068FFF7C6FE002C0CBF16
:103D50000120022088F8FC0100F064BC601E0628E7
:103D600000F20A84DFE810F00700CD00DA00080452
:103D70000804E900F500D8F8101298F810000A6855
:103D80000DF10A019047F1E0012F40F0F58398F81A
:103D9000FC01032800F00B81022840F0ED8348F875
:103DA000089F02200121C8F8EC01C8E90411D8F8E5
:103DB0001802C0F83C80016405E143F21460BCF1D4
:103DC000020FC2F2000080F800C080F0D58398F89E
:103DD000FC01032800F00081022840F0CD83BCF1F3
:103DE000000F3FF478AF032088F8FC01C8F804C046
:103DF000D8F81402002800F0BF83026840466146EC
:103E000006E198F8FC01032814D0022840F0B4839E
:103E1000480640F0BA8300F005BC98F8FC21032A5C
:103E200033D0022A40F0A88341F08000802800F0BF
:103E3000F983AAE301F07F0011F0800708EB00127C
:103E400002F1140308BF02F58273D8F82022002F74
:103E500002F1280102EB401601EB401000F10200D4
:103E600008BF06F22A200078002818BF0120186039
:103E70000220C8E90600C8F8F401C2E90F304FF487
:103E80008070C2F8449010858FE0002840F0CA830B
:103E900048063FF420AFD8F8200201F07F0700EB7E
:103EA000471300EB411203F128060B064FEAD1132A
:103EB00058BF02F50A767370377086F8029090F852
:103EC0002824012A3FF401AF01224900002B80F889
:103ED0002824C9B2026832F8117000F0C6807B064F
:103EE0000AD532F8113040F60F773B4048F2B00760
:103EF00010373B4322F8113040F63F7348F2B007C9
:103F0000C5E098F81010D8F8140200290CBF816A97
:103F1000C16A0DF10A008847022126E0BCF1050FB5
:103F200000F22A83DFE80CF00383898F959BD8F891
:103F3000101298F810004A6822E798F8100000283C
:103F400040F01A83D8F81402416B0DF10A0088473B
:103F50000CE098F81000002840F00E83D8F8140206
:103F6000016B0DF10A00884707214170BDF80A2056
:103F7000002A00F05783B8F80E12002900F052838F
:103F80008A4238BF11460222ADF80A10C8E906116C
:103F9000C8F8F421D8F8202202F13C0383E8030298
:103FA00011464FF4807021F8280F1068C8E20122F2
:103FB000022008F10401C8E90622C8F8F401D8F883
:103FC0002002C0E90F1201464FF48072C0F84490FD
:103FD00021F8282F0068B3E2BCF1000F1DD0D8F8FB
:103FE000040060453FF477AED8F814124A68C1B2B5
:103FF0004046904743F21460C2F200000178C8F8CE
:104000000410D8F81402002800F0B6820268404676
:104010009047002840F0B0825DE60220C8F8049086
:10402000614688F8FC01D8F81402426851E6D8F8D5
:10403000101298F810008A68A2E6D8F8101298F8C2
:104040001000CA689CE6D8F8101298F810000A69A7
:1040500096E6D8F8101298F810004A6990E6D8F859
:10406000101298F810008A698AE67B040BD532F8A2
:10407000113040F60F773B404BF2800707F5805731
:104080003B4322F8113043F60F734BF2800732F8AE
:10409000116033407B4022F8113080F8289414E6F8
:1040A000BDF8081011F00F0548D030F825104FEA80
:1040B0004508ADF80610BDF90610B1F1FF3F00F359
:1040C0009D8130F8181040F68F7211400BEB4512AD
:1040D00020F8181002F50A7192F83232002B00F025
:1040E0001D8191F800E030F82E30B0F850104FEA02
:1040F0004E0C01EBCE015B0400EB410100F133817A
:10410000D1F80C346FF39F23002B00F04681591C2B
:10411000B9EB510F00F04281B2F830424908D2F8B1
:104120003C72494200EB440404F5806454F8046B8B
:10413000013127F8026BF9D130E100BFBDF808204A
:104140000188D2062FD448F60F7211400180B0F8D2
:1041500050109BF8282001EBC20100EB4100D0F881
:1041600004046FF39F20CBF84400DBF83C100844B4
:10417000CBF83C000020FCF7F1FADBF840009BF89C
:104180002410002900F04E82002840F04B82DBF81A
:1041900000009BF8241041F08001C9B2A0F84C1037
:1041A0008BF824903EE2ADF80610BDF80610090524
:1041B00032D4BDF90610B1F1FF3F00F3338201881C
:1041C00040F68F7211400180B0F850109BF8282201
:1041D00001EBC20100EB4101D1F80C146FF39F21F8
:1041E0000029CBF8441200F0F3814A1CB9EB520FBE
:1041F00000F0E981BBF82C325208002700EB4300A5
:1042000000F58063DBF83C0253F8276020F8176064
:104210000137BA42F8D1D8E1B0F850109BF8282203
:1042200001EBC20100EB4101D1F80C146FF39F21A7
:10423000CBF844120131B9EB510F0FD04B08BBF84A
:104240002C120BF22C425B4200EB410101F5806124
:1042500051F8047B013322F8027BF9D1018840F642
:104260008F7211400180DBF85C849BF82C6488F825
:10427000086208F5027A9BF82D3488F809329BF819
:104280002EC49BF82F444CEA0420A8F80A029BF89D
:1042900030149BF8312441EA02250122A8F80C527F
:1042A000BBF83274C8E97D2706F01F02A8F80E7229
:1042B000022A00F04E81012A00F05681002A40F0C7
:1042C0006281092B00F25881DFE813F010000F0023
:1042D00056010E0056010D000C0056010B000A009D
:1042E0006BE551E53AE500E5E9E4DBE498F8FC012B
:1042F00000F0FE00022840F03F81D8F804020221BD
:1043000000284FF0030008BF012048F80C0FC8F840
:10431000E811C8E90311D8F814024AE5B0F85030A2
:1043200091F800E003EBCE0100EB4101D1F80C3431
:104330006FF39F23002B00F00A81591CB9EB510F3A
:1043400037D0B2F82C424908D2F83C72494200EB0F
:10435000440404F5806400BF54F8046B013127F86D
:10436000026BF9D125E0D1F804346FF39F23A3B198
:10437000591CB9EB510F11D0B2F82E424908D2F8AE
:104380003C72494200EB440404F5806454F8046B29
:10439000013127F8026BF9D100E0002330F81C103E
:1043A00040F60F74214048F2B0041034214320F845
:1043B0001C10D2E98F71D2F844621E441F440029B8
:1043C000C2F84462C2F83C7203D0D2F838229A4252
:1043D00003D97046FCF741FA10E00EF07F020BEBB8
:1043E0004213C3E98F7103F50A71C3F8449283F84D
:1043F000299283F82822FFF76FFB00BFBDF8060063
:10440000000640F10F81DBF8000048F60F7230F82B
:10441000181011400BEB451220F8181002F128017A
:1044200092F832303BB3097830F82130B0F8507050
:104430004FEAC10C4E0007EBC1075B0600EB4707D4
:104440003DD4D7F80C746FF39F27002F57644FD0DB
:104450000137B9EB570F4BD0158E7B08D76B5C42F9
:1044600000EB450505F5806537F8023B013425F87A
:10447000043BF9D13CE0B0F85030097800F2044632
:1044800003EBC1034FEAC10C56F813706FF39F277B
:10449000002F57643AD00137B9EB570F36D0958DBE
:1044A0007C08D76B644200EB450505F5806500BFCD
:1044B00037F8023B013425F8043BF9D126E0D7F860
:1044C00004746FF39F27002F576411D00137B9EBA5
:1044D000570F0DD0D58D7B08D76B5C4200EB45059F
:1044E00005F5806537F8023B013425F8043BF9D126
:1044F00030F8163040F60F773B404BF2800707F557
:1045000080573B4320F8163000F20446B0F8503094
:10451000634456F813706FF39F275764D2E90F6313
:104520003744002BD7630ED001F07F020BEB421112
:1045300001F8282F0122C1E90573C1F81C904A70C7
:10454000FFF7CAFA6EE00846FCF708F96AE00023B4
:104550002FE706F06002202A1BD1D8F8140251463A
:104560008268404690475DE098F8FC01032808BF48
:1045700011F0FE0F3FF48AAB40468021FFF76AF945
:104580004046002102E006F080014046FFF762F954
:1045900048E0002B3FF435AC012B3FF43EAC032B3D
:1045A00040D198F8FC21032A7FF43BAC00287FF42B
:1045B0008CAB41F0800080283FF487AB4046FFF78A
:1045C00049F9FFF782BBDBF83C020844CBF83C0218
:1045D0000020FCF742F9DBF80000B0F85010DBF8DF
:1045E000383200F20C423F2B0BD35F0140F2FF3612
:1045F000DB0627EA060708BF07F5F84747F400433C
:1046000004E003F0010707EB53039B029BB242F85F
:10461000113043F60F72018811404BF28002514075
:10462000018000BFDBF80000B0F944100029ADF8AC
:104630000810FFF635ADB0F84410490535D5B0F88F
:104640004410012500224023402621F48061A0F877
:1046500044100021DBF85C4420462574FEF7CCFFB3
:104660002046802100224023C4F81061FEF7C4FFD9
:1046700084F8FC512662D4F8180228B1D4F8140248
:1046800021794268204690479BF82804012802D1EE
:10469000DBF8000009E0002180228BF82410DBF811
:1046A0000000A0F84C208BF82814B0F844104904FE
:1046B00042BFB0F8441021F48041A0F84410B0F893
:1046C0004410890442BFB0F8441021F40051A0F80E
:1046D0004410B0F84410C90417D5B0F8401021F0C8
:1046E0000401A0F84010B0F8401021F00801A0F833
:1046F0004010DBF85C1491F8FD2181F8FC21B0F842
:10470000441021F48051A0F84410B0F84410090579
:1047100029D5B0F8401041F00801A0F84010B0F8D9
:10472000441021F40061A0F84410B0F8401041F0AA
:104730000401A0F84010B0F84410C90413D4DBF809
:104740005C1491F8FC2181F8FD21042281F8FC2100
:10475000DBF8181039B14EF61051CEF200010A689C
:1047600042F006020A60B0F84410890513D5B0F88B
:10477000441021F40071A0F84410DBF85C1491F8A7
:10478000FC21032A07D1D1F81422D2691AB10846B4
:104790009047DBF80000B0F84410C90542BFB0F8FC
:1047A000441021F48071A0F8441003B0BDE8F08FEC
:1047B000FEE7B0B582B004460020019043F6A02089
:1047C000C2F200000068C56915F0C00F07D14BF6B2
:1047D0003510C0F6000003F019F845F04005280632
:1047E00048BFFEF77EFD680610D550200121012547
:1047F0008DF8040001A8FEF727FC38B901A80221B2
:104800008DF805408DF80450FEF71EFC02B0B0BDD7
:104810002DE9F04381B0064644F234100D461446AB
:10482000C2F20000016871B143F69820A6F5685203
:10483000C2F200000068401A824204D16818611A6E
:10484000FF22FBF70CFD43F6A0274FF46852C2F29B
:1048500000073868416902EB8121B1423AD943F639
:104860009421C2F200010978032901D8022941D11B
:10487000A6F568585FEAC84107D141F20C01C4F2BD
:1048800001010A6882F400520A60416BB1B3006B07
:1048900060B144F22D19C2F2000999F8001029B94B
:1048A0008047064678BB012089F8000019A04146E0
:1048B000224602F0E3FC386829462246436B404614
:1048C00098470646B0F1FF3F1DDC1BA0314602F0C1
:1048D000D5FC18E040F25C110120C2F2000101F5A4
:1048E0005052964207D88E4205D33046294622467A
:1048F000FBF772FC002001B0BDE8F08315A002F0C8
:10490000BDFC6FF00306F0B2002818BF304640B27D
:10491000F1E700BF0A2077725F61646472202D3E68
:1049200020307825303578202020636E74202D3E8D
:1049300020307825303378000A2050726F6772611A
:104940006D44617461206572726F72202D3E202566
:10495000640000000A204E6F20777269746520732E
:104960007570706F7274210002460CA010A102F0E5
:1049700085FC41F20C0044F23C11C4F20100C2F289
:10498000000100BF026882F4005202600A6800BFA2
:104990000B689B1A512BFBD3F4E700BF0A0D20458F
:1049A00052524F52202D3E202573202564000000D6
:1049B0002E2E2F5372632F6D61696E2E63000000DF
:1049C00010B504464FF0FF3020630020E070204611
:1049D00001F0BEF808B1042010BD94F8320294F83A
:1049E000331240EA01204AF6552188421CBF0320B9
:1049F00010BD94F83400E838032826D8022824D0C3
:104A00004BF6B10C04F16A000021C0F6000C00BFA7
:104A10001CF80130425C022902D001319A42F7D0E1
:104A20009A4210D04BF2BD3204F186000021C0F64C
:104A3000000200BF535C445C042902D001319C4257
:104A4000F8D09C4201D1002010BD022010BD000012
:104A50002DE9F04F85B006680021044600F012FAF7
:104A600010B105B0BDE8F08F4FF0FF3704F120051D
:104A70004FF0FF0B4FF00D084FF0FF09E76200BF4A
:104A8000A169304601F064F80028EAD1D4F81CA0EE
:104A90009AF80000002800F0AB809AF80B20E52877
:104AA00002F03F01A17137D0120727D40F2927D078
:104AB0005FEA0B6010D10020002100BFC9B21AF8D4
:104AC000002001304B080B2843EAC1111144F5D1F5
:104AD000C8B2814500F08E8094F82B00C0071BD12E
:104AE000002000BF295C1AF800200A2802D00130FB
:104AF0008A42F7D08A420FD17CE000BF0F290BD148
:104B000094F82B1049060AD441060FD45FFA8BF1B2
:104B1000884202D110E000BFE7624FF0FF0B204651
:104B2000002100F069F80028AAD09AE721699AF8D4
:104B30000D9000F0BF0BE1629AF80D008145ECD1B9
:104B40009AF81A009AF81B1040EA01200028E4D1D4
:104B5000CDE902964FF00009F06804909AF8000041
:104B6000019000F03F0000FB08F0A0F10D080120CB
:104B700047F6D0010028C0F6000111F809101AF814
:104B800001205144497842EA012611D0B8F13F0F83
:104B900021D8304600F0C6F90746049830F81800CE
:104BA00000F0C0F9874216D108F10108304604E050
:104BB0004FF6FF7086420ED1002009F10109B9F1CC
:104BC0000D0FD5D350B1019810F0400006D00498D5
:104BD00030F8180010B14FF0FF0B01E0ABF1010B02
:104BE000039EDDF808904FF0FF374FF00D0896E771
:104BF000042036E7002034E72DE9F04F81B0044669
:104C0000006900F12007B7F5001F02D30020A06162
:104C10000EE0A06960B13D46D4F800B06FF35F25A7
:104C200055B10BEB050027613430E061002000E056
:104C3000042001B0BDE8F08F01300E46A06161692B
:104C400091B14FF6FF70BBF80A20C0F21F0010446C
:104C500000F5C00010EA572FE3D1584600F0D7F90D
:104C6000022807D20220E4E7BBF80800B0EB571F88
:104C7000CCD9D6E78246013000F00181DBF818007C
:104C800082450FD2AAF102060238C4F814A0864267
:104C90002FBF0020DBF82C00BBF80A1006FB010038
:104CA000A061BEE7002EB1D06669D4F80090002E56
:104CB00007D04846314600F0AAF902280DD202205A
:104CC00090E0D9F81080B8F1000F0FD0D9F8180093
:104CD000804528BF4FF001080AE08246013030D0FD
:104CE000D9F81800B046824502D277E04FF00108AB
:104CF000D9F81400002845D0B045B24626D1D9F8DD
:104D000018000AF10106D046864228BF0226206814
:104D1000314600F07CF9824601305FD0BAF1000FD5
:104D200011D0BAF1010F59D0D9F81000C24641464E
:104D300002280BD3D9F81810884228BF5046804665
:104D400004E000204EE0002EC2461FD14646CDF8BA
:104D500000A0D9F818000136864228BF022602D3E7
:104D6000B8F1020F0ED32068314600F050F98246A8
:104D7000013033D0BAF1000F06D0BAF1010F2DD0B7
:104D80004645E6D101202DE0DDF800A04846314639
:104D90004FF0FF3201F068F9BAF1000F05D020B9E9
:104DA00051464846324601F05FF930B14FF0010AF2
:104DB000012808BF4FF0FF3A10E0C9F81060B24672
:104DC000D9E90501023988429CBF0138C9F81400AD
:104DD00099F8040040F0010089F804000AF101008C
:104DE00003280DD24FF6F871C0F2FF0101EAC000AE
:104DF00040F20171C0F2020121FA00F0C0B218E7DE
:104E0000584602F013FAD0BBDBF81800AAF10206EC
:104E10000238864206D2DBF82C00BBF80A9006FB6B
:104E2000090002E0BBF80A9000200BF13408009062
:104E3000CBF830004FF400714046FBF717FAB9F198
:104E4000000F11D04FF0000900984146012300EBFC
:104E500009020020FEF722F850B9BBF80A0009F158
:104E600001098145F0D305E000204FF0000901E081
:104E7000BBF80A00814502D1DBF8180004E70120E5
:104E8000D7E60000F0B581B004461F20CFF6E070F1
:104E9000014202D0022001B0F0BD266821610D461A
:104EA000A16869B17089B5EB402F23D2B0698A1E21
:104EB0000238824232D2F06A738902FB03000BE0AF
:104EC0003078032802D3B16A0029EBD13089B0EBE6
:104ED000551FDFD9B06A00210028C4E90510D9D0D8
:104EE00000EB55206FF35F2571193431C4E90601D9
:104EF0000020D0E747023046ED1B08E00229C9D365
:104F0000B0698142C6D2BD42D1D32068ED1B00F00A
:104F10007EF801460130F1D10120BCE70020C4E950
:104F20000510B7E70021B1EB104F18BF704710B55F
:104F30004BF66E324BF62A411FFA80FCC0F6000297
:104F4000C0F60001BCF5805F38BF0A46B2F800E049
:104F500011E000BF51880432CBB2090A0EEB030402
:104F6000A44511D30029194618BF002132F811E0D9
:104F700008BF02EB4302BEF1000F01D0F445E9D2B5
:104F800080B2BDE8104070470829F9D8DFE801F089
:104F9000050A10121416181A1C00ACEB0E0032F899
:104FA0001000EDE7A0EB0E0101F00101401AE7E768
:104FB0001038E5E72038E3E73038E1E71A38DFE773
:104FC0000830DDE75038DBE7A0F5E350D8E7000014
:104FD00040F20002C2F2000291421CBF4FF0FF30CB
:104FE000704740F60061CEF20001D1F88020D20770
:104FF0001CBF09685FEAC17100D170474FF0604182
:105000000A68002AFCD04FF0604108707047F0B584
:1050100081B0022931D3054680690C4688422CD9DB
:10502000287803282CD0022844D0012825D1686A8A
:1050300004EB540700EB5721284600F089FD0028B7
:105040003FD17E1C6FF35F27E81990F83470686ACF
:1050500000EB5621284600F07BFD90BB6FF35F26E6
:10506000E20705EB060090F8340047EA0021084605
:105070006FF31F3018BF080900E0012001B0F0BD38
:10508000686A00EBD411284600F062FDC8B904F04C
:105090007F0005EB800191F8340091F8352091F8FC
:1050A000363091F8371043EA012142EA012161F3D9
:1050B0001B20E3E7686A00EB1421284600F048FD56
:1050C00010B14FF0FF30D9E7E0B205EB400090F8A7
:1050D000341090F8350041EA0020CFE780B502682F
:1050E000D2B10023D15C0133202901D33A29F9D16F
:1050F0003A290ED14FF0FF3E022B0FD192F800C09B
:10510000ACF13001092909D8BCF1300F06D8D1180B
:1051100001604FF0000E01E04FF0FF3E704680BD91
:10512000F0B5ADF5017D01A84FF48071FF22FBF7CA
:1051300096F843F6A027C2F200073868406980025B
:1051400016D0002441AD01AE204629464FF48072AE
:10515000FCF770FE284631464FF48072FAF7F3FFF1
:1051600038B9386804F580644069B4EB802FEBD31C
:1051700000200DF5017DF0BDF0B581B041F20C05C8
:1051800044F23C1604460746C4F20105C2F200068A
:1051900017B1013F05E000BF2868274680F40050A2
:1051A000286030683168091A0B29FBD3FDF722FF0C
:1051B0000128EDD14FF40050686001B0F0BD00004F
:1051C00086B042F200084EF60C5440F200374FF61B
:1051D000FF06C4F20208CEF20004C0F2FA57D8F873
:1051E000000040F01000C8F800002068304038434C
:1051F0002060FBF78EFA41F204050422C4F2020596
:10520000C4F20102686940F001006861686900F059
:10521000010000900098A86940F08050A861A8693A
:1052200000F08050009000982068304038432060A3
:10523000206800202073216860732168A0732168B2
:10524000E074216820752168A0752168E0751068F8
:10525000022161F31A601060286800F00C00042835
:1052600002D155F8040C1CE0286800F00C00082856
:1052700002D12868C003F4D455F8040C40F48030FF
:1052800045F8040C44F23C10C2F20000016800BF73
:1052900055F8042C920304D40268521A642AF7D9F0
:1052A0002CE0286800F00C00082827D0602044F289
:1052B0003C160021C4F24220C2F2000601603168AF
:1052C00055F8042C920104D53268521A022AF7D9F3
:1052D00014E0296821F400312960296821F474114F
:1052E00001F5E811296001210160306855F8041CBE
:1052F000890106D43168091A0329F7D3CB20FFF7B7
:1053000033FBD8F8000010F0060F0CD1D8F80000DD
:10531000022161F30200C8F80000D8F8000000F094
:105320000700022819D1286820F0F000286055F8FD
:10533000040C800111D52868022161F3010041F2BB
:1053400088312860306800BF2A6802F00C02082A01
:1053500006D03268121A8A42F6D9D820FFF704FB29
:10536000D8F8000000F0070003280CD3D8F800009C
:10537000022161F30200C8F80000D8F8000000F034
:1053800007000228E9D12868042161F30A20286077
:10539000286820F46050286041F200202968C0F29B
:1053A0007A0001F00C02082A15D1C1F383420FF2F2
:1053B0000473C9039A5C05D440F60010C0F23D00A6
:1053C000504308E0296850430FF2F862C1F34041AE
:1053D000515CB0FBF1F029680FF2EC6240F2280753
:1053E000C2F20007C1F30311515CC8403860FBF7FB
:1053F00090F9286844F6D3514EF21009C1F26201C7
:10540000CEF2000920F48000286038680027A0FB55
:1054100001014FF0FF3000EB9110B7EB106F08D196
:10542000C9F80400F020E0750720C9F80870C9F831
:105430000000D9F8000040F00400C9F8000020681E
:10544000E7750FF2946001F019FF47F601110FF2B2
:105450009060C0F6000101F011FF00BFB8B2791CE6
:1054600040F001020F46B72AF8D1411E0FF27860D2
:1054700001F004FF306800BF3168091AB1F5FA7F06
:10548000FAD943F2645843F2F05B40F6000AC2F2E4
:105490000008C2F2000BC4F2010AD8F800009BF821
:1054A000004020F00300C8F80000E00740F04A8107
:1054B00043F2EC500021C2F20000017043F2F850B8
:1054C0001C21C2F20000FAF7D1FE68690124C0076E
:1054D00002BF686940F0010068610420C4F2010065
:1054E000014600680090009820F0010000900098AC
:1054F0000090009820F0E0600090009800900098E4
:1055000008600221686940F004006861686940072A
:105510005EBF686940F004006861DAF8000020F4BA
:105520007000CAF80000DAF8000040F43000CAF851
:105530000000686940F004006861686940075EBF68
:10554000686940F004006861DAF8000020F07040FB
:10555000CAF80000DAF8000040F03040CAF8000055
:10556000686940F004006861686940075EBF686967
:1055700040F004006861DAF80C0020F04000CAF83E
:105580000C00DAF8000020F07060CAF80000DAF8C9
:10559000000040F00060CAF800000120FAF762FF46
:1055A00001200321FAF75EFF43F260508BF80040C0
:1055B000C2F20000047043F2F8500021C2F2000071
:1055C000018343F2EC50C2F20000017044F002008B
:1055D0008BF80000686940F480506861A86840F466
:1055E0008050A86000BF00BF00BF00BFA86820F4C3
:1055F0008050A8600820C9F87402C9F8F40048F285
:10560000010045F24041C0F20800C0F28901FDF7F7
:105610001BF8002840F0CA80D8F8000020F00300F2
:10562000C8F8000043F26050C2F20000017841F077
:1056300002010170032005900598411E0028059184
:105640000ED064249F20FCF78FFC00940098411E2C
:1056500000280091FAD10598411E00280591F1D14A
:1056600044F22E18C2F2000898F80010FF2940F00A
:105670007F8044F230144FF6FF71C2F2000420889C
:10568000884201D0FF281AD10121059105994A1EAF
:105690000029059213D064279020FCF7FDFB0097AA
:1056A0000098411E00280091FAD10598411E00285B
:1056B0000591F1D198F80010FF2959D1208828B11F
:1056C0004FF6FF71884201D0FF281AD101210591C0
:1056D00005994A1E0029059213D06427AB20FCF7D8
:1056E000DBFB00970098411E00280091FAD1059835
:1056F000411E00280591F1D198F80010FF2937D1FB
:10570000208828B14FF6FF71884201D0FF282ED1A2
:105710000121059105994A1E002905921FD0642791
:105720001520FCF721FC00970098411E00280091ED
:10573000FAD10598411E00280591F1D1208898F8EA
:1057400000100DE043F2605100284FF00102C2F258
:1057500000010A702AD0A0077FF52DAF4FE7FF2187
:10576000FF2905D14FF6FF72904216D000E0FF21CD
:1057700044F2301747F62414C2F20007C0F60004C2
:10578000388800BFE2688A4203D12269824200F071
:10579000CE8054F84C2F002AF4D1DAA002F036F86B
:1057A00043F6A0200021C2F20000016068694FF0BA
:1057B000020941F20C044FF4005801274FF0000B8E
:1057C000C4F2010440F020006861686900F0200024
:1057D00000900098686940F004006861686900F012
:1057E000040000900098686940F0080068616869EA
:1057F00000F0080000900098686940F010006861AF
:1058000068696D4600F01000009000980420C4F212
:1058100001000146006869F31A6008604FF080508B
:10582000C4F804802946CAF810004FF4805003974A
:10583000CDE9017B00905046FAF76CFE0AF5006056
:105840002946CDE902B9CDE90087FAF763FE4FF4A6
:105850000070CDF80C90CDE901B7294600900AF50B
:105860008060FAF757FE43F6A025C2F200052868CB
:10587000002845D0B0F84A1040F6B632481E904293
:1058800005D84BF6DF00C0F6000001F0F7FC3068E9
:105890003168091AB1F5487FFAD9286840F2081230
:1058A000C2F200024069C0F3C63182F82210C10979
:1058B00082F821101D2101EB400082F82000002019
:1058C00000F062F92820FFF757FC012000F05CF996
:1058D00000280CBF28200820FFF74EFC022000F013
:1058E00053F9002840F0E280206880F400502060E6
:1058F000306800BF3168091AB1F5FA7FFAD9F3E7C9
:10590000306800BF3168091AB1F5487FFAD940F212
:1059100008100021C2F2000080F8221040F61D019C
:105920000184032000F030F9AD20FFF71DF843F6A5
:105930009C2BC2F2000B9BF80000002840D10420F1
:105940000221C4F201000246006861F31A6010608F
:1059500072A0D4E90012636901F090FC98F800008D
:105960001F282AD13888B0F5185F09DAB0F50C5F26
:105970000ED0B0F5105F0BD0B0F5145F08D01CE06E
:1059800006D0B0F5205F03D042F20171884214D1F5
:105990006946D720FCF750FB78B99DF80010A06944
:1059A000C90711BF00F47F40000A00EB4010C0009F
:1059B00044F23811C2F20001088001208BF8000087
:1059C000606943F6A027C2F20007B0F5804F3C6043
:1059D0007FF6ECAE607F10F01C0F3FF4E7AE0DF1E8
:1059E0001200FCF7C5F900287FF4E0AE9DF8120024
:1059F00080062ED44BF26C00C0F6000001F006FFCA
:105A0000FF208DF81300B7208DF814003868C069A6
:105A100041052ED4010529D4C00432D543F68C2487
:105A2000C2F20004207850BBC520ADF80000FDF79D
:105A300058FC68460221FDF707FB00B34AF6C87020
:105A40004BF6A121C0F60000C0F6000101F016FCE3
:105A500020E04BF22A00C0F6000001F0D7FE44F22D
:105A60002C100121C2F2000001709FE6FDF739FC05
:105A700080B905A80121FDF7E7FA58B901E0012036
:105A800020700DF11300FCF773F918B99DF813009D
:105A9000800606D44BF2F510C0F6000001F0B6FE09
:105AA00084E64BF21700C0F60000D6E79720FEF719
:105AB0005BFF00BF02030405060708090A0B0C0D73
:105AC0000E0F101001020000000000000000000096
:105AD00001020304060708091B5B324A00000000AC
