:020000040800F2
:10000000E0260020890100089F0D00085D0A000815
:100010009D0D00082D0400082D330008000000008D
:10002000000000000000000000000000691C000843
:100030009305000800000000A10D0008531D0008F2
:10004000A3010008A3010008A3010008A301000800
:10005000A3010008A3010008A3010008A3010008F0
:10006000A3010008A3010008A30100082F04000851
:100070003F04000879040008A5040008B50400083E
:10008000C5040008D5040008A3010008A301000866
:10009000CD270008A3010008A3010008A301000860
:1000A000A3010008A3010008A3010008A3010008A0
:1000B000B31D0008A3010008A3010008A301000864
:1000C000A3010008A3010008A30100085D170008B0
:1000D000A3010008A3010008A3010008A301000870
:1000E000A3010008A3010008A301000800F002F822
:1000F00000F03AF80AA090E8000C82448344AAF188
:100100000107DA4501D100F02FF8AFF2090EBAE885
:100110000F0013F0010F18BFFB1A43F0010318473B
:10012000343C0000543C0000103A24BF78C878C129
:10013000FAD8520724BF30C830C144BF04680C60ED
:10014000704700000023002400250026103A28BF35
:1001500078C1FBD8520728BF30C148BF0B60704739
:100160001FB51FBD10B510BD00F05DF81146FFF7BB
:10017000F7FF03F0F1F800F07BF803B4FFF7F2FFAC
:1001800003BC00F083F80000094880470948004795
:10019000FEE7FEE7FEE7FEE7FEE7FEE7FEE7FEE737
:1001A000FEE7FEE704480549054A064B7047000094
:1001B000631D0008ED000008E01C0020E026002080
:1001C000E01E0020E01E002040EA010310B59B075E
:1001D0000FD1042A0DD310C808C9121F9C42F8D0B1
:1001E00020BA19BA884201D9012010BD4FF0FF3062
:1001F00010BD1AB1D30703D0521C07E0002010BD78
:1002000010F8013B11F8014B1B1B07D110F8013B03
:1002100011F8014B1B1B01D1921EF1D1184610BDE4
:10022000704770477047754600F02CF8AE460500E1
:100230006946534620F00700854618B020B5FFF701
:10024000B1FFBDE820404FF000064FF000074FF02F
:1002500000084FF0000BAC46ACE8C009ACE8C009A0
:10026000ACE8C009ACE8C00921F007018D46704731
:1002700010B50446AFF300802046BDE81040FFF7FC
:100280007CBF000000487047000100200149182091
:10029000ABBEFEE7260002007047032A40F2308022
:1002A00010F0030C00F0158011F8013BBCF1020FB7
:1002B000624498BF11F801CB00F8013B38BF11F838
:1002C000013BA2F1040298BF00F801CB38BF00F84F
:1002D000013B11F0030300F07680083AC0F008807B
:1002E00051F8043B083A51F804CBA0E80810F5E7B0
:1002F000121D5CBF51F8043B40F8043BAFF3008093
:10030000D20724BF11F8013B11F801CB48BF11F807
:10031000012B24BF00F8013B00F801CB48BF00F8D7
:10032000012B704702F0FF0343EA032242EA024234
:1003300000F024B84FF000020429C0F0128010F041
:10034000030C00F01B80CCF1040CBCF1020F18BFB1
:1003500000F8012BA8BF20F8022BA1EB0C0100F044
:100360000DB85FEAC17C24BF00F8012B00F8012B17
:1003700048BF00F8012B70474FF0000200B513464C
:1003800094469646203922BFA0E80C50A0E80C50B5
:10039000B1F12001BFF4F7AF090728BFA0E80C5066
:1003A00048BF0CC05DF804EB890028BF40F8042B5F
:1003B00008BF704748BF20F8022B11F0804F18BFCC
:1003C00000F8012B704710B5203AC0F00B80B1E85F
:1003D0001850A0E81850B1E81850A0E81850203A7A
:1003E000BFF4F5AF5FEA027C24BFB1E81850A0E883
:1003F000185044BF18C918C0BDE810405FEA827C9D
:1004000024BF51F8043B40F8043B08BF7047D207B3
:1004100028BF31F8023B48BF11F8012B28BF20F854
:10042000023B48BF00F8012B70470000FEE70020A8
:10043000C4F20200016801F00F0141607047002022
:10044000C4F20200016801F0F0014160C16921F0CD
:100450000101C161026A40F27410C2F20000016839
:1004600012B101B17047002140F268120023C1604F
:10047000C2F20002137070470020C4F2020001684B
:1004800001F470614160016B21F001010163426B75
:1004900040F27410C2F2000001680AB101B1704765
:1004A000016170470020C4F20200016801F470414C
:1004B000416070470020C4F20200016801F470211D
:1004C000416070470020C4F20200016801F470012D
:1004D000416070470020C4F20200016801F07061C1
:1004E00041607047012818BF704741F21400C4F200
:1004F0000200026842F0010202604A1E062A3ED84B
:100500000420C4F20200DFE802F0040A10171E25DE
:100510002C0000220F2342604FF4006227E00022EB
:10052000F02382614FF4805221E000224FF4706387
:10053000C2624FF400521AE000224FF4704302648A
:100540004FF4804213E000224FF4702342654FF4D1
:1005500000420CE000224FF4700382664FF48032B8
:1005600005E000224FF07063C2674FF40032036071
:100570004EF20010CEF20000C0F88021026001208F
:10058000884040F26011C2F200010A7810430870FE
:10059000704770472DE9F041ADF5007D8046684613
:1005A0004FF48071FF22FFF7BDFE18F5805F55D232
:1005B00008F5805440AD6E46474600BF3846294690
:1005C0004FF4807200F012FD284631464FF48072DD
:1005D000FFF7FAFD20B907F58077A742EED33DE09B
:1005E00040F264150121C2F20005286861F30100A0
:1005F000286001F089FB40F6CC40C2F20000007890
:1006000068B121204FEA18234FEA186205218DF8BE
:1006100000018DF804814FEA1840984607E0202039
:100620004FEA184204218DF800014FEA182040AC2F
:100630008DF803818DF802018DF80121204601F02B
:1006400015FB00BF204600F08FFD40B99DF800016A
:10065000C007F7D1286820F00100286000200DF5C0
:10066000007DBDE8F08100002DE9F04F82B041F23D
:100670000042042340F2004C4FF6FF7B4FF0010E86
:100680000F274FF0000A4FF00009C4F20102C4F234
:10069000010CC1F2100B904208BF0323009300230A
:1006A0000A680EFA0AF812EA080F00F0D2804E68C3
:1006B0005E4509DC032E35D8DFE806F029023F430A
:1006C000D1F80C9044E000BF4FF6FF72C1F2210256
:1006D00096420DDC0022C1F21102964217D0002290
:1006E000C1F21202964212D00022C1F221020CE0A5
:1006F0000022C1F22202964209D00022C1F2310248
:10070000964204D00022C1F23202964220D18A6879
:1007100082B1012A14BFC0F81480C0F810804FF0D5
:10072000080915E0112E0FD0122E04BFCA6802F17D
:100730000C090DE04FF004090AE0CA6802F108094B
:1007400006E04FF0000903E0CA6802F1040900BFA7
:100750001A460546BAF1080F28BF203A28BF0435CB
:100760002E6807FA02F409FA02F226EA0404224388
:100770002A60CA79D2066CD541F2180203F00C0641
:10078000C4F202021446126842F00102226022689A
:1007900002F00102019207FA06F2ACF57E77019CA5
:1007A0004FEA9A0457F82450954340F60002C4F2E9
:1007B000010290420ED040F60042C4F20102904283
:1007C0000AD041F20002C4F201029042009A08BF2E
:1007D000022202E0002200E00122B2402A4347F850
:1007E00024204FF6FF77D1F804B0C1F210075FEA7A
:1007F000CB32DCF8002054BF22EA080242EA0802A9
:10080000CCF800205FEA8B32DCF8042054BF22EAE7
:10081000080242EA0802CCF804205FEACB22DCF8A6
:10082000082054BF22EA080242EA0802CCF8082055
:100830005FEA8B22BB464FF00F0740F20C42C4F236
:1008400001021446126854BF22EA080242EA080272
:1008500022600AF1010A0433BAF1100F04BF02B09A
:10086000BDE8F08F1CE740F21C0044F6D351C2F201
:100870000000C1F262010068A0FB01014FF0FF30EF
:1008800000EB91110020B0EB116F18BF70474EF2D2
:100890001002F023CEF2000251604EF60C51CEF25F
:1008A0000001CB750723906013600A68C875704714
:1008B000B0B5014640F62C00C2F200000029D0F885
:1008C0005C440CD0D4F814024269002A6ED094F82B
:1008D000FC0103286AD12046BDE8B0401047D4F897
:1008E000F421022A5AD1D4E90732934214D900EBF9
:1008F0004110991A0025C06BE16189B2D4F8202219
:1009000002F13C0323C34FF48070114621F8280FF5
:10091000106801F09FFE1BE0A069904223D3B0FB5A
:10092000F2F101FB1201F1B9D4F8F81188421AD2A0
:10093000D4F8200200254FF480720146C0E90F551B
:10094000456421F8282F006801F084FEC4F8F851AE
:10095000D4F82012C1F83C52C1F84052C1F84452B8
:10096000A1F8285215E0D4F81402C16829B194F80E
:10097000FC01032801D1204688470520C4F8F40172
:100980000020D4F82012C1E98F00C1F84402A1F878
:100990002802086801F50A7101F05CFE94F8000273
:1009A000012802BF002084F80002B0BDB0BD10B520
:1009B000014640F62C00C2F200000029D0F85C4449
:1009C0000BD0D4F81402826952B394F8FC010328C6
:1009D00026D12046BDE810401047D4F8F421032A60
:1009E0001ED1D4E9433293421BD900EB4110991A2E
:1009F000D0F83C02C4F80C119142D4F820324FF0E8
:100A00000004A3F8284238BF0A4691B203F50F72DA
:100A100013C203F50A711868BDE8104001F01ABE50
:100A200010BDD4F81402016929B194F8FC0103281F
:100A300001D120468847042000214FF48072C4F879
:100A4000F401D4F82002C0E90F114164014621F8F5
:100A5000282F0068BDE8104001F0FCBDFEE7B0B5EE
:100A6000D0F81852044695F81802D8B120468121D2
:100A700001F0AEFC687A022818BFB0BDD4F820128D
:100A800005F503701F230022C1E997030120C1F877
:100A90006422A1F84802086801F51271BDE8B0406F
:100AA00001F0D8BDD5F814020028DFD0687A0028FC
:100AB000DCD12046012101F08BFCD7E710B5D0F83E
:100AC0001842627A022A05D1812101F081FC0020BE
:100AD000607210BD49B2B1F1FF3FFADC012A08BFD4
:100AE00010BD0121BDE8104000F0CFB810B504469C
:100AF000D0F81802017ACA1E022A05D22046002127
:100B0000BDE8104000F0C1B8022910D190F81912C8
:100B100000F21B22204600F079FBB0F1FF3FC8BF76
:100B200010BD20460121BDE8104000F0AEB810BD58
:100B3000B0B5D0F818520446287A012834D0E8BB62
:100B4000D5E98401C5E98C01D4F82002B0F864022B
:100B50001F2810D145F25531D5F80C02C4F24231AC
:100B6000884208D195F81912012904D895F81A027B
:100B70000138102823D395F85D024FF4005205EB9D
:100B8000C0010130C1F84022052281F83C22022137
:100B90006972C1B2043918BF014685F85D1220465A
:100BA000BDE8B040FFF75BBF95F8191205F21B22B4
:100BB000204600F02BFBB0F1FF3F34DDB0BD05F265
:100BC0001B22204600F022FB297AB0F1FF3F28DDEE
:100BD000481E0328F2D3688958B3D4F818124FF08E
:100BE000000C042381F838C20B72D1F81432D1F80A
:100BF0003422834238BF1846121AC1F8342205F154
:100C00000C01D4F82022C2E9171040F2011011465D
:100C1000C2F864C021F8480F1068BDE8B04001F088
:100C200019BD0529BBD120460121BDE8B04000F027
:100C30002CB820460021BDE8B04000F026B870B5C1
:100C4000D0F81862002504463581A6F85C52D0F829
:100C50001C02016800208847D4F82012012291F874
:100C60002804012818BF81F82854A1F848221F2021
:100C700006F50372C1E99720C1F86452086801F5CE
:100C80001271BDE8704001F0E5BC70B5D0F81852A3
:100C9000044645F255300026C5F2423085F8381238
:100CA000C5F82C022E720D2105F50B72D4F8200226
:100CB000C0E9172140F201120146466621F8482F8B
:100CC000006801F0C7FCD4F820121F2005F503725C
:100CD000C1E997200120C1F86462A1F848020868C0
:100CE00001F51271BDE8704001F0B4BC2DE9F0438C
:100CF00085B041F218004FF0020840F600044FF4AE
:100D000000590126002701ADC4F20200C4F201041B
:100D1000016841F020010160016801F020010191AA
:100D20000199016841F004010160016801F00401CA
:100D300001910199016841F008010160016801F029
:100D4000080101910199016841F0100101600068FA
:100D500000F01000019001980420C4F20100016825
:100D600068F31A6101604FF08050C4F8109829466A
:100D700020614FF480500496CDE90267019020462F
:100D8000FFF772FC04F500602946CDE90378CDE950
:100D90000196FFF769FC05B0BDE8F083FEE77047F8
:100DA000704700002DE9F04F87B0054640F6100768
:100DB0004FF00050C4F20107B5F1007FC7F80008FA
:100DC00002D96FF00409BBE00DF1170640F2681478
:100DD00040F274184FF4805B4FF00009301DC2F2EE
:100DE0000004C2F200080290F01C0490B01C0390B2
:100DF000701C019000F088FF002840F09C8040F2B9
:100E00006C10C2F200000078800740F17B802078EF
:100E1000002840F07C8040F27010C2F200000078A0
:100E200001286FD14FF48010BA46386040F6CC40AC
:100E3000C2F20000007858B11220049905278DF8FD
:100E40001700280E8DF81800DDE9022007E000BF2A
:100E5000022004278DF817000198DDE903122B0CFE
:100E60000370280A087030463946157000F037FDC7
:100E700008B14AE000BFD8F80C00B842FAD140F6F9
:100E8000D440E9B2C2F20000C1F580775F4588BF67
:100E90005F464844394600F022FD10B135E000BFFE
:100EA00000BFD8F80C00B842FAD140F26C10ABEB9E
:100EB000070BB9443D445746C2F200000078800752
:100EC0000AD5207840B940F27010C2F200000078D4
:100ED000012804BF10203860304600F045F950BBAF
:100EE0009DF81700C007F7D140F26410BBF1000F66
:100EF000C2F200000146006820F0010008607FF4A3
:100F000079AF19E04FF0FF3003E0574601E06FF092
:100F1000010040F26C11C2F20001097889070AD57C
:100F2000217841B940F27011C2F20001097801291B
:100F300004BF1021396081464FF40050C7F8000803
:100F4000484607B0BDE8F08FB0B582B040F26C15EE
:100F50000446C2F200052878800702D44FF0FF3023
:100F60002CE040F26810C2F20000007810B16FF07F
:100F7000010023E040F27010C2F200000078012866
:100F8000ECD140F610004FF480110222C4F20100AF
:100F9000016015208DF8040001A8811C00F006FDF9
:100FA00060B940F27410C2F2000000E000BFC168F6
:100FB0000229FBD19DF807002070002029788907BD
:100FC00012D540F26811C2F20001097861B940F20D
:100FD0007011C2F200010978012905D140F6100113
:100FE0001022C4F201010A6002B0B0BD2DE9F04741
:100FF00084B040F610070D464FF00051B0F1007F6D
:10100000C4F20107C7F8001856D8002D54D040F696
:10101000CC411446C2F20001097851B11321030AF0
:10102000020E05268DF807108DF80B00010C1846EE
:1010300005E00321020C04268DF80710010A40F296
:101040006C188DF80A008DF809108DF80820C2F28E
:10105000000898F80000800717D540F26819C2F21E
:10106000000999F8000080B940F2701AC2F2000A33
:101070009AF80000012808D14FF4801031463860FA
:101080000DF1070000F02BFCC8B198F800008007B4
:101090000ED540F26810C2F20000007840B940F26C
:1010A0007010C2F200000078012804BF10203860E0
:1010B0004FF40050C7F8000804B0BDE8F08740F2D4
:1010C0007410C2F2000000E000BFC168B142FBD161
:1010D000002CDAD098F800104907D6D599F80010FE
:1010E0000029D2D19AF800100129CED10122002185
:1010F0001C2389F80020C0E90045C0E90211016104
:1011000043F20001C4F20203C4F201010A8812058D
:1011100040F2825258BF82221A6001F10C029A609A
:10112000DD605C601E6846F001061E608E8846F039
:1011300001068E800E88360540F2125658BF1226E0
:101140005E61DA6100F118021A629C615A6942F02C
:1011500001025A618A8842F002028A8000BFC16897
:10116000A142FBD191E70000B0B582B040F26C150E
:101170000446C2F200052878800702D44FF0FF3001
:101180002CE040F26810C2F20000007810B16FF05D
:10119000010023E040F27010C2F200000078012844
:1011A000ECD140F610004FF480110222C4F201008D
:1011B000016005208DF8040001A8811C00F0F6FBF9
:1011C00060B940F27410C2F2000000E000BFC168D4
:1011D0000229FBD19DF8070020700020297889079B
:1011E00012D540F26811C2F20001097861B940F2EB
:1011F0007011C2F200010978012905D140F61001F1
:101200001022C4F201010A6002B0B0BD2DE9F04124
:1012100082B00446107816460D46192813DDA0F159
:101220001A0110292CD8DFE801F048094141094191
:1012300041414159417D41419541D900D4F81802BD
:10124000002545811CE2002800F00C81032800F0F5
:10125000238112282AD17178D4F81802C90740F0E6
:101260005781D4F81C2205EBC501D26902EB81013C
:101270000A79531D32799A4240F2E3811A4649E1D4
:101280002F2800F033815A2810D1D4F818020821F1
:101290000FF2B04241811330002100BF5318DB79B7
:1012A0004354013911F10803F8D13CE1D4F8180294
:1012B00090F85D124FF400533BE1D4F81802082176
:1012C0000FF2884241811330002100BF5318DB79AF
:1012D0004354013911F10803F8D124E1D4F818621C
:1012E000002069460DF1060270613061F060D4F8AB
:1012F0001C0243682846984700BB08200221F0736F
:101300000098B1820138010AF074B174010C000E2A
:10131000717430740C21BDF80600F075000A7181FB
:10132000B07500E1D4E98660436806F5187106F2ED
:101330005E2228469847002800F00181D4F8180260
:101340004FF4685390F85D1200EBC102C2F84032CE
:1013500002238BE1D4F81872387AB846002800F0DE
:1013600002814FF400767E8108F10C07B8F85E0226
:10137000D8E99913B1FBF0F2B3F5007F38BF1E46F0
:10138000B6FBF0F0394683B2D4F81C02D0F810C096
:101390002846E047B0F1FF3F40F35881D4F82002DF
:1013A000002540F201120146C0E91776456621F892
:1013B000482F006801F04EF9D8F83402D8E99912A4
:1013C000921B3144A0EB0600C8E99912C8F8340218
:1013D00040F05681032088F80800A4E0D4F8187281
:1013E000387A002800F0E380B7F85E02D7E9991652
:1013F00007F10C08B6F5007FB1FBF0F228BF4FF4FF
:101400000076B6FBF0F0414683B2D4F81C02D0F867
:1014100014C02846E047B0F1FF3F40F31C81D7F8E5
:101420003412D7E999028319901BA1EB0601C7E991
:101430009930C7F8341200F02781D4F82012B0F5A3
:10144000007F28BF4FF400700025C1E9978001207C
:10145000C1F86452A1F84802086801F5127101F060
:10146000F9F80DE1D4F81862D6F81402002800F05B
:10147000CA8096F85D024FF4005206EBC0010130BD
:10148000C1F84022052281F83C22C1B2043918BFBC
:10149000014686F85D12F2E0D4F81842112104F1F9
:1014A0000D00FEF747FF0C20E0747020207394F8C5
:1014B0005C0294F85D12884211D004EBC001013047
:1014C00091F83C22A27391F841222276C2B2043AEA
:1014D00018BF024691F8400284F85C226076122020
:1014E00060813079122898BF60811CE07178D4F84F
:1014F0001802890719D4D0E99812B0F868321A4452
:101500008A427FF69DAE90F85D124FF4045310E0CE
:1015100090A10722428100BF013A93B2CF5CC61866
:10152000002B3773F8D10025AAE090F85D124FF434
:10153000105300EBC102C2F84032052396E00025AB
:10154000082035827081B6F85E02F074000AD6F881
:1015500060120139F173B074080AB073080C70732B
:10156000080E30738CE097F91802002838DAD4F8A6
:101570001C0281682846884700287FF4DFAED6F831
:10158000020000BAC7F86402F179327A42EA012116
:10159000C7F868120A18D4F81882D8F860329A424C
:1015A00040F2AF8098F85D024FF40452BAE097F928
:1015B0001802B0F1FF3F13DDD4F81C028168284601
:1015C000884700287FF4BAAED4F81C02C1682846C8
:1015D0008847002861D0D4F818024FF41C53B1E6B4
:1015E00097F85D024FF4005207EBC0010130C1F8DB
:1015F0004022052281F83C22C1B2043918BF0146BD
:1016000087F85D123BE0D4F81C02816828468847C1
:1016100000283FD0D4F818024FF4685390F85D12B8
:1016200000EBC1020131C2F84032022382F83C32A1
:10163000CAB2043A18BF0A4680F85D22052030720B
:101640001DE0002A42817FF467AF6CE7D4F81802EE
:101650004FF4885303E0D4F818024FF4407390F825
:101660005D1200EBC102C2F840320423013182F85E
:101670003C32CAB2043A18BF0A4680F85D22FF2500
:1016800068B202B0BDE8F081204600210025FFF7D6
:10169000FCFAF5E700257581F2E7D6F8020002BAF8
:1016A000C7F86422F079317A41EA0021C7F868125C
:1016B0008B18D4F81802D0F86062B3423FF623AF1B
:1016C000B7F85E3259435A43C7E99921D7F8142233
:1016D0008A427FF4EDAD0120002507F10C03B1F53E
:1016E000007F3872D4F8202228BF4FF40071C2E97D
:1016F0009731C2F86452A2F8480202F512711068DC
:10170000ADE602223A72B7F85E2251435043C7E970
:101710009901D7F8140288423FF423AE98F85D028D
:101720004FF4005208EBC001C1F8402205220130FD
:1017300081F83C22C1B2043918BF014688F85D1215
:101740009DE700BF00060000000000000000000050
:1017500000000000000000030080830043F200004E
:10176000C4F2010001894A0631D50188090510D467
:1017700040F2741290F80CC0C2F200021368D168F3
:1017800099421CD25368D3B1591C516083F800C0F0
:1017900015E040F27412B0F80CC0C2F200021368F7
:1017A000D16899420BD253684BB1591C516083F8F0
:1017B00000C051684B1C53604FEA1C220A7040F273
:1017C0007411C2F20001CA680132CA6001898A0636
:1017D00044BF0288028010B5CA073FD082885206F3
:1017E0003CD540F2741EC2F2000EDEF80030DEF886
:1017F0000C209A4232D2028812050AD490F80CC00A
:10180000DEF80430BBB15A1CCEF8042083F800C0C7
:1018100011E0B0F80CC0DEF8043063B15A1CCEF809
:10182000042083F800C0DEF80420531CCEF80430F6
:101830004FEA1C231370DEF80C30DEF80020013371
:101840009342CEF80C3009D18288002322F0400266
:10185000828040F26812C2F200021370890744BF0E
:1018600081885FEA016100D410BD40F2741CC2F2AD
:10187000000CDCF80020DCF81030934228BF10BDCB
:10188000B0F800E0DCF808405FEA0E510DD4002CFF
:101890000FBF9CF81810611CCCF808102178017358
:1018A000DCF80020DCF810300FE05CB1611CCCF8F3
:1018B0000810214611F802EBCCF8081061784EEAC6
:1018C000012101E0BCF818108181591CCCF81010DE
:1018D000914202BF818821F08001818010BDB0B5A6
:1018E00002466FF00400002A5CD000295AD040F272
:1018F0006C10C2F200000078400754D540F2681E18
:10190000C2F2000E9EF8000010B16FF00100B0BDF1
:1019100040F27010C2F200000078012843D140F27A
:10192000741C012300201C248EF8003043F2000EAA
:10193000C2F2000CC4F20204CCE90010CCE902208F
:10194000C4F2010ECCF81000BEF800300EF10C0508
:101950001B0540F2025358BF02232360A5600CF11F
:101960001403E3606160236843F001032360BEF861
:10197000043043F00103AEF80430BEF800301B051C
:1019800040F2925358BF92236361E5612262A161E4
:10199000616941F001016161BEF8041041F002018A
:1019A000AEF80410B0BD4FF0FF30B0BD10B5044626
:1019B0006FF00400002C56D0002954D0002A52D0D9
:1019C00040F26C10C2F20000007840075CBF4FF09C
:1019D000FF3010BD40F2681CC2F2000C9CF8000001
:1019E00010B16FF0010010BD40F2741E01208CF8A0
:1019F000000043F2040CC2F2000E0020CEE90021E8
:101A0000CEE90240CEF81000C4F2010C40F2825E32
:101A10003CF8043C1B0558BF4FF0820E1C23C4F257
:101A20000203C3F800E00CF1080EC3F808E0D96027
:101A30005A60196841F001011960BCF8001041F0CA
:101A40000101ACF8001092215961C3F81CE01C623E
:101A50009A61596941F001015961BCF8001041F0E7
:101A60000201ACF8001010BD28B94FF480300860B6
:101A70004FF4007010800020704700207047002055
:101A8000704700207047002070472DE9F04381B077
:101A900001285ED0D0B940F6D44641F204081F4672
:101AA00014460D46C2F2000616F8080080B14FF445
:101AB000805030586040072827D804F007007A0289
:101AC00006EB40212846FEF7E8FB42E0022041E019
:101AD000600240F6FF714FF480524FF48059884302
:101AE0003146FFF783FA04F007007A0206EB402143
:101AF0002846FEF7D2FB0120002106F8080041F23B
:101B0000050046F80940315423E041F205004FEA50
:101B10004428305C28B17A0240462946FFF766FA2D
:101B200017E040F6FF7031464FF480524FF4805971
:101B300028EA0000FFF75AFA08F460607A023118C8
:101B40002846FEF7AAFB41F204000121315446F871
:101B50000940002001B0BDE8F0832DE9F04F81B0CD
:101B6000012849D000287BD140F6D44402F0070078
:101B700041F2040A1F4615460E464FEA4229C2F2B8
:101B8000000404EB402814F80A00A0B141F205005B
:101B9000205C80B14FF48050205880EA050107296D
:101BA0002CD87A0240463146FEF777FB41F2050019
:101BB0000121215420E040F68C404FF0010B2146DA
:101BC0004FF48052C2F200000068C0F824B040F622
:101BD000FF7029EA00004FF48059FFF707FA7A02F4
:101BE00040463146FEF759FB04F80AB044F8095064
:101BF00041F2050004F800B0002032E0400240F657
:101C0000FF7B20EA0B00FEF7C5FC48BB4FF4805A6F
:101C100054F80A00400220EA0B00FFF7C3F8B0F5C1
:101C2000805F1DD140F68C404FF0010B21464FF4F0
:101C30008052C2F200000068C0F824B040F6FF7085
:101C400029EA0000FFF7D2F97A0240463146FEF752
:101C500024FB41F2040004F800B044F80A50C7E73E
:101C6000022001B0BDE8F08F70470000B0B540F22F
:101C70006C150C46C2F200052978890702D44FF092
:101C8000FF3029E040F26811C2F20001097811B179
:101C90006FF0010020E040F27011C2F200010978FB
:101CA0000129ECD140F610014FF48012C4F2010179
:101CB0000A602146FFF713FE70B940F27411C2F2B8
:101CC0000001C868A04201D1002005E0002000BF4B
:101CD00000BFCA68A242FBD12978890713D540F218
:101CE0006811C2F20001097869B940F27011C2F2BC
:101CF00000010978012918BFB0BD40F6100110227B
:101D0000C4F201010A60B0BD80B582B00DF10700D8
:101D1000FFF72AFA18B99DF80700800716D40620A5
:101D200001218DF807000DF10700FFF79FFF70B943
:101D300000208DF807000DF10700FFF715FA30B904
:101D40009DF80700C0F34000013800E0002002B019
:101D500080BD41F6DC40C2F2000001680131016043
:101D6000704741F200000022C4F20200CFF6FF02E9
:101D7000016841F001010160416811404FF6FF72B6
:101D80004160CFF6F662016811400160016821F4FC
:101D900080210160416821F4FE0141604FF41F0180
:101DA00081604EF608504FF00061CEF200000160F5
:101DB000704740F68C41C2F2000108680269920740
:101DC00044BFC2685FEA827247D40269520744BFC7
:101DD000C2685FEA427247D40269120744BFC26810
:101DE0005FEA027247D40269D20644BFC2685FEA62
:101DF000C26247D40169C9071FBFC1685FEAC171E8
:101E00006FF0010101610169090641BFC1685FEA24
:101E100001616FF0800101610169490641BFC1683C
:101E20005FEA41616FF0400101610169890641BFCC
:101E3000C1685FEA81616FF02001016141F2040035
:101E400040F6D441C2F20001085C28B140F20460BF
:101E50000121C2F20000017070476FF002020261BE
:101E6000826900220A77B0E76FF00402026182699A
:101E700000220A77B0E76FF008020261C26900220F
:101E80000A77B0E76FF010020261C26900220A7798
:101E9000B0E740F2FF7342F6004C0268C4F2000360
:101EA000C4F2010C984205DCB0F1804F0AD040F238
:101EB000004303E0604505D040F60003C4F2000390
:101EC00098420CD140F68C4322F45C72C2F20003BB
:101ED00099681B6921F44071114341EA030240F6FD
:101EE0008C4322F080026045C2F20003996941EA06
:101EF00002010160D968C1625968816204BF5969F1
:101F0000CCF83010012141617047000080B504A079
:101F100000F068F840F29410C2F2000080BD00BFEB
:101F20004D534320436F6E6669670000122008809E
:101F300040F22000C2F200007047000080B504A00B
:101F400000F050F840F29410C2F2000080BD00BFD3
:101F50004D534320496E74657266616365000000ED
:101F60000420088040F23400C2F2000070470000F4
:101F700080B504A000F036F840F29410C2F20000E0
:101F800080BD00BF53544D6963726F656C656374A7
:101F9000726F6E696373000080B504A000F022F8D0
:101FA00040F29410C2F2000080BD00BF53544D3384
:101FB00032204D6173732053746F72616765000046
:101FC00080B504A000F00EF840F29410C2F20000B8
:101FD00080BD00BF303030303030303030303141B3
:101FE0000000000080B558B3027862B1431C0022A3
:101FF00013F801CB0132BCF1000FF9D1D2B20223A8
:1020000003EB420200E0022240F2941E03230A8006
:10201000C2F2000E8EF801308EF8002002787AB1FC
:10202000013002234FF0000CD9B202330EF8012028
:1020300041F001010EF801C010F8012B002AF3D184
:1020400080BD10B5D0F820E201F07F0C0B060EEB3E
:102050004C1000F1280258BF00F50A72C8095070F0
:1020600082F800C09EF82834012B01D110216FE0C6
:102070000123490048F2800C8EF82834C9B2937AC3
:10208000DEF8002032F8114002EB410143B304F4C2
:10209000804280B33AB1088840F60F7210400CF5C8
:1020A0008042104308800888400607D5088840F61B
:1020B0000F7210400CF1400210430880088840F66F
:1020C0000F7210400CF58042104340F63F720880BA
:1020D0000888104040EA0C00088043F60F732FE098
:1020E000E8B360062AD5088840F60F7210400CF15C
:1020F0004002104321E03AB1088840F60F721040C8
:102100000CF58042104308800888400607D50888EF
:1021100040F60F7210400CF140021043088008880E
:1021200040F60F7210400CF14002104343F60F725C
:1021300008800888104040EA0C00088040F63F7391
:102140000888184040EA0C00088000218EF8281406
:1021500040F20020C0F20120C840C0B210BD6004AF
:10216000BBD5088840F60F7210400CF58042104332
:10217000B2E7000070B5D0F820C201F07F0E0D0666
:102180000CEB4E1404F1280058BF04F50A700361EB
:10219000CB09437080F800E0C2709CF82844012C01
:1021A00001D110200CE10124032A8CF82844DCF82A
:1021B00000400DD8DFE802F0020F19214A0048F66E
:1021C0008F16D5B234F81520324002F500721DE0AA
:1021D0004A00D5B21CE04A0048F68F16D5B234F852
:1021E0001520324002F5806210E04A0048F68F1652
:1021F000D5B234F81520324008E04A0048F68F1670
:10220000D5B234F81520324002F5C06224F815200A
:1022100034F8152040F60F763240114348F2800220
:10222000114324F8151004EB4501857A002D48D0A0
:102230000D8840F60F66002B05EA060502F580764C
:1022400045EA06050D80C588B4F8506006EBCE0659
:1022500025F0010504EB4606C6F800540089B4F8E1
:10226000505005EBCE0620F0010004EB4606C6F800
:102270000804088800F4804040D038B1088840F64F
:102280000F73184002F58043184308800888400601
:1022900007D5088840F60F73184002F14003184331
:1022A0000880088840F60F73184002F580431843F1
:1022B00040F63F7308800888184043F60F731043B8
:1022C00041E08588B4F85060002B06EBCE0625F07F
:1022D00001053DD004EB4600C0F8005408884006D4
:1022E00007D5088840F60F73184002F140031843E1
:1022F0000880088840F63F7320325BE038B10888D8
:1023000040F60F73184002F5804318430880088890
:10231000400607D5088840F60F73184002F14003C5
:1023200018430880088840F60F73184002F14003F4
:10233000184343F60F7308800888184002F540538D
:10234000584040F63F73088008881840104333E037
:1023500004EB46064FEACE03C6F8085404F20C45D7
:10236000B4F85060006933443F280BD3460140F273
:10237000FF34C00626EA040608BF06F5F84646F410
:10238000004004E000F0010606EB5000800280B23D
:1023900045F813000888400407D5088840F60F73F5
:1023A000184002F5804318430880088843F60F73ED
:1023B00002F5405218405040088000208CF8280454
:1023C00040F20021C0F2012121FA00F0C0B270BD3C
:1023D00010B5D0F8200201F07F020C064FEAD114AC
:1023E00000EB421300EB411C4FF0010103F1280305
:1023F00058BF0CF50A735C701A70997090F8283405
:10240000012B08BF10BD80F82814002A01680DD0E8
:1024100031F822C0520049F2800EA4B140F63F7359
:10242000AEF57F6403EA0C03634012E00B8843F6C9
:102430003F74234049F28004CFF6FF7410346340A8
:1024400021F8223007E043F60F7303EA0C0383EA16
:102450000E0321F81230002180F8281410BD80B539
:10246000FEF744FB002080BD80B5FEF761FB002035
:1024700080BD10B501210446FFF7E3FD2046812110
:10248000FFF7DFFDD4F8181200200029087201D0F0
:10249000C4F81802002010BD0A21018040F2B000EB
:1024A000C2F2000070472021018040F27000C2F2A9
:1024B000000070472021018040F29000C2F200002D
:1024C00070472021018040F2BC00C2F2000070473A
:1024D00010B50446007C50B1204601210222402361
:1024E000FFF748FE20468121022240230BE02046D0
:1024F000012102224FF40073FFF73CFE20468121A8
:1025000002224FF40073FFF735FE40F29430C2F21E
:102510000000C4F818022046FEF791FB002010BD11
:1025200070B50446D0F8186208780D4610F06001C6
:102530001ED0202940F08B806978FF2935D0FE29F4
:1025400035D1698899BB000631D5E88801282ED19C
:10255000D4F81C028069804730600220C4F8F4017E
:102560000120C4E90600D4F820220024D66311E03B
:102570006878012825D00B2839D00A2867D1012096
:102580000221C4E90600C4F8F411311DD4F8202258
:102590000024D16310644FF480701146546421F814
:1025A000280F106800F056F852E0698811B32046F1
:1025B0008021FFF70DFF20460021FFF709FF0224CD
:1025C00046E0D4F82012A88891F82824012A1CBFDC
:1025D000002281F82824C1B22046FFF732FDA988E5
:1025E000207C09061FD420B3204601211EE0A878D4
:1025F00070602CE00006DAD4E8880028D7D14FF4C8
:102600008070012230811F20D4F820120024A1F80C
:10261000482206F50372C1E99720C1F864420868B0
:1026200001F51271BEE738B1204681210222402314
:1026300007E02046012101E02046812102224FF4DB
:102640000073FFF797FD29792046FEF737FA00243B
:10265000204670BD70B50A698E691346964288BFE0
:102660003346A3EB02038B6188BF16464A788B7A08
:10267000012A36D1CBB30B7830F82320B0F8505074
:1026800005EBC3055B0000EB4505C5F80464B6B275
:10269000751C0026B6EB550F14D052064FEA5506AE
:1026A0004FF00802C6F1000458BF06228A5A496951
:1026B00000EB420202F5806231F8026B013422F82D
:1026C000046BF9D130F8131040F60F7211404BF241
:1026D0008002CFF6FF7202F58052114320F81310EA
:1026E00022E043B36AB3097864E0B2B20023013256
:1026F000B3EB520F0ED08B8852084C69524200EB5C
:10270000430303F5806300BF34F8025B013223F812
:10271000045BF9D1B0F85020097802EBC1024B00FC
:1027200000EB4202C2F8046400EB430048F2B0013F
:1027300040F63F7244E0B0F85020097802EBC10C3B
:1027400020E0B0F85020097800F204433F2E02EB5D
:10275000C10E4FEAC10C0AD3720140F2FF34A2430A
:10276000F40608BF02F5F84242F4004204E006F025
:10277000010202EB5602920292B243F81E20B0F818
:102780005020944400F20C433F2E0BD3720140F2D0
:10279000FF35F60622EA050208BF02F5F84242F4C8
:1027A000004204E006F0010202EB5602920292B2ED
:1027B00043F81C2000EB810043F60F724BF28001BE
:1027C00003881A405140018070BD00002DE9F04F90
:1027D00083B040F62C0BC2F2000BDBF80000B0F91E
:1027E0004410B1F1FF3F00F3E4844FF00009ADF86D
:1027F0000890ADF80690B0F94410B1F1FF3FADF884
:10280000081000F3D68409E2D8F814025146826811
:1028100040469047B8F80E02002840F0C18418E006
:1028200098F8FC1101F0FE01022940F063840128B0
:1028300040F0B684C8F8049205E0012840F0B08466
:102840000120C8F80402D8F81402514682684046B4
:1028500090470420C8F8F401D8F82002C0F83C9052
:10286000C0F840906DE145EA0700000440F0428462
:1028700098F8FC01032800F03D840CF07F0488F8F0
:10288000FE41D8F8200290F8281401290DD0002C20
:102890004FF0010180F8244080F8281403D101682A
:1028A0008022A1F84C2080F8289404214FF48072F3
:1028B000C8F8F4110146C0E90F99C0F8449021F816
:1028C000282F0068FFF7C6FE002C0CBF0120022055
:1028D00088F8FC0100F064BC601E062800F20A843F
:1028E000DFE810F00700CD00DA0008040804E90072
:1028F000F500D8F8101298F810000A680DF10A01D6
:102900009047F1E0012F40F0F58398F8FC0103288F
:1029100000F00B81022840F0ED8348F8089F022068
:102920000121C8F8EC01C8E90411D8F81802C0F870
:102930003C80016405E140F29010BCF1020FC2F24C
:10294000000080F800C080F0D58398F8FC010328CF
:1029500000F00081022840F0CD83BCF1000F3FF46D
:1029600078AF032088F8FC01C8F804C0D8F8140236
:10297000002800F0BF8302684046614606E198F8EF
:10298000FC01032814D0022840F0B483480640F02C
:10299000BA8300F005BC98F8FC21032A33D0022A40
:1029A00040F0A88341F08000802800F0F983AAE37A
:1029B00001F07F0011F0800708EB001202F1140310
:1029C00008BF02F58273D8F82022002F02F12801F7
:1029D00002EB401601EB401000F1020008BF06F2C6
:1029E0002A200078002818BF012018600220C8E9BA
:1029F0000600C8F8F401C2E90F304FF48070C2F845
:102A0000449010858FE0002840F0CA8348063FF4C8
:102A100020AFD8F8200201F07F0700EB471300EB4E
:102A2000411203F128060B064FEAD11358BF02F5F5
:102A30000A767370377086F8029090F82824012A7D
:102A40003FF401AF01224900002B80F82824C9B2CD
:102A5000026832F8117000F0C6807B060AD532F8A1
:102A6000113040F60F773B4048F2B00710373B4338
:102A700022F8113040F63F7348F2B007C5E098F8ED
:102A80001010D8F8140200290CBF816AC16A0DF138
:102A90000A008847022126E0BCF1050F00F22A83D4
:102AA000DFE80CF00383898F959BD8F8101298F813
:102AB00010004A6822E798F81000002840F01A83B6
:102AC000D8F81402416B0DF10A0088470CE098F821
:102AD0001000002840F00E83D8F81402016B0DF1AD
:102AE0000A00884707214170BDF80A20002A00F03B
:102AF0005783B8F80E12002900F052838A4238BF7B
:102B000011460222ADF80A10C8E90611C8F8F421EE
:102B1000D8F8202202F13C0383E8030211464FF467
:102B2000807021F8280F1068C8E20122022008F105
:102B30000401C8E90622C8F8F401D8F82002C0E967
:102B40000F1201464FF48072C0F8449021F8282FEC
:102B50000068B3E2BCF1000F1DD0D8F80400604556
:102B60003FF477AED8F814124A68C1B24046904795
:102B700040F29010C2F200000178C8F80410D8F8B2
:102B80001402002800F0B6820268404690470028F0
:102B900040F0B0825DE60220C8F80490614688F8F3
:102BA000FC01D8F81402426851E6D8F8101298F8DF
:102BB00010008A68A2E6D8F8101298F81000CA68C7
:102BC0009CE6D8F8101298F810000A6996E6D8F832
:102BD000101298F810004A6990E6D8F8101298F888
:102BE00010008A698AE67B040BD532F8113040F672
:102BF0000F773B404BF2800707F580573B4322F8A5
:102C0000113043F60F734BF2800732F811603340F6
:102C10007B4022F8113080F8289414E6BDF80810A3
:102C200011F00F0548D030F825104FEA4508ADF8EF
:102C30000610BDF90610B1F1FF3F00F39D8130F899
:102C4000181040F68F7211400BEB451220F8181047
:102C500002F50A7192F83232002B00F01D8191F8D2
:102C600000E030F82E30B0F850104FEA4E0C01EB77
:102C7000CE015B0400EB410100F13381D1F80C344B
:102C80006FF39F23002B00F04681591CB9EB510FC5
:102C900000F04281B2F830424908D2F83C72494211
:102CA00000EB440404F5806454F8046B013127F808
:102CB000026BF9D130E100BFBDF808200188D206CF
:102CC0002FD448F60F7211400180B0F850109BF8D5
:102CD000282001EBC20100EB4100D0F804046FF39F
:102CE0009F20CBF84400DBF83C100844CBF83C00B4
:102CF0000020FDF7DDFDDBF840009BF824100029E3
:102D000000F04E82002840F04B82DBF800009BF878
:102D1000241041F08001C9B2A0F84C108BF8249027
:102D20003EE2ADF80610BDF80610090532D4BDF933
:102D30000610B1F1FF3F00F33382018840F68F7235
:102D400011400180B0F850109BF8282201EBC2011D
:102D500000EB4101D1F80C146FF39F210029CBF84F
:102D6000441200F0F3814A1CB9EB520F00F0E981E4
:102D7000BBF82C325208002700EB430000F58063BB
:102D8000DBF83C0253F8276020F817600137BA429D
:102D9000F8D1D8E1B0F850109BF8282201EBC2011D
:102DA00000EB4101D1F80C146FF39F21CBF84412D2
:102DB0000131B9EB510F0FD04B08BBF82C120BF2BD
:102DC0002C425B4200EB410101F5806151F8047B2C
:102DD000013322F8027BF9D1018840F68F7211404D
:102DE0000180DBF85C849BF82C6488F8086208F5A5
:102DF000027A9BF82D3488F809329BF82EC49BF890
:102E00002F444CEA0420A8F80A029BF830149BF8DF
:102E1000312441EA02250122A8F80C52BBF8327491
:102E2000C8E97D2706F01F02A8F80E72022A00F0FA
:102E30004E81012A00F05681002A40F06281092B60
:102E400000F25881DFE813F010000F0056010E0069
:102E500056010D000C0056010B000A006BE551E510
:102E60003AE500E5E9E4DBE498F8FC0100F0FE0057
:102E7000022840F03F81D8F80402022100284FF0D8
:102E8000030008BF012048F80C0FC8F8E811C8E992
:102E90000311D8F814024AE5B0F8503091F800E078
:102EA00003EBCE0100EB4101D1F80C346FF39F230B
:102EB000002B00F00A81591CB9EB510F37D0B2F842
:102EC0002C424908D2F83C72494200EB440404F514
:102ED000806400BF54F8046B013127F8026BF9D10C
:102EE00025E0D1F804346FF39F23A3B1591CB9EB4B
:102EF000510F11D0B2F82E424908D2F83C72494223
:102F000000EB440404F5806454F8046B013127F8A5
:102F1000026BF9D100E0002330F81C1040F60F746A
:102F2000214048F2B0041034214320F81C10D2E9AB
:102F30008F71D2F844621E441F440029C2F84462D3
:102F4000C2F83C7203D0D2F838229A4203D97046B4
:102F5000FDF72DFD10E00EF07F020BEB4213C3E9ED
:102F60008F7103F50A71C3F8449283F8299283F8AC
:102F70002822FFF76FFB00BFBDF80600000640F1F6
:102F80000F81DBF8000048F60F7230F8181011407E
:102F90000BEB451220F8181002F1280192F832309C
:102FA0003BB3097830F82130B0F850704FEAC10CCB
:102FB0004E0007EBC1075B0600EB47073DD4D7F88F
:102FC0000C746FF39F27002F57644FD00137B9EB74
:102FD000570F4BD0158E7B08D76B5C4200EB450535
:102FE00005F5806537F8023B013425F8043BF9D13B
:102FF0003CE0B0F85030097800F2044603EBC1031E
:103000004FEAC10C56F813706FF39F27002F5764D7
:103010003AD00137B9EB570F36D0958D7C08D76B76
:10302000644200EB450505F5806500BF37F8023BBB
:10303000013425F8043BF9D126E0D7F804746FF386
:103040009F27002F576411D00137B9EB570F0DD0D0
:10305000D58D7B08D76B5C4200EB450505F5806597
:1030600037F8023B013425F8043BF9D130F816302B
:1030700040F60F773B404BF2800707F580573B4304
:1030800020F8163000F20446B0F85030634456F889
:1030900013706FF39F275764D2E90F633744002BF7
:1030A000D7630ED001F07F020BEB421101F8282FFD
:1030B0000122C1E90573C1F81C904A70FFF7CAFAF2
:1030C0006EE00846FDF7F4FB6AE000232FE706F008
:1030D0006002202A1BD1D8F814025146826840466B
:1030E00090475DE098F8FC01032808BF11F0FE0F3F
:1030F0003FF48AAB40468021FFF76AF94046002141
:1031000002E006F080014046FFF762F948E0002B3C
:103110003FF435AC012B3FF43EAC032B40D198F883
:10312000FC21032A7FF43BAC00287FF48CAB41F0F8
:10313000800080283FF487AB4046FFF749F9FFF74E
:1031400082BBDBF83C020844CBF83C020020FDF7D0
:103150002EFCDBF80000B0F85010DBF8383200F23B
:103160000C423F2B0BD35F0140F2FF36DB0627EA10
:10317000060708BF07F5F84747F4004304E003F0EB
:10318000010707EB53039B029BB242F8113043F651
:103190000F72018811404BF280025140018000BF44
:1031A000DBF80000B0F944100029ADF80810FFF674
:1031B00035ADB0F84410490535D5B0F844100125B7
:1031C00000224023402621F48061A0F84410002111
:1031D000DBF85C4420462574FEF7CCFF20468021B6
:1031E00000224023C4F81061FEF7C4FF84F8FC51AC
:1031F0002662D4F8180228B1D4F814022179426862
:10320000204690479BF82804012802D1DBF80000F3
:1032100009E0002180228BF82410DBF80000A0F8E0
:103220004C208BF82814B0F84410490442BFB0F881
:10323000441021F48041A0F84410B0F844108904EF
:1032400042BFB0F8441021F40051A0F84410B0F887
:103250004410C90417D5B0F8401021F00401A0F8BB
:103260004010B0F8401021F00801A0F84010DBF841
:103270005C1491F8FD2181F8FC21B0F8441021F490
:103280008051A0F84410B0F84410090529D5B0F8D1
:10329000401041F00801A0F84010B0F8441021F4AB
:1032A0000061A0F84410B0F8401041F00401A0F80B
:1032B0004010B0F84410C90413D4DBF85C1491F842
:1032C000FC2181F8FD21042281F8FC21DBF8181093
:1032D00039B14EF61051CEF200010A6842F00602F2
:1032E0000A60B0F84410890513D5B0F8441021F4F1
:1032F0000071A0F84410DBF85C1491F8FC21032A5B
:1033000007D1D1F81422D2691AB108469047DBF8E8
:103310000000B0F84410C90542BFB0F8441021F4D1
:103320008071A0F8441003B0BDE8F08FFEE7000004
:1033300041F20C0041F6DC41C4F20100C2F200018E
:10334000026882F4005202600A6800BF0B689B1A90
:10335000512BFBD3F4E7000086B042F200074EF693
:103360000C5540F200364FF6FF04C4F20207CEF2CD
:103370000005C0F2FA56386840F01000386028683E
:10338000204030432860FDF76EFA41F2040B40F212
:10339000040AC4F2020BC4F2010ADBF8140040F084
:1033A0000100CBF81400DBF8140000F001000290DB
:1033B0000298DBF8180040F08050CBF81800DBF8DA
:1033C000180000F080500290029828682040304396
:1033D0002860286800202873296868732968A87302
:1033E0002968E874296828752968A8752968E87526
:1033F000DAF80000022161F31A60CAF80000DBF875
:10340000000000F00C00042802D15BF8040C1FE05F
:10341000DBF8000000F00C00082803D1DBF8000006
:10342000C003F2D45BF8040C40F480304BF8040C79
:1034300041F6DC40C2F20000016800BF5BF8042CDA
:10344000920305D40268521A642AF7D900F05CBCD2
:10345000DBF8000000F00C00082800F05584602024
:1034600041F6DC460021C4F24220C2F200060160AF
:10347000316800BF5BF8042C920105D53268521AFE
:10348000022AF7D900F040BCDBF8001021F400312B
:10349000CBF80010DBF8001021F4741101F5E811ED
:1034A000CBF8001001210160306800BF5BF8041CFC
:1034B000890105D43168091A0329F7D300F024BC27
:1034C000386810F0060F0AD13868022161F3020053
:1034D0003860386800F00700022840F01584DBF8F7
:1034E000000020F0F000CBF800005BF8040C800135
:1034F00040F10A84DBF80000022161F3010041F28F
:103500008831CBF800003068DBF8002002F00C02B4
:10351000082A04D03268121A8A42F5D9F4E33868CE
:1035200000F0070003280AD33868022161F3020083
:103530003860386800F00700022840F0E583DBF8C7
:103540000000042161F30A20CBF80000DBF8000042
:1035500020F46050CBF8000041F20020DBF80010AE
:10356000C0F27A0001F00C02082A16D1C1F383429E
:103570000FF29873C9039A5C05D440F60010C0F2AC
:103580003D00504309E0DBF8001050430FF28C720D
:10359000C1F34041515CB0FBF1F0DBF800100FF2D9
:1035A000807240F21C07C2F20007C1F30311515CA4
:1035B000C8403860FDF757F9DBF8000044F6D351F6
:1035C000C1F2620120F48000CBF8000038684EF2AE
:1035D0001007CEF20007A0FB01014FF0FF3000EB17
:1035E00091110020B0EB116F05D17960F021E975E0
:1035F0000721B8603960396841F0040139602968F1
:10360000E87530683168091AB1F5FA7FFAD940F2E5
:10361000641540F26C1440F60009C2F20005C2F2D3
:103620000004C4F20109286894F8008020F0030027
:1036300028605FEAC87040F0968040F26810002170
:10364000C2F20000017040F274101C21C2F20000AE
:10365000FCF792FEDBF8140002214FF00108C007CE
:1036600002BFDBF8140040F00100CBF81400DAF8D8
:1036700000000290029820F001000290029802904F
:10368000029820F0E0600290029802900298CAF836
:103690000000DBF8140040F00400CBF81400DBF865
:1036A000140040075EBFDBF8140040F00400CBF8C4
:1036B0001400D9F8000020F47000C9F80000D9F80F
:1036C000000040F43000C9F80000DBF8140040F0BE
:1036D0000400CBF81400DBF8140040075EBFDBF8F1
:1036E000140040F00400CBF81400D9F8000020F0DA
:1036F0007040C9F80000D9F8000040F03040C9F827
:103700000000DBF8140040F00400CBF81400DBF8F4
:10371000140040075EBFDBF8140040F00400CBF853
:103720001400D9F80C0020F04000C9F80C00D9F8BA
:10373000000020F07060C9F80000D9F8000040F0E7
:103740000060C9F800000120FCF7CCFE0120032135
:10375000FCF7C8FE40F2611084F80080C2F200005D
:1037600080F800800CE040F2611100284FF0010267
:10377000C2F200010A7000F0C7825FEA88702AD4A2
:1037800040F274100021C2F20000018340F2681080
:10379000C2F20000017048F002002070DBF8140053
:1037A00040F48050CBF81400DBF8080040F480505F
:1037B000CBF8080000BF00BF00BF00BFDBF8080067
:1037C00020F48050CBF808000820C7F87402C7F82E
:1037D000F40094F800805FEA887040F1958240F22E
:1037E000681CC2F2000C9CF80010002940F08C828A
:1037F000DBF8141045F200124AF68003C0F22522CD
:10380000C0F2121341F00401CBF81410DBF81410CD
:1038100049075EBFDBF8141041F00401CBF8141027
:10382000D9F8001021F47021C9F80010D9F800105F
:1038300041F44031C9F80010002100BF22FA01F71D
:1038400001319F42FAD840F2701A01210028C2F2D9
:10385000000A8AF8001043F20001C4F201010A884C
:1038600022F040020A804FF020028A804FF4437217
:103870000A8048F0040222700A8842F040020A805E
:10388000296821F00301296040F26111C2F20001B0
:103890000A7842F002020A704FF00001CDE90211ED
:1038A0002ED59CF8000058BB9AF80000012827D1BB
:1038B0004FF4801004226546C9F810009F208DF84F
:1038C000080002A8011DFEF771F8AC46C0B940F22D
:1038D0007410C2F2000000E000BFC1680429FBD1EF
:1038E00040F6CE409DF80D10C2F200000170BDF808
:1038F0000E0040F6D041C2F2000100BA000C088070
:103900002078800709D59CF8000030B99AF80000AB
:10391000012804BF1020C9F8100040F6D04042F240
:103920001901C2F200000088884201BF40F6CE4073
:10393000C2F200000078C22803D0FDF7D7F9FFF7E4
:10394000F7FC0DF10700FDF7FFFA4EF2100A002810
:10395000CEF2000A40F0D8819DF80700800618D406
:10396000FF2001218DF81700B7208DF8080002A86C
:10397000FEF77CF9002840F0C7810DF11700FDF734
:10398000E3FA002840F0C0819DF81700800640F15E
:10399000BB8140F6CC400121C2F200000170FDF76E
:1039A000A5F930683168091A3329FBD340F2086C55
:1039B000C2F2000CDCF8140210B10020CCF81402A2
:1039C00040F2000040F62C0145F60047012200239A
:1039D0004FF0030E0824C8464EF60C59C2F2000000
:1039E0008CF8FC21C2F20001C4F20007CEF20009FB
:1039F000CCF8100202208CF80030C1F85CC4CCF87E
:103A00002012C1E906330B62C1E90074C1E9020E5C
:103A100091F8290460BB81F828344FF0FF37DBF8B8
:103A2000180040F40000CBF81800DBF8180000F490
:103A3000000002900298D9F80000C0F30220C41ED2
:103A400080F0070038BF0024042828BF042007FAAC
:103A500000F00A2727EA0000A0404EF214440001BB
:103A6000CEF2000420704FF48010CAF8F0000F6806
:103A700081F829E444F2FF24B7F8400020400024F4
:103A8000A7F84000002000BF0D192034A88685F853
:103A900028000130B4F5F07F85F82920C5E90E3300
:103AA0002B6485F82B30EFD100220023002000BFCB
:103AB000CD18203385F8280285F82922C5E98E2201
:103AC000C5F8402285F82B22A8860130B3F5F07F97
:103AD000EED101200022A7F84000A7F84020A7F867
:103AE0004420A7F85020B7F8403043F43F43A7F8EC
:103AF000403081F8242081F829041820DCF82012B5
:103B0000A1F82C02582081F8322281F8322081F865
:103B100052208885982081F85222A1F84C00D820A4
:103B2000A1F84C0240F2DC00C2F20000CCF81C020A
:103B300040F23800C2F20000CCF8140291F82804D8
:103B4000012808D00868B0F8403043F43F43A0F89B
:103B5000403081F828243068424600BF3168091A95
:103B60003329FBD340F68C464FF4805041F2883322
:103B700000214CF250371061C2F2000680204FF451
:103B80000072B0614FF08040C6E90007C6E9021339
:103B9000326196F83D20CAB986F83C10DBF818006F
:103BA00040F00100CBF81800DBF8180000F001002D
:103BB00002900298D9F800004EF21440CEF20000B4
:103BC00001724FF08050CAF8F0003068022486F885
:103BD0003D40FEF75EF9012086F83D0096F83C1066
:103BE000012900F0918086F83D4086F83C004FF6B0
:103BF00077724FF0000A3468A1689143A160A16810
:103C000021F00701A16086F83D0086F83CA096F8F7
:103C10003D0008B986F83CA00225204686F83D50B4
:103C2000FEF737F9012708F510514FF20008B146A9
:103C30004FF4805B86F83D7086F83D508C42CFF69D
:103C4000FF78606820F07000606060686060A06865
:103C500020F08000A060A068A06086F83D7086F823
:103C60003C7086F83D5041F20505206A20F00100C5
:103C70002062206A626808BF4FF0FF32A369626069
:103C80008C4223F07302A2616FF00202C4F834A0E8
:103C900008BF6FF00E021040206286F83CA086F844
:103CA0003D7040F6D44741F20406E068C2F20007D6
:103CB00040F00100E060206840F00100206040F228
:103CC0000464C2F2000400BF20780028FCD0B85D74
:103CD0000028F9D0785D0028F6D057F80B0008EAE4
:103CE0004020FCF757FC57F80B0008EA4020FDF78E
:103CF00059F807F806A084F800A007F805A00121EC
:103D0000D9F800004162DFE7FFF712FB0203040568
:103D1000060708090A0B0C0D0E0F10100102000017
:103D2000000000000000000001020304060708096B
:103D3000008002021F00000053544D20202020204C
:103D4000426C756550696C6C204D534420202020D6
:103D5000312E3031783D00080000002000010000C5
:103D600028010008783E000800010020E02500003E
:103D700044010008000000002D1F0008611F00081A
:103D8000711F0008991F0008C11F00080D1F0008BF
:103D90003D1F000800A24A0412010002000000407A
:103DA00083042A57000201020301000004030904EE
:103DB000D124000873240008212500080000000019
:103DC000000000005F2400086924000800000000D3
:103DD0000000000000000000B5240008A72400082F
:103DE000C32400089924000809022000010104C02E
:103DF0003209040000020806500507058102400050
:103E0000000705010240000009022000010104C072
:103E1000320904000002080650050705810200026D
:103E200000070501020002000A060002000000402F
:103E30000100000009072000010104C0320904004C
:103E40000002080650050705810240000007050131
:103E5000024000007F1A0008691A0008831A00084F
:103E6000871A00088B1A00085B1B00087B1A0008E1
:083E7000303D000800000000D5
:04000005080000ED02
:00000001FF
